:100000000C94040D0C94250D0C94250D0C94CB1020
:100010000C94E1100C94250D0C94F7100C940D1118
:100020000C94250D0C94250D0C94250D0C94250D88
:100030000C94250D0C94E2110C94250D0C940510D4
:100040000C94250D0C94E2270C94250D0C94250D91
:100050000C94250D0C94250D0C94250D0C94250D58
:100060000C94250D0C9401A80C94A4100C94250D4F
:100070000C94250D0C94250D0C94266F0C942510D2
:100080000C94250D0C94250D0C94250D0C94250D28
:100090000C94250D0C94250D0C94250D0C94250D18
:1000A0000C94250D0C94250D0C94250D0C94250D08
:1000B0000C94250D0C94250D0C94250D0C94250DF8
:1000C0000C94250D0C94250D0C94250D0C94250DE8
:1000D0000C94250D0C94250D0C94250D0C94250DD8
:1000E0000C94250D535053008040000000F8FE068C
:1000F0000303030306FEF8000000000000000000F8
:10010000000080C0C0E0F0F8FCFEFEFFFF7F7E3EF6
:100110003C1C0000C0E0E0F0E00000000000000037
:100120000000000000000080E0F0F8F8FCFCFC7C1F
:100130003C3810000000000000000000000000003B
:1001400000000000000000C04020202020202040AF
:1001500040800000000000000000000000000000DF
:1001600000000000000000000000000000E1E76661
:100170006C6C6C6CE6C781000000000080E0F0F859
:10018000FCFE7FBF3F1F0F070783C1E1F0F8FCFCB7
:10019000FEFE00000103070F0F1E3C3870F0E0C0A8
:1001A00080000080E0F8FEFFFF3F0F1F0F030000FC
:1001B000000000000000000000000080402020300F
:1001C0001010307E7FFFFBBCC8F0000000F0103044
:1001D000608001063CE0000000000000000000001C
:1001E00000000000000000000000000000FFFF0C05
:1001F0000C0C0C0C0E0703000000F8FEFFFFFFFFC5
:10020000CFC7E1F0F0F8FC7E7F1FFFFFFFFFFFFF8D
:100210007F0700000000000000000000000080C117
:10022000F3FFFEFF7F7FEFC1C080000000000000F1
:1002300000000000000000001C7C7FFD800000002A
:100240008080C0C0E0F040F0F0C0038E7800818272
:10025000424320100807808080404020202030103A
:1002600030202020E05048440020000000FDFD8C9C
:100270008C8C8C8C8C8C8C00000001070707070786
:100280000F1F1F0F0703010000F8FFFFFFFF3F07CD
:1002900000000000000000000080C070BC7E171B42
:1002A0000F07010000000003071F3FFEF8F0E0C049
:1002B00080000000000000000000000000010101BB
:1002C00000F049AB1E1D353532323E3D3C1E1F3C11
:1002D0004CCE8E0E0F0B02161510080808040402EF
:1002E00002030305070309060202000000BFBF3135
:1002F0003131313131B1B1000000000000000000A7
:1003000000000000000000F0FFFFFFFF0F010000F1
:100310000000000000C06018060305020000000095
:1003200000000000000000000000000001010407C0
:1003300007000000000000000000000000000000B6
:1003400000000103020201F92D2E0EFB0101808045
:1003500080808183061870C000000000000000004B
:1003600000000000000000000000000000FFFF0788
:100370000E3870C080FFFF00000000000000000089
:1003800000000000C0F8FF7F1F37070000000000DA
:100390000000707C7F3F380000000000000000007B
:1003A000000000000000000000000000000000004D
:1003B00000000000000080F038180808080808084D
:1003C00008080808080C0C1F101019190909090859
:1003D000080808181018080F0C0E0A0A0A0A0A0C56
:1003E0000C08080C0C0C38E00000000000070700A7
:1003F00000000001030707000000000000000000EB
:1004000000000403060301000000000000000000DB
:1004100000000000000000000000000000000000DC
:1004200000000000000000000000000000000000CC
:100430000000000000E0FF4F40404040404040408E
:1004400040404040404040404040404040404040AC
:10045000404040404040404040404040404040409C
:10046000404040404040403FF80000000000000095
:10047000000000000000000000000000000000007C
:10048000000000000000000000000000000000006C
:10049000000000000000000000000000000000005C
:1004A000000000000000000000000000000000004C
:1004B00000000000E0FF030000000000000000005A
:1004C000000000000000000000000000000000002C
:1004D000000000000000000000000000000000001C
:1004E000000000000000000007FC5350450001021E
:1004F00003040102040301030204010304020104D2
:1005000002030104030202010304020104030203C3
:1005100001040203040102040103020403010301B4
:1005200002040301040203020104030204010304A0
:100530000102030402010401020304010302040294
:100540000103040203010403010204030201010286
:100550000304010302040402030104030201000076
:100560000000000001081E640101081E6401010F63
:1005700032960A0A1E329603010200040506075F3E
:100580002D2E2C00564552533A2056322E30302D07
:1005900062736F6E676973002053564E3A206F7016
:1005A000656E39782D7231313400444154453A201A
:1005B000323031322D30312D32310054494D453AEF
:1005C0002032313A30393A343100204D4F443A200C
:1005D0004C009B4AB746D543873F823FB834093425
:1005E000DE3128318930F82C6D2C00FF010001022A
:1005F00002FF0100010202000001000100020003ED
:100600000303030303030303030303030303032F8E
:100610003332002F31340006000375000009020256
:100620000000000000060201120800081C0808086B
:100630001C080000082200490022080000000000F9
:10064000227F220000000822004900220800000842
:10065000220049002208000000227F220000000042
:1006600000082200490022080000081C0808081C95
:100670000800A653B5514650A94E814FE64E9B4DFA
:100680004100000202020200000241203A007A3AD0
:1006900000793A00783A0040430040430041203A54
:1006A00000500800000000000000006F000007007C
:1006B0000700147F147F14242A7F2A12231308644E
:1006C0006236495522500005030000001C224100FB
:1006D0000041221C0014083E081408083E080800C7
:1006E0005030000008080808080060600000201072
:1006F000080402003E41413E0000427F400062513A
:1007000049460041494936001814127F00274545E3
:1007100039003E494932000179050300364949361E
:10072000000649291E00003636000000563600003B
:100730000814224114141414144122140800020154
:1007400051090606090906007E0909097E7F494903
:1007500049363E414141227F4141221C7F4949495E
:10076000417F090909013E4149497A7F0808087F0C
:1007700000417F41002040413F017F081422417F1A
:10078000404040407F020C027F7F0408107F3E41C2
:1007900041413E7F090909063E4151215E7F091909
:1007A0002946264949493201017F01013F40404025
:1007B0003F1F2040201F3F4030403F631408146318
:1007C00007087008076151494543007F4141000215
:1007D000040810200041417F00040201020440404F
:1007E000404040000102040020545454787F4844A3
:1007F00044383844444420384444487F385454549E
:1008000018087E0901020C5252523E7F08040478F7
:1008100000447D40002040443D007F1028440000FB
:10082000417F40007C041804787C08040478384434
:100830004444387C14141408081414187C7C0804EC
:1008400004084854545420043F4440203C40402075
:100850007C1C2040201C3C4020403C442810284464
:100860000C5050503C4464544C4400083641000045
:10087000007F000000413608000808221C08081C00
:10088000220808A060000000000000000000000036
:10089000000000FEFE0000000000003E7E00007E22
:1008A0003E00006060FEFE6060FEFE606060F098EA
:1008B00098FEFE989818180C1E1E0C80C0E0703828
:1008C0001878FC8EC6E6763C180000000066763E7E
:1008D0001E000000000000E0F0381C0E06000000C2
:1008E00000060E1C38F0E000006060C080F8F88060
:1008F000C0606080808080F8F88080808000000088
:100900000000000000000080808080808080808067
:1009100080000000000000000000000000000080D7
:10092000C0E0703818000000000000000000000067
:1009300000000071710000000000000000000000D5
:1009400000000006067F7F06067F7F06061818193E
:10095000197F7F19190F06181C0E070301307878CC
:10096000301E3F716367663C3C6666000000000015
:1009700000000000000000070F1C3870600000003D
:10098000006070381C0F070000060603011F1F01DE
:10099000030606010101011F1F010101010000669C
:1009A000763E1E000000000101010101010101016C
:1009B0000100003078783000000000181C0E07039A
:1009C00001000000000000F8FC0E06060EFCF80016
:1009D00000181CFEFE000000000000181C0E068619
:1009E000CEFC7800000606868686CEFC7800008065
:1009F000C0E070381CFEFE00007E7E666666E6C6BD
:100A0000860000F8FC8E86868E1C1800000606867E
:100A1000C6E6763E1E000078FCCE8686CEFC7800C8
:100A20000078FCCE8686CEFCF80000307878300066
:100A300000000000003078783000000000000080E6
:100A4000C0E070381C0E06606060606060606060CE
:100A500060060E1C3870E0C0800000181C0E0606F0
:100A60000686CEFC7800001F3F706060703F1F005C
:100A70000060607F7F606000000000787C6E6763CC
:100A800061606000006060616161733F1E0000078B
:100A900007060606067F7F00001838706060703F0A
:100AA0001F00001F3F716161733F1E000000007F47
:100AB0007F0000000000001E3F736161733F1E0055
:100AC0000000006171391D0F0700000C1E1E0C0094
:100AD000000000000066763E1E00000000000001DD
:100AE00003070E1C38706006060606060606060694
:100AF000066070381C0E070301000000000000664D
:100B0000670301000078FCCE8686CEFC780000E00A
:100B1000F0B89C8E8E9CB8F0E0FEFE8686868686B7
:100B2000CEFC78F8FC0E060606060E1C18FEFE0625
:100B300006060E1C38F0E0FEFE8686868686860651
:100B400006FEFE8686868686860606F8FC0E0686E5
:100B500086868E9C98FEFE808080808080FEFE00CF
:100B6000000606FEFE06060000000000000606FE67
:100B7000FE0606FEFE80C0E070381C0E06FEFE007B
:100B800000000000000000FEFE1C38F0F0381CFEE3
:100B9000FEFEFE70E0C0800000FEFEF8FC0E0606C1
:100BA00006060EFCF8000001010101000000007FB4
:100BB0007F0101010101017F7F7F7F6161616161CF
:100BC000733F1E1F3F70606060607038187F7F60E9
:100BD000606070381C0F077F7F61616161616160D7
:100BE000607F7F01010101010100001F3F70606112
:100BF0006161717F3F7F7F0101010101017F7F0002
:100C00000060607F7F606000001838706060703F37
:100C10001F00007F7F0103070E1C3870607F7F601C
:100C2000606060606060607F7F0000010100007FA5
:100C30007F7F7F00000103070E7F7F1F3F70606092
:100C40006060703F1FFEFE8686868686CEFC78F842
:100C5000FC0E060606060EFCF8FEFE8686868686D6
:100C6000CEFC7878FCCE868686868E1C1806060614
:100C700006FEFE06060606FEFE000000000000FE60
:100C8000FEFEFE000000000000FEFEFEFE00000072
:100C9000000000FEFE1E3E70E0C0C0E0703E1E7E02
:100CA000FEC080000080C0FE7E0606060686C6E600
:100CB000763E1E0000FEFE0606060600001838708E
:100CC000E0C08000000000000006060606FEFE00F0
:100CD000006070381C0E0E1C3870600000000000B0
:100CE00000000000007F7F01010101010100001FE1
:100CF0003F7060666E3C387F677F7F0101070F1D84
:100D000039706018387161616161733F1E000000C5
:100D1000007F7F000000001F3F7060606060703FD8
:100D20001F070F1C387070381C0F071F3F70703E74
:100D30003E70703F1F787C0E070303070E7C78001F
:100D40000001037F7F03010000787C6E67636160B0
:100D500060606000007F7F606060600000000000F5
:100D6000000103070E1C180000606060607F7F00B8
:100D70000000000000000000000000606060606093
:100D800060606060600000060E1C3870600000004B
:100D9000006060606060E0C080FEFE80C0E0606077
:100DA000E0C08080C0E06060606060000080C0E003
:100DB0006060E0C080FEFE80C0E060606060E0C017
:100DC000808080F8FC8E86060E1C18E0F03818181B
:100DD000181818F8F8FEFE80C0E06060E0C08000DF
:100DE000006060E6E600000000000000006060E6D1
:100DF000E60000FEFE000080C0E06000000000068B
:100E000006FEFE00000000E0E060E0C0C0E0E0C0E0
:100E100080E0E080C0E06060E0C08080C0E06060B2
:100E20006060E0C0800000000000000000000018CA
:100E30003C7E66666666667F7F7F7F61616060601C
:100E4000703F1F1F3F70606060607038181F3F70F8
:100E500060606061617F7F1F3F76666666666607D9
:100E60000701017F7F010100000000010367666642
:100E70006666763F1F7F7F0101000000007F7F00D4
:100E80000060607F7F606000001838706060703FB5
:100E90001F00007F7F060F1F397060000000006098
:100EA000607F7F606000007F7F0000070700007F99
:100EB0007F7F7F0101000000007F7F1F3F70606027
:100EC0006060703F1FE0E06060606060E0C0808054
:100ED000C0E0606060C080E0E0E0E080C0E06060B2
:100EE000E0C08080C0E0606060606000006060FE24
:100EF000FE606000000000E0E0000000000000E094
:100F0000E0E0E0000000000000E0E0E0E0000000C1
:100F1000000000E0E060E0C080000080C0E060E031
:100F2000E0000000000000E0E0606060606060E001
:100F3000E0E060000080C0787C0E06000000000049
:100F400000FEFE000000000000060E7C78C080005D
:100F500000808080801838F0E0C08080C0E0F038E9
:100F600018808080807F7F06060606060703010141
:100F7000030706060607077F7F7F7F010100000049
:100F8000000101616367666666667E3C1800001FAB
:100F90003F7060607038181F3F7060607038187F55
:100FA0007F070F1C387070381C0F071F3F70703898
:100FB0003870703F1F6070391F0F0F1F397060014C
:100FC000036766666666763F1F6070787C6E67634F
:100FD000616060000001031E3E70600000000000C0
:100FE000007F7F00000000000060703E1E030100D3
:100FF0000001010101181C0F0703010103070F1C69
:101000001801010101630001020408102040804F13
:1010100046464F4E202D2D2D494E563443482036FE
:101020004348203843482031304348313243483127
:101030003443483136434851756965744E6F4B658A
:10104000794E6F726D204C6F6E6720784C6F6E67B3
:1010500053494E474F534D5046494C54446F776E59
:101060004F464620557020206F6666202B3D203A63
:101070003D63683163683263683363683445787010
:10108000202020457846696E6546696E6520204DB2
:10109000656469756D436F61727365524554413182
:1010A000323350504D202020505858202020445397
:1010B0004D32202053494C565F4153494C565F42B4
:1010C00053494C565F43545241433039504F534E6D
:1010D00045472D2D2D783E30783C307C787C663E1F
:1010E00030663C307C667C45444954205052534520
:1010F00054412E5448525765696768744578706F3B
:1011000020205068617365205377746368205768A6
:10111000656E2020437572766520202020202020D7
:1011200041646420202020204D756C7469706C79B6
:101130005265706C616365202B3D2A3D3A3D2D2D33
:101140002D2D202020763E6F66732020763C6F6622
:101150007320207C767C3E6F66737C767C3C6F6669
:1011600073414E44202020204F5220202020205820
:101170004F522020202076313D3D7632207631219D
:101180003D76322076313E7632202076313C763202
:10119000202076313E3D76322076313C3D7632203D
:1011A0002D2D2D2D20202020202020202020547285
:1011B00061696E65722020202020202054726169B0
:1011C0006E657220525544202020547261696E650C
:1011D0007220454C45202020547261696E65722052
:1011E000544852202020547261696E657220414932
:1011F0004C202020496E7374616E74205472696DA6
:1012000020205472696D73324F6666736574732063
:10121000534443415244204C6F6773202020762D65
:101220002D2D2D59656C4F72675265643C3E4E6F93
:101230006E654875622057534848414431414432F5
:10124000414C5452504D53696D706C6520342D43A0
:101250004820542D43757420202020202020562D16
:101260005461696C202020202020456C65766F6ECB
:101270005C44656C7461654343504D202020202000
:10128000202048656C692053657475702020536573
:1012900072766F20546573742020204D656E752022
:1012A0004578697420446F776E202020557052690C
:1012B000676874204C656674544852525544454CD6
:1012C0004549443049443149443241494C474541FC
:1012D00054524E5357315357325357335357345355
:1012E0005735535736535737535738535739535742
:1012F0004153574253574352554420454C4520547F
:1013000048522041494C205031202050322020505A
:101310003320204D41582046554C4C4359433143CE
:10132000594332435943334F46464142535448731D
:10133000544825544874524531524532444154452D
:101340003A54494D453A005B4D454E555D202020AD
:10135000205B455849545D00205B4D454E555D204E
:101360005748454E20444F4E45006672656500441F
:10137000454C455445204D4F44454C00436F7079D2
:10138000696E67206D6F64656C2E2E2E004D6F7632
:10139000696E67206D6F64656C2E2E2E004C6F6138
:1013A00064696E67206D6F64656C2E2E2E004E6131
:1013B0006D650054696D657200452E4C696D6974E8
:1013C0007300452E5472696D73005472696D204923
:1013D0006E6300542D547261636500542D5472691C
:1013E0006D0042656570204374720050726F746FB7
:1013F0000050504D206672616D65006D730053772B
:1014000069746368005472696D7300466164652095
:10141000496E0046616465204F75740028646566F6
:1014200061756C742900436865636B20202020205F
:101430005472696D73004D4F4445004E6F206672C3
:101440006565206578706F21004E6F206672656556
:10145000206D697865722100494E53455254204DE4
:101460004958200045444954204D49582000536FA5
:101470007572636500576569676874004F666673C7
:101480006574005472696D00437572766573004629
:101490002E5068617365005761726E696E67004F08
:1014A0004646004D756C7470780044656C61792017
:1014B000446F776E0044656C617920557000536C01
:1014C0006F772020446F776E00536C6F7720205524
:1014D000700044522F4558504F004D495845520016
:1014E000434F5059205452494D205B4D454E555D58
:1014F000004356005357004120206368616E6E65BB
:101500006C004D61780043616C6962004261720059
:10151000416C61726D0055737250726F746F00434D
:101520004C454152204D49584553205B4D454E5541
:101530005D0042656570657200436F6E7472617321
:10154000740042617474657279207761726E696E9D
:101550006700496E616374697669747920616C61B2
:10156000726D0046696C7465722041444300546892
:10157000726F74746C652072657665727365004D68
:10158000696E7574652062656570004265657020DE
:10159000636F756E74646F776E00466C617368205C
:1015A0006F6E2062656570004C69676874207377A0
:1015B00069746368004C69676874206F66662061AF
:1015C000667465720053706C617368207363726532
:1015D000656E005468726F74746C65205761726E2A
:1015E000696E6700537769746368205761726E692A
:1015F0006E67004D656D6F7279205761726E696E0E
:101600006700416C61726D205761726E696E670090
:101610004E4F204441544120416C61726D0052781C
:10162000204368616E6E656C204F7264004D6F647C
:101630006500536C617665006D6F64652020202520
:1016400020737263004D756C7469706C696572000B
:1016500043616C00454550524F4D207600547269ED
:101660006D2D202B00424700205B4D454E555D20DF
:10167000544F2053544152542020002020205345E1
:1016800054204D4944504F494E5420202000204DB5
:101690004F564520535449434B532F504F545320DA
:1016A00000416C743A00527820426174743A0052DE
:1016B000783A0054783A004864673A005370643AC4
:1016C0000054656D70313A0054656D70323A0052C5
:1016D000504D3A004675656C3A00566F6C74733A1B
:1016E00000416363656C0054656C653A0052535366
:1016F000493A004E4F204441544100544D3100546A
:101700004D32005448520054482500544F54007440
:101710006D72314C6174206D6178202020207573CA
:1017200000746D72314C6174206D696E2020202030
:10173000757300746D7231204A697474657220206B
:101740002020757300746D61696E206D61782020B2
:10175000202020206D73007431306D7320202020F4
:101760002020202020207573004672656520537468
:1017700061636B206D696E2020202062005B4D4507
:101780004E555D20746F2072657365740050504D26
:1017900000434800544D52004D4F44454C004650C4
:1017A00000454550524F4D206C6F77206D656D00A0
:1017B000414C45525400507265737320616E79201C
:1017C0006B657920746F20736B6970005468726F59
:1017D00074746C65206E6F742069646C650052656A
:1017E000736574207468726F74746C6500416C6109
:1017F000726D732044697361626C6564005377692C
:101800007463686573206E6F74206F666600506C39
:1018100065617365207265736574207468656D0019
:101820004D45535341474500707265737320616E97
:1018300079204B65790042616420454570726F6D77
:10184000204461746100454550524F4D20466F72EF
:101850006D617474696E6700454550524F4D206F3D
:10186000766572666C6F77004D454E5553204F5626
:101870004552464C4F5700524144494F205345541E
:101880005550004441544520414E442054494D4553
:1018900000545241494E45520056455253494F4E0D
:1018A000004449414700414E410043414C494252A6
:1018B0004154494F4E004D4F44454C53454C005305
:1018C0004554555000464C494748542050484153D0
:1018D0004500464C49474854205048415345530021
:1018E00044522F4558504F004C494D4954530043E2
:1018F000555256455300435552564500435553548F
:101900004F4D2053574954434845530046554E4385
:101910002053574954434845530053414645545971
:101920002053574954434845530054454C454D4571
:101930005452590054454D504C4154455300535452
:1019400041540044454255470044415441204341DD
:101950005244204552524F52004441544120434189
:101960005244204E4F542050524553454E5400434C
:101970006865636B202F4739584C4F475320666F7B
:101980006C6465720046494C452053595354454D8B
:10199000204552524F52002F4739584C4F47532F32
:1019A0004D30305F3030302E545854009C14324645
:1019B0005A5A4632465AECEC003C649CC4003C64E3
:1019C0009C0000006453696D706C6520342D4348A1
:1019D00000542D43757400562D5461696C00456C9C
:1019E00065766F6E5C44656C746100654343504D71
:1019F0000048656C69205365747570005365727694
:101A00006F2054657374000011241FBECFEFD1E224
:101A1000DEBFCDBF00E00CBF12E0A0E0B2E0E0E42A
:101A2000FBE501E00BBF02C007900D92A63DB10798
:101A3000D9F712E1A6EDB2E001C01D92AF33B107B4
:101A4000E1F70E9436260C949EAD0C940000E82F1E
:101A50008823D9F087FF07C0863E1CF080E68E1BE6
:101A60000895E19504C08B3114F4805C0895E5324B
:101A70001CF48E2F8B5E0895E9323CF4FF27E7FDBE
:101A8000F095E65AFA4F8491089580E208959DE01A
:101A9000899F900111242E543A4FC9010895282F8F
:101AA00030E0220F331F220F331F25553B4FC90152
:101AB000089599E0899F90011124255C3C4FC9014C
:101AC000089595E0899F90011124255A3B4FC90143
:101AD00008959C0140E0683008F041E070E0442344
:101AE00071F0CB010897FC0163E0EE0FFF1F6A95D0
:101AF000E1F7E80FF91FDF01A55FBA4F0AC0FB014C
:101B0000EE0FFF1FEE0FFF1FE60FF71FDF01AD51B6
:101B1000BB4FFD01808120503C4F37FD0EC068E077
:101B20002030360784F0442319F484E090E002C0AA
:101B300088E090E0A80FB91F8C91992787FD9095B8
:101B4000582F442733C0442331F0432FB90170701C
:101B5000660F771F04C0432F4695B9017170842F1B
:101B600090E0FD01E80FF91F8181992787FD90958D
:101B70009B0135952795829FA001839F500D929FD1
:101B8000500D11242081332727FD309580E092E00D
:101B9000861B970B95958795BC01269FC001279FB3
:101BA000900D369F900D1124480F591FCA0169E10D
:101BB00070E00E940CADCB0108959C01633031F1BF
:101BC000643028F4613051F0623090F43CC06530EC
:101BD00039F1653008F1663061F525C0493029F4E6
:101BE00097FD24C0205032400AC097FF2CC026C069
:101BF000493041F41816190624F120503E4F220FA7
:101C0000331F21C018161906CCF01DC097FF1BC04A
:101C1000309521953F4F17C01816190694F00EC045
:101C200097FF0CC003C0181619065CF020E03CEFCB
:101C30000AC067500E94690D9C0105C020E030E099
:101C400002C020E034E0C90108956F927F928F9224
:101C50009F92AF92BF92CF92DF92EF92FF920F933B
:101C60001F933B017C0100E010E08824992464E686
:101C700070E080E090E06619770988099909A80169
:101C800097010E94CDAC5B016C0182E390E0A0E083
:101C9000B0E0A80EB91ECA1EDB1EC801B7010E9423
:101CA000CDAC0E94CDACBC0188279927A40193013B
:101CB0000E94CDACE4E09695879577956795EA9577
:101CC000D1F7A60EB71EC81ED91EC601B50124E65F
:101CD00030E040E050E00E941FADC9011F910F911C
:101CE000FF90EF90DF90CF90BF90AF909F908F903C
:101CF0007F906F900895FF920F931F939C01AB010B
:101D00006115710531F1FF2497FF05C0FF24F3949D
:101D1000309521953F4F57FF10C000E014E0662733
:101D20007727641B750BC801821B930B0E94250E3D
:101D30009801281B390BC90104C0C901BA010E94CE
:101D4000250EFF2011F49C0104C022273327281BF5
:101D5000390BC9011F910F91FF9008951F93162F02
:101D60000E94470DFC01A12FB0E02481332727FDFD
:101D70003095CD01880F991F02C0359527958A951A
:101D8000E2F723703070AE0FBF1F8C91992787FD4B
:101D90009095880F991F880F991F280F391FC90127
:101DA0001F910895FF920F931F93F82E162F00E0B6
:101DB000112391F0812F6F2D0E94AE0E21E0853FFF
:101DC000920754F0282F255F211708F02F5F0F5F2F
:101DD000122F053069F710E0812F1F910F91FF90AE
:101DE0000895E7E7F5E0E80FF11DE491F0E0EE0F6C
:101DF000FF1FEA58F74F20813181C9010895A6E7F6
:101E0000B8E0E6E8F8E060E0862F806480937C002C
:101E100080917A00806480937A00208931898D9145
:101E20009C91119796958795820F931F8E7F11969F
:101E30009C938E9340815181240F351F36952795B1
:101E4000318B208B80917A0084FFFCCF80917A00C7
:101E5000806180937A008091780090917900840F5E
:101E6000951F96958795819391936F5F1296683031
:101E700059F60895E6E7F8E050E0852F80648093F6
:101E80007C0020E030E040E080917A008064809324
:101E90007A0080917A0084FFFCCF80917A00806183
:101EA00080937A008091780090917900280F391FF3
:101EB0004F5F443049F736952795219331935F5F03
:101EC0005830D9F60895E6E7F8E020E0822F8064E4
:101ED00080937C0080917A00806480937A00809166
:101EE0007A0084FFFCCF80917A00806180937A0031
:101EF0008091780090917900880F991F8193919338
:101F00002F5F283019F7089580917B00877F809399
:101F10007B0083E480937C0085E38A95F1F78091D0
:101F20007A00806480937A0080917A0084FFFCCFED
:101F300080917A00806180937A006091780070913E
:101F4000790080917A00806480937A0080917A0091
:101F500084FFFCCF80917A00806180937A00209189
:101F600078003091790080917A00806480937A00C3
:101F700080917A0084FFFCCF80917A008061809309
:101F80007A00409178005091790080917A008064C5
:101F900080937A0080917A0084FFFCCF80917A0050
:101FA000806180937A008091780090917900260F6B
:101FB000371F240F351F280F391F220F331F30936F
:101FC00018062093170680917B00886080937B0021
:101FD0000895A82FB0E0FD01E85DF94F1082882335
:101FE00029F4809132039091330304C08091390326
:101FF00090913A03FD01EE0FFF1FE65DF94F9183CB
:102000008083A25DB94F1C9208951F920F920FB664
:102010000F9211248F93809143088F5F8093430820
:102020008F910F900FBE0F901F901895409143080D
:102030002091B200809143084817C1F7942F80E0A7
:1020400030E0282B392BC90108951F920F920FB64B
:102050000F920BB60F9211242F933F934F935F93E0
:102060006F937F938F939F93AF93BF93CF93DF93A0
:10207000EF93FF93C0919600D091970080917100EB
:102080008F7D8093710078948091460890914708E5
:102090009E01281B390B36952795C901815A9F400F
:1020A0008F5D9E4220F481E0809342082EC04091D3
:1020B0004208842F8150883040F5C90181529340F5
:1020C0008757954000F5E42FF0E0EE0FFF1FE05D2D
:1020D000F74F2C5D354080912403992787FD90951B
:1020E0000A96BC01269FC001279F900D369F900D38
:1020F00011246AE070E00E940CAD718360834F5F31
:102100004093420802C010924208D0934708C093FF
:102110004608F89480917100806280937100FF916D
:10212000EF91DF91CF91BF91AF919F918F917F916F
:102130006F915F914F913F912F910F900BBE0F9038
:102140000FBE0F901F9018951F920F920FB60F920F
:102150000BB60F9211248F93EF93FF93E091800FB2
:10216000EE2351F0E150E093800FF0E0EC58F04F97
:1021700080818093C60005C08091C1008F7D8093CF
:10218000C100FF91EF918F910F900BBE0F900FBE8A
:102190000F901F9018951F920F920FB60F92112457
:1021A0008F9389B18C7011F08C3029F480914408A0
:1021B0008150809344088F910F900FBE0F901F9015
:1021C00018951F920F920FB60F9211248F9389B119
:1021D0008C7011F08C3029F4809144088F5F8093CB
:1021E00044088F910F900FBE0F901F9018951F926B
:1021F0000F920FB60F9211248F938CB1807611F04D
:10220000803629F4809145088F5F809345088F912F
:102210000F900FBE0F901F9018951F920F920FB640
:102220000F9211248F938CB1807611F0803629F4AF
:10223000809145088150809345088F910F900FBE83
:102240000F901F901895E0E4F2E101C03196808173
:102250008535E1F39F012F533241C9010895EF9273
:10226000FF920F931F93062F7A010E94470DDC0106
:1022700010E0FC01E00FF11FC7019595879595953A
:1022800087958083000F111F83E090E0002E02C02D
:10229000880F991F0A94E2F7809514962C91149751
:1022A000822393E0E922FF2402C0EE0CFF1C0A9572
:1022B000E2F78E0D14968C9382E00E9465611F9167
:1022C0000F91FF90EF900895DF93CF93CDB7DEB7D6
:1022D00029970FB6F894DEBF0FBECDBF86ED92E012
:1022E000BE016F5F7F4F0E94A0782B81332727FDAF
:1022F0003095432F532F7BE0220F331F441F551F70
:102300007A95D1F78C81992787FD9095A92FB92FC0
:10231000DC0199278827282B392B4A2B5B2B8A81B4
:10232000992787FD9095A92FB92FF5E0880F991F60
:10233000AA1FBB1FFA95D1F7282B392B4A2B5B2BF1
:102340008981992787FD9095A92FB92FB695A795D3
:1023500097958795282B392B4A2B5B2B8E819927B4
:1023600087FD909580559040AA2797FDA095BA2F9C
:1023700079E1880F991FAA1FBB1F7A95D1F7282BE7
:10238000392B4A2B5B2B8D81992787FD90950196E0
:10239000AA2797FDA095BA2F65E1880F991FAA1F5C
:1023A000BB1F6A95D1F7282B392B4A2B5B2BB90120
:1023B000CA0129960FB6F894DEBF0FBECDBFCF91EC
:1023C000DF91089578941F920F920FB60F920BB67B
:1023D0000F9211242F933F934F935F936F937F93AB
:1023E0008F939F93AF93BF93CF93DF93EF93FF931D
:1023F000F894809106028F5F80930602815090E0EE
:1024000083709070892B11F49DE901C09CE9809143
:1024100070008D7F809370008091B300980F90932F
:10242000B3007894F894C0918400D091850078949A
:1024300090911106992369F080912006882329F450
:102440009093200681E0809321069150909311068D
:1024500021C030911F063323B9F02091200622239A
:1024600099F090E080912106882309F491E09093FF
:102470002106992309F428E020931106992351F0AD
:10248000315030931F0606C010922006109221068C
:1024900010920A0680912106882389F080910A060D
:1024A000882311F490E004C09091480881E09827B7
:1024B00090934808992319F484B5806402C084B5C8
:1024C0008F7B84BD0E94A4700E94CDA580910B06D5
:1024D000826080930B06F89480918400909185002F
:1024E00078948C1B9D0B9093090680930806F894B2
:1024F000809170008260809370007894FF91EF91DA
:10250000DF91CF91BF91AF919F918F917F916F910B
:102510005F914F913F912F910F900BBE0F900FBE87
:102520000F901F9018950F931F938C010E941B6FA3
:1025300082E260E040E258E124E00E946F6980E0BE
:1025400068E1A8010E94AA690E94886D8091080331
:102550000E947E6D1F910F910895809109018095D1
:102560008F73D9F70E94776F0895EF92FF920F93C0
:102570001F938C017B010E941B6F82E260E040EBA5
:1025800057E124E00E946F6980E060E2A8010E94A8
:10259000AA6980E068E2A7010E94AA6980E060E37E
:1025A00046EB57E10E94AA690E94886D809108035A
:1025B0000E947E6D0E94AD121F910F91FF90EF90CF
:1025C0000895EF92FF920F931F93CF93DF93E82E1E
:1025D000882349F480910D0690910E06492F441FDF
:1025E0004427441F06C2992787FD909597FF03C093
:1025F000909581959F4F863109F4F6C18A3030F469
:1026000090E00F960E941670482FEFC18A50282F35
:1026100030E08901000F111F020F131F0D5A1A4FCE
:10262000D80112968C91882311F440E0E2C1F801A0
:102630008281853010F420E007C0D80112968C9179
:10264000883008F4DEC122E0D801EC91E150E73097
:1026500008F449C053C080910F069091100640E0E5
:102660008C239D23892B89F127C080910D069091A1
:102670000E068C2B9D2B90930E0680930D06F80171
:1026800080810E94E112F82ED80111968C910E944F
:10269000E112982FF8018281853019F0863049F4D3
:1026A00003C0FF2089F002C0FF2031F4992321F4F8
:1026B0000BC040E0F91649F041E080910F0690917F
:1026C00010068C2B9D2B0AC040E020910F06309104
:1026D0001006CE0180959095822393239093100647
:1026E00080930F0682C180910C06882309F060C098
:1026F000F0E0EE0FFF1FE150F74F31C0E93018F462
:1027000060E074E057C0E03178F4F0E0EE0FFF1FB6
:10271000DF01AC50BD4FE65EF74F608171818D9156
:102720009C91681B790B09C0E43150F4F0E0EE0F86
:10273000FF1FE65EF74F60817181660F771F3AC019
:10274000E43230F4F0E0EE0FFF1FEB51F74F07C01B
:10275000E63240F4F0E0EE0FFF1FEE51FA4F6081D9
:10276000718128C0E83270F48E2F90E08697FC01CA
:10277000EE0FFF1FE80FF91FEC57F04F8081682F15
:1027800070E018C0E83259F46091CE0F7091CF0F0D
:102790008091AA0F9091AB0F680F791F0BC0E9329F
:1027A00039F46091A00F7091A10F7695679502C0E2
:1027B00060E070E0222309F079C0D8018C918A3260
:1027C0004CF011969C9189E19802C0011124805827
:1027D000934F3FC0F801808189325CF08181992755
:1027E00087FD909580589F4F880F991F880F991FDC
:1027F00030C0D8018C91873244F011968C91992782
:1028000087FD909580589F4F24C0F80180818532C4
:102810003CF08181992787FD90958E599F4F19C073
:10282000D80111969C9189E2980290011124359566
:1028300027953595279597FD915C96FB990F990BF8
:1028400090F9892F992787FD9095F901E81BF90BDD
:10285000CF01D80112962C91223051F0233071F023
:102860002130C1F440E0861797070CF0BEC0BCC011
:1028700040E0681779070CF0B8C0B6C040E0FB0133
:1028800077FF03C0F095E195FF4F8E179F070CF07F
:10289000ACC0AAC040E0FB0177FF03C0F095E19512
:1028A000FF4FE817F9070CF0A0C09EC0D8011196A1
:1028B000EC91E150E73058F480910C06882309F040
:1028C00063C0F0E0EE0FFF1FE150F74F33C0E93077
:1028D00018F4E0E0F4E05AC0E03180F4F0E0EE0FEC
:1028E000FF1FDF01AC50BD4FE65EF74F0190F08156
:1028F000E02D8D919C91E81BF90B0AC0E43158F44E
:10290000F0E0EE0FFF1FE65EF74F0190F081E02D43
:10291000EE0FFF1F3BC0E43230F4F0E0EE0FFF1F7C
:10292000EB51F74F07C0E63248F4F0E0EE0FFF1F1F
:10293000EE51FA4F0190F081E02D28C0E83270F49A
:102940008E2F90E08697FC01EE0FFF1FE80FF91F16
:10295000EC57F04F8081E82FF0E018C0E83259F4CE
:10296000E091CE0FF091CF0F8091AA0F9091AB0F15
:10297000E80FF91F0BC0E93239F4E091A00FF09194
:10298000A10FF695E79502C0E0E0F0E0D8011296BD
:102990008C91893089F08A3018F4883009F507C0A5
:1029A0008A3079F08B3091F08C30D1F414C040E053
:1029B0006E177F07D1F418C040E06E177F07A1F4AF
:1029C00014C040E0E617F70784F40EC040E06E172D
:1029D0007F075CF409C040E06E177F0734F004C045
:1029E00040E0E617F7070CF041E01E1414F081E018
:1029F0004827842FDF91CF911F910F91FF90EF9087
:102A00000895C1E0D0E002C0CC0FDD1F2A95E2F7A7
:102A100080910D0690910E068C239D23892B09F041
:102A20001ACE23CE362F37953327379520E03093B3
:102A30000E0620930D060E94E1120895EF92FF9278
:102A40000F931F93CF93DF93C7E9D5E051E0E52EB5
:102A5000F12C2881222309F189818823F1F090E06B
:102A60000197870102C0000F111F8A95E2F7822F9C
:102A700060E00E94121520913008309131088823BF
:102A800019F0202B312B05C0C80180959095282383
:102A900039233093310820933008229685E0CF3ACD
:102AA000D807B9F6DF91CF911F910F91FF90EF906A
:102AB0000895FF920F931F938C01F62E0E941B6FB7
:102AC00082E260E040EB57E124E00E946F6980E021
:102AD00060E2A8010E94AA698CE168E348E258E13B
:102AE0000E94AA690E94886DFF2011F089E102C04E
:102AF000809108030E947E6D8091160680931106D6
:102B000084E687BD0E94AD128091090180958F7384
:102B100091F480910B0360E00E941215882331F438
:102B200080912203882311F4FF2019F0409AA89580
:102B3000EBCF4098FCCF1F910F91FF9008958091AB
:102B40001D0387FD07C0887329F48DEE97E160E0CF
:102B50000E945915089580911D0386FD0AC00E94A8
:102B60007D63883C910528F481EA97E160E00E944A
:102B7000591508950F931F9380911D038670A1F13D
:102B80008DEF97E16EE078E10E94B51200E0809150
:102B90001D038670823009F401E010E10AC0133190
:102BA00039F0812F8F5060E00E941215801729F4B0
:102BB0001F5F1831A0F31831B9F080910901809599
:102BC0008F7391F406C080912203882351F0409ABC
:102BD00009C080910B0360E00E9412158823B9F7A9
:102BE000F2CF409810E1DDCF1F910F9108950F9320
:102BF0001F93CF93DF9380911D0380FD44C080918C
:102C00001E0390E08170907002E010E0081B190B29
:102C1000F801EE0FFF1FE652FD4FC181D281609691
:102C200087859089C81BD90B0E94630F102F802FB6
:102C30000E94F10EC817D90734F58CEC97E16EEDC0
:102C400077E10E94B5120E94630F812F0E94F10E5E
:102C5000C817D9072CF48091090180958F7349F02A
:102C60000E94AD1210C080912203882351F0409A37
:102C7000EACF80910B0360E00E9412158823B9F718
:102C8000F2CF4098E0CFDF91CF911F910F9108953F
:102C9000AF92BF92CF92DF92EF92FF920F93CF93BA
:102CA000DF938091200384FD6FC080910B0360E06F
:102CB0000E941215882329F480912203882309F4A5
:102CC00057C0409A0E941B6F80E060E048EE50E0E1
:102CD00020E000E00E9447680E94886D8091080310
:102CE0000E947E6D0E94AD120E94FF0E0F5F0032A7
:102CF000D9F7AA24BB2400E0802F0E94F10EC92F2F
:102D0000D0E0AC0EBD1E0F5F0430B1F7F894C09058
:102D1000500FD090510F789480E991E0C80ED91EE1
:102D20001DC00E94FF0EC0E0D0E000E0802F0E9496
:102D3000F10EE92EFF24CE0DDF1D0F5F0430B1F739
:102D40008091090180958F73F9F4CA15DB05E1F4D0
:102D500011C0809122038823A9F0409AF8948091B1
:102D6000500F9091510F7894C816D906D1F60CC027
:102D70004098A8CF80910B0360E00E941215882331
:102D800061F7E7CF4098EACFDF91CF910F91FF90A5
:102D9000EF90DF90CF90BF90AF9008951F93CF93A7
:102DA000DF93C4ECD5E011E08881882351F060E026
:102DB0000E941215882329F0812FDF91CF911F9156
:102DC00008951F5F2D96153079F710E0F5CFDF924B
:102DD000EF92FF920F931F93CF93DF93E82E082F6C
:102DE0000F700650109135031770083008F0CCC0F2
:102DF000E02FE595FF27E7FDF09580911E0390E019
:102E0000880F991F880F991FE80FF91FE25BFA4F8F
:102E1000F490FA940E94CE16682F8F2D0E94D20E45
:102E2000D82E6F2D0E94AE0EBC01112389F477FFBE
:102E300004C088279927861B970B959587959595AC
:102E4000879501968132910584F080E290E00DC073
:102E5000212F332727FD30952150304081E090E02D
:102E600002C0880F991F2A95E2F7982F32E0F316D7
:102E700039F48091340383FF03C094E021E001C062
:102E800020E0492F552747FD509500FF07C0EA0174
:102E9000C60FD71F10E083E89FEF04C0EB01C41BEF
:102EA000D50BF8CF009719F4222329F015C03FEF76
:102EB0008338930749F0C817D9071CF068177907BA
:102EC0004CF08D37910541F08C179D072CF086173B
:102ED000970714F4EC0111E083589F4F8A3F910546
:102EE00009F76C177D0724F4CE37D10544F40CC0E4
:102EF000C617D7074CF48FEFC338D8072CF480914E
:102F0000350386FFEB0111E03EEFCC30D3071CF414
:102F1000CCE0DEEF06C081E0C53FD80714F0C4EF77
:102F2000D1E08D2D6F2DAE010E942F11CE37D1052E
:102F30001CF0CDE7D0E006C03FEFC338D30714F450
:102F4000C3E8DFEFCE0164E070E00E940CADEB015E
:102F5000EC96112341F08E2D0E94957010920A0676
:102F60008091140607C0E6FE03C081E080930A0644
:102F7000809112068093110688E893E16C2F70E02F
:102F80000E940CAD67BDEE248E2DDF91CF911F9175
:102F90000F91FF90EF90DF900895AF92BF92CF9284
:102FA000DF92EF92FF920F931F93CF93DF935C0119
:102FB000A6EAB8E0FC0198E001900D929150E1F78B
:102FC0006F3F19F40E94CE16682F1EEAC12E14E03E
:102FD000D12E0FEFC0E0D0E0E62EFF240894E11CD4
:102FE000F11CFE01EE0FFF1FEE0FFF1FE555FB4F1B
:102FF0002081822F837009F4A2C026952695237024
:1030000030E0802F992787FD90952817390709F41C
:103010008DC08181807E99F0828180FD10C0FE018B
:10302000EE0FFF1FEE0FFF1FE455FB4F80818295CF
:103030008695877090E0E816F90609F077C0FE01E2
:10304000EE0FFF1FEE0FFF1FE455FB4F8081880F2F
:10305000880F880F85958595859561E00E941215EA
:10306000882309F463C0FE01EE0FFF1FEE0FFF1F60
:10307000E555FB4F8081182F169516951370E12F9B
:10308000F0E0EE0FFF1FEA55F74F0190F081E02DC1
:103090008370F7FF03C080FD03C048C081FF46C0B6
:1030A000012FD6016C91772767FD7095CF010E94A3
:1030B0007B0E9C01FE01EE0FFF1FEE0FFF1FE5557B
:1030C000FB4FE0818E2F807F69F06E2F62956F70CD
:1030D000862F90E00B970CF06C5FC90140E00E94D6
:1030E000DD0D9C01B901882777FD8095982FFE01A1
:1030F000EE0FFF1FEE0FFF1FE355FB4F20812695BC
:1031000030E040E050E00E94CDAC24E630E040E00A
:1031100050E00E9441ADE12FFF27E7FDF095EE0F53
:10312000FF1FEA0DFB1DC90120839183219684E0D6
:1031300090E0C80ED91ECE30D10509F052CFDF91F4
:10314000CF911F910F91FF90EF90DF90CF90BF90A4
:10315000AF9008957F928F929F92AF92BF92CF923D
:10316000DF92EF92FF920F931F93CF93DF93782E0E
:103170000BEDA02E02E0B02EEE24CC24DD2411E0D5
:10318000812E912C8C2D843010F0FC2C0DC0E09100
:103190001E03F0E0EE0FFF1FEE0FFF1FEC0DFD1DF5
:1031A000E25BFA4FF490FA940E94F10E9C01D50173
:1031B0008D919C911197281B390B121613062CF434
:1031C0005C96ED91FC915D9705C0D5011E96ED9141
:1031D000FC911F97E436F10514F4E4E6F0E0B90140
:1031E000882777FD8095982FAAE0660F771F881FA4
:1031F000991FAA95D1F79F01442737FD4095542F79
:103200000E9441ADE901BCEF21303B071CF4C0E056
:10321000DCEF06C0E4E020303E0714F0C0E0D4E06C
:103220008091200380FF06C0F2E0FF1619F4D095CC
:10323000C195DF4F0F2D10E0F801EE0FFF1FE15099
:10324000F74FD183C083CE010F964F9740F4C4014E
:103250000F2C02C0880F991F0A94E2F7E82A23E096
:103260002F1508F45DC080910C06882309F058C022
:1032700032E0F30E8F2D90E00197D40102C0AA0F27
:10328000BB1F8A95E2F7CD01816020913008309113
:10329000310882239323892B09F442C0F801EE0FF1
:1032A000FF1FEC5EFC4FF0808F2D807CC9F1EF2D6D
:1032B000EF73F0E0EE0FFF1FDF01A45FBC4FEE5C89
:1032C000F74F608171812D913C91621B730B8827B0
:1032D00077FD8095982FF801EE0FFF1FE652FD4F06
:1032E00023AD332727FD3095432F532F0E94CDACBC
:1032F00022E330E040E050E00E9441ADF694F694C5
:10330000F694F694F694F694EF2DF0E0E130F105A2
:1033100019F0329729F403C0C20FD31F01C0E9018D
:10332000000F111F0455194FF801D183C083089471
:10333000C11CD11C22E030E0A20EB31E37E0C31640
:10334000D10409F01FCF8CEA96E0672D0E94CD17BB
:10335000FF2400E010E0A12C94E0B92EF801E45520
:10336000F94FC080D1808F2D672D0E94D20E6F2D16
:103370000E94AE0EEC0182E0F81671F580913403E4
:1033800083FF2AC08091200380FF03C0D095C195A0
:10339000DF4FBE01882777FD8095982F63587F4FB8
:1033A0008F4F9F4F95012C193D09442737FD4095BC
:1033B000542F0E94CDAC20E038E040E050E00E9465
:1033C00041ADB901CA016030A8E07A07A0E08A07E0
:1033D000A0E09A0741F406C080913006882311F0DE
:1033E000C0E0D0E09E01220F331FF801E050F94FFA
:1033F00031832083F3940E5F1F4FB4E0FB1609F076
:10340000ADCF8E2DDF91CF911F910F91FF90EF9057
:10341000DF90CF90BF90AF909F908F907F90089556
:103420008F929F92AF92BF92CF92DF92EF92FF92D4
:103430000F931F93CF93DF930E94CE16C82E9CEA62
:10344000E92E96E0F92E00E017E0C0E0D0E082E03F
:10345000882E912CAA24A394BC2E80911E0390E068
:10346000817090709401281B390B2C173D0751F186
:103470008C2F6C2D0E94D20ED82EA0920C068C2D73
:103480000E94AA1810920C06F80180819181F70120
:1034900020813181820F931F62E070E00E940CADA9
:1034A000AB01FEEF6C307F071CF44CE05EEF06C012
:1034B00021E0653F720714F044EF51E08D2D6B2D34
:1034C0000E942F11219682E090E0E80EF91E0E5F17
:1034D0001F4FC430D10509F0BFCF82E00E94656163
:1034E000809113068093110684E687BDDF91CF910A
:1034F0001F910F91FF90EF90DF90CF90BF90AF9012
:103500009F908F9008952F923F924F925F926F926B
:103510007F928F929F92AF92BF92CF92DF92EF9263
:10352000FF920F931F93DF93CF93CDB7DEB7299709
:103530000FB6F894DEBF0FBECDBF9F838E83162FCC
:10354000862F0E94AA18409137034823242F30E089
:1035500080914E0790E08227932782239323892B23
:1035600031F0809113068093110684E687BD409365
:103570004E0780E094E09093BB068093BA06909348
:10358000BD068093BC0680910C06882379F180915A
:103590001E0390E08170907022E030E0281B390B10
:1035A0001092AD061092AC062130310521F0109238
:1035B000AF061092AE062230310521F01092B1060E
:1035C0001092B0061092B3061092B206E4ECF6E048
:1035D0001192119226E0E43DF207D1F748E057E05E
:1035E0005A83498324ED36E0FA0146C064EC76E064
:1035F00040E050E0FA01EE5CF74FDA01A652BD4F11
:1036000080819181D2962D913C91D397821B930B0F
:10361000880F991FDB018D939D93BD014E5F5F4F16
:103620004830510539F780913A0890913B08880F4E
:10363000991F9093CD068093CC0680913C08909181
:103640003D08880F991F9093CF068093CE068091F6
:103650003E0890913F08880F991F9093D106809360
:10366000D0068091400890914108880F991F90934F
:10367000D3068093D206B2CF80819181D9018D93F8
:103680009D939D013496B7E0E036FB07A9F780E4EF
:10369000E8E0F7E0DF011D928A95E9F710922F0824
:1036A000BFE04B2EB8E05B2EAFE88A2EA7E09A2E43
:1036B000FFE46F2EF7E07F2E1D82212E3324089425
:1036C000211C311C8D810E94590D6C01FC018081EF
:1036D0008F7159F4EBE54E2EE4E05E2E27E735E0DE
:1036E0003C832B8322243324C2C290E0419794F779
:1036F000D60117969C91892F807FC1F0892F8595DF
:10370000859585958595282F332727FD30951816A3
:103710002CF42216330609F098C208C0882799278E
:10372000821B930B2816390609F48FC2F601838198
:1037300061E00E941215D2019C918823C1F4492FA7
:103740001C92F6019181892F8850823008F07DC249
:1037500087818E70843009F478C2993019F0198607
:10376000188640C020E03CEF398728873BC040E006
:10377000992309F441E081E0D2018C93F601818123
:103780008150A82FB0E0FD01EE0FFF1FE455F94F67
:103790002081318139872887843168F03D81831702
:1037A00050F4AA0FBB1FAA0FBB1FA85FB84F8D9183
:1037B0009C9199878887D6019C91892F807E91F072
:1037C000929596959770892F90E00197E1E0F0E04F
:1037D00002C0EE0FFF1F8A95E2F720912F082E2BD3
:1037E00020932F08D60118968C918823C9F0B9E24E
:1037F0008B0290011124359527953595279587FDE6
:10380000815C86FB880F880B80F9992787FD90954E
:10381000281B390BE885F985E20FF31FF987E88744
:10382000D60116968C911697882329F415968C91BB
:10383000882309F46CC1F4016081718182819381D4
:10384000442391F420E031E040E050E00E9441AD9B
:1038500050954095309521953F4F4F4F5F4FA8842D
:10386000B984A20EB31E5FC0D60117968C9117972C
:103870008E70843049F5EC91EF71F0E0EE0FFF1F90
:10388000EE52F94F60817181882777FD8095982FDE
:1038900020E034E640E050E00E94CDACF4016083CB
:1038A000718382839383D60112962C91222361F037
:1038B000332727FD3095432F532F0E9441ADF4014C
:1038C0002083318342835383D4016D917D918D9107
:1038D0009C9120E031E040E050E00E9441AD5095E5
:1038E0004095309521953F4F4F4F5F4FA884B98445
:1038F000A20EB31EA114B104B1F0F6018581B7FE8A
:1039000002C08F7002C082958F7090E09C0144E6E7
:1039100050E0249FC001259F900D349F900D1124ED
:10392000D3018D939C93F3012081318121153105C1
:1039300099F080911C06882321F02150304031837A
:103940002083D3018D919C91892B31F0F40160810A
:10395000718182819381C2C0A114B10409F4D7C0DE
:10396000D60116968C911697882309F4C0C08091D1
:103970001C06882309F477C012962C91222329F47F
:1039800060E070E080E293E017C0332727FD3095B8
:1039900037FF03C0309521953F4F332727FD3095E2
:1039A000432F532F60E070E080E293E00E9441AD2E
:1039B000C901DA01BC01CD01F60126811A141B04EC
:1039C0000CF52F70422F50E041155105D9F1A4E6B6
:1039D000B0E04A9F90014B9F300D5A9F300D11244B
:1039E000442737FD4095542F0E9441AD79018A014B
:1039F000F40180819181A281B381E80EF91E0A1F32
:103A00001B1F2BC022952F70422F50E041155105EE
:103A1000C9F0A4E6B0E04A9F90014B9F300D5A9F39
:103A2000300D1124442737FD4095542F0E9441AD9D
:103A3000F401E080F18002811381E21AF30A040BA1
:103A4000150B0BC028853985C901AA2797FDA095BC
:103A5000BA2FEE24F82E092F1A2FD401ED92FD92E1
:103A60000D931C931397F40160817181828193817E
:103A70002885398579010027F7FC0095102F1A1445
:103A80001B0464F420E031E040E050E00E9441ADCE
:103A9000E216F3060407150764F01BC020E031E0CE
:103AA00040E050E00E9441AD2E153F054007510710
:103AB00084F448855985CA01AA2797FDA095BA2F95
:103AC000BA2FA92F982F8827F40180839183A2838E
:103AD000B383D4016D917D918D919C9120E031E073
:103AE00040E050E00E9441AD3987288710C0E8854A
:103AF000F985CF01AA2797FDA095BA2FBA2FA92F34
:103B0000982F8827F40180839183A283B383D60101
:103B100014966C911497662341F0888599851196C7
:103B20004C910E94DD0D99878887F601878180FD81
:103B300012C0E181EE2379F0E53068F4F0E0EE0F99
:103B4000FF1FE250F94F8081918128853985280F28
:103B5000391F3987288748855985BA01882777FD15
:103B60008095982FD60112962C91332727FD3095FA
:103B7000432F532F0E94CDAC9B01AC01F6018781EE
:103B80008695877090E08130910571F000810297F1
:103B900009F046C00F71E02FF0E0EE0FFF1FEE0FAF
:103BA000FF1FEC5FF84F37C0D6010C910F7110E08A
:103BB000000F111F000F111F0C5F184FCA01B90130
:103BC00024E630E040E050E00E9441ADCA01B90176
:103BD000F80120813181428153810E94CDACD8010E
:103BE0006D937D938D939C931397F60100810F71D4
:103BF00010E0000F111F000F111F0C5F184FD801AC
:103C00006D917D918D919C9120E034E040E050E0F9
:103C10000E9441ADF801208331834283538315C054
:103C20000F71E02FF0E0EE0FFF1FEE0FFF1FEC5FB4
:103C3000F84F80819181A281B381820F931FA41FCD
:103C4000B51F80839183A283B383FD81FF5FFD83D2
:103C50000894411C511C24E030E0820E931E42E087
:103C600050E0640E751EF03209F02CCD33CDA981E1
:103C7000BA818D909D90AD90BC90C501B40124E6B1
:103C800030E040E050E00E9441ADE981FA812083BC
:103C9000318342835383F101E35FF64FC9012083EF
:103CA0009183D20113962D913C91149711968C918A
:103CB0001197FAE08F02F0011124E851FC4FF987C7
:103CC000E8878C914AE084023001112488E19CEF5E
:103CD000680E791ECF015E2F492F2E173F071CF467
:103CE000C901522F492F852F942F8C0106151705D6
:103CF0000CF4830181149104A104B10479F19801B9
:103D0000442737FD4095542F181419041A041B0436
:103D100064F4A885B985BD01882777FD8095982F23
:103D2000621B730B840B950B0BC0C301AA2797FD75
:103D3000A095BA2F281B390B4A0B5B0BCA01B9019E
:103D4000A50194010E94CDAC20EA36E841E050E0A4
:103D50000E9441ADC901DA014C015D01C80155E085
:103D6000959587955A95E1F7800F911F9801232F1C
:103D7000330F330B2595820F931F000F012F001F68
:103D8000110B801B910B6C01EE24D7FCE094FE2CF0
:103D90008885998525E0959587952A95E1F7E885A9
:103DA000F9858E0F9F1FA30105E0559547950A954C
:103DB000E1F7B301660F672F661F770B460D571D9E
:103DC0009F01232F330F330B2595820F931FEE0F87
:103DD000EF2FEE1FFF0B8E1B9F0B8C01222717FD71
:103DE0002095322FC80CD91CEA1CFB1C0C151D0594
:103DF0002E053F0514F468017901461B570B759594
:103E0000679575956795460F571FCA01AA2797FDB5
:103E1000A095BA2F87017601E816F9060A071B0755
:103E200014F47C018D01D20112968C91882341F00B
:103E300010950095F094E094E11CF11C011D111DFA
:103E4000EB81FC818081882309F160E00E941215DA
:103E50008823E1F0AB81BC8111968C91B9E28B0291
:103E600090011124359527953595279587FD815C1F
:103E700086FB880F880B80F9992787FD9095281B72
:103E8000390B79010027F7FC0095102FEE81FF8197
:103E9000E20DF31DF182E082E981FA813496FA8322
:103EA000E98322E030E0220E331E45E050E0440E6C
:103EB000551E8B819C8102969C838B83E854F7402E
:103EC00009F0D5CE29960FB6F894DEBF0FBECDBF50
:103ED000CF91DF911F910F91FF90EF90DF90CF90E6
:103EE000BF90AF909F908F907F906F905F904F901A
:103EF0003F902F900895CF92DF92EF92FF920F9311
:103F00001F93DF93CF93CDB7DEB7A0970FB6F8948A
:103F1000DEBF0FBECDBF81E080930C060E94CE169F
:103F2000682F8E010F5F1F4FC8010E94831A1092E5
:103F30000C06F801AEE5B4E09E012F5D3F4F808195
:103F400091814CEF883194071CF488E19CEF06C006
:103F500043E0883E940714F088EE93E011969C931A
:103F60008E9332961596E217F30749F700E010E0BA
:103F7000F2E0CF2ED12CE02E80911E0390E08170D4
:103F800090709601281B390B2017310791F0FF2400
:103F90008F2D6E2D0E94AE0E855F914034F48F2DD3
:103FA0006E2D40E050E00E942F11F39445E0F4168E
:103FB00079F70F5F1F4F04301105E9F682E00E9488
:103FC0006561809113068093110684E687BDA096F3
:103FD0000FB6F894DEBF0FBECDBFCF91DF911F911A
:103FE0000F91FF90EF90DF90CF9008952F923F9226
:103FF0004F925F926F927F928F929F92AF92BF92F9
:10400000CF92DF92EF92FF920F931F93DF93CF93A4
:10401000CDB7DEB7C756D0400FB6F894DEBF0FBE9F
:10402000CDBFF8942091500F3091510FA4963FAF1F
:104030002EAFA497789420E0809174089091750831
:10404000A4964EAD5FADA4974817590709F021E03B
:1040500020931C06A4966EAD7FADA497709375084F
:10406000609374080E94CE16A2968FAFA2974091DB
:104070000702481709F475C0282F30E04F3F51F46C
:10408000220F331F2659374F8FEF9FEFD9018D93A2
:104090009C9362C0A42FB0E08DE090E0A89FF00157
:1040A000A99FF00DB89FF00D1124E254FA4F6081E2
:1040B00062956F70289FF001299FF00D389FF00DD9
:1040C0001124E254FA4FE081EF70E61718F0EE2366
:1040D000F9F06E2F81E090E0FC0102C0EE0FFF1FAF
:1040E0002A95E2F79F0102C0880F991FAA95E2F76F
:1040F000280F80916708822B809367088FE892E0F1
:1041000070E00E94F8AC709369086093680824C05E
:10411000AA0FBB1FA659B74F1D921C92F901EE0FB3
:10412000FF1FE659F74F8FEF9FEF9183808381E068
:1041300090E0BC0102C0660F771F2A95E2F79B0151
:1041400002C0880F991F4A95E2F7280F20958091A9
:104150006708822380936708A2967FADA297709329
:10416000070280916708882309F493C0FE01B19685
:1041700080E4DF011D928A95E9F7AAE62A2EA8E0DD
:104180003A2E662477244301EE24FF24A596EFAF50
:10419000A597A696FFAFA697FE01EF59FF4FA896E9
:1041A000FFAFEEAFA8978091670890E00E2C02C099
:1041B000959587950A94E2F780FF41C0CE0101965C
:1041C0006E2D0E94831ACE0101966E2D0E94831AD5
:1041D000D1018D919C915C01CC24DD24A5968FADFD
:1041E000A597A6969FADA6978C012E010894411C19
:1041F000511CF201219131912F01442737FD409547
:10420000542FC601B5010E94CDACD8012D913D912E
:104210004D915C91260F371F481F591FF8012193BC
:104220003193419351938F01A8962EAD3FADA8973E
:10423000E217F307F1F66A0C7B1C8C1C9D1C08949A
:10424000E11CF11C42E050E0240E351E55E0E5165D
:10425000F10409F0A8CF8E010F5D1F4F7E01089475
:10426000E11CF11CE1E6CE2ED12CCC0EDD1ED801D6
:104270006D917D918D919D918D01A40193010E947D
:1042800041ADF701219331937F010C151D0579F79D
:1042900007C0CE010196A2966FADA2970E94831A25
:1042A00020E030E0AE014F5F5F4FF894F901EF5C22
:1042B000F64FDA01A20FB31F8D919C9191838083F9
:1042C00078942E5F3F4F2032310579F780911F0F90
:1042D000882381F48091CC09882329F084EC99E02B
:1042E0000E94896407C08091D709882319F080E073
:1042F0000E946B6180911C06882309F49DC4809103
:104300000306882379F440910309509104098091B0
:10431000200380FF05C020E034E0241B350B15C0CE
:104320009A010AC0E82FF0E0843048F0EE0FFF1F3A
:10433000E75DF64F2081318120503C4F06C0EE0FE3
:10434000FF1FEB5FF64F20813181490156E09694C3
:1043500087945A95E1F7609162086F5F60936208F5
:104360004091600850916108480D591D50936108B3
:10437000409360082091650830916608A4968EAD40
:104380009FADA497821B930B8436910508F487C0D8
:104390002C593F4F30936608209365088091220680
:1043A0009091230601969093230680932206CA01DA
:1043B00070E00E94F8AC4B019B01369527958091E7
:1043C000260690912706820F931F909327068093CD
:1043D00026066115710549F0809124069091250605
:1043E000019690932506809324068091620860913F
:1043F0005E0870915F08680F711D70935F0860938D
:104400005E0840915C0850915D0880916008909131
:104410006108480F591F50935D0840935C08109243
:104420006208109261081092600820916308309130
:104430006408A4968EAD9FADA497821B930B885EF3
:10444000934068F128513C4F3093640820936308EF
:10445000CA010E94F8AC4B0110925D0810925C08F2
:1044600010925F0810925E088091A9069091AA06AA
:10447000FC01EF5CF94F608301969093AA0680934C
:10448000A9068837910520F01092AA061092A90675
:104490008091AB0687FD03C08F5F8093AB065524E8
:1044A00022E0222E4424439494E0392E552039F4FE
:1044B000F0903103A0903203B09033030AC021E0A2
:1044C000521609F063C1F0903803A0903903B09000
:1044D0003A03FF2009F458C1052D10E0F801E85D0A
:1044E000F94F8081882391F44082F801EE0FFF1F7D
:1044F000DF01A75BB74F1D921C92DF01A35BB74F93
:104500001D921C92EF5AF74F11821082F7FC02C0E5
:10451000EF2C02C0E32CEF1833E0E316A9F4F80106
:10452000EE0FFF1FDF01A75BB74F8D919C91119795
:1045300001968D939C93E35BF74F80819181880D69
:10454000991D9183808348C049E14E1508F044C00D
:10455000F801EE0FFF1FDF01A35BB74FE75BF74FDB
:10456000208131818D919C91282B392BF801EB5AB8
:10457000F74F808190E0282B392BF801E95AF74F4B
:10458000808190E0282B392B232B31F4FF208F2DB5
:10459000880F880B842180831F141CF48F2D895170
:1045A00002C08F2D875E60E00E941215282F88239D
:1045B00079F0F801E95AF74F8081882349F4F8012E
:1045C000EB5AF74F90E08081882309F491E09083C3
:1045D000F801E95AF74F2083F801E25DF94F908125
:1045E000892F8F5F8083843608F4CEC093569083E2
:1045F000A114B10461F0F801EE0FFF1FE65DF94F61
:1046000080819181B501681B790B7183608371E0B2
:10461000E71609F47BC082E0E81629F481149104BE
:1046200009F47EC073C093E0E91609F047C0680141
:10463000CC0CDD1C59E4652E58E0752E6C0C7D1CED
:10464000D301ED90FC90E114F10409F469C0F60186
:10465000E35BF74F20813181C901B7010E94F8ACBB
:104660004B016E9DC0016F9D900D7E9D900D11249C
:10467000281B390B31832083F301118210829B01A7
:1046800036952795D601AF5AB74F8D919C911197CA
:10469000280F391F11963C932E932031310508F4D1
:1046A0003FC0F601E65DF94F8081918101969183CB
:1046B0008083205130402D933C9332C0F4E0EF16BC
:1046C00071F48114910411F5F801EE0FFF1FE65DFE
:1046D000F94F8081918118161906C4F021C029E193
:1046E0002E1570F01F141CF48F2D845002C08F2DD6
:1046F0008C5F60E00E941215F801EB5AF74F80833F
:10470000F801EB5AF74F8081882351F0F801EE0F42
:10471000FF1FE65DF94F808191810196918380832F
:10472000D801A85DB94F8C91813019F08230F1F435
:104730000FC0A114B10441F1F801EE0FFF1FE65DB7
:10474000F94F808191818A159B059CF02C9211C0B4
:10475000C501CB96F801EE0FFF1FE65DF94F2081F2
:1047600031818217930714F433E03C93A114B10410
:1047700059F0F801EE0FFF1FE65DF94F808191813E
:10478000A81AB90AB182A082539490CE20912A0629
:1047900030912B0680915A0890915B0882179307FD
:1047A00009F497C080912806813009F078C0809183
:1047B000200382FF53C08091320390913303892BF1
:1047C00009F44CC02E31310549F482E080931F0674
:1047D000809114068093110684E687BD80912A0695
:1047E00090912B06449749F481E080931F068091B5
:1047F00014068093110684E687BD80912A06909165
:104800002B060A9731F4809114068093110684E6F2
:1048100087BD80912A0690912B06049734F48091ED
:1048200014068093110684E687BD8091200383FFE0
:1048300015C080912A0690912B068E31910541F08A
:104840008431910529F08A30910511F0049734F4F0
:1048500082E390E090931E0680931D0680912003D2
:1048600081FF2FC020913203309133032115310590
:1048700049F080912A0690912B06A901481B590BFB
:10488000CA0104C080912A0690912B066CE370E067
:104890000E94F8AC892BA9F48091140604C08230E0
:1048A00081F4809115068093110684E687BD80917E
:1048B000200383FF06C082E390E090931E0680935E
:1048C0001D0680912A0690912B0690935B08809399
:1048D0005A0880916708882309F452C0EAE6F8E094
:1048E000A0E0B0E051E0E52EF12CCC24CA94DC2C01
:1048F0008701A2960FACA29702C0000F111F0A9465
:10490000E2F760916708862F90E00A2E02C0959525
:1049100087950A94E2F780FF2EC040815181209153
:10492000680830916908A2968FADA2978A1779F42A
:10493000CA01809590952817390728F4240F351F50
:104940003183208318C0D182C082601B12C024171B
:10495000350728F4421B530B518340830CC011824E
:104960001082C7010A2E02C0880F991F0A94E2F72D
:10497000681B6093670811963296A530B10509F659
:104980000E941E1580912F09882319F08150809371
:104990002F0980911F03882309F468C080911B06AA
:1049A000833308F463C08091480790914907A09130
:1049B0004A07B0914B070196A11DB11D809348078E
:1049C00090934907A0934A07B0934B0700E010E08B
:1049D000FF248F2D0E94F10E46E0969587954A950B
:1049E000E1F7080F191FF39494E0F91691F78091FD
:1049F0004C0790914D070817190761F010934D0768
:104A000000934C07109248071092490710924A07EA
:104A100010924B07E0904807F090490700914A0731
:104A200010914B0760911F0370E080E090E020E759
:104A300037E140E050E00E94CDAC6E157F05800765
:104A40009107A0F42FE330E040E050E0E222F322AF
:104A5000042315233AE0E316F1040105110531F4AE
:104A6000809115068093110684E687BD80913006FB
:104A7000882319F08150809330060E94DDA80E949F
:104A80001B6F0E947A6F0E94E716182F80911D06F7
:104A900090911E06009729F0019790931E0680932F
:104AA0001D06112389F08091220390E024EF31E06C
:104AB000AC01429FC001439F900D529F900D112465
:104AC00090931E0680931D0680910B0360E00E9468
:104AD0001215882339F480911D0690911E06892BAA
:104AE00009F4A8C0409AE0916209F0E0EE0FFF1FC0
:104AF000EC5AF64F0190F081E02D812F19950E941C
:104B0000886D919B02C0A49A01C0A498A4968EAD12
:104B10009FADA4978F7190708230910521F003971B
:104B200009F08AC070C08091190690911A06892BED
:104B300039F487E00E94F10E90931A0680931906CB
:104B40008091190690911A068C0123E0000F111F25
:104B50002A95E1F7081B190B87E00E94F10E800FE0
:104B6000911F13E0969587951A95E1F77C0100E077
:104B700010E090931A068093190620910A033327B8
:104B800027FD3095432F532FC801B7010E94CDACAC
:104B900028E030E040E050E00E9441ADB4E0EE0C8F
:104BA000FF1C001F111FBA95D1F7E20EF31E041F60
:104BB000151F209117063091180640E050E0C801FB
:104BC000B7010E9441AD20931B0680915908805E79
:104BD00080935908882381F580910903281760F58F
:104BE000233350F1809116068093110684E687BD29
:104BF0008091200383FF20C082E390E090931E0603
:104C000080931D0619C080911D0386958695869513
:104C1000877090E0BC01660F771F660F771F680FE3
:104C2000791F625A7A4F82E196E045E050E00E9497
:104C30005CAD02C0409857CFC959DF4F0FB6F8940A
:104C4000DEBF0FBECDBFCF91DF911F910F91FF90BF
:104C5000EF90DF90CF90BF90AF909F908F907F901C
:104C60006F905F904F903F902F9008950F931F93F8
:104C7000DF93CF93CDB7DEB761970FB6F894DEBF61
:104C80000FBECDBF9FEF91B912B887EC84B98FE307
:104C900085B987B980EC88B91AB88CEF8BB91AE05E
:104CA0001DB985EF8EB910BA11BA80E183BB94BBF0
:104CB00080E3809301018FED809302011092040143
:104CC00090930501109207011092080180E88093EB
:104CD0000A018FE780930B010E944A6D80E4809364
:104CE0007C0085E880937A0088E080937B0087E0F1
:104CF0008093B1008CE98093B30080917000836051
:104D0000809370008BE085BD81E084BD10938100AD
:104D100082E880939100809171008062809371009D
:104D2000EDB7FEB7329785E502C08083319742E147
:104D3000EF33F40709F0C8F789ED98E5909355092A
:104D4000809354098BE99AE490935709809356090C
:104D500089E10E947E6D78940E94AAA80E949762C1
:104D60001091070304B603FC0CC00E9448160E9471
:104D7000AB150E94630F0E94F7150E94BA150E949E
:104D80009F150E94AD120E94CE16682F81E399E014
:104D90000E94831A809108030E947E6D80912203F5
:104DA00090E024EF31E0AC01429FC001439F900DA1
:104DB000529F900D112490931E0680931D068091A2
:104DC0000703181719F081E00E946561CE01019672
:104DD0000E94C17989818C568E878B8181508D8705
:104DE0008C818C878E818B878F818A878885898744
:104DF0008D8181508F87CE0109960E9499786093AA
:104E0000D6027093D7028093D8029093D9021DBA2C
:104E100084E180936A0080E68CBB80E58093690022
:104E20008CE08CBB8CE68DBB0E945E282DE088E177
:104E300090E00FB6F894A895809360000FBE209381
:104E400060000E9416108C01E0912103F0E0EE0F4B
:104E5000FF1FE050FE4F0190F081E02D19950E9458
:104E6000840F0E94F61F80910B06833019F4A895D9
:104E700010920B060E94161020910606309107062C
:104E8000801B910B8217930708F4C90190930706C2
:104E900080930606D6CF6F927F928F929F92AF92A9
:104EA000BF92CF92DF92EF92FF920F931F93CF9317
:104EB000DF938091350385FD04C0E12C34E0F32EAF
:104EC00003C0E12C25E0F22E409134034595459531
:104ED00045954595440F485F9091360384E69802C6
:104EE000D0011124A85ABD4F882499248A1A9B0AFC
:104EF00080910206992787FD909528EE33E0829FE6
:104F0000B001839F700D929F700D112468537045FE
:104F10006A1B7B0B01E319E0EEEAF8E050E0440F76
:104F2000551F440F551F5F01A40EB51ECC24DD2470
:104F3000CE18DF0888E5682E82E0782E6A1A7B0A90
:104F40001DC0C601E801288139812C153D0534F0CA
:104F50002E153F0514F0C70101C0C901805A964FB4
:104F60009401281B390B620F731F860D971D9183C7
:104F70008083B383A28334960E5F1F4FEA15FB052F
:104F800001F7FA01E255F74F71836083B383A2837F
:104F90003496F0930B02E0930A028EEA98E0909325
:104FA000090280930802DF91CF911F910F91FF902A
:104FB000EF90DF90CF90BF90AF909F908F907F90B9
:104FC0006F9008951F920F920FB60F920BB60F922B
:104FD00011241F932F933F934F935F936F937F936E
:104FE0008F939F93AF93BF93EF93FF9310918400A0
:104FF000E0910802F09109028081918190938900EB
:105000008093880090938B0080938A008091FE08A3
:10501000882331F080E3809380001092FE0806C060
:1050200080E28093800081E08093FE089F012E5FE4
:105030003F4F309309022093080280910A02909119
:105040000B0228173907A9F48091350382958F70D8
:1050500081708093FE0880916F008D7F80936F0038
:105060000E944B27F89480916F00826080936F00BC
:10507000789480910406811710F4109304068091AF
:105080000506181710F41093050680910B06816031
:1050900080930B06FF91EF91BF91AF919F918F91FC
:1050A0007F916F915F914F913F912F911F910F9041
:1050B0000BBE0F900FBE0F901F9018950E944B27AC
:1050C0008FEF9FEF90938B0080938A0080E3809313
:1050D0008000EFE6F0E080818260808308959C018B
:1050E000E0916209F0E0EE0FFF1FEC5AF64F3183BA
:1050F00020838FEBF9011995809112068093110698
:1051000084E687BD08959C0190916209E92FF0E043
:10511000E25AF64F809163098083E92FEF5FE093B5
:105120006209E53040F09093620988E698E160E01A
:105130000E9459150895809112068093110684E605
:1051400087BDF0E0EE0FFF1FEC5AF64F318320834E
:105150008FEBF90119950895E0916209EE23E1F0D2
:10516000E150E0936209809112068093110684E673
:1051700087BD10926409F0E0DF01A25AB64F8C910E
:1051800080936309EE0FFF1FEC5AF64F0190F081F8
:10519000E02D8EEB1995089588E698E160E00E9475
:1051A000591508958F929F92AF92BF92CF92DF923E
:1051B000EF92FF920F931F93CF93DF93182F7B01F2
:1051C0004A015901C02E84FD04C044E0D42E05E0FC
:1051D00005C01F70106635E0D32E04E08D2D80666B
:1051E000181761F08D2D8064181741F090912E09E9
:1051F000191674F4133611F0133451F4E7012196A3
:1052000080911206809311068AE587BD802F19C010
:10521000802F8066181761F0802F8064181741F086
:1052200019160CF085C0123619F0123409F080C03E
:10523000E701219780911206809311068FE687BDC2
:105240008D2D90E00E941670882351F0CC27DD2729
:10525000CE19DF09802F0E9495708D2D0E949570C8
:105260008114910491F481E0A816B10471F4103610
:1052700061F410922E09C0E0D0E0E114F10411F4C1
:10528000C1E0D0E080E60E94957080915109909134
:105290005209C81BD90BAC16BD0654F4812F0E94CD
:1052A000957080911406809311068AE587BDE5010B
:1052B000C815D90554F4812F0E9495708091140669
:1052C000809311068FE687BDE401CE15DF0501F15D
:1052D000209789F4812F0E948870F7FE06C0809184
:1052E0001406809311068AE505C080911406809308
:1052F00011068FE687BD8C2D83700E946561EC16C8
:10530000FD0614F08FEF01C081E08093530902C0C5
:1053100010925309CE01DF91CF911F910F91FF9011
:10532000EF90DF90CF90BF90AF909F908F900895B7
:10533000E70196CF0F93772767FD7095552747FDB7
:105340005095332727FD309501E00E94D2280F9118
:1053500008950F93772767FD7095552747FD509562
:10536000332727FD309502E00E94D2280F9108953F
:10537000FF920F931F93F82E162F042F80E860E002
:10538000412F50E0202F0E94CD6B1A3010F485E79A
:1053900001C08FE660E04FE2202F0E94A4681A301F
:1053A00010F485E701C08FE64F2D50E04F5F5F4F4F
:1053B00060E0202F0E94CD6B1F910F91FF90089508
:1053C000BF92CF92DF92EF92FF920F931F93CF93F2
:1053D000DF93D82EB62EEA01622F10925209109256
:1053E000510980914408F0906509F81A99F080916C
:1053F0004408809365091092660980912E09181659
:105400004CF48F2D992787FD9095909352098093A6
:105410005109FF244EE6D416B1F480912E098F5F16
:1054200080932E098150181614F410922E09809141
:105430002E0918163CF480916309882319F48FEF24
:1054400080932E09FF248091510990915209892B54
:1054500089F08091220390E024EF31E0FC01E29F8B
:10546000C001E39F900DF29F900D112490931E06B2
:1054700080931D06209711F429E762C0809163098B
:10548000882309F045C080913009882309F040C085
:105490009B2DFF2071F080912E0987FF0AC0262FD7
:1054A00021508B2D8F1987FD80E0982F28170CF441
:1054B000922FF4E6DF1651F045E6D41699F4BB209E
:1054C00011F09B2D01C0962F91500CC02B2D30E078
:1054D000862F90E001972817390714F090E002C05A
:1054E0009B2D9F5F292F332727FD30958B2D90E033
:1054F0002817390711F442E00CC0F901EE0FFF1F25
:10550000EC0FFD1F859194910E946F2880E092C15D
:1055100040E0109230098B2D0E94B82920911A0F7B
:105520002E508B2D90E0019666EF7FEF0E940CAD20
:10553000CB01880F991F880F991F860F971F280F7F
:1055400084EC99E0622F0E942C630115110511F47F
:1055500060E00AC0809163099E2D8E1508F4982F93
:10556000F801E90FF11D649150912E0915160CF404
:1055700059C030916309809164094DC01F1464F5CE
:10558000FA94482F4F5F0115110519F4E0E0F0E09F
:1055900009C0832FE31608F48E2DF801E80FF11DE2
:1055A000E491F0E0842F90E0E817F9078CF5232FC1
:1055B0002F5FC21610F040E02CC00115110511F448
:1055C00040E008C08C2DEC1408F48E2DF801E80F93
:1055D000F11D44912C2D0BC0F394482F415088238A
:1055E000B9F4232F2150332321F420E040E0FF249D
:1055F00010C00115110511F480E008C0822FE216D9
:1056000008F48E2DF801E80FF11D8491482F01C098
:10561000232F322F842FFF2009F0B0CF309363095E
:105620008093640980E6D816C9F18D15B8F0E3E4DB
:10563000DE1609F4B1C0ED1540F0F1E2DF16E9F134
:1056400042E4D41609F0D6C07EC084E4D81609F42A
:1056500050C0E5E4DE1609F0CDC05FC0F4E6DF1609
:1056600009F44CC0FD1548F042E6D41609F470C0A8
:1056700083E6D81609F0BEC093C0E1E8DE16D1F08B
:10568000FFEBDF1629F045E6D41609F0B3C04AC097
:1056900010926409109263098FEF09C0662309F420
:1056A000A9C010922E0915160CF4A4C081E08093B5
:1056B0002E09A0C010922E090BC015161CF41092D2
:1056C0002E0998C080916309882311F0209719F45E
:1056D0000E94AC288FC0809112068093110684E648
:1056E00087BD109264091092630980E68093520F7F
:1056F00085C080916409861709F47CC0012B09F4E8
:1057000079C015160CF476C080916409861710F4E0
:105710008F5F13C0109264096AC080916409882366
:1057200009F468C0012B09F465C015160CF462C0B9
:1057300080916409882321F081508093640957C0C7
:105740006093640954C0809163098C1509F452C0B8
:1057500015160CF44FC0809163098C1510F080E091
:1057600001C08F5F0115110509F46EC0982FE8166E
:1057700008F49E2DF801E90FF11DE491EF3F09F0C7
:1057800063C0EBCF809163098E1508F4E82E0E0DEF
:10579000111DF801049126C080916309882351F1FD
:1057A000151644F180916309882311F48C2D01C0F2
:1057B00081500115110509F450C0982FE81608F41E
:1057C0009E2DF801E90FF11DE491EF3F09F045C06E
:1057D000EBCF809163098E1508F4E82E0E0D111D94
:1057E000F8010491901708F4092F0093640980E6EA
:1057F0008093520FCD2B11F456E001C057E0409139
:105800006309442319F410922D0913C0242F30E0AA
:1058100080912D09281B3109852F90E0821793076D
:1058200014F4451B04C0121613061CF0415040939B
:105830002D0981E0DF91CF911F910F91FF90EF90A3
:10584000DF90CF90BF900895809363099091640991
:105850000115110509F096CF08C080936309909156
:1058600064090115110509F0B4CF00E0BECFCF9255
:10587000EF920F931F93C02E00E010E0EE240E94E1
:10588000E0291F910F91EF90CF9008950F93062F6D
:1058900060E040E050E020E00E94372C0F91089536
:1058A0000F93942F222311F400E001C002E043E0A3
:1058B000949FA0011124415F5F4E23E00E94AE6DD2
:1058C0000F910895DC01FB0105C09C9180818D93AF
:1058D000919341504423C9F70895CF92DF92EF92FC
:1058E000FF920F931F93CF93DF93F82E80E060E039
:1058F00044E359E122E00E946F698F2D6BE042ED95
:1059000055E02CE008E00E94372C882309F467C09A
:1059100010916309115080E8F816A9F480E80E94FC
:10592000957089E180932F09173018F4812F0E9418
:1059300074AA173011F40E9403AA80911306809371
:10594000110684E687BDEE2428E0F22EC12EDD2468
:10595000C7FCD09440912D094E0D473071F1C42FF2
:10596000D0E0CC16DD0611F020E101C022E1AE014D
:105970004F5F5F4F82E16F2D02E00E94C56A809108
:105980002F09882319F4CC16DD0609F000E0AE01DA
:10599000440F551F4C0F5D1F440F551F440F551FDB
:1059A0004A5B5D4E88E16F2D2CE00E94AE6D88E071
:1059B000F80EE39487E0E81669F688E38F1578F02F
:1059C00080912F09882321F4173011F422E001C0BF
:1059D00020E086E06F2D4FE155E10E946F69DF9175
:1059E000CF911F910F91FF90EF90DF90CF9008958E
:1059F0002F923F924F925F926F927F928F929F92DF
:105A0000AF92BF92CF92DF92EF92FF920F931F93CC
:105A1000DF93CF93CDB7DEB762970FB6F894DEBFB2
:105A20000FBECDBF8E8780E060E04AE259E122E000
:105A30000E946F698E856AE042ED55E02CE00AEE27
:105A400015E09DE0E92EBDE0CB2E0E94E0298823E1
:105A500009F446C3209163092D878E8582528430D4
:105A600038F480912E0918161CF484E08093D00F2E
:105A700080912E0918161CF032E03C8702C081E0AC
:105A80008C87A4E8BFE0BF83AE83A3EF4A2EA5E0D6
:105A90005A2E1A8A198AE4E0F0E0FB87EA8723E0AD
:105AA00030E03987288782E090E09D838C83A1E0F5
:105AB000B0E0BB83AA83BD856B2E772467FC70940E
:105AC000EC85E868EF87FC85F068F88B80912D09FC
:105AD0002A818217C0F40A811B81081B1109F3E097
