:100000000C944D0D0C946E0D0C946E0D0C944C11C3
:100010000C9462110C946E0D0C9478110C948E114A
:100020000C946E0D0C946E0D0C946E0D0C946E0D64
:100030000C946E0D0C9463120C946E0D0C9486103F
:100040000C946E0D0C94B82A0C946E0D0C946E0DDD
:100050000C946E0D0C946E0D0C946E0D0C946E0D34
:100060000C946E0D0C94F4AB0C9425110C946E0D45
:100070000C946E0D0C946E0D0C9419730C94A610C8
:100080000C946E0D0C946E0D0C946E0D0C946E0D04
:100090000C946E0D0C946E0D0C946E0D0C946E0DF4
:1000A0000C946E0D0C946E0D0C946E0D0C946E0DE4
:1000B0000C946E0D0C946E0D0C946E0D0C946E0DD4
:1000C0000C946E0D0C946E0D0C946E0D0C946E0DC4
:1000D0000C946E0D0C946E0D0C946E0D0C946E0DB4
:1000E0000C946E0D535053008040000000F8FE0643
:1000F0000303030306FEF8000000000000000000F8
:10010000000080C0C0E0F0F8FCFEFEFFFF7F7E3EF6
:100110003C1C0000C0E0E0F0E00000000000000037
:100120000000000000000080E0F0F8F8FCFCFC7C1F
:100130003C3810000000000000000000000000003B
:1001400000000000000000C04020202020202040AF
:1001500040800000000000000000000000000000DF
:1001600000000000000000000000000000E1E76661
:100170006C6C6C6CE6C781000000000080E0F0F859
:10018000FCFE7FBF3F1F0F070783C1E1F0F8FCFCB7
:10019000FEFE00000103070F0F1E3C3870F0E0C0A8
:1001A00080000080E0F8FEFFFF3F0F1F0F030000FC
:1001B000000000000000000000000080402020300F
:1001C0001010307E7FFFFBBCC8F0000000F0103044
:1001D000608001063CE0000000000000000000001C
:1001E00000000000000000000000000000FFFF0C05
:1001F0000C0C0C0C0E0703000000F8FEFFFFFFFFC5
:10020000CFC7E1F0F0F8FC7E7F1FFFFFFFFFFFFF8D
:100210007F0700000000000000000000000080C117
:10022000F3FFFEFF7F7FEFC1C080000000000000F1
:1002300000000000000000001C7C7FFD800000002A
:100240008080C0C0E0F040F0F0C0038E7800818272
:10025000424320100807808080404020202030103A
:1002600030202020E05048440020000000FDFD8C9C
:100270008C8C8C8C8C8C8C00000001070707070786
:100280000F1F1F0F0703010000F8FFFFFFFF3F07CD
:1002900000000000000000000080C070BC7E171B42
:1002A0000F07010000000003071F3FFEF8F0E0C049
:1002B00080000000000000000000000000010101BB
:1002C00000F049AB1E1D353532323E3D3C1E1F3C11
:1002D0004CCE8E0E0F0B02161510080808040402EF
:1002E00002030305070309060202000000BFBF3135
:1002F0003131313131B1B1000000000000000000A7
:1003000000000000000000F0FFFFFFFF0F010000F1
:100310000000000000C06018060305020000000095
:1003200000000000000000000000000001010407C0
:1003300007000000000000000000000000000000B6
:1003400000000103020201F92D2E0EFB0101808045
:1003500080808183061870C000000000000000004B
:1003600000000000000000000000000000FFFF0788
:100370000E3870C080FFFF00000000000000000089
:1003800000000000C0F8FF7F1F37070000000000DA
:100390000000707C7F3F380000000000000000007B
:1003A000000000000000000000000000000000004D
:1003B00000000000000080F038180808080808084D
:1003C00008080808080C0C1F101019190909090859
:1003D000080808181018080F0C0E0A0A0A0A0A0C56
:1003E0000C08080C0C0C38E00000000000070700A7
:1003F00000000001030707000000000000000000EB
:1004000000000403060301000000000000000000DB
:1004100000000000000000000000000000000000DC
:1004200000000000000000000000000000000000CC
:100430000000000000E0FF4F40404040404040408E
:1004400040404040404040404040404040404040AC
:10045000404040404040404040404040404040409C
:10046000404040404040403FF80000000000000095
:10047000000000000000000000000000000000007C
:10048000000000000000000000000000000000006C
:10049000000000000000000000000000000000005C
:1004A000000000000000000000000000000000004C
:1004B00000000000E0FF030000000000000000005A
:1004C000000000000000000000000000000000002C
:1004D000000000000000000000000000000000001C
:1004E000000000000000000007FC5350450001021E
:1004F00003040102040301030204010304020104D2
:1005000002030104030202010304020104030203C3
:1005100001040203040102040103020403010301B4
:1005200002040301040203020104030204010304A0
:100530000102030402010401020304010302040294
:100540000103040203010403010204030201010286
:100550000304010302040402030104030201000076
:100560000000000001081E640101081E6401010F63
:1005700032960A0A1E329603010200040506075F3E
:100580002D2E2C00564552533A2056322E30302D07
:1005900062736F6E676973002053564E3A206F7016
:1005A000656E39782D7231333700444154453A2015
:1005B000323031322D30312D32350054494D453AEB
:1005C0002032323A31303A353000204D4F443A2013
:1005D0004C48009E4EBE4ACA34DC478E438943BF16
:1005E000381038E63514347533E42F452F00FF01F9
:1005F00000010202FF0100010202000001000100EF
:1006000002000303030303030303030303030303BE
:1006100003032F3332002F3134000600037500002E
:100620000902020000000000060201120800081C76
:100630000808081C080000082200490022080000E1
:10064000000000227F22000000082200490022084A
:10065000000008220049002208000000227F22003A
:1006600000000000082200490022080000081C08C1
:1006700008081C0800A957B8554954AC528453E9DE
:10068000529E514100000202020200000241203A43
:10069000007A3A00793A00783A004043004043003B
:1006A00041203A00500800000000000000006F00E8
:1006B0000007000700147F147F14242A7F2A1223C6
:1006C0001308646236495522500005030000001CDF
:1006D0002241000041221C0014083E081408083E74
:1006E0000808005030000008080808080060600092
:1006F000002010080402003E41413E0000427F40BD
:1007000000625149460041494936001814127F00E1
:1007100027454539003E4949320001790503003635
:10072000494936000649291E0000363600000056A9
:100730003600000814224114141414144122140821
:1007400000020151090606090906007E0909097E11
:100750007F494949363E414141227F4141221C7F28
:10076000494949417F090909013E4149497A7F08C0
:1007700008087F00417F41002040413F017F08146D
:1007800022417F404040407F020C027F7F040810DE
:100790007F3E4141413E7F090909063E4151215EAC
:1007A0007F09192946264949493201017F01013F44
:1007B0004040403F1F2040201F3F4030403F6314D7
:1007C00008146307087008076151494543007F41D9
:1007D000410002040810200041417F000402010290
:1007E000044040404040000102040020545454782A
:1007F0007F484444383844444420384444487F388F
:1008000054545418087E0901020C5252523E7F087B
:1008100004047800447D40002040443D007F1028BF
:10082000440000417F40007C041804787C080404E4
:100830007838444444387C14141408081414187C80
:100840007C080404084854545420043F4440203C8D
:100850004040207C1C2040201C3C4020403C442840
:100860001028440C5050503C4464544C440008360A
:10087000410000007F000000413608000808221CEB
:1008800008081C220808A06000000000000000000A
:10089000000000000000FEFE0000000000003E7EA0
:1008A00000007E3E00006060FEFE6060FEFE606054
:1008B00060F09898FEFE989818180C1E1E0C80C0C8
:1008C000E070381878FC8EC6E6763C180000000010
:1008D00066763E1E000000000000E0F0381C0E06A8
:1008E00000000000060E1C38F0E000006060C080D0
:1008F000F8F880C0606080808080F8F88080808018
:1009000000000000000000000000808080808080E7
:1009100080808080000000000000000000000000D7
:10092000000080C0E07038180000000000000000E7
:1009300000000000000071710000000000000000D5
:1009400000000000000006067F7F06067F7F060687
:10095000181819197F7F19190F06181C0E070301A3
:10096000307878301E3F716367663C3C66660000F5
:1009700000000000000000000000070F1C3870603D
:10098000000000006070381C0F070000060603011D
:100990001F1F01030606010101011F1F01010101C3
:1009A000000066763E1E0000000001010101010109
:1009B0000101010100003078783000000000181CAF
:1009C0000E070301000000000000F8FC0E06060EF2
:1009D000FCF80000181CFEFE000000000000181CBF
:1009E0000E0686CEFC7800000606868686CEFC784B
:1009F000000080C0E070381CFEFE00007E7E66664F
:100A000066E6C6860000F8FC8E86868E1C180000FE
:100A1000060686C6E6763E1E000078FCCE8686CEAA
:100A2000FC78000078FCCE8686CEFCF8000030789A
:100A300078300000000000003078783000000000BE
:100A4000000080C0E070381C0E066060606060606E
:100A500060606060060E1C3870E0C0800000181CEA
:100A60000E06060686CEFC7800001F3F70606070A0
:100A70003F1F000060607F7F606000000000787CA6
:100A80006E676361606000006060616161733F1E5A
:100A900000000707060606067F7F00001838706012
:100AA00060703F1F00001F3F716161733F1E0000B7
:100AB00000007F7F0000000000001E3F7361617333
:100AC0003F1E000000006171391D0F0700000C1E61
:100AD0001E0C00000000000066763E1E00000000B4
:100AE00000000103070E1C387060060606060606A5
:100AF000060606066070381C0E07030100000000A1
:100B0000000066670301000078FCCE8686CEFC7884
:100B10000000E0F0B89C8E8E9CB8F0E0FEFE868669
:100B2000868686CEFC78F8FC0E060606060E1C1895
:100B3000FEFE0606060E1C38F0E0FEFE8686868661
:100B400086860606FEFE8686868686860606F8FC6D
:100B50000E068686868E9C98FEFE80808080808031
:100B6000FEFE00000606FEFE060600000000000075
:100B70000606FEFE0606FEFE80C0E070381C0E066D
:100B8000FEFE0000000000000000FEFE1C38F0F039
:100B9000381CFEFEFEFE70E0C0800000FEFEF8FC89
:100BA0000E060606060EFCF8000001010101000019
:100BB00000007F7F0101010101017F7F7F7F616173
:100BC000616161733F1E1F3F706060606070381824
:100BD0007F7F60606070381C0F077F7F616161619B
:100BE000616160607F7F01010101010100001F3F21
:100BF0007060616161717F3F7F7F010101010101CF
:100C00007F7F000060607F7F606000001838706048
:100C100060703F1F00007F7F0103070E1C3870606B
:100C20007F7F60606060606060607F7F00000101C6
:100C300000007F7F7F7F00000103070E7F7F1F3F43
:100C40007060606060703F1FFEFE8686868686CE7E
:100C5000FC78F8FC0E060606060EFCF8FEFE8686FC
:100C6000868686CEFC7878FCCE868686868E1C1894
:100C700006060606FEFE06060606FEFE000000004C
:100C80000000FEFEFEFE000000000000FEFEFEFE74
:100C9000000000000000FEFE1E3E70E0C0C0E070DC
:100CA0003E1E7EFEC080000080C0FE7E0606060658
:100CB00086C6E6763E1E0000FEFE0606060600001C
:100CC000183870E0C080000000000000060606062C
:100CD000FEFE00006070381C0E0E1C3870600000B4
:100CE00000000000000000007F7F01010101010100
:100CF00000001F3F7060666E3C387F677F7F010198
:100D0000070F1D39706018387161616161733F1E92
:100D1000000000007F7F000000001F3F70606060E7
:100D200060703F1F070F1C387070381C0F071F3F83
:100D300070703E3E70703F1F787C0E070303070EF5
:100D40007C78000001037F7F03010000787C6E67E0
:100D500063616060606000007F7F606060600000D1
:100D6000000000000103070E1C18000060606060B6
:100D70007F7F0000000000000000000000006060B5
:100D800060606060606060600000060E1C3870602B
:100D9000000000006060606060E0C080FEFE80C017
:100DA000E06060E0C08080C0E06060606060000083
:100DB00080C0E06060E0C080FEFE80C0E0606060F7
:100DC00060E0C0808080F8FC8E86060E1C18E0F083
:100DD000381818181818F8F8FEFE80C0E06060E0B7
:100DE000C08000006060E6E6000000000000000037
:100DF0006060E6E60000FEFE000080C0E0600000EB
:100E000000000606FEFE00000000E0E060E0C0C05A
:100E1000E0E0C080E0E080C0E06060E0C08080C0D2
:100E2000E060606060E0C080000000000000000042
:100E30000000183C7E66666666667F7F7F7F616124
:100E4000606060703F1F1F3F7060606060703818A6
:100E50001F3F7060606061617F7F1F3F76666666DE
:100E60006666070701017F7F0101000000000103A2
:100E70006766666666763F1F7F7F0101000000009F
:100E80007F7F000060607F7F6060000018387060C6
:100E900060703F1F00007F7F060F1F3970600000E9
:100EA000000060607F7F606000007F7F00000707B8
:100EB00000007F7F7F7F0101000000007F7F1F3FD8
:100EC0007060606060703F1FE0E06060606060E0E4
:100ED000C08080C0E0606060C080E0E0E0E080C092
:100EE000E06060E0C08080C0E06060606060000042
:100EF0006060FEFE606000000000E0E000000000B6
:100F00000000E0E0E0E0000000000000E0E0E0E0E1
:100F1000000000000000E0E060E0C080000080C051
:100F2000E060E0E0000000000000E0E06060606081
:100F30006060E0E0E060000080C0787C0E060000A9
:100F400000000000FEFE000000000000060E7C789D
:100F5000C0800000808080801838F0E0C08080C0B1
:100F6000E0F03818808080807F7F0606060606073E
:100F7000030101030706060607077F7F7F7F010144
:100F8000000000000101616367666666667E3C18CA
:100F900000001F3F7060607038181F3F7060607005
:100FA00038187F7F070F1C387070381C0F071F3FE1
:100FB0007070383870703F1F6070391F0F0F1F3905
:100FC000706001036766666666763F1F6070787CB6
:100FD0006E6763616060000001031E3E7060000088
:100FE000000000007F7F00000000000060703E1ED7
:100FF0000301000001010101181C0F070301010397
:10100000070F1C18010101016300010204081020F0
:1010100040804F46464F4E202D2D2D494E5634438D
:101020004820364348203843482031304348313245
:101030004348313443483136434851756965744EED
:101040006F4B65794E6F726D204C6F6E6720784CD8
:101050006F6E6753494E474F534D5046494C54426B
:101060006173204F464620486175746F6666202B79
:101070003D203A3D636831636832636833636834A6
:10108000457870202020457846696E2046696E209C
:1010900020204D6F79656E2047726F732020524576
:1010A000544131323350504D202050585820204464
:1010B000534D322050504D3136504F534E45472DF1
:1010C0002D2D783E30783C307C787C663E30663C16
:1010D000307C667C45444954205052534554412E3F
:1010E00047415A5461757820204578706F20205010
:1010F0006861736520496E746572205175616E6414
:1011000020436F75726265202020202020416A6F85
:1011100075746572204D756C7469706C7952656D6B
:10112000706C6163652B3D2A3D3A3D2D2D2D2D20A0
:101130002020763E6F66732020763C6F66732020F9
:101140007C767C3E6F66737C767C3C6F6673455420
:1011500020202020204F552020202020584F55208F
:1011600020202076313D3D7632207631213D763289
:101170002076313E7632202076313C763220207641
:10118000313E3D76322076313C3D7632202D2D2D7C
:101190002D2020202020202020202045636F6C61FE
:1011A00067652020202020202045636F6C616765E3
:1011B0002044455220202045636F6C6167652050B4
:1011C000524620202045636F6C6167652047415A75
:1011D00020202045636F6C6167652041494C2020C9
:1011E00020496E7374616E74205472696D202054AE
:1011F00072696D73324F666673657473205344432E
:10120000415244204C6F6773202020762D2D2D2DC8
:1012100059656C4F72675265643C3E4E6F6E65480F
:1012200075622057534848414431414432414C543F
:1012300052504D3420566F6965732073696D706C20
:1012400065436F75707572652047617A202020456F
:101250006D70656E6E6167652056202020456C6557
:10126000766F6E5C44656C74612020654343504D1D
:10127000202020202020202020436F6E662E4865ED
:101280006C69636F202020536572766F20546573FC
:1012900074202020202D2D2D2020203132302020A0
:1012A0002031323058202031343020202039302075
:1012B000202020204D656E752045786974202042DD
:1012C0006173204861757444726F69744761756316
:1012D0006847415A44495250524649443049443182
:1012E00049443241494C47454154524E535731537A
:1012F0005732535733535734535735535736535741
:10130000375357385357395357415357425357431D
:10131000444952205052462047415A2041494C20CE
:101320005031202050322020503320204D41582071
:1013300046554C4C43594331435943324359433347
:101340004F4646414253475A73475A25475A7452AB
:101350004531524532444154453A54494D453A008D
:101360005B4D454E555D202020205B455849545D1E
:1013700000205B4D454E555D5175616E64205052A5
:101380004554006C69627265005355505052494D86
:101390004552204D4F44454C4500436F7069652EC2
:1013A0002E2E004465706C6163656D656E742E2E23
:1013B0002E004368617267656D656E742E2E2E0077
:1013C0004E6F6D004368726F6E6F00452E4C696DF5
:1013D0006974657300452E5472696D7300547269A7
:1013E0006D20496E6300542D547261636500542D65
:1013F0005472696D00426970204374720050726FBC
:10140000746F0050504D206672616D65006D730001
:10141000496E746572005472696D7300466164654B
:1014200020496E0046616465204F7574002864652C
:101430006661757429005665726966202020202037
:101440005472696D73005479706520646520506C26
:10145000617465617500436F6C6C656374696600E7
:1014600053776173682052696E67004469726563DF
:1014700074696F6E205052460044697265637469E6
:101480006F6E2041494C00446972656374696F6EE8
:1014900020434F4C004D4F4445004D617820657806
:1014A000706F2061747465696E7421004D617820DD
:1014B0006D6978616765732061747465696E742104
:1014C00000494E5345524552204D49584147452009
:1014D00000454449544552204D4958414745200054
:1014E000536F757263650054617578004F6666735B
:1014F0006574005472696D00436F757262650050C7
:101500002E566F6C00416C65727465004F46460044
:101510004D756C747078005265746172642042611C
:101520007300526574617264204861757400526181
:101530006C656E74697220486175740052616C65E7
:101540006E746972204261730044522F4558504FA7
:10155000004D495845555200434F5049455220547B
:1015600052494D205B4D454E555D00435600535743
:1015700000412020766F6965004D61780043616C01
:1015800069620042617200416C61726D6500557361
:101590007250726F746F0045464641434552204D6C
:1015A0004958414745535B4D454E555D0042697072
:1015B00065757200436F6E74726173746500416C7F
:1015C00061726D6520426174746572696500416C79
:1015D00061726D6520696E61637469766974650016
:1015E00046696C7472652041444300496E766572A9
:1015F00073696F6E2047617A0042697020742E6DA6
:10160000696E75746573004269702020612072658F
:10161000626F75727300466C617368207175616EDC
:10162000642062697000496E7465722065636C6144
:1016300069726167650045636C6169722E206F662F
:101640006620617072657300456372616E20642765
:101650006163637565696C00416C657274652047F0
:10166000617A00416C6572746520496E7465720020
:10167000416C65727465204D656D6F6972650041DE
:101680006C6572746520416C61726D6500504153E8
:1016900020444520444F4E4E45455320416C6172D5
:1016A0006D65004F7264726520566F6965732052D4
:1016B00078004D6F6465004573636C617665006DFD
:1016C0006F64652020202520737263004D756C7453
:1016D00069706C696575720043616C0045455052D4
:1016E0004F4D2076005472696D2D202B004247002B
:1016F0005B4D454E555D504F555220444542555423
:1017000000202020534554204E455554524520205A
:10171000200020424F55474552204D414E434845F9
:10172000532F504F54532000416C743A005278208C
:10173000426174743A0052783A0054783A0048642E
:10174000673A005370643A0054656D70313A005442
:10175000656D70323A0052504D3A004675656C3AEC
:1017600000566F6C74733A00416363656C00546596
:101770006C653A00525353493A004E4F204441544D
:101780004100544D3100544D320047415A005448F5
:101790002500544F5400746D72314C6174206D619A
:1017A0007820202020757300746D72314C61742094
:1017B0006D696E20202020757300746D7231204A8F
:1017C000697474657220202020757300746D6169DE
:1017D0006E206D61782020202020206D73004672DD
:1017E000656520537461636B206D696E2020202035
:1017F00062005B4D454E555D706F7572207265736A
:1018000065740050504D00434800544D52004D4FF8
:1018100044454C4500505600454550524F4D206CB4
:101820006F77206D656D00414C4552544500417005
:10183000707579657A2073757220746F7563686549
:101840000047617A2070617320E0207A65726F0032
:101850005265696E697469616C6973657A206C653B
:1018600000416C61726D65732044657361637469D6
:101870007665657300537769746368657320656E78
:10188000636C656E63686573005265696E6974693F
:10189000616C6973657A206C6573004D45535341E3
:1018A000474500546F7563686520706F75722063DB
:1018B0006F6E74696E756572004261642045457093
:1018C000726F6D204461746100466F726D61747453
:1018D00061676520454550524F4D00446570617306
:1018E00073656D656E7420454550524F4D004D45F2
:1018F0004E5553204F564552464C4F5700434F4E7E
:1019000046494720524144494F00444154452045EF
:10191000542048455552450045434F4C41474500EA
:1019200056455253494F4E004449414700414E41AC
:101930000043414C4942524154494F4E0053454C9B
:101940004D4F444500534554555000504841534570
:1019500020444520564F4C005048415345532044A5
:101960004520564F4C00434F4E462E48454C4900AB
:1019700044522F4558504F004C494D49544553004F
:10198000434F555242455300434F5552424500493B
:101990004E54455253205045525300494E544552DF
:1019A0005320464F4E4354494F4E5300494E5445E1
:1019B00052532053454355524954450054454C45D4
:1019C0004D45545249450047414241524954530004
:1019D000535441540044454255470044415441202A
:1019E00043415244204552524F52004441544120F9
:1019F00043415244204E4F542050524553454E547B
:101A000000436865636B202F4739584C4F4753207C
:101A1000666F6C6465720046494C452053595354B7
:101A2000454D204552524F52002F4739584C4F4791
:101A3000532F4D30305F3030302E545854009C14AA
:101A400032465A5A4632465AECEC003C649CC4007A
:101A50003C649C0000006453696D706C6520342DFB
:101A6000434800542D43757400562D5461696C0031
:101A7000456C65766F6E5C44656C746100654343CC
:101A8000504D0048656C692053657475700053654E
:101A900072766F2054657374000011241FBECFEF5F
:101AA000D1E2DEBFCDBF00E00CBF12E0A0E0B2E0AB
:101AB000E6E2F3E601E00BBF02C007900D92A63DFF
:101AC000B107D9F712E1A6EDB2E001C01D92AE3721
:101AD000B107E1F70E94D5280C9491B10C94000055
:101AE000E82F8823D9F087FF07C0863E1CF080E6E8
:101AF0008E1B0895E19504C08B3114F4805C089529
:101B0000E5321CF48E2F8B5E0895E9323CF4FF27FA
:101B1000E7FDF095E65AFA4F8491089580E2089522
:101B20009DE0899F900111242E543A4FC9010895D8
:101B3000282F30E0220F331F220F331F25553B4F34
:101B4000C901089599E0899F90011124255C3C4FBB
:101B5000C901089595E0899F90011124255A3B4FB2
:101B6000C90108959C0140E0683008F041E070E050
:101B7000442371F0CB010897FC0163E0EE0FFF1FD7
:101B80006A95E1F7E80FF91FDF01A55FBA4F0AC0B8
:101B9000FB01EE0FFF1FEE0FFF1FE60FF71FDF0128
:101BA000AD51BB4FFD01808120503C4F37FD0EC031
:101BB00068E02030360784F0442319F484E090E094
:101BC00002C088E090E0A80FB91F8C91992787FD8B
:101BD0009095582F442733C0442331F0432FB90147
:101BE0007070660F771F04C0432F4695B90171705E
:101BF000842F90E0FD01E80FF91F8181992787FD6F
:101C000090959B0135952795829FA001839F500D4C
:101C1000929F500D11242081332727FD309580E0BD
:101C200092E0861B970B95958795BC01269FC00176
:101C3000279F900D369F900D1124480F591FCA0100
:101C400069E170E00E94FFB0CB0108959C01633010
:101C500031F1643028F4613051F0623090F43CC0CE
:101C6000653039F1653008F1663061F525C04930DD
:101C700029F497FD24C0205032400AC097FF2CC0A1
:101C800026C0493041F41816190624F120503E4F61
:101C9000220F331F21C018161906CCF01DC097FF64
:101CA0001BC0309521953F4F17C01816190694F0A8
:101CB0000EC097FF0CC003C0181619065CF020E098
:101CC0003CEF0AC067500E94B20D9C0105C020E0A5
:101CD00030E002C020E034E0C90108956F927F92A5
:101CE0008F929F92AF92BF92CF92DF92EF92FF922C
:101CF0000F931F933B017C0100E010E0882499249E
:101D000064E670E080E090E0661977098809990937
:101D1000A80197010E94C0B05B016C0182E390E0D2
:101D2000A0E0B0E0A80EB91ECA1EDB1EC801B701B4
:101D30000E94C0B00E94C0B0BC0188279927A401AE
:101D400093010E94C0B0E4E09695879577956795DA
:101D5000EA95D1F7A60EB71EC81ED91EC601B50159
:101D600024E630E040E050E00E9412B1C9011F912A
:101D70000F91FF90EF90DF90CF90BF90AF909F902A
:101D80008F907F906F900895FF920F931F939C0107
:101D9000AB016115710531F1FF2497FF05C0FF24E8
:101DA000F394309521953F4F57FF10C000E014E0A9
:101DB00066277727641B750BC801821B930B0E9453
:101DC0006E0E9801281B390BC90104C0C901BA0164
:101DD0000E946E0EFF2011F49C0104C022273327BD
:101DE000281B390BC9011F910F91FF9008951F9374
:101DF000162F0E94900DFC01A12FB0E02481332703
:101E000027FD3095CD01880F991F02C03595279584
:101E10008A95E2F723703070AE0FBF1F8C9199271F
:101E200087FD9095880F991F880F991F280F391FDC
:101E3000C9011F910895FF920F931F93F82E162F3B
:101E400000E0112391F0812F6F2D0E94F70E21E009
:101E5000853F920754F0282F255F211708F02F5F48
:101E60000F5F122F053069F710E0812F1F910F913E
:101E7000FF900895E7E7F5E0E80FF11DE491F0E049
:101E8000EE0FFF1FEB58F74F20813181C9010895F4
:101E9000A5E7B8E0E5E8F8E060E0862F806480938D
:101EA0007C0080917A00806480937A002089318957
:101EB0008D919C91119796958795820F931F8E7F98
:101EC00011969C938E9340815181240F351F369536
:101ED0002795318B208B80917A0084FFFCCF8091F5
:101EE0007A00806180937A008091780090917900E7
:101EF000840F951F96958795819391936F5F1296A6
:101F0000683059F60895E5E7F8E050E0852F8064E1
:101F100080937C0020E030E040E080917A00806493
:101F200080937A0080917A0084FFFCCF80917A00C0
:101F3000806180937A008091780090917900280FD9
:101F4000391F4F5F443049F73695279521933193D8
:101F50005F5F5830D9F60895E5E7F8E020E0822F7A
:101F6000806480937C0080917A00806480937A0002
:101F700080917A0084FFFCCF80917A008061809309
:101F80007A008091780090917900880F991F819351
:101F900091932F5F283019F7089580917B00877FF8
:101FA00080937B0083E480937C0085E38A95F1F73E
:101FB00080917A00806480937A0080917A0084FF17
:101FC000FCCF80917A00806180937A0060917800E4
:101FD0007091790080917A00806480937A0080917A
:101FE0007A0084FFFCCF80917A00806180937A0030
:101FF000209178003091790080917A0080648093FC
:102000007A0080917A0084FFFCCF80917A00806111
:1020100080937A00409178005091790080917A0005
:10202000806480937A0080917A0084FFFCCF809155
:102030007A00806180937A00809178009091790095
:10204000260F371F240F351F280F391F220F331F6C
:10205000309317062093160680917B00886080934A
:102060007B000895A82FB0E0FD01E95DF94F1082D3
:10207000882329F4809132039091330304C0809126
:10208000390390913A03FD01EE0FFF1FE75DF94F11
:1020900091838083A35DB94F1C920895AF92BF9244
:1020A000CF92DF92EF92FF920F931F93CF93DF9324
:1020B0005B016C0100E010E8C0E0D0E8EE24FF24F2
:1020C0009E0140E050E0CA01B9010E94C0B0A616CE
:1020D000B706C806D90610F4C027D127169507956C
:1020E0000894E11CF11C80E1E816F10461F4CE01D2
:1020F000DF91CF911F910F91FF90EF90DF90CF90E4
:10210000BF90AF900895C02BD12BDACF1F920F92C2
:102110000FB60F9211248F93809142088F5F8093A6
:1021200042088F910F900FBE0F901F90189540910D
:1021300042082091B200809142084817C1F7942FBD
:1021400080E030E0282B392BC90108951F920F92AF
:102150000FB60F920BB60F9211242F933F934F930C
:102160005F936F937F938F939F93AF93BF93CF931F
:10217000DF93EF93FF93C0919600D09197008091E9
:1021800071008F7D809371007894809145089091C3
:1021900046089E01281B390B36952795C901815A9F
:1021A0009F408F5D9E4220F481E0809341082EC0C5
:1021B00040914108842F8150883040F5C9018152F7
:1021C00093408757954000F5E42FF0E0EE0FFF1F96
:1021D000E15DF74F2C5D354080912403992787FD01
:1021E00090950A96BC01269FC001279F900D369FAF
:1021F000900D11246AE070E00E94FFB0718360834B
:102200004F5F4093410802C010924108D0934608A6
:10221000C0934508F89480917100806280937100AA
:10222000FF91EF91DF91CF91BF91AF919F918F91EE
:102230007F916F915F914F913F912F910F900BBEC6
:102240000F900FBE0F901F9018951F920F920FB610
:102250000F920BB60F9211248F93EF93FF93E0919F
:10226000BF0FEE2351F0E150E093BF0FF0E0ED54CB
:10227000F04F80818093C60005C08091C1008F7DA2
:102280008093C100FF91EF918F910F900BBE0F9043
:102290000FBE0F901F9018951F920F920FB60F92BE
:1022A00011248F9389B18C7011F08C3029F48091B6
:1022B00043088150809343088F910F900FBE0F9079
:1022C0001F9018951F920F920FB60F9211248F93A3
:1022D00089B18C7011F08C3029F4809143088F5FA4
:1022E000809343088F910F900FBE0F901F90189509
:1022F0001F920F920FB60F9211248F938CB180769C
:1023000011F0803629F4809144088F5F809344084F
:102310008F910F900FBE0F901F9018951F920F92E4
:102320000FB60F9211248F938CB1807611F0803606
:1023300029F4809144088150809344088F910F9034
:102340000FBE0F901F901895EFE7F2E101C0319694
:1023500080818535E1F39F012E573241C9010895EF
:10236000EF92FF920F931F93062F7A010E94900D18
:10237000DC0110E0FC01E00FF11FC7019595879586
:10238000959587958083000F111F83E090E0002EC4
:1023900002C0880F991F0A94E2F7809514962C9139
:1023A0001497822393E0E922FF2402C0EE0CFF1C65
:1023B0000A95E2F78E0D14968C9382E00E94586580
:1023C0001F910F91FF90EF900895DF93CF93CDB7BA
:1023D000DEB729970FB6F894DEBF0FBECDBF86EDEE
:1023E00092E0BE016F5F7F4F0E94937C2B81332769
:1023F00027FD3095432F532F7BE0220F331F441FBF
:10240000551F7A95D1F78C81992787FD9095A92F33
:10241000B92FDC0199278827282B392B4A2B5B2BD6
:102420008A81992787FD9095A92FB92FF5E0880F0C
:10243000991FAA1FBB1FFA95D1F7282B392B4A2BBE
:102440005B2B8981992787FD9095A92FB92FB69588
:10245000A79597958795282B392B4A2B5B2B8E8137
:10246000992787FD909580559040AA2797FDA095C4
:10247000BA2F79E1880F991FAA1FBB1F7A95D1F750
:10248000282B392B4A2B5B2B8D81992787FD909523
:102490000196AA2797FDA095BA2F65E1880F991F8D
:1024A000AA1FBB1F6A95D1F7282B392B4A2B5B2B10
:1024B000B901CA0129960FB6F894DEBF0FBECDBF91
:1024C000CF91DF91089578941F920F920FB60F92DB
:1024D0000BB60F9211242F933F934F935F936F93FB
:1024E0007F938F939F93AF93BF93EF93FF93F89452
:1024F000809106028F5F80930602815090E0837086
:102500009070892B11F49DE901C09CE980917000C5
:102510008D7F809370008091B300980F9093B300EB
:10252000789490911006992369F080911F06882372
:1025300029F490931F0681E0809320069150909398
:10254000100621C030911E063323B9F020911F06DA
:10255000222399F090E080912006882309F491E0ED
:1025600090932006992309F428E0209310069923DC
:1025700051F0315030931E0606C010921F06109283
:1025800020061092090680912006882389F0809108
:102590000906882311F490E004C09091470881E077
:1025A000982790934708992319F484B5806402C052
:1025B00084B58F7B84BD0E9497740E94C0A98091CE
:1025C0000A06826080930A06F89480917000826007
:1025D000809370007894FF91EF91BF91AF919F919C
:1025E0008F917F916F915F914F913F912F910F90BC
:1025F0000BBE0F900FBE0F901F9018950F931F9357
:102600008C010E940E7382E260E04BE958E124E005
:102610000E94626D80E068E1A8010E949D6D0E94A9
:102620007B71809108030E9471711F910F91089531
:102630008091090180958F73D9F70E946A7308957C
:10264000EF92FF920F931F938C017B010E940E73F8
:1026500082E260E047E258E124E00E94626D80E09F
:1026600060E2A8010E949D6D80E068E2A7010E94DF
:102670009D6D80E060E34EE258E10E949D6D0E94F6
:102680007B71809108030E9471710E9418131F9141
:102690000F91FF90EF900895EF92FF920F931F9389
:1026A000CF93DF93E82E882349F480910C06909114
:1026B0000D06492F441F4427441F06C2992787FD52
:1026C000909597FF03C0909581959F4F863109F4AF
:1026D000F6C18A3030F490E00F960E940974482FBA
:1026E000EFC18A50282F30E08901000F111F020F1F
:1026F000131F0D5A1A4FD80112968C91882311F48A
:1027000040E0E2C1F8018281853010F420E007C08A
:10271000D80112968C91883008F4DEC122E0D801ED
:10272000EC91E150E73008F449C053C080910E06A7
:1027300090910F0640E08C239D23892B89F127C0BF
:1027400080910C0690910D068C2B9D2B90930D067D
:1027500080930C06F80180810E944C13F82ED8015A
:1027600011968C910E944C13982FF801828185302C
:1027700019F0863049F403C0FF2089F002C0FF2021
:1027800031F4992321F40BC040E0F91649F041E0FF
:1027900080910E0690910F068C2B9D2B0AC040E075
:1027A00020910E0630910F06CE01809590958223E0
:1027B000932390930F0680930E0682C180910B069F
:1027C000882309F060C0F0E0EE0FFF1FE25CF64FD7
:1027D00031C0E93018F460E074E057C0E03178F4BB
:1027E000F0E0EE0FFF1FDF01AC50BD4FE75EF74F8B
:1027F000608171818D919C91681B790B09C0E431D6
:1028000050F4F0E0EE0FFF1FE75EF74F608171813B
:10281000660F771F3AC0E43230F4F0E0EE0FFF1F8E
:10282000EC5DF64F07C0E63240F4F0E0EE0FFF1F1C
:10283000EF51FA4F6081718128C0E83270F48E2F19
:1028400090E08697FC01EE0FFF1FE80FF91FED5394
:10285000F04F8081682F70E018C0E83259F4609121
:102860000D1070910E108091E90F9091EA0F680F92
:10287000791F0BC0E93239F46091DF0F7091E00FDE
:102880007695679502C060E070E0222309F079C078
:10289000D8018C918A324CF011969C9189E1980272
:1028A000C00111248058934F3FC0F80180818932C4
:1028B0005CF08181992787FD909580589F4F880F04
:1028C000991F880F991F30C0D8018C91873244F02E
:1028D00011968C91992787FD909580589F4F24C021
:1028E000F801808185323CF08181992787FD9095A0
:1028F0008E599F4F19C0D80111969C9189E2980278
:1029000090011124359527953595279597FD915C74
:1029100096FB990F990B90F9892F992787FD909530
:10292000F901E81BF90BCF01D80112962C91223046
:1029300051F0233071F02130C1F440E08617970741
:102940000CF0BEC0BCC040E0681779070CF0B8C0FE
:10295000B6C040E0FB0177FF03C0F095E195FF4F63
:102960008E179F070CF0ACC0AAC040E0FB0177FFB8
:1029700003C0F095E195FF4FE817F9070CF0A0C0F0
:102980009EC0D8011196EC91E150E73058F4809147
:102990000B06882309F063C0F0E0EE0FFF1FE25C36
:1029A000F64F33C0E93018F4E0E0F4E05AC0E0310B
:1029B00080F4F0E0EE0FFF1FDF01AC50BD4FE75E8B
:1029C000F74F0190F081E02D8D919C91E81BF90B60
:1029D0000AC0E43158F4F0E0EE0FFF1FE75EF74F56
:1029E0000190F081E02DEE0FFF1F3BC0E43230F488
:1029F000F0E0EE0FFF1FEC5DF64F07C0E63248F443
:102A0000F0E0EE0FFF1FEF51FA4F0190F081E02D43
:102A100028C0E83270F48E2F90E08697FC01EE0F0C
:102A2000FF1FE80FF91FED53F04F8081E82FF0E012
:102A300018C0E83259F4E0910D10F0910E10809119
:102A4000E90F9091EA0FE80FF91F0BC0E93239F452
:102A5000E091DF0FF091E00FF695E79502C0E0E01E
:102A6000F0E0D80112968C91893089F08A3018F400
:102A7000883009F507C08A3079F08B3091F08C30BE
:102A8000D1F414C040E06E177F07D1F418C040E0C5
:102A90006E177F07A1F414C040E0E617F70784F42F
:102AA0000EC040E06E177F075CF409C040E06E176F
:102AB0007F0734F004C040E0E617F7070CF041E070
:102AC0001E1414F081E04827842FDF91CF911F91CD
:102AD0000F91FF90EF900895C1E0D0E002C0CC0FBD
:102AE000DD1F2A95E2F780910C0690910D068C234C
:102AF0009D23892B09F01ACE23CE362F3795332705
:102B0000379520E030930D0620930C060E944C135D
:102B10000895EF92FF920F931F93CF93DF93C7E92E
:102B2000D5E051E0E52EF12C2881222309F189819D
:102B30008823F1F090E00197870102C0000F111F78
:102B40008A95E2F7822F60E00E947D1520912F0880
:102B500030913008882319F0202B312B05C0C80193
:102B600080959095282339233093300820932F089F
:102B7000229685E0CF3AD807B9F6DF91CF911F9121
:102B80000F91FF90EF900895FF920F931F938C0188
:102B9000F62E0E940E7382E260E047E258E124E0E4
:102BA0000E94626D80E060E2A8010E949D6D81E05C
:102BB00068E343EA58E10E949D6D0E947B71FF200B
:102BC00011F089E102C0809108030E947171809127
:102BD00015068093100684E687BD0E941813809125
:102BE000090180958F7391F480910B0360E00E943E
:102BF0007D15882331F480912203882311F4FF206E
:102C000019F0409AA895EBCF4098FCCF1F910F91F7
:102C1000FF90089580911D0387FD07C0887329F4F4
:102C200081E698E160E00E94C415089580911D033B
:102C300086FD0AC00E947067883C910528F488E1EF
:102C400098E160E00E94C41508950F931F9380914E
:102C50001D038670A1F185E798E169E878E10E949B
:102C6000201300E080911D038670823009F401E09A
:102C700010E10AC0133139F0812F8F5060E00E94BB
:102C80007D15801729F41F5F1831A0F31831B9F0B2
:102C90008091090180958F7391F406C08091220381
:102CA000882351F0409A09C080910B0360E00E9494
:102CB0007D158823B9F7F2CF409810E1DDCF1F9141
:102CC0000F9108950F931F93CF93DF9380911D036E
:102CD00080FD44C080911E0390E08170907002E0FE
:102CE00010E0081B190BF801EE0FFF1FE652FD4F15
:102CF000C181D281609687859089C81BD90B0E94BB
:102D0000AC0F102F802F0E943A0FC817D90734F547
:102D100081E498E160E578E10E9420130E94AC0F05
:102D2000812F0E943A0FC817D9072CF4809109010E
:102D300080958F7349F00E94181310C08091220370
:102D4000882351F0409AEACF80910B0360E00E9403
:102D50007D158823B9F7F2CF4098E0CFDF91CF916E
:102D60001F910F910895AF92BF92CF92DF92EF9291
:102D7000FF920F93CF93DF938091200384FD6FC068
:102D800080910B0360E00E947D15882329F48091D7
:102D90002203882309F457C0409A0E940E7380E0F2
:102DA00060E048EE50E020E000E00E943A6C0E94B3
:102DB0007B71809108030E9471710E9418130E9418
:102DC000480F0F5F0032D9F7AA24BB2400E0802F00
:102DD0000E943A0FC92FD0E0AC0EBD1E0F5F043029
:102DE000B1F7F894C0908F0FD090900F789480E94D
:102DF00091E0C80ED91E1DC00E94480FC0E0D0E06F
:102E000000E0802F0E943A0FE92EFF24CE0DDF1D37
:102E10000F5F0430B1F78091090180958F73F9F449
:102E2000CA15DB05E1F411C0809122038823A9F0C3
:102E3000409AF89480918F0F9091900F7894C816D3
:102E4000D906D1F60CC04098A8CF80910B0360E062
:102E50000E947D15882361F7E7CF4098EACFDF9184
:102E6000CF910F91FF90EF90DF90CF90BF90AF90F8
:102E700008951F93CF93DF93C4ECD5E011E08881D0
:102E8000882351F060E00E947D15882329F0812F6E
:102E9000DF91CF911F9108951F5F2D96153079F71F
:102EA00010E0F5CFDF92EF92FF920F931F93CF9335
:102EB000DF93E82E082F0F7006501091350317701E
:102EC000083008F0CCC0E02FE595FF27E7FDF0952E
:102ED00080911E0390E0880F991F880F991FE80FBB
:102EE000F91FE25BFA4FF490FA940E943917682FA9
:102EF0008F2D0E941B0FD82E6F2D0E94F70EBC0144
:102F0000112389F477FF04C088279927861B970B24
:102F1000959587959595879501968132910584F0D1
:102F200080E290E00DC0212F332727FD30952150FE
:102F3000304081E090E002C0880F991F2A95E2F7A7
:102F4000982F32E0F31639F48091340383FF03C0E5
:102F500094E021E001C020E0492F552747FD50951E
:102F600000FF07C0EA01C60FD71F10E083E89FEFFC
:102F700004C0EB01C41BD50BF8CF009719F4222332
:102F800029F015C03FEF8338930749F0C817D907D8
:102F90001CF0681779074CF08D37910541F08C17BC
:102FA0009D072CF08617970714F4EC0111E0835865
:102FB0009F4F8A3F910509F76C177D0724F4CE37A0
:102FC000D10544F40CC0C617D7074CF48FEFC338B3
:102FD000D8072CF48091350386FFEB0111E03EEF1A
:102FE000CC30D3071CF4CCE0DEEF06C081E0C53F57
:102FF000D80714F0C4EFD1E08D2D6F2DAE010E94E3
:10300000B011CE37D1051CF0CDE7D0E006C03FEFC0
:10301000C338D30714F4C3E8DFEFCE0164E070E0F7
:103020000E94FFB0EB01EC96112341F08E2D0E941F
:103030008874109209068091130607C0E6FE03C04B
:1030400081E080930906809111068093100688E83C
:1030500093E16C2F70E00E94FFB067BDEE248E2DCF
:10306000DF91CF911F910F91FF90EF90DF90089526
:10307000AF92BF92CF92DF92EF92FF920F931F9386
:10308000CF93DF935C01A5EAB8E0FC0198E00190E2
:103090000D929150E1F76F3F19F40E943917682F94
:1030A0001EEAC12E14E0D12E0FEFC0E0D0E0E62ED4
:1030B000FF240894E11CF11CFE01EE0FFF1FEE0F30
:1030C000FF1FE555FB4F2081822F837009F4A2C0BA
:1030D00026952695237030E0802F992787FD9095BF
:1030E0002817390709F48DC08181807E99F082818B
:1030F00080FD10C0FE01EE0FFF1FEE0FFF1FE45515
:10310000FB4F808182958695877090E0E816F906DE
:1031100009F077C0FE01EE0FFF1FEE0FFF1FE45511
:10312000FB4F8081880F880F880F85958595859541
:1031300061E00E947D15882309F463C0FE01EE0F53
:10314000FF1FEE0FFF1FE555FB4F8081182F1695CF
:1031500016951370E12FF0E0EE0FFF1FEB55F74FC0
:103160000190F081E02D8370F7FF03C080FD03C064
:1031700048C081FF46C0012FD6016C91772767FDBB
:103180007095CF010E94C40E9C01FE01EE0FFF1F3F
:10319000EE0FFF1FE555FB4FE0818E2F807F69F01A
:1031A0006E2F62956F70862F90E00B970CF06C5F1E
:1031B000C90140E00E94260E9C01B901882777FDD5
:1031C0008095982FFE01EE0FFF1FEE0FFF1FE355B6
:1031D000FB4F2081269530E040E050E00E94C0B0D7
:1031E00024E630E040E050E00E9434B1E12FFF27B8
:1031F000E7FDF095EE0FFF1FEA0DFB1DC9012083CF
:103200009183219684E090E0C80ED91ECE30D1057E
:1032100009F052CFDF91CF911F910F91FF90EF9066
:10322000DF90CF90BF90AF9008952F923F924F9232
:103230005F926F927F928F929F92AF92BF92CF9246
:10324000DF92EF92FF920F931F93CF93DF93282E7D
:103250009090B105992009F467C080911E0390E019
:10326000FC01E170F0703196EE0FFF1FE25CF64F4B
:103270000190F081E02D9C012270307081FD03C02F
:10328000A3E0B0E002C0A0E0B0E0AA0FBB1FA25CC8
:10329000B64FCD91DC91232B19F4A3E0B0E002C02E
:1032A000A0E0B0E07F010027F7FC0095102FAA0FE7
:1032B000BB1FA25CB64F6D917C91882777FD8095EE
:1032C000982F9E01442737FD4095542F0E94C0B08F
:1032D0005B016C01C801B701A80197010E94C0B051
:1032E000A60EB71EC81ED91E692D70E080E090E0C2
:1032F0002AE0660F771F881F991F2A95D1F724E6C9
:1033000030E040E050E00E9434B1B901CA010E94AF
:10331000C0B06A157B058C059D0530F4C601B5016A
:103320000E944E104C0102C088249924B40180E010
:1033300090E024E630E040E050E00E94C0B02B0175
:103340003C010BEDE02E02E0F02E3324AA24BB2436
:103350008A2D843010F01A2D0DC0E0911E03F0E08C
:10336000EE0FFF1FEE0FFF1FEA0DFB1DE25BFA4F92
:10337000149111500E943A0F9C01D7018D919C919C
:103380001197281B390B121613062CF45C96ED913D
:10339000FC915D9705C0D7011E96ED91FC911F979A
:1033A000E436F10514F4E4E6F0E0B901882777FD8E
:1033B0008095982FBAE0660F771F881F991FBA95DE
:1033C000D1F79F01442737FD4095542F0E9434B117
:1033D000E901BCEF21303B071CF4C0E0DCEF06C084
:1033E000E4E020303E0714F0C0E0D4E080912003F8
:1033F00080FF05C0123019F4D095C195DF4FC12E62
:10340000DD24F601EE0FFF1FE25CF64FD183C0838F
:10341000CE010F964F9748F481E090E0012E02C054
:10342000880F991F0A94E2F7382A143008F07BC0FD
:1034300080910B06882309F057C01E5F812F90E012
:103440001250019721E030E002C0220F331F8A950D
:10345000E2F7C901816020912F0830913008822362
:103460009323892B09F440C0F601EE0FFF1FEC5E99
:10347000FC4F0081802F807CB9F1E02FEF73F0E0EA
:10348000EE0FFF1FDF01A45FBC4FEF5CF74F6081C1
:1034900071812D913C91621B730B882777FD80957C
:1034A000982FF601EE0FFF1FE652FD4F23AD332795
:1034B00027FD3095432F532F0E94C0B022E330E008
:1034C00040E050E00E9434B10295069506950370E5
:1034D000E02FF0E0E130F10519F0329729F403C054
:1034E000C20FD31F01C0E90181149104E1F0113032
:1034F00011F01330C1F46091B10570E080E090E00C
:103500003AE0660F771F881F991F3A95D1F79E0101
:10351000442737FD4095542F0E94C0B0A30192016B
:103520000E9434B1E901CC0CDD1C8BEA96E0C80E98
:10353000D91ED601CD93DC930894A11CB11CE2E006
:10354000F0E0EE0EFF1EF7E0AF16B10409F000CF79
:10355000622D0E943818EE2400E010E0A12C94E0C7
:10356000B92EF801E555F94FC080D1808E2D622D1E
:103570000E941B0F6E2D0E94F70EEC0122E0E21656
:1035800071F58091340383FF2AC08091200380FF6E
:1035900003C0D095C195DF4FBE01882777FD809588
:1035A000982F63587F4F8F4F9F4F95012C193D09DE
:1035B000442737FD4095542F0E94C0B020E038E0EA
:1035C00040E050E00E9434B1B901CA01603038E0F7
:1035D000730730E0830730E0930749F406C0809119
:1035E0002F06882311F0C0E0D0E09E0101C09B01AE
:1035F000220F331FF801E150F94F31832083E39408
:103600000E5F1F4F84E0E81609F0ABCF832DDF91EA
:10361000CF911F910F91FF90EF90DF90CF90BF90CF
:10362000AF909F908F907F906F905F904F903F9062
:103630002F9008958F929F92AF92BF92CF92DF9278
:10364000EF92FF920F931F93CF93DF930E9439174E
:10365000C82E7BEAE72E76E0F72E0FEF16E0C0E0EB
:10366000D0E062E0862E912CAA24A394BC2E8091F7
:103670001E0390E0817090709401281B390B2C1769
:103680003D0751F18C2F6C2D0E941B0FD82EA0925C
:103690000B068C2D0E94151910920B06F8018081E3
:1036A0009181F70120813181820F931F62E070E0E8
:1036B0000E94FFB0AB01FEEF6C307F071CF44CE0C2
:1036C0005EEF06C021E0653F720714F044EF51E061
:1036D0008D2D6B2D0E94B011219682E090E0E80EB6
:1036E000F91E0E5F1F4FC430D10509F0BFCF82E035
:1036F0000E945865809112068093100684E687BD6B
:10370000DF91CF911F910F91FF90EF90DF90CF90BD
:10371000BF90AF909F908F9008952F923F924F92BD
:103720005F926F927F928F929F92AF92BF92CF9251
:10373000DF92EF92FF920F931F93DF93CF93CDB75A
:10374000DEB727970FB6F894DEBF0FBECDBF9D83BF
:103750008C83362E862F0E941519409137034823FB
:10376000242F30E080914D0790E082279327822319
:103770009323892B31F0809112068093100684E602
:1037800087BD40934D0780E094E09093BA06809304
:10379000B9069093BC068093BB069090B105992022
:1037A00009F4C1C080911E0390E0FC01E170F0704B
:1037B0003196EE0FFF1FE555F94F0190F081E02D96
:1037C0009C012270307081FD03C0A3E0B0E002C014
:1037D000A0E0B0E0AA0FBB1FA555B94FCD90DC907B
:1037E000232B19F4A3E0B0E002C0A0E0B0E07F0119
:1037F0000027F7FC0095102FAA0FBB1FA555B94F46
:103800006D917C91882777FD8095982F96014427AC
:1038100037FD4095542F0E94C0B05B016C01C80178
:10382000B701A80197010E94C0B0A60EB71EC81E1E
:10383000D91E692D70E080E090E0AAE0660F771F46
:10384000881F991FAA95D1F724E630E040E050E0A8
:103850000E9434B1B901CA010E94C0B06A157B054B
:103860008C059D0508F05FC0C601B5010E944E1091
:10387000E0901E03FF248701017010700F5F1F4F3F
:103880002091B105A22EBB24CC24DD24FAE0AA0CA1
:10389000BB1CCC1CDD1CFA95D1F7A0E0B0E0BC014C
:1038A000CD0124E630E040E050E00E94C0B03B0192
:1038B0004C01000F111F0555194FD8012D913C9156
:1038C000442737FD4095542FC601B5010E94C0B072
:1038D000A40193010E9434B1F80131832083E1FCFB
:1038E00005C0E3E0F0E003E010E004C0E0E0F0E059
:1038F00000E010E0000F111F0555194FEE0FFF1FDC
:10390000E555F94F20813181442737FD4095542FEB
:10391000C601B5010E94C0B0A40193010E9434B158
:10392000D8012D933C934091AF05842F887F09F4F3
:10393000EDC020911E0330E0F901E170F070319686
:10394000EE0FFF1FDF01A555B94FE150F94FE080A1
:10395000F1808D919C91E80EF91EC90182709070E2
:1039600021FD03C0E3E0F0E002C0E0E0F0E0EE0F94
:10397000FF1FE555F94F20813181892B19F4E3E0D0
:10398000F0E002C0E0E0F0E0EE0FFF1FE150F94F81
:10399000C080D180C20ED31EE091B005EE2319F491
:1039A00000E010E007C0F0E0EE0FFF1FE755F94F11
:1039B0000081118140FF04C0F094E194F108F39478
:1039C00041FF04C0D094C194D108D39442FF03C0F6
:1039D000109501951F4F8091AF0586958695869528
:1039E00090E08230910589F18330910524F40197AC
:1039F00009F08CC008C08330910509F45BC00497BE
:103A000009F084C06FC0C60160E072E00E94FFB0A0
:103A1000FB01C60168E070E00E94FFB09B01C60197
:103A200060E870E00E94FFB0A601421B530B9A01B0
:103A3000261B370B2E1B3F0BC8018E199F09909335
:103A4000BE068093BD06C70121C0C70160E072E0D9
:103A50000E94FFB0FB01C70168E070E00E94FFB068
:103A60009B01C70160E870E00E94FFB0C701821BA4
:103A7000930B9C01261B370B2E1B3F0BC8018C1987
:103A80009D099093BE068093BD06C60162E070E07A
:103A90000E94FFB0600F711FCB01820F931F9093A4
:103AA000C0068093BF06621B730B7093C2066093BF
:103AB000C1062CC0C8018E199F099093BE06809341
:103AC000BD06C8018E0D9F1D9C012C0D3D1D309320
:103AD000C0062093BF068C199D099093C20680935F
:103AE000C10614C0C8018E199F099093BE06809329
:103AF000BD06C8018C0D9D1D9093C0068093BF0626
:103B00000C191D091093C2060093C10680910B0683
:103B1000882379F180911E0390E08170907022E0FB
:103B200030E0281B390B1092AC061092AB06213006
:103B3000310521F01092AE061092AD06223031050B
:103B400021F01092B0061092AF061092B2061092B9
:103B5000B106E3ECF6E01192119296E0E33DF9072D
:103B6000D1F7A7E0B7E0BA83A98323ED36E0FD01E2
:103B700046C063EC76E040E050E0FA01EF5CF74FBE
:103B8000DA01A652BD4F80819181D2962D913C9150
:103B9000D397821B930B880F991FFB0181939193FD
:103BA000BF014E5F5F4F4830510539F780913908AA
:103BB00090913A08880F991F9093CC068093CB067A
:103BC00080913B0890913C08880F991F9093CE06F6
:103BD0008093CD0680913D0890913E08880F991FF3
:103BE0009093D0068093CF0680913F089091400833
:103BF000880F991F9093D2068093D106B2CF80810F
:103C00009181D9018D939D939D013496B7E0EF3555
:103C1000FB07A9F780E4E7E0F7E0DF011D928A9552
:103C2000E9F710922E08EEE04E2EE8E05E2E7EE8D8
:103C3000872E77E0972E6EE4662E67E0762E1B8245
:103C4000232C33240894211C311C8B810E94A20D4B
:103C50006C01FC0180818F7159F45BE5652E54E0A5
:103C6000752E47E7242E45E0342E44245524A4C263
:103C700090E0419794F7D60117969C91892F807F09
:103C8000C1F0892F8595859585958595282F3327B2
:103C900027FD309518162CF42216330609F07AC247
:103CA00008C088279927821B930B2816390609F428
:103CB00071C2F601838161E00E947D15D2019C9161
:103CC0008823C1F4492F1C92F6019181892F8850D5
:103CD000823008F05FC287818E70843009F45AC246
:103CE000993019F01F821E8240C020E03CEF3F83D4
:103CF0002E833BC040E0992309F441E081E0D201EA
:103D00008C93F60181818150A82FB0E0FD01EE0F68
:103D1000FF1FE555F94F208131813F832E83843188
:103D200068F03B81831750F4AA0FBB1FAA0FBB1F7B
:103D3000A95FB84F8D919C919F838E83D6019C91F2
:103D4000892F807E91F0929596959770892F90E0BB
:103D50000197E1E0F0E002C0EE0FFF1F8A95E2F765
:103D600020912E082E2B20932E08D60118968C9188
:103D70008823C9F0B9E28B0290011124359527956B
:103D80003595279587FD815C86FB880F880B80F928
:103D9000992787FD9095281B390BEE81FF81E20F53
:103DA000F31FFF83EE83D60116968C911697882316
:103DB00029F415968C91882309F46CC1F401608173
:103DC000718182819381442391F420E031E040E0CD
:103DD00050E00E9434B150954095309521953F4F69
:103DE0004F4F5F4FAE80BF80A20EB31E5FC0D601A3
:103DF00017968C9117978E70843049F5EC91EF717E
:103E0000F0E0EE0FFF1FEF52F94F608171818827BC
:103E100077FD8095982F20E034E640E050E00E9446
:103E2000C0B0F4016083718382839383D6011296BC
:103E30002C91222361F0332727FD3095432F532FF8
:103E40000E9434B1F4012083318342835383D4012F
:103E50006D917D918D919C9120E031E040E050E0AA
:103E60000E9434B150954095309521953F4F4F4F6A
:103E70005F4FAE80BF80A20EB31EA114B104B1F09B
:103E8000F6018581B7FE02C08F7002C082958F70E7
:103E900090E09C0144E650E0249FC001259F900DD6
:103EA000349F900D1124D3018D939C93F3012081B5
:103EB00031812115310599F080911B06882321F06D
:103EC0002150304031832083D3018D919C91892BE7
:103ED00031F0F4016081718182819381C2C0A114AB
:103EE000B10409F4D7C0D60116968C911697882391
:103EF00009F4C0C080911B06882309F477C012968C
:103F00002C91222329F460E070E080E293E017C056
:103F1000332727FD309537FF03C0309521953F4F5C
:103F2000332727FD3095432F532F60E070E080E268
:103F300093E00E9434B1C901DA01BC01CD01F60160
:103F400026811A141B040CF52F70422F50E04115E6
:103F50005105D9F1A4E6B0E04A9F90014B9F300D86
:103F60005A9F300D1124442737FD4095542F0E944D
:103F700034B179018A01F40180819181A281B381F8
:103F8000E80EF91E0A1F1B1F2BC022952F70422F0F
:103F900050E041155105C9F0A4E6B0E04A9F9001F8
:103FA0004B9F300D5A9F300D1124442737FD40950B
:103FB000542F0E9434B1F401E080F180028113811A
:103FC000E21AF30A040B150B0BC02E813F81C901C5
:103FD000AA2797FDA095BA2FEE24F82E092F1A2FA5
:103FE000D401ED92FD920D931C931397F40160811F
:103FF0007181828193812E813F8179010027F7FCB5
:104000000095102F1A141B0464F420E031E040E006
:1040100050E00E9434B1E216F3060407150764F07D
:104020001BC020E031E040E050E00E9434B12E158A
:104030003F054007510784F44E815F81CA01AA27DA
:1040400097FDA095BA2FBA2FA92F982F8827F40192
:1040500080839183A283B383D4016D917D918D91EF
:104060009C9120E031E040E050E00E9434B13F8379
:104070002E8310C0EE81FF81CF01AA2797FDA09566
:10408000BA2FBA2FA92F982F8827F4018083918304
:10409000A283B383D60114966C911497662341F0E2
:1040A0008E819F8111964C910E94260E9F838E8354
:1040B000F601878180FD12C0E181EE2379F0E530C1
:1040C00068F4F0E0EE0FFF1FE350F94F808191811B
:1040D0002E813F81280F391F3F832E834E815F81C0
:1040E000BA01882777FD8095982FD60112962C91DA
:1040F000332727FD3095432F532F0E94C0B09B01DB
:10410000AC01F60180818F71082F10E00150104042
:1041100087818695877090E08130910551F0F80194
:10412000EE0FFF1FEE0FFF1F029731F5E95FF84F0B
:104130001EC0CA01B90124E630E040E050E00E9410
:1041400034B1B901CA01000F111F000F111F095F1F
:10415000184FD8012D913D914D915C910E94C0B0B6
:1041600020E034E040E050E00E9434B1F8012083C8
:104170003183428353830EC0E95FF84F8081918180
:10418000A281B381820F931FA41FB51F80839183E7
:10419000A283B383FB81FF5FFB830894411C511C06
:1041A00024E030E0820E931E42E050E0640E751E63
:1041B000F03209F04ACD51CDA981BA81AD90BD90C0
:1041C000CD90DC90C601B50124E630E040E050E03F
:1041D0000E9434B1E981FA81208331834283538381
:1041E000F201E45BF64FC90120839183D30113965A
:1041F0002D913C91149711968C911197FAE08F02B2
:10420000F0011124E851FC4FFF83EE838C914AE0CA
:1042100084024001112488E19CEF880E991ECF0191
:104220005E2F492F2E173F071CF4C901522F492F2B
:10423000852F942F8C01081519050CF48401A11405
:10424000B104C104D10479F19801442737FD4095A8
:10425000542F1A141B041C041D0464F4AE81BF8186
:10426000BD01882777FD8095982F621B730B840B07
:10427000950B0BC0C401AA2797FDA095BA2F281B48
:10428000390B4A0B5B0BCA01B901A60195010E94CB
:10429000C0B020EA36E841E050E00E9434B1C901E4
:1042A000DA015C016D01C80125E0959587952A9595
:1042B000E1F7800F911F9801232F330F330B2595C2
:1042C000820F931F000F012F001F110B801B910BFA
:1042D0007C010027F7FC0095102F8E819F81F5E06F
:1042E00095958795FA95E1F7EE81FF818E0F9F1FD7
:1042F0009401E5E035952795EA95E1F7F401EE0F95
:10430000EF2FEE1FFF0B280D391D4E815F81440FEB
:10431000452F441F550B841B950B55954795559577
:104320004795840F951FAC01662757FD6095762F42
:10433000EA0CFB1C0C1D1D1D4E155F056007710767
:1043400014F47A018B012E1B3F0BF595E795F5953B
:10435000E7952E0F3F1FC901AA2797FDA095BA2FF9
:10436000E816F9060A071B0714F47C018D01D30136
:1043700012968C91882341F010950095F094E0946A
:10438000E11CF11C011D111DF1018081882301F147
:1043900060E00E947D158823D9F0D10111968C919F
:1043A000B9E28B0290011124359527953595279513
:1043B00087FD815C86FB880F880B80F9992787FD34
:1043C0009095281B390B79010027F7FC0095102FD9
:1043D000EC81FD81E40DF51DF182E082E981FA8135
:1043E0003496FA83E98322E030E0420E531E45E022
:1043F00050E0640E751E220E331EE754F74009F09C
:10440000DBCE27960FB6F894DEBF0FBECDBFCF919F
:10441000DF911F910F91FF90EF90DF90CF90BF90B1
:10442000AF909F908F907F906F905F904F903F9054
:104430002F900895CF92DF92EF92FF920F931F93E8
:10444000DF93CF93CDB7DEB7A0970FB6F894DEBF5A
:104450000FBECDBF81E080930B060E943917682FF5
:104460008E010F5F1F4FC8010E948D1B10920B061B
:10447000F801AEE5B4E09E012F5D3F4F8081918150
:104480004CEF883194071CF488E19CEF06C043E0B0
:10449000883E940714F088EE93E011969C938E93D7
:1044A00032961596E217F30749F700E010E032E084
:1044B000C32ED12CE02E80911E0390E0817090706D
:1044C0009601281B390B2017310791F0FF248F2DFF
:1044D0006E2D0E94F70E855F914034F48F2D6E2D66
:1044E00040E050E00E94B011F39445E0F41679F7F3
:1044F0000F5F1F4F04301105E9F682E00E945865F6
:10450000809112068093100684E687BDA0960FB6B0
:10451000F894DEBF0FBECDBFCF91DF911F910F91F9
:10452000FF90EF90DF90CF9008952F923F924F929F
:104530005F926F927F928F929F92AF92BF92CF9233
:10454000DF92EF92FF920F931F93DF93CF93CDB73C
:10455000DEB7C756D0400FB6F894DEBF0FBECDBF52
:10456000F89420918F0F3091900FA4963FAF2EAF0B
:10457000A497789420E08091730890917408A49691
:104580004EAD5FADA4974817590709F021E020937D
:104590001B06A4966EAD7FADA497709374086093CC
:1045A00073080E943917A2968FAFA2974091070215
:1045B000481709F475C0282F30E04F3F51F4220FFF
:1045C000331F2759374F8FEF9FEFD9018D939C935E
:1045D00062C0A42FB0E08DE090E0A89FF001A99FF9
:1045E000F00DB89FF00D1124E254FA4F60816295EE
:1045F0006F70289FF001299FF00D389FF00D112456
:10460000E254FA4FE081EF70E61718F0EE23F9F06C
:104610006E2F81E090E0FC0102C0EE0FFF1F2A9593
:10462000E2F79F0102C0880F991FAA95E2F7280FB1
:1046300080916608822B809366088FE892E070E094
:104640000E94EBB0709368086093670824C0AA0FBB
:10465000BB1FA759B74F1D921C92F901EE0FFF1F08
:10466000E759F74F8FEF9FEF9183808381E090E0D0
:10467000BC0102C0660F771F2A95E2F79B0102C0BA
:10468000880F991F4A95E2F7280F209580916608B8
:10469000822380936608A2967FADA297709307024B
:1046A00080916608882309F493C0FE01B19680E4E6
:1046B000DF011D928A95E9F7A9E62A2EA8E03A2E95
:1046C000662477244301EE24FF24A596EFAFA59737
:1046D000A696FFAFA697FE01EF59FF4FA896FFAF32
:1046E000EEAFA8978091660890E00E2C02C09595D9
:1046F00087950A94E2F780FF41C0CE0101966E2DA6
:104700000E948D1BCE0101966E2D0E948D1BD10142
:104710008D919C915C01CC24DD24A5968FADA5974D
:10472000A6969FADA6978C012E010894411C511CA2
:10473000F201219131912F01442737FD4095542FEB
:10474000C601B5010E94C0B0D8012D913D914D9197
:104750005C91260F371F481F591FF8012193319391
:10476000419351938F01A8962EAD3FADA897E217C4
:10477000F307F1F66A0C7B1C8C1C9D1C0894E11C51
:10478000F11C42E050E0240E351E55E0E516F10420
:1047900009F0A8CF8E010F5D1F4F7E010894E11C28
:1047A000F11CE1E6CE2ED12CCC0EDD1ED8016D9190
:1047B0007D918D919D918D01A40193010E9434B151
:1047C000F701219331937F010C151D0579F707C07F
:1047D000CE010196A2966FADA2970E948D1B20E09C
:1047E00030E0AE014F5F5F4FF894F901E059F64FAA
:1047F000DA01A20FB31F8D919C91918380837894ED
:104800002E5F3F4F2032310579F780915E0F88236C
:1048100081F480910B0A882329F083E09AE00E94BA
:104820007C6807C08091160A882319F080E00E94F6
:104830005E6580911B06882309F49DC48091030660
:10484000882379F4409142095091430980912003D3
:1048500080FF05C020E034E0241B350B15C09A0111
:104860000AC0E82FF0E0843048F0EE0FFF1FE8594F
:10487000F64F2081318120503C4F06C0EE0FFF1FC4
:10488000EC5BF64F20813181490156E09694879484
:104890005A95E1F7609161086F5F609361084091FC
:1048A0005F0850916008480D591D5093600840936F
:1048B0005F082091640830916508A4968EAD9FAD85
:1048C000A497821B930B8436910508F487C02C595A
:1048D0003F4F3093650820936408809121069091A2
:1048E000220601969093220680932106CA0170E069
:1048F0000E94EBB04B019B013695279580912506D0
:1049000090912606820F931F90932606809325068A
:104910006115710549F08091230690912406019656
:1049200090932406809323068091610860915D082E
:1049300070915E08680F711D70935E0860935D084A
:1049400040915B0850915C0880915F0890916008ED
:10495000480F591F50935C0840935B081092610800
:104960001092600810925F082091620830916308ED
:10497000A4968EAD9FADA497821B930B885E934047
:1049800068F128513C4F3093630820936208CA01B4
:104990000E94EBB04B0110925C0810925B081092E1
:1049A0005E0810925D088091A8069091A906FC010E
:1049B000E05DF94F608301969093A9068093A80665
:1049C0008837910520F01092A9061092A8068091D0
:1049D000AA0687FD03C08F5F8093AA06552432E0A4
:1049E000232E4424439424E0322E552039F4F090B1
:1049F0003103A0903203B09033030AC021E0521675
:104A000009F063C1F0903803A0903903B0903A03E5
:104A1000FF2009F458C1052D10E0F801E95DF94FB8
:104A20008081882391F44082F801EE0FFF1FDF019F
:104A3000A85BB74F1D921C92DF01A45BB74F1D927C
:104A40001C92E05BF74F11821082F7FC02C0EF2C42
:104A500002C0E32CEF1833E0E316A9F4F801EE0FDF
:104A6000FF1FDF01A85BB74F8D919C9111970196B5
:104A70008D939C93E45BF74F80819181880D991D04
:104A80009183808348C049E14E1508F044C0F80185
:104A9000EE0FFF1FDF01A45BB74FE85BF74F2081EC
:104AA00031818D919C91282B392BF801EC5AF74FCD
:104AB000808190E0282B392BF801EA5AF74F80814A
:104AC00090E0282B392B232B31F4FF208F2D880FDA
:104AD000880B842180831F141CF48F2D895102C000
:104AE0008F2D875E60E00E947D15282F882379F046
:104AF000F801EA5AF74F8081882349F4F801EC5A0B
:104B0000F74F90E08081882309F491E09083F801C9
:104B1000EA5AF74F2083F801E35DF94F9081892F1E
:104B20008F5F8083843608F4CEC093569083A1149F
:104B3000B10461F0F801EE0FFF1FE75DF94F8081CE
:104B40009181B501681B790B7183608371E0E71671
:104B500009F47BC082E0E81629F48114910409F479
:104B60007EC073C093E0E91609F047C06801CC0C21
:104B7000DD1C78E4672E78E0772E6C0C7D1CD30169
:104B8000ED90FC90E114F10409F469C0F601E45BD6
:104B9000F74F20813181C901B7010E94EBB04B0171
:104BA0006E9DC0016F9D900D7E9D900D1124281B60
:104BB000390B31832083F301118210829B013695DA
:104BC0002795D601A05BB74F8D919C911197280F27
:104BD000391F11963C932E932031310508F43FC0C4
:104BE000F601E75DF94F8081918101969183808381
:104BF000205130402D933C9332C0F4E0EF1671F415
:104C00008114910411F5F801EE0FFF1FE75DF94FD4
:104C10008081918118161906C4F021C029E12E1552
:104C200070F01F141CF48F2D845002C08F2D8C5FE8
:104C300060E00E947D15F801EC5AF74F8083F8017F
:104C4000EC5AF74F8081882351F0F801EE0FFF1FD7
:104C5000E75DF94F80819181019691838083D8012E
:104C6000A95DB94F8C91813019F08230F1F40FC0F9
:104C7000A114B10441F1F801EE0FFF1FE75DF94FF8
:104C8000808191818A159B059CF02C9211C0C501F1
:104C9000CB96F801EE0FFF1FE75DF94F20813181C0
:104CA0008217930714F433E03C93A114B10459F034
:104CB000F801EE0FFF1FE75DF94F80819181A81A7F
:104CC000B90AB182A082539490CE209129063091E6
:104CD0002A068091590890915A088217930709F47F
:104CE00097C080912706813009F078C08091200319
:104CF00082FF53C08091320390913303892B09F4D2
:104D00004CC02E31310549F482E080931E0680911B
:104D100013068093100684E687BD80912906909142
:104D20002A06449749F481E080931E068091130679
:104D30008093100684E687BD8091290690912A060B
:104D40000A9731F4809113068093100684E687BD9C
:104D50008091290690912A06049734F480911306D5
:104D60008093100684E687BD8091200383FF15C0E1
:104D70008091290690912A068E31910541F0843167
:104D8000910529F08A30910511F0049734F482E3FB
:104D900090E090931D0680931C068091200381FF74
:104DA0002FC020913203309133032115310549F092
:104DB0008091290690912A06A901481B590BCA0126
:104DC00004C08091290690912A066CE370E00E944D
:104DD000EBB0892BA9F48091130604C0823081F4D2
:104DE000809114068093100684E687BD809120038D
:104DF00083FF06C082E390E090931D0680931C061B
:104E00008091290690912A0690935A088093590818
:104E100080916608882309F452C0E9E6F8E0A0E032
:104E2000B0E011E0E12EF12CCC24CA94DC2C8701F7
:104E3000A2960FACA29702C0000F111F0A94E2F7CE
:104E400060916608862F90E00A2E02C0959587959E
:104E50000A94E2F780FF2EC04081518120916708BB
:104E600030916808A2968FADA2978A1779F4CA018B
:104E7000809590952817390728F4240F351F318322
:104E8000208318C0D182C082601B12C0241735074E
:104E900028F4421B530B518340830CC011821082B3
:104EA000C7010A2E02C0880F991F0A94E2F7681BF7
:104EB0006093660811963296A530B10509F60E94F6
:104EC000891580916E09882319F0815080936E09AD
:104ED00080911F03882309F468C080911A068333E8
:104EE00008F463C08091470790914807A091490753
:104EF000B0914A070196A11DB11D80934707909379
:104F00004807A0934907B0934A0700E010E0FF2448
:104F10008F2D0E943A0FB6E096958795BA95E1F7E6
:104F2000080F191FF39494E0F91691F780914B073D
:104F300090914C070817190761F010934C070093E4
:104F40004B0710924707109248071092490710929A
:104F50004A07E0904707F0904807009149071091F1
:104F60004A0760911F0370E080E090E020E737E19E
:104F700040E050E00E94C0B06E157F0580079107A9
:104F8000A0F42FE330E040E050E0E222F3220423DB
:104F900015233AE0E316F1040105110531F480917F
:104FA00014068093100684E687BD80912F0688231F
:104FB00019F0815080932F060E94D0AC0E940E738E
:104FC0000E946D730E945217182F80911C069091B9
:104FD0001D06009729F0019790931D0680931C06EB
:104FE000112389F08091220390E024EF31E0AC019D
:104FF000429FC001439F900D529F900D11249093AA
:105000001D0680931C0680910B0360E00E947D15B5
:10501000882339F480911C0690911D06892B09F490
:10502000A8C0409AE091A109F0E0EE0FFF1FED56F5
:10503000F64F0190F081E02D812F19950E947B7130
:10504000919B02C0A49A01C0A498A4968EAD9FAD76
:10505000A4978F7190708230910521F0039709F029
:105060008AC070C08091180690911906892B39F476
:1050700087E00E943A0F909319068093180680915A
:105080001806909119068C01E3E0000F111FEA95B4
:10509000E1F7081B190B87E00E943A0F800F911F60
:1050A00073E0969587957A95E1F77C0100E010E032
:1050B000909319068093180620910A03332727FD41
:1050C0003095432F532FC801B7010E94C0B028E08C
:1050D00030E040E050E00E9434B164E0EE0CFF1C90
:1050E000001F111F6A95D1F7E20EF31E041F151F52
:1050F000209116063091170640E050E0C801B70134
:105100000E9434B120931A0680915808805E8093E3
:105110005808882381F580910903281760F5233307
:1051200050F1809115068093100684E687BD80912A
:10513000200383FF20C082E390E090931D068093BC
:105140001C0619C080911D038695869586958770EB
:1051500090E0BC01660F771F660F771F680F791FFD
:10516000625A7A4F81E196E045E050E00E944FB1EB
:1051700002C0409857CFC959DF4F0FB6F894DEBF31
:105180000FBECDBFCF91DF911F910F91FF90EF9098
:10519000DF90CF90BF90AF909F908F907F906F9057
:1051A0005F904F903F902F9008950F931F93DF9340
:1051B000CF93CDB7DEB761970FB6F894DEBF0FBEC1
:1051C000CDBF9FEF91B912B887EC84B98FE385B951
:1051D00087B980EC88B91AB88CEF8BB91AE01DB981
:1051E00085EF8EB910BA11BA80E183BB94BB80E31E
:1051F000809301018FED809302011092040190933E
:105200000501109207011092080180E880930A01BD
:105210008FE780930B010E943D7180E480937C00B6
:1052200085E880937A0088E080937B0087E0809314
:10523000B1008CE98093B30080917000836080930B
:1052400070008BE085BD81E084BD1093810082E811
:105250008093910080917100806280937100EDB71E
:10526000FEB7329785E502C08083319742E1EE3781
:10527000F40709F0C8F78CED9CE5909394098093AE
:1052800093098EE99EE4909396098093950989E1AC
:105290000E94717178940E949DAC0E948A66109160
:1052A000070384B7813061F00E94B3160E9416167E
:1052B0000E94AC0F0E9462160E9425160E940A16D8
:1052C0000E9418130E943917682F80E799E00E9406
:1052D0008D1B809108030E9471718091220390E0E0
:1052E00024EF31E0AC01429FC001439F900D529FDB
:1052F000900D112490931D0680931C068091070346
:10530000181719F081E00E945865CE0101960E949D
:10531000B47D89818C568E878B8181508D878C815D
:105320008C878E818B878F818A87888589878D81FD
:1053300081508F87CE0109960E948C7C6093D602A3
:105340007093D7028093D8029093D9021DBA84E15A
:1053500080936A0080E68CBB80E5809369008CE0D6
:105360008CBB8CE68DBB0E94362B2DE088E190E053
:105370000FB6F894A895809360000FBE209360004C
:105380000E9497108C01E0912103F0E0EE0FFF1FC7
:10539000E050FE4F0190F081E02D19950E94CD0F55
:1053A0000E94952280910A06833019F4A8951092E4
:1053B0000A060E9497102091070630910806801B6C
:1053C000910B8217930708F4C90190930806809304
:1053D0000706D6CFE1E7F0E08081817F80836F9878
:1053E000779AA1E9B0E01C921092900082E88C9329
:1053F00080818062808308956F927F928F929F92C6
:10540000AF92BF92CF92DF92EF92FF920F931F93D2
:10541000CF93DF939091340397708091080289179E
:1054200009F1909308020E94EA291092810080E419
:105430009CE99093890080938800109285001092D7
:10544000840080916F00837C80936F008FE286BB25
:1054500080916F00806180936F00109280008AE0DD
:10546000809381008091350385FD04C0E12C34E0F8
:10547000F32E03C0E12C25E0F22E40913403459534
:10548000459545954595440F485F9091360384E6D0
:105490009802D0011124A85ABD4F882499248A1A51
:1054A0009B0A80910206992787FD909528EE33E0AC
:1054B000829FB001839F700D929F700D11246853DD
:1054C00070456A1B7B0B00E719E0EDEAF8E050E05D
:1054D000440F551F440F551F5F01A40EB51ECC2469
:1054E000DD24CE18DF0888E5682E82E0782E6A1A5F
:1054F0007B0A1DC0C601E801288139812C153D05B4
:1055000034F02E153F0514F0C70101C0C901805ABF
:10551000964F9401281B390B620F731F860D971D40
:1055200091838083B383A28334960E5F1F4FEA1565
:10553000FB0501F7FA01E355F74F71836083B383ED
:10554000A283158214828DEA98E090930A028093D8
:105550000902DF91CF911F910F91FF90EF90DF90A3
:10556000CF90BF90AF909F908F907F906F90089555
:105570001F920F920FB60F920BB60F9211241F932A
:105580002F933F934F935F936F937F938F939F934B
:10559000AF93BF93EF93FF9310918400E0910902C2
:1055A000F0910A0280819181909389008093880014
:1055B00090938B0080938A0080913D09882331F07D
:1055C00080E38093800010923D0906C080E28093C2
:1055D000800081E080933D093296F0930A02E093C7
:1055E0000902329782819381892BD9F48091350306
:1055F00082958F708095817080933D0980916F00B6
:105600008D7F80936F000E94FC2980913403877006
:1056100011F0833031F480916F00826080936F00CD
:10562000789480910506811710F4109305068091F7
:105630000606181710F41093060680910A0681607A
:1056400080930A06FF91EF91BF91AF919F918F9147
:105650007F916F915F914F913F912F911F910F908B
:105660000BBE0F900FBE0F901F9018950E94FC2943
:105670008FEF9FEF90938B0080938A0080E380935D
:105680008000EFE6F0E080818260808308959C01D5
:10569000E091A109F0E0EE0FFF1FED56F64F3183C8
:1056A00020838FEBF90119958091110680931006E4
:1056B00084E687BD08959C019091A109E92FF0E04F
:1056C000E356F64F8091A2098083E92FEF5FE093C4
:1056D000A109E53040F09093A1098EEE98E160E0D9
:1056E0000E94C4150895809111068093100684E6E7
:1056F00087BDF0E0EE0FFF1FED56F64F318320839C
:105700008FEBF90119950895E091A109EE23E1F0DD
:10571000E150E093A109809111068093100684E680
:1057200087BD1092A309F0E0DF01A356B64F8C911C
:105730008093A209EE0FFF1FED56F64F0190F08106
:10574000E02D8EEB199508958EEE98E160E00E94B1
:10575000C41508958F929F92AF92BF92CF92DF921D
:10576000EF92FF920F931F93CF93DF93182F7B013C
:105770004A015901C02E84FD04C044E0D42E05E046
:1057800005C01F70106635E0D32E04E08D2D8066B5
:10579000181761F08D2D8064181741F090916D09F4
:1057A000191674F4133611F0133451F4E7012196ED
:1057B00080911106809310068AE587BD802F19C05D
:1057C000802F8066181761F0802F8064181741F0D1
:1057D00019160CF085C0123619F0123409F080C089
:1057E000E701219780911106809310068FE687BD0F
:1057F0008D2D90E00E940974882351F0CC27DD277D
:10580000CE19DF09802F0E9488748D2D0E94887424
:105810008114910491F481E0A816B10471F410365A
:1058200061F410926D09C0E0D0E0E114F10411F4CC
:10583000C1E0D0E080E60E94887480919009909148
:105840009109C81BD90BAC16BD0654F4812F0E94D8
:10585000887480911306809310068AE587BDE50160
:10586000C815D90554F4812F0E94887480911306BD
:10587000809310068FE687BDE401CE15DF0501F1A8
:10588000209789F4812F0E947B74F7FE06C08091D7
:105890001306809310068AE505C080911306809355
:1058A00010068FE687BD8C2D83700E945865EC161C
:1058B000FD0614F08FEF01C081E08093920902C0D1
:1058C00010929209CE01DF91CF911F910F91FF901D
:1058D000EF90DF90CF90BF90AF909F908F90089502
:1058E000E70196CF0F93772767FD7095552747FD02
:1058F0005095332727FD309501E00E94AA2B0F9188
:1059000008950F93772767FD7095552747FD5095AC
:10591000332727FD309502E00E94AA2B0F910895AE
:10592000FF920F931F93F82E162F042F80E860E04C
:10593000412F50E0202F0E94C06F1A3010F485E7ED
:1059400001C08FE660E04FE2202F0E94976C1A3072
:1059500010F485E701C08FE64F2D50E04F5F5F4F99
:1059600060E0202F0E94C06F1F910F91FF9008955B
:10597000BF92CF92DF92EF92FF920F931F93CF933C
:10598000DF93D82EB62EEA01622F10929109109261
:10599000900980914308F090A409F81A99F0809139
:1059A00043088093A4091092A50980916D091816E7
:1059B0004CF48F2D992787FD9095909391098093B2
:1059C0009009FF244EE6D416B1F480916D098F5FE3
:1059D00080936D098150181614F410926D0980910E
:1059E0006D0918163CF48091A209882319F48FEFF1
:1059F00080936D09FF248091900990919109892BE2
:105A000089F08091220390E024EF31E0FC01E29FD5
:105A1000C001E39F900DF29F900D112490931D06FD
:105A200080931C06209711F429E762C08091A20997
:105A3000882309F045C080916F09882309F040C090
:105A40009B2DFF2071F080916D0987FF0AC0262FE2
:105A500021508B2D8F1987FD80E0982F28170CF48B
:105A6000922FF4E6DF1651F045E6D41699F4BB20E8
:105A700011F09B2D01C0962F91500CC02B2D30E0C2
:105A8000862F90E001972817390714F090E002C0A4
:105A90009B2D9F5F292F332727FD30958B2D90E07D
:105AA0002817390711F442E00CC0F901EE0FFF1F6F
:105AB000EC0FFD1F859194910E94472B80E092C1CD
:105AC00040E010926F098B2D0E94902C2091590F6D
:105AD0002E508B2D90E0019666EF7FEF0E94FFB075
