:100000000C94B60C0C94D30C0C94D30C0C94D30C11
:100010000C94D30C0C94D30C0C94D30C0C94D30CE4
:100020000C94D30C0C94D30C0C94D30C0C94D30CD4
:100030000C9467280C94D30C0C94D30C0C9468107B
:100040000C946F0F0C94D30C0C940D730C9409103A
:100050000C94D30C0C94D30C0C948F6E0C94D30C86
:100060000C94D30C0C948E0F0C94D30C0C94D30CD6
:100070000C94D30C0C94D30C0C94D30C0C94D30C84
:100080000C94D30C0C94D30C0C94D30C53505300FD
:100090008040000000F8FE060303030306FEF8009C
:1000A0000000000000000000000080C0C0E0F0F888
:1000B000FCFEFEFFFF7F7E3E3C1C0000C0E0E0F047
:1000C000E0000000000000000000000000000080D0
:1000D000E0F0F8F8FCFCFC7C3C381000000000006C
:1000E000000000000000000000000000000000C050
:1000F0004020202020202040408000000000000000
:1001000000000000000000000000000000000000EF
:100110000000000000E1E7666C6C6C6CE6C78100D3
:100120000000000080E0F0F8FCFE7FBF3F1F0F07DB
:100130000783C1E1F0F8FCFCFEFE00000103070F9D
:100140000F1E3C3870F0E0C080000080E0F8FEFF39
:10015000FF3F0F1F0F030000000000000000000021
:1001600000000080402020301010307E7FFFFBBC5C
:10017000C8F0000000F01030608001063CE0000094
:10018000000000000000000000000000000000006F
:100190000000000000FFFF0C0C0C0C0C0E0703000D
:1001A0000000F8FEFFFFFFFFCFC7E1F0F0F8FC7E94
:1001B0007F1FFFFFFFFFFFFF7F0700000000000021
:1001C00000000000000080C1F3FFFEFF7F7FEFC151
:1001D000C0800000000000000000000000000000DF
:1001E0001C7C7FFD800000008080C0C0E0F040F0FB
:1001F000F0C0038E7800818242432010080780807F
:10020000804040202020301030202020E050484402
:100210000020000000FDFD8C8C8C8C8C8C8C8C0064
:1002200000000107070707070F1F1F0F0703010043
:1002300000F8FFFFFFFF3F07000000000000000084
:100240000080C070BC7E171B0F0701000000000378
:10025000071F3FFEF8F0E0C0800000000000000033
:10026000000000000001010100F049AB1E1D353502
:1002700032323E3D3C1E1F3C4CCE8E0E0F0B021602
:100280001510080808040402020303050703090601
:100290000202000000BFBF313131313131B1B10054
:1002A000000000000000000000000000000000F05E
:1002B000FFFFFFFF0F0100000000000000C06018FA
:1002C000060305020000000000000000000000001E
:1002D000000000000101040707000000000000000A
:1002E000000000000000000000000103020201F90C
:1002F0002D2E0EFB0101808080808183061870C046
:1003000000000000000000000000000000000000ED
:100310000000000000FFFF070E3870C080FFFF00E4
:10032000000000000000000000000000C0F8FF7F97
:100330001F370700000000000000707C7F3F38007E
:1003400000000000000000000000000000000000AD
:10035000000000000000000000000000000080F02D
:10036000381808080808080808080808080C0C1FAE
:100370001010191909090908080808181018080F99
:100380000C0E0A0A0A0A0A0C0C08080C0C0C38E0BD
:10039000000000000007070000000001030707003D
:1003A000000000000000000000000403060301003C
:1003B000000000000000000000000000000000003D
:1003C000000000000000000000000000000000002D
:1003D00000000000000000000000000000E0FF4FEF
:1003E000404040404040404040404040404040400D
:1003F00040404040404040404040404040404040FD
:100400004040404040404040404040404040403FED
:10041000F8000000000000000000000000000000E4
:1004200000000000000000000000000000000000CC
:1004300000000000000000000000000000000000BC
:1004400000000000000000000000000000000000AC
:10045000000000000000000000000000E0FF0300BA
:10046000000000000000000000000000000000008C
:10047000000000000000000000000000000000007C
:10048000000000000000000000000000000000006C
:1004900007FC535045000102030401020403010359
:1004A0000204010304020104020301040302020125
:1004B0000304020104030203010402030401020411
:1004C0000103020403010301020403010402030205
:1004D00001040302040103040102030402010401F4
:1004E00002030401030204020103040203010403E2
:1004F00001020403020101020304010302040402D5
:1005000003010403020100000000000001081E6452
:100510000101081E6401010F32960A0A1E32960379
:10052000010200040506075F2D2E2C00564552538C
:100530003A2056322E30302D62736F6E6769730029
:100540002053564E3A206F70656E39782D723133D4
:100550003700444154453A20323031322D30312D6C
:1005600032350054494D453A2032323A31303A342E
:100570003100204D4F443A2046574800274C474809
:100580005232654517411241483699356E339C31D8
:10059000FD306C2DCE2C00FF0100010202FF010096
:1005A0000102020000010001000200030303030333
:1005B00003030303030303030303032F3332002F57
:1005C000313400060003750000090202000000003B
:1005D00000060201120800081C0808081C08000098
:1005E000082200490022080000000000227F2200AB
:1005F00000000822004900220800000822004900EB
:100600002208000000227F220000000000082200D3
:10061000490022080000081C0808081C08001D5397
:10062000AB5137500F517450294F41000002020264
:10063000020041203A007A3A00793A00783A0040C4
:10064000430040430041203A0050080000000000F1
:100650000000006F000007000700147F147F1424BF
:100660002A7F2A1223130864623649552250000556
:10067000030000001C2241000041221C0014083E1F
:10068000081408083E080800503000000808080850
:100690000800606000002010080402003E41413E56
:1006A0000000427F400062514946004149493600FE
:1006B0001814127F0027454539003E494932000190
:1006C0007905030036494936000649291E000036DF
:1006D0003600000056360000081422411414141489
:1006E00014412214080002015109060609090600F6
:1006F0007E0909097E7F494949363E414141227FB1
:100700004141221C7F494949417F090909013E4174
:1007100049497A7F0808087F00417F410020404115
:100720003F017F081422417F404040407F020C027D
:100730007F7F0408107F3E4141413E7F0909090641
:100740003E4151215E7F0919294626494949320116
:10075000017F01013F4040403F1F2040201F3F409C
:1007600030403F631408146307087008076151495B
:100770004543007F41410002040810200041417FB1
:100780000004020102044040404040000102040015
:1007900020545454787F48444438384444442038E2
:1007A0004444487F3854545418087E0901020C52BE
:1007B00052523E7F0804047800447D4000204044AB
:1007C0003D007F1028440000417F40007C04180455
:1007D000787C0804047838444444387C14141408A1
:1007E000081414187C7C0804040848545454200449
:1007F0003F4440203C4040207C1C2040201C3C408A
:1008000020403C44281028440C5050503C44645430
:100810004C44000836410000007F000000413608CB
:10082000000808221C08081C220808A0600000001C
:100830000000000000000000000000FEFE000000BC
:100840000000003E7E00007E3E00006060FEFE6014
:1008500060FEFE606060F09898FEFE989818180C94
:100860001E1E0C80C0E070381878FC8EC6E6763C00
:10087000180000000066763E1E000000000000E048
:10088000F0381C0E0600000000060E1C38F0E000D8
:10089000006060C080F8F880C0606080808080F870
:1008A000F8808080800000000000000000000080D0
:1008B00080808080808080808000000000000000B8
:1008C0000000000000000080C0E070381800000048
:1008D0000000000000000000000000717100000036
:1008E000000000000000000000000006067F7F06F8
:1008F000067F7F0606181819197F7F19190F061829
:100900001C0E070301307878301E3F716367663C28
:100910003C666600000000000000000000000007C8
:100920000F1C387060000000006070381C0F07005A
:1009300000060603011F1F01030606010101011F36
:100940001F01010101000066763E1E00000000014B
:10095000010101010101010101000030787830003E
:10096000000000181C0E070301000000000000F842
:10097000FC0E06060EFCF80000181CFEFE0000002F
:10098000000000181C0E0686CEFC780000060686C5
:100990008686CEFC78000080C0E070381CFEFE0029
:1009A000007E7E666666E6C6860000F8FC8E868659
:1009B0008E1C180000060686C6E6763E1E000078ED
:1009C000FCCE8686CEFC78000078FCCE8686CEFCF7
:1009D000F8000030787830000000000000307878AF
:1009E0003000000000000080C0E070381C0E06607F
:1009F000606060606060606060060E1C3870E0C01F
:100A0000800000181C0E06060686CEFC7800001F2B
:100A10003F706060703F1F000060607F7F6060001B
:100A2000000000787C6E6763616060000060606158
:100A30006161733F1E00000707060606067F7F0000
:100A4000001838706060703F1F00001F3F716161C7
:100A5000733F1E000000007F7F0000000000001EAA
:100A60003F736161733F1E000000006171391D0F0B
:100A70000700000C1E1E0C00000000000066763E01
:100A80001E0000000000000103070E1C3870600605
:100A90000606060606060606066070381C0E0703E4
:100AA0000100000000000066670301000078FCCE32
:100AB0008686CEFC780000E0F0B89C8E8E9CB8F064
:100AC000E0FEFE8686868686CEFC78F8FC0E06065C
:100AD00006060E1C18FEFE0606060E1C38F0E0FE8A
:100AE000FE8686868686860606FEFE86868686863E
:100AF000860606F8FC0E068686868E9C98FEFE808C
:100B00008080808080FEFE00000606FEFE06060055
:100B100000000000000606FEFE0606FEFE80C0E0A5
:100B200070381C0E06FEFE0000000000000000FEF3
:100B3000FE1C38F0F0381CFEFEFEFE70E0C08000A7
:100B400000FEFEF8FC0E060606060EFCF80000018C
:100B5000010101000000007F7F0101010101017F0F
:100B60007F7F7F6161616161733F1E1F3F706060C5
:100B700060607038187F7F60606070381C0F077F7E
:100B80007F61616161616160607F7F0101010101DD
:100B90000100001F3F7060616161717F3F7F7F01D5
:100BA00001010101017F7F000060607F7F606000C4
:100BB000001838706060703F1F00007F7F010307DE
:100BC0000E1C3870607F7F60606060606060607F76
:100BD0007F0000010100007F7F7F7F00000103078D
:100BE0000E7F7F1F3F7060606060703F1FFEFE865B
:100BF00086868686CEFC78F8FC0E060606060EFC77
:100C0000F8FEFE8686868686CEFC7878FCCE8686C2
:100C100086868E1C1806060606FEFE06060606FEDC
:100C2000FE000000000000FEFEFEFE0000000000CE
:100C300000FEFEFEFE000000000000FEFE1E3E70F4
:100C4000E0C0C0E0703E1E7EFEC080000080C0FE9E
:100C50007E0606060686C6E6763E1E0000FEFE06F8
:100C60000606060000183870E0C080000000000092
:100C70000006060606FEFE00006070381C0E0E1C04
:100C8000387060000000000000000000007F7F015D
:100C9000010101010100001F3F7060666E3C387F5A
:100CA000677F7F0101070F1D39706018387161611E
:100CB0006161733F1E000000007F7F000000001F85
:100CC0003F7060606060703F1F070F1C38707038A5
:100CD0001C0F071F3F70703E3E70703F1F787C0EE8
:100CE000070303070E7C78000001037F7F030100E8
:100CF00000787C6E6763616060606000007F7F6089
:100D00006060600000000000000103070E1C180076
:100D100000606060607F7F00000000000000000055
:100D200000000060606060606060606060000006FD
:100D30000E1C387060000000006060606060E0C001
:100D400080FEFE80C0E06060E0C08080C0E0606047
:100D5000606060000080C0E06060E0C080FEFE80F7
:100D6000C0E060606060E0C0808080F8FC8E860635
:100D70000E1C18E0F0381818181818F8F8FEFE8045
:100D8000C0E06060E0C08000006060E6E600000057
:100D900000000000006060E6E60000FEFE0000804B
:100DA000C0E060000000000606FEFE00000000E05B
:100DB000E060E0C0C0E0E0C080E0E080C0E06060F3
:100DC000E0C08080C0E060606060E0C08000000043
:100DD00000000000000000183C7E66666666667FC4
:100DE0007F7F7F6161606060703F1F1F3F70606048
:100DF00060607038181F3F7060606061617F7F1FA6
:100E00003F766666666666070701017F7F0101001F
:100E100000000001036766666666763F1F7F7F01FC
:100E200001000000007F7F000060607F7F60600045
:100E3000001838706060703F1F00007F7F060F1F32
:100E40003970600000000060607F7F606000007F9C
:100E50007F0000070700007F7F7F7F010100000007
:100E6000007F7F1F3F7060606060703F1FE0E06048
:100E700060606060E0C08080C0E0606060C080E072
:100E8000E0E0E080C0E06060E0C08080C0E06060E2
:100E900060606000006060FEFE606000000000E0D6
:100EA000E0000000000000E0E0E0E00000000000E2
:100EB00000E0E0E0E0000000000000E0E060E0C0F2
:100EC00080000080C0E060E0E0000000000000E082
:100ED000E0606060606060E0E0E060000080C0783A
:100EE0007C0E06000000000000FEFE000000000076
:100EF00000060E7C78C0800000808080801838F06A
:100F0000E0C08080C0E0F03818808080807F7F065D
:100F10000606060607030101030706060607077F04
:100F20007F7F7F0101000000000101616367666649
:100F300066667E3C1800001F3F7060607038181FA6
:100F40003F7060607038187F7F070F1C38707038F2
:100F50001C0F071F3F7070383870703F1F6070396A
:100F60001F0F0F1F39706001036766666666763F64
:100F70001F6070787C6E6763616060000001031E13
:100F80003E70600000000000007F7F000000000055
:100F90000060703E1E0301000001010101181C0FDA
:100FA0000703010103070F1C180101010163004041
:100FB000800804201002014F46464F4E202D2D2D53
:100FC000494E563443482036434820384348203160
:100FD0003043483132434831344348313643485135
:100FE000756965744E6F4B65794E6F726D204C6FED
:100FF0006E6720784C6F6E6753494E474F534D5084
:1010000046494C54446F776E4F4646205570202019
:101010006F6666202B3D203A3D636831636832631A
:101020006833636834457870202020457846696EBF
:101030006546696E6520204D656469756D436F6115
:101040007273655245544131323350504D20205017
:101050005858202044534D322050504D3136504F77
:10106000534E45472D2D2D783E30783C307C787C92
:10107000663E30663C307C667C4544495420505284
:10108000534554412E5448525765696768744578F2
:10109000706F2020506861736520537774636820F7
:1010A0005768656E202043757276652020202020C9
:1010B000202041646420202020204D756C746970CC
:1010C0006C795265706C616365202B3D2A3D3A3D19
:1010D0002D2D2D2D202020763E6F66732020763C0E
:1010E0006F667320207C767C3E6F66737C767C3CDA
:1010F0006F6673414E44202020204F522020202034
:1011000020584F522020202076313D3D76322076E7
:1011100031213D76322076313E7632202076313CC8
:101120007632202076313E3D76322076313C3D7657
:1011300032202D2D2D2D2020202020202020202069
:10114000547261696E657220202020202020547224
:1011500061696E6572205255442020205472616985
:101160006E657220454C45202020547261696E6581
:101170007220544852202020547261696E6572209A
:1011800041494C202020496E7374616E7420547262
:10119000696D20205472696D73324F666673657491
:1011A0007320762D2D2D2D59656C4F726752656415
:1011B0003C3E4E6F6E654875622057534848414427
:1011C00031414432414C5452504D53696D706C65FD
:1011D00020342D434820542D437574202020202096
:1011E0002020562D5461696C202020202020456C41
:1011F00065766F6E5C44656C7461654343504D2049
:1012000020202020202048656C692053657475706B
:101210002020536572766F205465737420202D2D25
:101220002D20202031323020202031323058202013
:10123000313430202020393020202020204D656E90
:1012400075204578697420446F776E202020557092
:101250005269676874204C6566745448525255440C
:10126000454C4549443049443149443241494C4751
:10127000454154524E5357315357325357335357B6
:1012800034535735535736535737535738535739C5
:1012900053574153574253574352554420454C45A9
:1012A000205448522041494C2050312020503220B7
:1012B00020503320204D41582046554C4C43594333
:1012C0003143594332435943334F464641425354C5
:1012D0004873544825544874005B4D454E555D2075
:1012E0002020205B455849545D00205B4D454E55FC
:1012F0005D205748454E20444F4E45006672656557
:101300000044454C455445204D4F44454C00436FE7
:101310007079696E67206D6F64656C2E2E2E004D9E
:101320006F76696E67206D6F64656C2E2E2E004C93
:101330006F6164696E67206D6F64656C2E2E2E0080
:101340004E616D650054696D657200452E4C696D86
:1013500069747300452E5472696D73005472696D1F
:1013600020496E6300542D547261636500542D54FE
:1013700072696D0042656570204374720050726F2F
:10138000746F0050504D206672616D65006D730082
:10139000537769746368005472696D7300466164C1
:1013A0006520496E0046616465204F7574002864AD
:1013B000656661756C742900436865636B20202045
:1013C00020205472696D73005377617368205479DB
:1013D000706500436F6C6C65637469766500537764
:1013E0006173682052696E6700454C4520446972FC
:1013F000656374696F6E0041494C2044697265638E
:1014000074696F6E00434F4C204469726563746960
:101410006F6E004D4F4445004E6F2066726565202B
:101420006578706F21004E6F2066726565206D696A
:101430007865722100494E53455254204D49582039
:101440000045444954204D49582000536F7572633C
:101450006500576569676874004F66667365740058
:101460005472696D0043757276657300462E50683C
:10147000617365005761726E696E67004F46460082
:101480004D756C7470780044656C617920446F7799
:101490006E0044656C617920557000536C6F772045
:1014A00020446F776E00536C6F7720205570004496
:1014B000522F4558504F004D4958455200434F5008
:1014C00059205452494D205B4D454E555D004356C1
:1014D000005357004120206368616E6E656C004DBB
:1014E00061780043616C69620042617200416C6125
:1014F000726D0055737250726F746F00434C4541AA
:1015000052204D49584553205B4D454E555D004294
:10151000656570657200436F6E747261737400422A
:10152000617474657279207761726E696E670049C3
:101530006E616374697669747920616C61726D00A3
:1015400046696C74657220414443005468726F743C
:10155000746C652072657665727365004D696E7591
:1015600074652062656570004265657020636F7503
:101570006E74646F776E00466C617368206F6E20C6
:1015800062656570004C696768742073776974637D
:1015900068004C69676874206F66662061667465D0
:1015A000720053706C6173682073637265656E00BE
:1015B0005468726F74746C65205761726E696E67DF
:1015C00000537769746368205761726E696E6700B3
:1015D0004D656D6F7279205761726E696E6700415B
:1015E0006C61726D205761726E696E67004E4F209C
:1015F0004441544120416C61726D0052782043682F
:10160000616E6E656C204F7264004D6F64650053AF
:101610006C617665006D6F646520202025207372F3
:1016200063004D756C7469706C6965720043616C20
:1016300000454550524F4D2076005472696D2D2063
:101640002B00424700205B4D454E555D20544F20F6
:101650005354415254202000202020534554204D03
:101660004944504F494E5420202000204D4F5645AC
:1016700020535449434B532F504F54532000416C37
:10168000743A00527820426174743A0052783A00F9
:1016900054783A004864673A005370643A005465DD
:1016A0006D70313A0054656D70323A0052504D3AC7
:1016B000004675656C3A00566F6C74733A0041636E
:1016C00063656C0054656C653A00525353493A00A7
:1016D0004E4F204441544100544D3100544D32008E
:1016E0005448520054482500544F5400746D7231D0
:1016F0004C6174206D617820202020757300746D1A
:1017000072314C6174206D696E2020202075730049
:10171000746D7231204A69747465722020202075BE
:101720007300746D61696E206D6178202020202027
:10173000206D73004672656520537461636B206D84
:10174000696E2020202062005B4D454E555D20745F
:101750006F2072657365740050504D00434800540B
:101760004D52004D4F44454C0046500045455052A7
:101770004F4D206C6F77206D656D00414C45525484
:1017800000507265737320616E79206B65792074E7
:101790006F20736B6970005468726F74746C65208D
:1017A0006E6F742069646C65005265736574207493
:1017B00068726F74746C6500416C61726D73204463
:1017C000697361626C6564005377697463686573FB
:1017D000206E6F74206F666600506C6561736520C3
:1017E0007265736574207468656D004D455353418F
:1017F000474500707265737320616E79204B65797F
:101800000042616420454570726F6D2044617461CF
:1018100000454550524F4D20466F726D617474699A
:101820006E6700454550524F4D206F766572666C6D
:101830006F77004D454E5553204F564552464C4FFD
:101840005700524144494F2053455455500054527B
:1018500041494E45520056455253494F4E00444966
:10186000414700414E410043414C49425241544995
:101870004F4E004D4F44454C53454C005345545535
:101880005000464C49474854205048415345004673
:101890004C49474854205048415345530048454C13
:1018A000492053455455500044522F4558504F003D
:1018B0004C494D49545300435552564553004355E6
:1018C00052564500435553544F4D205357495443A6
:1018D0004845530046554E432053574954434845C5
:1018E00053005341464554592053574954434845A2
:1018F000530054454C454D455452590054454D50A4
:101900004C415445530053544154004445425547BB
:10191000009C1432465A5A4632465AECEC003C645B
:101920009CC4003C649C0000006453696D706C654D
:1019300020342D434800542D43757400562D5461B6
:10194000696C00456C65766F6E5C44656C74610013
:10195000654343504D0048656C692053657475704C
:1019600000536572766F20546573740011241FBE96
:10197000CFEFD0E1DEBFCDBF11E0A0E0B1E0E4E504
:10198000FFEE02C005900D92AA32B107D9F71DE013
:10199000AAE2B1E001C01D92AE3CB107E1F70E949E
:1019A000E2260C94A8770C940000E82F8823D9F045
:1019B00087FF07C0863E1CF080E68E1B0895E195E8
:1019C00004C08B3114F4805C0895E5321CF48E2F32
:1019D0008B5E0895E9323CF4FF27E7FDF095EE5F5A
:1019E000FA4F8491089580E208959DE0899F9001C7
:1019F00011242E5F3B4FC9010895282F30E0220F9C
:101A0000331F220F331F25503D4FC901089599E020
:101A1000899F9001112425573E4FC901089595E0F3
:101A2000899F9001112425553D4FC90108959C01BE
:101A300040E0683008F041E070E0442371F0CB01F1
:101A40000897FC0163E0EE0FFF1F6A95E1F7E80FCE
:101A5000F91FDF01A55ABC4F0AC0FB01EE0FFF1FA3
:101A6000EE0FFF1FE60FF71FDF01AD5CBC4FFD015E
:101A7000808120503C4F37FD0EC068E02030360793
:101A800084F0442319F484E090E002C088E090E000
:101A9000A80FB91F8C91992787FD9095582F44273F
:101AA00033C0442331F0432FB9017070660F771FA4
:101AB00004C0432F4695B9017170842F90E0FD0159
:101AC000E80FF91F8181992787FD90959B01359536
:101AD0002795829FA001839F500D929F500D112446
:101AE0002081332727FD309580E092E0861B970BFD
:101AF00095958795BC01269FC001279F900D369F25
:101B0000900D1124480F591FCA0169E170E00E942D
:101B10001D77CB0108959C01633031F1643028F4C6
:101B2000613051F0623090F43CC0653039F165307D
:101B300008F1663061F525C0493029F497FD24C0CD
:101B4000205032400AC097FF2CC026C0493041F4D3
:101B50001816190624F120503E4F220F331F21C0C2
:101B600018161906CCF01DC097FF1BC030952195A3
:101B70003F4F17C01816190694F00EC097FF0CC0FF
:101B800003C0181619065CF020E03CEF0AC067504D
:101B90000E94170D9C0105C020E030E002C020E04B
:101BA00034E0C90108956F927F928F929F92AF9215
:101BB000BF92CF92DF92EF92FF920F931F933B0160
:101BC0007C0100E010E08824992464E670E080E065
:101BD00090E06619770988099909A80197010E9480
:101BE000DE765B016C0182E390E0A0E0B0E0A80E3D
:101BF000B91ECA1EDB1EC801B7010E94DE760E9414
:101C0000DE76BC0188279927A40193010E94DE7625
:101C1000E4E09695879577956795EA95D1F7A60EB6
:101C2000B71EC81ED91EC601B50124E630E040E04B
:101C300050E00E943077C9011F910F91FF90EF9003
:101C4000DF90CF90BF90AF909F908F907F906F90DC
:101C50000895FF920F931F939C01AB0161157105CD
:101C600031F1FF2497FF05C0FF24F39430952195AF
:101C70003F4F57FF10C000E014E066277727641B32
:101C8000750BC801821B930B0E94D30D9801281B72
:101C9000390BC90104C0C901BA010E94D30DFF204C
:101CA00011F49C0104C022273327281B390BC901DA
:101CB0001F910F91FF9008951F93162F0E94F50C0E
:101CC000FC01A12FB0E02481332727FD3095CD0101
:101CD000880F991F02C0359527958A95E2F72370E2
:101CE0003070AE0FBF1F8C91992787FD9095880F9C
:101CF000991F880F991F280F391FC9011F91089537
:101D0000FF920F931F93F82E162F00E0112391F0EE
:101D1000812F6F2D0E945C0E21E0853F920754F0C9
:101D2000282F255F211708F02F5F0F5F122F053036
:101D300069F710E0812F1F910F91FF900895EFE157
:101D4000F5E0E80FF11DE491F0E0EE0FFF1FEB531B
:101D5000F94F20813181C9010895A5ECB6E0E5ED88
:101D6000F6E060E0862F806487B9369A2089318951
:101D70008D919C91119796958795820F931F8E7FD9
:101D800011969C938E9340815181240F351F369577
:101D90002795318B208B349BFECF349A84B195B13B
:101DA000840F951F96958795819391936F5F1296F7
:101DB0006830C1F60895E5ECF6E050E0852F8064C8
:101DC00087B920E030E040E0369A349BFECF349A69
:101DD00084B195B1280F391F4F5F4430A9F736956C
:101DE0002795219331935F5F583041F70895E5ECD3
:101DF000F6E020E0822F806487B9369A349BFECFCC
:101E0000349A84B195B1880F991F819391932F5F74
:101E1000283081F708958EE587B985E28A95F1F734
:101E2000369A349BFECF349A84B195B1909368046E
:101E3000809367040895A82FB0E0FD01E858FB4F98
:101E40001082882329F4809182019091830104C03B
:101E50008091890190918A01FD01EE0FFF1FE658E4
:101E6000FB4F91838083A258BB4F1C920895AF9281
:101E7000BF92CF92DF92EF92FF920F931F93CF9377
:101E8000DF935B016C0100E010E8C0E0D0E8EE24D5
:101E9000FF249E0140E050E0CA01B9010E94DE76B5
:101EA000A616B706C806D90610F4C027D12716957E
:101EB00007950894E11CF11C80E1E816F10461F437
:101EC000CE01DF91CF911F910F91FF90EF90DF90A6
:101ED000CF90BF90AF900895C02BD12BDACF1F9237
:101EE0000F920FB60F9211248F93809193068F5FFC
:101EF000809393068F910F900FBE0F901F901895AF
:101F00004091930622B7809193064817C9F7942F02
:101F100080E030E0282B392BC90108951F920F92E1
:101F20000FB60F9211242F933F934F935F936F93AC
:101F30007F938F939F93AF93BF93CF93DF93EF9351
:101F4000FF93C0918000D091810080917D008F7DB2
:101F500080937D00789480919406909195069E01DF
:101F6000281B390B36952795C901815A9F408F5DF3
:101F70009E4220F481E0809392062EC0409192060A
:101F8000842F8150883040F5C90181529340875792
:101F9000954000F5E42FF0E0EE0FFF1FE058F94FF9
:101FA0002C5D354080917401992787FD90950A96A4
:101FB000BC01269FC001279F900D369F900D1124D4
:101FC0006AE070E00E941D77718360834F5F4093E9
:101FD000920602C010929206D0939506C093940682
:101FE000F89480917D00806280937D00FF91EF9155
:101FF000DF91CF91BF91AF919F918F917F916F9121
:102000005F914F913F912F910F900FBE0F901F90B6
:1020100018951F920F920FB60F9211248F93EF9382
:10202000FF93E091780DEE2349F0E150E093780DB5
:10203000F0E0E459F24F80818CB901C05598FF91CE
:10204000EF918F910F900FBE0F901F901895EFECAE
:10205000FDE001C0319680818535E1F39F012E5C62
:102060003D40C9010895EF92FF920F931F93062FF1
:102070007A010E94F50CDC0110E0FC01E00FF11F79
:10208000C70195958795959587958083000F111FBA
:1020900083E090E0002E02C0880F991F0A94E2F7B7
:1020A000809514962C911497822393E0E922FF24C3
:1020B00002C0EE0CFF1C0A95E2F78E0D14968C936D
:1020C00082E00E94CE601F910F91FF90EF900895E3
:1020D00078941F920F920FB60F9211242F933F9373
:1020E0004F935F936F937F938F939F93AF93BF9320
:1020F000EF93FF93F89487B78D7F87BF81B78E5F8B
:1021000081BF789480915904882359F0809100010F
:1021100090919706890F8093970687FF02C01B9ABC
:1021200001C01B98809107018150809307018F5F48
:1021300009F054C08DE480930701909161049923C4
:1021400069F080917004882329F49093700481E0F1
:102150008093710491509093610421C030916F0479
:102160003323B9F020917004222399F090E08091FC
:102170007104882309F491E090937104992309F480
:1021800028E020936104992351F0315030936F047B
:1021900006C0109270041092710410925A0480913B
:1021A0007104882391F080915A04882311F490E0FF
:1021B00004C09091960681E0982790939606992303
:1021C00021F481E08093590402C0109259040E94C6
:1021D000137080915B04826080935B04F89487B7EE
:1021E000826087BF7894FF91EF91BF91AF919F91EB
:1021F0008F917F916F915F914F913F912F910F90B0
:102200000FBE0F901F9018950F931F938C010E9483
:10221000846E82E260E04BEE57E124E00E94D868D1
:1022200080E068E1A8010E9413690E94F16C80912E
:1022300058010E94E76C1F910F91089586B3809515
:102240008E77E1F70E94DC6E0895EF92FF920F9374
:102250001F938C017B010E94846E82E260E04BE759
:1022600057E124E00E94D86880E060E2A8010E9463
:10227000136980E068E2A7010E94136980E060E3CF
:1022800041E857E10E9413690E94F16C8091580166
:102290000E94E76C0E941E111F910F91FF90EF901A
:1022A0000895EF92FF920F931F93CF93DF93E82E41
:1022B000882349F480915D0490915E04492F441F66
:1022C0004427441F06C2992787FD909597FF03C0B6
:1022D000909581959F4F863109F4F6C18A3030F48C
:1022E00090E00D960E947B6F482FEFC18A50282FF7
:1022F00030E08901000F111F020F131F0D551C4FF5
:10230000D80112968C91882311F440E0E2C1F801C3
:102310008281853010F420E007C0D80112968C919C
:10232000883008F4DEC122E0D801EC91E150E730BA
:1023300008F449C053C080915F049091600440E06C
:102340008C239D23892B89F127C080915D04909176
:102350005E048C2B9D2B90935E0480935D04F801AA
:1023600080810E945111F82ED80111968C910E9403
:102370005111982FF8018281853019F0863049F487
:1023800003C0FF2089F002C0FF2031F4992321F41B
:102390000BC040E0F91649F041E080915F04909154
:1023A00060048C2B9D2B0AC040E020915F0430918B
:1023B0006004CE01809590958223932390936004CE
:1023C00080935F0482C180915C04882309F060C01F
:1023D000F0E0EE0FFF1FE257F84F31C0E93018F47C
:1023E00060E074E057C0E03178F4F0E0EE0FFF1FDA
:1023F000DF01AC5BBE4FE659F94F608171818D9171
:102400009C91681B790B09C0E43150F4F0E0EE0FA9
:10241000FF1FE659F94F60817181660F771F3AC03F
:10242000E43230F4F0E0EE0FFF1FEC58F84F07C035
:10243000E63240F4F0E0EE0FFF1FEE5CFB4F6081F0
:10244000718128C0E83270F48E2F90E08697FC01ED
:10245000EE0FFF1FE80FF91FE458F24F8081682F3D
:1024600070E018C0E83259F46091C60D7091C70D44
:102470008091A20D9091A30D680F791F0BC0E932D6
:1024800039F46091980D7091990D7695679502C019
:1024900060E070E0222309F079C0D8018C918A3283
:1024A0004CF011969C9189E19802C001112480584A
:1024B000934F3FC0F801808189325CF08181992778
:1024C00087FD909580589F4F880F991F880F991FFF
:1024D00030C0D8018C91873244F011968C919927A5
:1024E00087FD909580589F4F24C0F80180818532E8
:1024F0003CF08181992787FD90958E599F4F19C097
:10250000D80111969C9189E2980290011124359589
:1025100027953595279597FD915C96FB990F990B1B
:1025200090F9892F992787FD9095F901E81BF90B00
:10253000CF01D80112962C91223051F0233071F046
:102540002130C1F440E0861797070CF0BEC0BCC034
:1025500040E0681779070CF0B8C0B6C040E0FB0156
:1025600077FF03C0F095E195FF4F8E179F070CF0A2
:10257000ACC0AAC040E0FB0177FF03C0F095E19535
:10258000FF4FE817F9070CF0A0C09EC0D8011196C4
:10259000EC91E150E73058F480915C04882309F015
:1025A00063C0F0E0EE0FFF1FE257F84F33C0E93091
:1025B00018F4E0E0F4E05AC0E03180F4F0E0EE0F0F
:1025C000FF1FDF01AC5BBE4FE659F94F0190F08170
:1025D000E02D8D919C91E81BF90B0AC0E43158F471
:1025E000F0E0EE0FFF1FE659F94F0190F081E02D6A
:1025F000EE0FFF1F3BC0E43230F4F0E0EE0FFF1FA0
:10260000EC58F84F07C0E63248F4F0E0EE0FFF1F39
:10261000EE5CFB4F0190F081E02D28C0E83270F4B1
:102620008E2F90E08697FC01EE0FFF1FE80FF91F39
:10263000E458F24F8081E82FF0E018C0E83259F4F6
:10264000E091C60DF091C70D8091A20D9091A30D60
:10265000E80FF91F0BC0E93239F4E091980DF091C1
:10266000990DF695E79502C0E0E0F0E0D8011296EA
:102670008C91893089F08A3018F4883009F507C0C8
:102680008A3079F08B3091F08C30D1F414C040E076
:102690006E177F07D1F418C040E06E177F07A1F4D2
:1026A00014C040E0E617F70784F40EC040E06E1750
:1026B0007F075CF409C040E06E177F0734F004C068
:1026C00040E0E617F7070CF041E01E1414F081E03B
:1026D0004827842FDF91CF911F910F91FF90EF90AA
:1026E0000895C1E0D0E002C0CC0FDD1F2A95E2F7CB
:1026F00080915D0490915E048C239D23892B09F0C9
:102700001ACE23CE362F37953327379520E03093D6
:102710005E0420935D040E9451110895EF92FF9290
:102720000F931F93CF93DF93C7EED3E0E1E0EE2E3C
:10273000F12C2881222309F189818823F1F090E08E
:102740000197870102C0000F111F8A95E2F7822FBF
:1027500060E00E94821320918006309181068823D8
:1027600019F0202B312B05C0C801809590952823A6
:1027700039233093810620938006229683E0CF3F51
:10278000D807B9F6DF91CF911F910F91FF90EF908D
:102790000895FF920F931F938C01F62E0E94846E72
:1027A00082E260E04BE757E124E00E94D86880E0D5
:1027B00060E2A8010E94136989E168E343EF57E1F1
:1027C0000E9413690E94F16CFF2011F089E102C0A0
:1027D000809158010E94E76C8091660480936104A7
:1027E00082E3809300010E941E1186B380958E774C
:1027F00091F480915B0160E00E948213882331F4A0
:1028000080917201882311F4FF2019F0C79AA895CE
:10281000ECCFC798FCCF1F910F91FF900895809146
:102820006D0187FD07C0887329F488EB97E160E0AC
:102830000E94C913089580916D0186FD0AC00E940F
:10284000E462883C910528F48CE697E160E00E9400
:10285000C91308950F931F9380916D01867099F1AC
:1028600088EC97E169ED77E10E94251100E0809105
:102870006D018670823009F401E01EE00AC011315A
:1028800039F0812F8D5060E00E948213801729F467
:102890001F5F1631A0F31631B1F086B380958E77A5
:1028A00091F406C080917201882351F0C79A09C043
:1028B00080915B0160E00E9482138823B9F7F2CF18
:1028C000C7981EE0DECF1F910F9108950F931F93BD
:1028D000CF93DF9380916D0180FD43C080916E01A5
:1028E00090E08170907002E010E0081B190BF80175
:1028F000EE0FFF1FE65DFE4FC181D2816096878596
:102900009089C81BD90B0E94F70E102F802F0E94B0
:102910009F0EC817D9072CF587E997E169EA77E197
:102920000E9425110E94F70E812F0E949F0EC8174A
:10293000D90724F486B380958E7749F00E941E1142
:1029400010C080917201882351F0C79AEBCF80911B
:102950005B0160E00E9482138823B9F7F2CFC79829
:10296000E1CFDF91CF911F910F910895AF92BF9268
:10297000CF92DF92EF92FF920F93CF93DF938091EC
:10298000700184FD6EC080915B0160E00E94821343
:10299000882329F480917201882309F456C0C79ACC
:1029A0000E94846E80E060E040E950E020E000E0BA
:1029B0000E94B0670E94F16C809158010E94E76C00
:1029C0000E941E110E94AD0E0F5F0032D9F7AA249B
:1029D000BB2400E0802F0E949F0EC92FD0E0AC0ED8
:1029E000BD1E0F5F0430B1F7F894C090550DD09024
:1029F000560D789480E991E0C80ED91E1CC00E9443
:102A0000AD0EC0E0D0E000E0802F0E949F0EE92EC6
:102A1000FF24CE0DDF1D0F5F0430B1F786B3809524
:102A20008E77F9F4CA15DB05E1F411C080917201CB
:102A30008823A9F0C79AF8948091550D9091560D6E
:102A40007894C816D906D9F60CC0C798A9CF80913A
:102A50005B0160E00E948213882361F7E7CFC7988B
:102A6000EACFDF91CF910F91FF90EF90DF90CF9061
:102A7000BF90AF9008951F93CF93DF93C4E1D4E04C
:102A800011E08881882351F060E00E94821388233E
:102A900029F0812FDF91CF911F9108951F5F2D960F
:102AA000153079F710E0F5CFDF92EF92FF920F9398
:102AB0001F93CF93DF93E82E082F0F7006501091CD
:102AC00085011770083008F0C7C0E02FE595FF2793
:102AD000E7FDF09580916E0190E0880F991F880FB7
:102AE000991FE80FF91FEA50FB4FF490FA940E94E7
:102AF0003B15682F8F2D0E94800ED82E6F2D0E94BF
:102B00005C0EBC01112389F477FF04C08827992744
:102B1000861B970B9595879595958795019681329C
:102B2000910584F080E290E00DC0212F332727FD2E
:102B300030952150304081E090E002C0880F991F0D
:102B40002A95E2F7982F32E0F31639F48091840148
:102B500083FF03C094E021E001C020E0492F552706
:102B600047FD509500FF07C0EA01C60FD71F10E0D0
:102B700083E89FEF04C0EB01C41BD50BF8CF00978F
:102B800019F4222329F015C03FEF8338930749F049
:102B9000C817D9071CF0681779074CF08D379105D5
:102BA00041F08C179D072CF08617970714F4EC0161
:102BB00011E083589F4F8A3F910509F76C177D07F5
:102BC00024F4CE37D10544F40CC0C617D7074CF413
:102BD0008FEFC338D8072CF48091850186FFEB0175
:102BE00011E03EEFCC30D3071CF4CCE0DEEF06C0A2
:102BF00081E0C53FD80714F0C4EFD1E08D2D6F2DD3
:102C0000AE010E943310CE37D1051CF0CDE7D0E0E5
:102C100006C03FEFC338D30714F4C3E8DFEFCE019B
:102C200064E070E00E941D77EB01EC96112341F007
:102C30008E2D0E94027010925A048091640407C085
:102C4000E6FE03C081E080935A0480916204809381
:102C50006104C0930001EE248E2DDF91CF911F916E
:102C60000F91FF90EF90DF900895AF92BF92CF92B7
:102C7000DF92EF92FF920F931F93CF93DF935C014C
:102C8000A5EFB6E0FC0198E001900D929150E1F7BC
:102C90006F3F19F40E943B15682F9EEFC92E92E0FA
:102CA000D92E0FEFC0E0D0E0E62EFF240894E11CFF
:102CB000F11CFE01EE0FFF1FEE0FFF1FE550FD4F51
:102CC0002081822F837009F4A2C026952695237057
:102CD00030E0802F992787FD90952817390709F450
:102CE0008DC08181807E99F0828180FD10C0FE01BF
:102CF000EE0FFF1FEE0FFF1FE450FD4F8081829506
:102D00008695877090E0E816F90609F077C0FE0115
:102D1000EE0FFF1FEE0FFF1FE450FD4F8081880F65
:102D2000880F880F85958595859561E00E948213AF
:102D3000882309F463C0FE01EE0FFF1FEE0FFF1F93
:102D4000E550FD4F8081182F169516951370E12FD1
:102D5000F0E0EE0FFF1FEB50F94F0190F081E02DF6
:102D60008370F7FF03C080FD03C048C081FF46C0E9
:102D7000012FD6016C91772767FD7095CF010E94D6
:102D8000290E9C01FE01EE0FFF1FEE0FFF1FE55005
:102D9000FD4FE0818E2F807F69F06E2F62956F70FE
:102DA000862F90E00B970CF06C5FC90140E00E9409
:102DB0008B0D9C01B901882777FD8095982FFE0126
:102DC000EE0FFF1FEE0FFF1FE350FD4F20812695F2
:102DD00030E040E050E00E94DE7624E630E040E063
:102DE00050E00E945277E12FFF27E7FDF095EE0FAC
:102DF000FF1FEA0DFB1DC90120839183219684E00A
:102E000090E0C80ED91ECE30D10509F052CFDF9127
:102E1000CF911F910F91FF90EF90DF90CF90BF90D7
:102E2000AF9008952F923F924F925F926F927F9250
:102E30008F929F92AF92BF92CF92DF92EF92FF92CA
:102E40000F931F93CF93DF93282E90900104992026
:102E500009F467C080916E0190E0FC01E170F070B0
:102E60003196EE0FFF1FE257F84F0190F081E02DF1
:102E70009C012270307081FD03C0A3E0B0E002C06D
:102E8000A0E0B0E0AA0FBB1FA257B84FCD91DC91D4
:102E9000232B19F4A3E0B0E002C0A0E0B0E07F0172
:102EA0000027F7FC0095102FAA0FBB1FA257B84FA1
:102EB0006D917C91882777FD8095982F9E014427FE
:102EC00037FD4095542F0E94DE765B016C01C801EE
:102ED000B701A80197010E94DE76A60EB71EC81E94
:102EE000D91E692D70E080E090E0EAE0660F771F60
:102EF000881F991FEA95D1F724E630E040E050E0C2
:102F00000E945277B901CA010E94DE766A157B05DC
:102F10008C059D0530F4C601B5010E94370F4C01A8
:102F200002C088249924B40180E090E024E630E0D7
:102F300040E050E00E94DE762B013C016BE2E62E81
:102F400061E0F62E3324AA24BB248A2D843010F0AD
:102F50001A2D0DC0E0916E01F0E0EE0FFF1FEE0F95
:102F6000FF1FEA0DFB1DEA50FB4F149111500E9408
:102F70009F0E9C01D7018D919C911197281B390BB5
:102F8000121613062CF45C96ED91FC915D9705C02A
:102F9000D7011E96ED91FC911F97E436F10514F4CC
:102FA000E4E6F0E0B901882777FD8095982F4AE0A4
:102FB000660F771F881F991F4A95D1F79F014427F5
:102FC00037FD4095542F0E945277E901BCEF213024
:102FD0003B071CF4C0E0DCEF06C0E4E020303E0715
:102FE00014F0C0E0D4E08091700180FF05C0123081
:102FF00019F4D095C195DF4FC12EDD24F601EE0FF7
:10300000FF1FE257F84FD183C083CE010F964F9731
:1030100048F481E090E0012E02C0880F991F0A94C5
:10302000E2F7382A143008F07BC080915C048823D2
:1030300009F057C01E5F812F90E01250019721E0E8
:1030400030E002C0220F331F8A95E2F7C901816088
:10305000209180063091810682239323892B09F4E5
:1030600040C0F601EE0FFF1FEC59FE4F0081802F8C
:10307000807CB9F1E02FEF73F0E0EE0FFF1FDF016E
:10308000A45ABE4FEE57F94F608171812D913C914A
:10309000621B730B882777FD8095982FF601EE0F42
:1030A000FF1FE65DFE4F23AD332727FD3095432FED
:1030B000532F0E94DE7622E330E040E050E00E9491
:1030C00052770295069506950370E02FF0E0E13007
:1030D000F10519F0329729F403C0C20FD31F01C0C4
:1030E000E90181149104E1F0113011F01330C1F4C1
:1030F0006091010470E080E090E0EAE0660F771FE5
:10310000881F991FEA95D1F79E01442737FD409506
:10311000542F0E94DE76A30192010E945277E901AA
:10312000CC0CDD1C8CEF94E0C80ED91ED601CD93DB
:10313000DC930894A11CB11CE2E0F0E0EE0EFF1E4F
:10314000F7E0AF16B10409F000CF622D0E943516EA
:10315000EE2400E010E0A12C54E0B52EF801E4507C
:10316000FB4FC080D1808E2D622D0E94800E6E2D6F
:103170000E945C0EEC0122E0E21671F58091840160
:1031800083FF2AC08091700180FF03C0D095C19554
:10319000DF4FBE01882777FD8095982F63587F4FBA
:1031A0008F4F9F4F95012C193D09442737FD4095BE
:1031B000542F0E94DE7620E038E040E050E00E948C
:1031C0005277B901CA01603038E0730730E08307F5
:1031D00030E0930749F406C080918004882311F001
:1031E000C0E0D0E09E0101C09B01220F331FF80117
:1031F000E05BFA4F31832083E3940E5F1F4F84E03E
:10320000E81609F0ABCF832DDF91CF911F910F917D
:10321000FF90EF90DF90CF90BF90AF909F908F90F6
:103220007F906F905F904F903F902F9008958F9276
:103230009F92AF92BF92CF92DF92EF92FF920F9345
:103240001F93CF93DF930E943B15C82E9CEFE92E6E
:1032500094E0F92E00E515E0C0E0D0E082E0882E91
:10326000912CAA24A394BC2E80916E0190E08170D1
:1032700090709401281B390B2C173D0751F18C2FAE
:103280006C2D0E94800ED82EA0925C048C2D0E9482
:10329000121710925C04F80180819181F70120815E
:1032A0003181820F931F62E070E00E941D77AB01B5
:1032B000FEEF6C307F071CF44CE05EEF06C021E0AF
:1032C000653F720714F044EF51E08D2D6B2D0E9485
:1032D0003310219682E090E0E80EF91E0E5F1F4F3A
:1032E000C430D10509F0BFCF82E00E94CE6080914A
:1032F00063048093610482E380930001DF91CF91A6
:103300001F910F91FF90EF90DF90CF90BF90AF9003
:103310009F908F9008952F923F924F925F926F925D
:103320007F928F929F92AF92BF92CF92DF92EF9255
:10333000FF920F931F93DF93CF93CDB7DEB72797FD
:103340000FB6F894DEBF0FBECDBF9D838C83362EA3
:10335000862F0E941217409187014823242F30E0C6
:1033600080919E0590E08227932782239323892BC7
:1033700039F0809163048093610482E380930001BB
:1033800040939E0580E094E090930B0580930A059E
:1033900090930D0580930C0590900104992009F4F9
:1033A000C1C080916E0190E0FC01E170F070319637
:1033B000EE0FFF1FE450FB4F0190F081E02D9C01C8
:1033C0002270307081FD03C0A3E0B0E002C0A0E035
:1033D000B0E0AA0FBB1FA450BB4FCD90DC90232BB5
:1033E00019F4A3E0B0E002C0A0E0B0E07F01002744
:1033F000F7FC0095102FAA0FBB1FA450BB4F6D9177
:103400007C91882777FD8095982F9601442737FD7A
:103410004095542F0E94DE765B016C01C801B70114
:10342000A80197010E94DE76A60EB71EC81ED91EFF
:10343000692D70E080E090E04AE0660F771F881FFA
:10344000991F4A95D1F724E630E040E050E00E9411
:103450005277B901CA010E94DE766A157B058C0598
:103460009D0508F05FC0C601B5010E94370FE090CE
:103470006E01FF248701017010700F5F1F4F2091B4
:103480000104A22EBB24CC24DD243AE0AA0CBB1CF0
:10349000CC1CDD1C3A95D1F7A0E0B0E0BC01CD0119
:1034A00024E630E040E050E00E94DE763B014C0133
:1034B000000F111F04501B4FD8012D913C91442740
:1034C00037FD4095542FC601B5010E94DE76A40158
:1034D00093010E945277F80131832083E1FC05C0FB
:1034E000E3E0F0E003E010E004C0E0E0F0E000E042
:1034F00010E0000F111F04501B4FEE0FFF1FE45090
:10350000FB4F20813181442737FD4095542FC60160
:10351000B5010E94DE76A40193010E945277D80182
:103520002D933C934091FF03842F887F09F4EDC0D5
:1035300020916E0130E0F901E170F0703196EE0FEC
:10354000FF1FDF01A450BB4FE05BFA4FE080F1802A
:103550008D919C91E80EF91EC9018270907021FD39
:1035600003C0E3E0F0E002C0E0E0F0E0EE0FFF1F98
:10357000E450FB4F20813181892B19F4E3E0F0E026
:1035800002C0E0E0F0E0EE0FFF1FE05BFA4FC0800A
:10359000D180C20ED31EE0910004EE2319F400E0A6
:1035A00010E007C0F0E0EE0FFF1FE650FB4F008178
:1035B000118140FF04C0F094E194F108F39441FFBD
:1035C00004C0D094C194D108D39442FF03C0109595
:1035D00001951F4F8091FF0386958695869590E013
:1035E0008230910589F18330910524F4019709F027
:1035F0008CC008C08330910509F45BC0049709F0C2
:1036000084C06FC0C60160E072E00E941D77FB01BC
:10361000C60168E070E00E941D779B01C60160E86A
:1036200070E00E941D77A601421B530B9A01261BD6
:10363000370B2E1B3F0BC8018E199F0990930F0566
:1036400080930E05C70121C0C70160E072E00E94AF
:103650001D77FB01C70168E070E00E941D779B01A8
:10366000C70160E870E00E941D77C701821B930BC1
:103670009C01261B370B2E1B3F0BC8018C199D0983
:1036800090930F0580930E05C60162E070E00E94E2
:103690001D77600F711FCB01820F931F909311054F
:1036A00080931005621B730B7093130560931205D2
:1036B0002CC0C8018E199F0990930F0580930E05A9
:1036C000C8018E0D9F1D9C012C0D3D1D30931105D1
:1036D000209310058C199D09909313058093120572
:1036E00014C0C8018E199F0990930F0580930E0591
:1036F000C8018C0D9D1D90931105809310050C1928
:103700001D09109313050093120580915C04882312
:1037100079F180916E0190E08170907022E030E04C
:10372000281B390B1092FD041092FC042130310546
:1037300021F01092FF041092FE042230310521F096
:1037400010920105109200051092030510920205D7
:10375000E4E1F5E01192119295E0E432F907D1F736
:10376000A8E5B5E0BA83A98324E235E0FD0146C0AF
:1037700064E175E040E050E0FA01EE57F94FDA01FC
:10378000A65DBE4F80819181D2962D913C91D397B9
:10379000821B930B880F991FFB0181939193BF01AB
:1037A0004E5F5F4F4830510539F780918A069091FE
:1037B0008B06880F991F90931D0580931C0580919F
:1037C0008C0690918D06880F991F90931F0580930A
:1037D0001E0580918E0690918F06880F991F9093F9
:1037E0002105809320058091900690919106880F85
:1037F000991F9093230580932205B2CF80819181F8
:10380000D9018D939D939D013496B5E0E03BFB0774
:10381000A9F780E4E8E5F5E0DF011D928A95E9F774
:1038200010927F061FE5412E16E0512EBFED8B2E24
:10383000B5E09B2EAFE96A2EA5E07A2E1B82232CE1
:1038400033240894211C311C8B810E94070D6C01CC
:10385000FC0180818F7159F4FBEA6F2EF2E07F2E1C
:10386000E7EC2E2EE3E03E2E44245524A4C290E043
:10387000419794F7D60117969C91892F807FC1F0CC
:10388000892F8595859585958595282F332727FD43
:10389000309518162CF42216330609F07AC208C0A7
:1038A00088279927821B930B2816390609F471C2C1
:1038B000F601838161E00E948213D2019C918823EA
:1038C000C1F4492F1C92F6019181892F88508230D2
:1038D00008F05FC287818E70843009F45AC2993033
:1038E00019F01F821E8240C020E03CEF3F832E83F0
:1038F0003BC040E0992309F441E081E0D2018C9380
:10390000F60181818150A82FB0E0FD01EE0FFF1F6D
:10391000E450FB4F208131813F832E83843168F056
:103920003B81831750F4AA0FBB1FAA0FBB1FA85AD5
:10393000BA4F8D919C919F838E83D6019C91892F44
:10394000807E91F0929596959770892F90E00197DF
:10395000E1E0F0E002C0EE0FFF1F8A95E2F7209150
:103960007F062E2B20937F06D60118968C918823F4
:10397000C9F0B9E28B029001112435952795359550
:10398000279587FD815C86FB880F880B80F9992736
:1039900087FD9095281B390BEE81FF81E20FF31F05
:1039A000FF83EE83D60116968C911697882329F40F
:1039B00015968C91882309F46CC1F40160817181A2
:1039C00082819381442391F420E031E040E050E093
:1039D0000E94527750954095309521953F4F4F4F1B
:1039E0005F4FAE80BF80A20EB31E5FC0D601179698
:1039F0008C9117978E70843049F5EC91EF71F0E05F
:103A0000EE0FFF1FEE5DFA4F60817181882777FD11
:103A10008095982F20E034E640E050E00E94DE766A
:103A2000F4016083718382839383D60112962C9173
:103A3000222361F0332727FD3095432F532F0E9417
:103A40005277F4012083318342835383D4016D91F3
:103A50007D918D919C9120E031E040E050E00E940A
:103A6000527750954095309521953F4F4F4F5F4F7E
:103A7000AE80BF80A20EB31EA114B104B1F0F60156
:103A80008581B7FE02C08F7002C082958F7090E072
:103A90009C0144E650E0249FC001259F900D349F77
:103AA000900D1124D3018D939C93F30120813181DA
:103AB0002115310599F080916C04882321F0215063
:103AC000304031832083D3018D919C91892B31F03B
:103AD000F4016081718182819381C2C0A114B1041B
:103AE00009F4D7C0D60116968C911697882309F44D
:103AF000C0C080916C04882309F477C012962C9181
:103B0000222329F460E070E080E293E017C03327BD
:103B100027FD309537FF03C0309521953F4F332760
:103B200027FD3095432F532F60E070E080E293E053
:103B30000E945277C901DA01BC01CD01F60126814C
:103B40001A141B040CF52F70422F50E0411551053B
:103B5000D9F1A4E6B0E04A9F90014B9F300D5A9FE7
:103B6000300D1124442737FD4095542F0E94527781
:103B700079018A01F40180819181A281B381E80EEB
:103B8000F91E0A1F1B1F2BC022952F70422F50E0D9
:103B900041155105C9F0A4E6B0E04A9F90014B9F42
:103BA000300D5A9F300D1124442737FD4095542F76
:103BB0000E945277F401E080F18002811381E21AC1
:103BC000F30A040B150B0BC02E813F81C901AA27F4
:103BD00097FDA095BA2FEE24F82E092F1A2FD401A5
:103BE000ED92FD920D931C931397F4016081718106
:103BF000828193812E813F8179010027F7FC009516
:103C0000102F1A141B0464F420E031E040E050E06F
:103C10000E945277E216F3060407150764F01BC0F2
:103C200020E031E040E050E00E9452772E153F0541
:103C30004007510784F44E815F81CA01AA2797FD8E
:103C4000A095BA2FBA2FA92F982F8827F401808327
:103C50009183A283B383D4016D917D918D919C91C9
:103C600020E031E040E050E00E9452773F832E8315
:103C700010C0EE81FF81CF01AA2797FDA095BA2F32
:103C8000BA2FA92F982F8827F40180839183A283CC
:103C9000B383D60114966C911497662341F08E81FC
:103CA0009F8111964C910E948B0D9F838E83F6010C
:103CB000878180FD12C0E181EE2379F0E53068F460
:103CC000F0E0EE0FFF1FE25BFA4F808191812E81C1
:103CD0003F81280F391F3F832E834E815F81BA01B8
:103CE000882777FD8095982FD60112962C9133273F
:103CF00027FD3095432F532F0E94DE769B01AC01A8
:103D0000F60180818F71082F10E0015010408781EB
:103D10008695877090E08130910551F0F801EE0FA3
:103D2000FF1FEE0FFF1F029731F5E85AFA4F1EC032
:103D3000CA01B90124E630E040E050E00E94527729
:103D4000B901CA01000F111F000F111F085A1A4FA5
:103D5000D8012D913D914D915C910E94DE7620E03D
:103D600034E040E050E00E945277F8012083318334
:103D7000428353830EC0E85AFA4F80819181A28119
:103D8000B381820F931FA41FB51F80839183A283E9
:103D9000B383FB81FF5FFB830894411C511C24E02B
:103DA00030E0820E931E42E050E0640E751EF03249
:103DB00009F04ACD51CDA981BA81AD90BD90CD9089
:103DC000DC90C601B50124E630E040E050E00E94FE
:103DD0005277E981FA812083318342835383F20150
:103DE000E456F84FC90120839183D30113962D9196
:103DF0003C91149711968C911197FAE08F02F00183
:103E00001124E851FC4FFF83EE838C914AE0840239
:103E10004001112488E19CEF880E991ECF015E2F8E
:103E2000492F2E173F071CF4C901522F492F852F08
:103E3000942F8C01081519050CF48401A114B10408
:103E4000C104D10479F19801442737FD4095542FDE
:103E50001A141B041C041D0464F4AE81BF81BD014F
:103E6000882777FD8095982F621B730B840B950B29
:103E70000BC0C401AA2797FDA095BA2F281B390BA8
:103E80004A0B5B0BCA01B901A60195010E94DE76BF
:103E900020EA36E841E050E00E945277C901DA0199
:103EA0005C016D01C80155E0959587955A95E1F73C
:103EB000800F911F9801232F330F330B2595820F0D
:103EC000931F000F012F001F110B801B910B7C0112
:103ED0000027F7FC0095102F8E819F8125E0959596
:103EE00087952A95E1F7EE81FF818E0F9F1F940140
:103EF000B5E035952795BA95E1F7F401EE0FEF2F70
:103F0000EE1FFF0B280D391D4E815F81440F452F99
:103F1000441F550B841B950B559547955595479513
:103F2000840F951FAC01662757FD6095762FEA0C2C
:103F3000FB1C0C1D1D1D4E155F056007710714F459
:103F40007A018B012E1B3F0BF595E795F595E795CB
:103F50002E0F3F1FC901AA2797FDA095BA2FE8167B
:103F6000F9060A071B0714F47C018D01D301129690
:103F70008C91882341F010950095F094E094E11C19
:103F8000F11C011D111DF1018081882301F160E008
:103F90000E9482138823D9F0D10111968C91B9E245
:103FA0008B0290011124359527953595279587FD2E
:103FB000815C86FB880F880B80F9992787FD909597
:103FC000281B390B79010027F7FC0095102FEC8195
:103FD000FD81E40DF51DF182E082E981FA813496DC
:103FE000FA83E98322E030E0420E531E45E050E0C0
:103FF000640E751E220E331EE859F54009F0DBCE23
:1040000027960FB6F894DEBF0FBECDBFCF91DF91DC
:104010001F910F91FF90EF90DF90CF90BF90AF90E6
:104020009F908F907F906F905F904F903F902F90D8
:104030000895CF92DF92EF92FF920F931F93DF9339
:10404000CF93CDB7DEB7A0970FB6F894DEBF0FBE03
:10405000CDBF81E080935C040E943B15682F8E01E8
:104060000F5F1F4FC8010E948B1910925C04F8016A
:10407000AEEAB2E09E012F5D3F4F808191814CEF0F
:10408000883194071CF488E19CEF06C043E0883E29
:10409000940714F088EE93E011969C938E933296D9
:1040A0001596E217F30749F700E010E0E2E0CE2EA4
:1040B000D12CE02E80916E0190E08170907096017D
:1040C000281B390B2017310791F0FF248F2D6E2DFF
:1040D0000E945C0E855F914034F48F2D6E2D40E080
:1040E00050E00E943310F39445E0F41679F70F5F27
:1040F0001F4F04301105E9F682E00E94CE608091E6
:1041000063048093610482E380930001A0960FB65C
:10411000F894DEBF0FBECDBFCF91DF911F910F91FD
:10412000FF90EF90DF90CF9008952F923F924F92A3
:104130005F926F927F928F929F92AF92BF92CF9237
:10414000DF92EF92FF920F931F93DF93CF93CDB740
:10415000DEB7C756D0400FB6F894DEBF0FBECDBF56
:10416000F8942091550D3091560DA4963FAF2EAF87
:10417000A497789420E08091C3069091C406A496F9
:104180004EAD5FADA4974817590709F021E0209381
:104190006C04A4966EAD7FADA4977093C406609333
:1041A000C3060E943B15A2968FAFA29740910801CB
:1041B000481709F475C0282F30E04F3F51F4220F03
:1041C000331F2754394F8FEF9FEFD9018D939C9365
:1041D00062C0A42FB0E08DE090E0A89FF001A99FFD
:1041E000F00DB89FF00D1124E25FFB4F60816295E6
:1041F0006F70289FF001299FF00D389FF00D11245A
:10420000E25FFB4FE081EF70E61718F0EE23F9F064
:104210006E2F81E090E0FC0102C0EE0FFF1F2A9597
:10422000E2F79F0102C0880F991FAA95E2F7280FB5
:104230008091B606822B8093B6068FE892E070E0FC
:104240000E9409777093B8066093B70624C0AA0F3E
:10425000BB1FA754B94F1D921C92F901EE0FFF1F0F
:10426000E754F94F8FEF9FEF9183808381E090E0D7
:10427000BC0102C0660F771F2A95E2F79B0102C0BE
:10428000880F991F4A95E2F7280F20958091B6066E
:1042900082238093B606A2967FADA2977093080101
:1042A0008091B606882309F493C0FE01B19680E49C
:1042B000DF011D928A95E9F7A9EB2A2EA6E03A2E96
:1042C000662477244301EE24FF24A596EFAFA5973B
:1042D000A696FFAFA697FE01EF59FF4FA896FFAF36
:1042E000EEAFA8978091B60690E00E2C02C095958F
:1042F00087950A94E2F780FF41C0CE0101966E2DAA
:104300000E948B19CE0101966E2D0E948B19D1014E
:104310008D919C915C01CC24DD24A5968FADA59751
:10432000A6969FADA6978C012E010894411C511CA6
:10433000F201219131912F01442737FD4095542FEF
:10434000C601B5010E94DE76D8012D913D914D91B7
:104350005C91260F371F481F591FF8012193319395
:10436000419351938F01A8962EAD3FADA897E217C8
:10437000F307F1F66A0C7B1C8C1C9D1C0894E11C55
:10438000F11C42E050E0240E351E55E0E516F10424
:1043900009F0A8CF8E010F5D1F4F7E010894E11C2C
:1043A000F11CE1E6CE2ED12CCC0EDD1ED8016D9194
:1043B0007D918D919D918D01A40193010E94527771
:1043C000F701219331937F010C151D0579F707C083
:1043D000CE010196A2966FADA2970E948B1920E0A4
:1043E00030E0AE014F5F5F4FF894F901E054F84FB1
:1043F000DA01A20FB31F8D919C91918380837894F1
:104400002E5F3F4F2032310579F780912A0D8823A6
:1044100081F480915608882329F08EE498E00E9468
:10442000F16307C080916108882319F080E00E9441
:10443000D46080916C04882309F4AAC48091530449
:10444000882379F4409192075091930780917001ED
:1044500080FF05C020E034E0241B350B15C09A0115
:104460000AC0E82FF0E0843048F0EE0FFF1FE85458
:10447000F84F2081318120503C4F06C0EE0FFF1FC6
:10448000EC56F84F20813181490156E0969487948B
:104490005A95E1F76091B1066F5F6093B106409164
:1044A000AF065091B006480D591D5093B006409389
:1044B000AF062091B4063091B506A4968EAD9FAD9F
:1044C000A497821B930B8436910508F487C02C595E
:1044D0003F4F3093B5062093B406809172049091BB
:1044E000730401969093730480937204CA0170E080
:1044F0000E9409774B019B013695279580917604A0
:1045000090917704820F931F9093770480937604A1
:104510006115710549F080917404909175040196BC
:1045200090937504809374048091B1066091AD06F8
:104530007091AE06680F711D7093AE066093AD0664
:104540004091AB065091AC068091AF069091B006B9
:10455000480F591F5093AC064093AB061092B1061A
:104560001092B0061092AF062091B2063091B306B9
:10457000A4968EAD9FADA497821B930B885E93404B
:1045800068F128513C4F3093B3062093B206CA011C
:104590000E9409774B011092AC061092AB06109264
:1045A000AE061092AD068091F9049091FA04FC01D8
:1045B000EF57FB4F608301969093FA048093F904C0
:1045C0008837910520F01092FA041092F904809136
:1045D000FB0487FD03C08F5F8093FB04552422E01A
:1045E000222E4424439494E0392E552039F4F0903F
:1045F0008101A0908201B09083010AC021E052168F
:1046000009F063C1F0908801A0908901B0908A01FF
:10461000FF2009F458C1052D10E0F801E858FB4FC0
:104620008081882391F44082F801EE0FFF1FDF01A3
:10463000A856B94F1D921C92DF01A456B94F1D9286
:104640001C92E056F94F11821082F7FC02C0EF2C49
:1046500002C0E32CEF1833E0E316A9F4F801EE0FE3
:10466000FF1FDF01A856B94F8D919C9111970196BC
:104670008D939C93E456F94F80819181880D991D0B
:104680009183808348C049E14E1508F044C0F80189
:10469000EE0FFF1FDF01A456B94FE856F94F2081F6
:1046A00031818D919C91282B392BF801EC55F94FD4
:1046B000808190E0282B392BF801EA55F94F808151
:1046C00090E0282B392B232B31F4FF208F2D880FDE
:1046D000880B842180831F141CF48F2D895102C004
:1046E0008F2D875E60E00E948213282F882379F047
:1046F000F801EA55F94F8081882349F4F801EC5517
:10470000F94F90E08081882309F491E09083F801CB
:10471000EA55F94F2083F801E258FB4F9081892F29
:104720008F5F8083843608F4CEC093569083A114A3
:10473000B10461F0F801EE0FFF1FE658FB4F8081D6
:104740009181B501681B790B7183608371E0E71675
:1047500009F47BC082E0E81629F48114910409F47D
:104760007EC073C093E0E91609F047C06801CC0C25
:10477000DD1C58E9652E56E0752E6C0C7D1CD301AE
:10478000ED90FC90E114F10409F469C0F601E456DF
:10479000F94F20813181C901B7010E9409774B018E
:1047A0006E9DC0016F9D900D7E9D900D1124281B64
:1047B000390B31832083F301118210829B013695DE
:1047C0002795D601A056B94F8D919C911197280F2E
:1047D000391F11963C932E932031310508F43FC0C8
:1047E000F601E658FB4F8081918101969183808389
:1047F000205130402D933C9332C0F4E0EF1671F419
:104800008114910411F5F801EE0FFF1FE658FB4FDC
:104810008081918118161906C4F021C029E12E1556
:1048200070F01F141CF48F2D845002C08F2D8C5FEC
:1048300060E00E948213F801EC55F94F8083F80183
:10484000EC55F94F8081882351F0F801EE0FFF1FDE
:10485000E658FB4F80819181019691838083D80136
:10486000A858BB4F8C91813019F08230F1F40FC001
:10487000A114B10441F1F801EE0FFF1FE658FB4F00
:10488000808191818A159B059CF02C9211C0C501F5
:10489000CB96F801EE0FFF1FE658FB4F20813181C8
:1048A0008217930714F433E03C93A114B10459F038
:1048B000F801EE0FFF1FE658FB4F80819181A81A87
:1048C000B90AB182A082539490CE20917A0430919B
:1048D0007B048091A9069091AA068217930709F498
:1048E0009CC080917804813009F07CC08091700177
:1048F00082FF57C08091820190918301892B09F436
:1049000050C02E31310551F482E080936F048091C4
:1049100064048093610482E38093000180917A04AF
:1049200090917B04449751F481E080936F048091CF
:1049300064048093610482E38093000180917A048F
:1049400090917B040A9739F4809164048093610408
:1049500082E38093000180917A0490917B04049714
:104960003CF4809164048093610482E380930001AD
:104970008091700183FF15C080917A0490917B042F
:104980008E31910541F08431910529F08A309105ED
:1049900011F0049734F482E390E090936E048093D6
:1049A0006D048091700181FF30C0209182013091AF
:1049B00083012115310549F080917A0490917B049F
:1049C000A901481B590BCA0104C080917A04909137
:1049D0007B046CE370E00E940977892BB1F480912D
:1049E000640404C0823089F480916504809361047A
:1049F00082E3809300018091700183FF06C082E30F
:104A000090E090936E0480936D0480917A0490916D
:104A10007B049093AA068093A9068091B60688230A
:104A200009F452C0E9EBF6E0A0E0B0E051E0E52E79
:104A3000F12CCC24CA94DC2C8701A2960FACA2974F
:104A400002C0000F111F0A94E2F76091B606862F8C
:104A500090E00A2E02C0959587950A94E2F780FFB0
:104A60002EC0408151812091B7063091B806A296A0
:104A70008FADA2978A1779F4CA018095909528176F
:104A8000390728F4240F351F3183208318C0D182C1
:104A9000C082601B12C02417350728F4421B530B39
:104AA000518340830CC011821082C7010A2E02C0BC
:104AB000880F991F0A94E2F7681B6093B606119657
:104AC0003296A530B10509F60E948E138091BE077B
:104AD000882319F081508093BE0780916F0188234D
:104AE00009F469C080916B04833308F464C0809139
:104AF000980590919905A0919A05B0919B05019612
:104B0000A11DB11D8093980590939905A0939A05D6
:104B1000B0939B0500E010E0FF248F2D0E949F0EB4
:104B200046E0969587954A95E1F7080F191FF3948B
:104B300094E0F91691F780919C0590919D050817D6
:104B4000190761F010939D0500939C05109298053C
:104B50001092990510929A0510929B05E090980585
:104B6000F090990500919A0510919B0560916F0155
:104B700070E080E090E020E737E140E050E00E9404
:104B8000DE766E157F0580079107A8F42FE330E0ED
:104B900040E050E0E222F322042315233AE0E3163A
:104BA000F1040105110539F48091650480936104D5
:104BB00082E38093000180918004882319F0815062
:104BC000809380040E94846E0E94DF6E0E945415C0
:104BD000182F80916D0490916E04009729F0019731
:104BE00090936E0480936D04112389F0809172017B
:104BF00090E024EF31E0AC01429FC001439F900D53
:104C0000529F900D112490936E0480936D048091B7
:104C10005B0160E00E948213882339F480916D0467
:104C200090916E04892B09F4B1C0C79AE091F10705
:104C3000F0E0EE0FFF1FED51F84F0190F081E02DF5
:104C4000812F09950E94F16C8091630081FF04C05F
:104C5000809165008F7E03C08091650080618093A4
:104C60006500A4968EAD9FADA4978F719070823031
:104C7000910521F0039709F08BC071C08091690400
:104C800090916A04892B39F487E00E949F0E9093DB
:104C90006A04809369048091690490916A048C018C
:104CA00023E0000F111F2A95E1F7081B190B87E07D
:104CB0000E949F0E800F911FB3E096958795BA953D
:104CC000E1F77C0100E010E090936A0480936904AE
:104CD00020915A01332727FD3095432F532FC801C8
:104CE000B7010E94DE7628E030E040E050E00E940C
:104CF0005277A4E0EE0CFF1C001F111FAA95D1F7FC
:104D0000E20EF31E041F151F209167043091680402
:104D100040E050E0C801B7010E94527720936B0435
:104D20008091A806805E8093A806882389F58091EB
:104D30005901281768F5233358F180916604809350
:104D4000610482E3809300018091700183FF20C0A1
:104D500082E390E090936E0480936D0419C080917B
:104D60006D01869586958695877090E0BC01660FEB
:104D7000771F660F771F680F791F6A5F7A4F82E689
:104D800094E045E050E00E946D7702C0C7984ECF96
:104D9000C959DF4F0FB6F894DEBF0FBECDBFCF911C
:104DA000DF911F910F91FF90EF90DF90CF90BF9018
:104DB000AF909F908F907F906F905F904F903F90BB
:104DC0002F9008951F93CF93DF939FEF9ABB1BBA49
:104DD00081E887BB8EE788BB8EE384BB81EC85BB13
:104DE00011BA92BB88E082B987EF83B91092610053
:104DF0001092620080E180936400909365000E94AD
:104E0000B36C80E487B985E886B987E083BF82E028
:104E100081BF87B7836087BF8AE08EBD82E88093B9
:104E20008A0080917D00806280937D00EDB7FEB79F
:104E3000329785E502C0808331974DE0EE3CF40760
:104E400009F0C8F780E598E59093E4078093E307BD
:104E500087E29CE49093E6078093E50789E10E944E
:104E6000E76C78940E94A8730E94FE61109157012C
:104E700084B7813061F00E94B6140E941B140E9416
:104E8000F70E0E9466140E942A140E940F140E94BA
:104E90001E110E943B15682F80EC97E00E948B1931
:104EA000809158010E94E76C8091720190E024EF9C
:104EB00031E0AC01429FC001439F900D529F900D85
:104EC000112490936E0480936D04809157011817FC
:104ED00019F081E00E94CE600E94D3282DE088E185
:104EE00090E00FB6F894A89581BD0FBE21BD0E9439
:104EF000800FEC01E0917101F0E0EE0FFF1FEF5F1A
:104F0000FE4F0190F081E02D09950E940B0F0E9449
:104F1000952080915B04833019F4A89510925B046E
:104F20000E94800F20915704309158048C1B9D0BD8
:104F30008217930708F4C90190935804809357048B
:104F4000D6CFEDE7F0E08081857E808317981F9AA9
:104F5000AAE8B0E01C9210928B0082E88C938081CA
:104F60008062808308956F927F928F929F92AF921A
:104F7000BF92CF92DF92EF92FF920F931F93CF9346
:104F8000DF93909184019770809109018917C9F08E
:104F9000909309010E94A1271EBC80E49CE99BBD5F
:104FA0008ABD1DBC1CBC87B7837C87BF8CE386BFD2
:104FB0008FE380937C0087B7806187BF1FBC8AE046
:104FC0008EBD8091850185FD04C0E12C34E0F32E77
:104FD00003C0E12C25E0F22E4091840145954595D2
:104FE00045954595440F485F9091860184E6980267
:104FF000D0011124A85ABD4F882499248A1A9B0AEB
:1050000080915204992787FD909528EE33E0829F86
:10501000B001839F700D929F700D112468537045ED
:105020006A1B7B0B00EC17E0EDEFF6E050E0440F5D
:10503000551F440F551F5F01A40EB51ECC24DD245F
:10504000CE18DF0888E5682E82E0782E6A1A7B0A7F
:105050001DC0C601E801288139812C153D0534F0B9
:105060002E153F0514F0C70101C0C901805A964FA3
:105070009401281B390B620F731F860D971D9183B6
:105080008083B383A28334960E5F1F4FEA15FB051E
:1050900001F7FA01E350F94F71836083B383A28370
:1050A000158214828DEF96E090930B0180930A0194
:1050B000DF91CF911F910F91FF90EF90DF90CF90F4
:1050C000BF90AF909F908F907F906F9008951F92A8
:1050D0000F920FB60F9211241F932F933F934F936C
:1050E0005F936F937F938F939F93AF93BF93EF9350
:1050F000FF931CB580918D07882321F0C09A1092F0
:105100008D0704C0C09881E080938D07A0910A01AB
:10511000B0910B01FD01819191919BBD8ABDF093EE
:105120000B01E0930A0112968D919C911397892BA4
:10513000B9F48091850182958F70809581708093FC
:105140008D0787B78F7E87BF0E94B3278091840128
:10515000877011F0833021F487B7806187BF78941E
:1051600080915504811710F41093550480915604D2
:10517000181710F41093560480915B04816080939B
:105180005B04FF91EF91BF91AF919F918F917F91C0
:105190006F915F914F913F912F911F910F900FBE93
:1051A0000F901F9018950E94B32787B7806187BF23
:1051B00008959C01E091F107F0E0EE0FFF1FED5123
:1051C000F84F318320838FEBF901099580916204B8
:1051D0008093610482E38093000108959C01909183
:1051E000F107E92FF0E0E351F84F8091F207808357
:1051F000E92FEF5FE093F107E53040F09093F1077E
:1052000083E398E160E00E94C913089580916204ED
:105210008093610482E380930001F0E0EE0FFF1FB2
:10522000ED51F84F318320838FEBF90109950895F3
:10523000E091F107EE23E9F0E150E093F10780916E
:1052400062048093610482E3809300011092F3076B
:10525000F0E0DF01A351B84F8C918093F207EE0F7D
:10526000FF1FED51F84F0190F081E02D8EEB099575
:10527000089583E398E160E00E94C91308958F9236
:105280009F92AF92BF92CF92DF92EF92FF920F93D5
:105290001F93CF93DF93182F7B014A015901C02E32
:1052A00084FD04C044E0D42E05E005C01F701066E4
:1052B00035E0D32E04E08D2D8066181761F08D2D1A
:1052C0008064181741F09091BD0719167CF41336CD
:1052D00011F0133459F4E701219680916204809310
:1052E000610487E380930001802F1AC0802F8066BD
:1052F000181761F0802F8064181741F019160CF010
:1053000089C0123619F0123409F084C0E7012197E0
:1053100080916204809361048DE2809300018D2D61
:1053200090E00E947B6F882351F0CC27DD27CE19B7
:10533000DF09802F0E9402708D2D0E94027081145F
:10534000910491F481E0A816B10471F4103661F46F
:105350001092BD07C0E0D0E0E114F10411F4C1E007
:10536000D0E080E60E9402708091E0079091E10712
:10537000C81BD90BAC16BD065CF4812F0E940270CD
:10538000809164048093610487E380930001E501C8
:10539000C815D9055CF4812F0E94027080916404C5
:1053A000809361048DE280930001E401CE15DF0556
:1053B00009F1209791F4812F0E94F36FF7FE06C048
:1053C000809164048093610487E305C08091640444
:1053D000809361048DE2809300018C2D83700E9484
:1053E000CE60EC16FD0614F08FEF01C081E08093D3
:1053F000E20702C01092E207CE01DF91CF911F9128
:105400000F91FF90EF90DF90CF90BF90AF909F9063
:105410008F900895E70193CF0F93772767FD7095DD
:10542000552747FD5095332727FD309501E00E9411
:105430003F290F9108950F93772767FD70955527A2
:1054400047FD5095332727FD309502E00E943F2904
:105450000F910895FF920F931F93F82E162F042F8C
:1054600080E860E0412F50E0202F0E94366B1A3018
:1054700010F485E701C08FE660E04FE2202F0E9424
:105480000D681A3010F485E701C08FE64F2D50E00B
:105490004F5F5F4F60E0202F0E94366B1F910F918E
:1054A000FF9008959F92AF92BF92CF92DF92EF92BA
:1054B000FF920F931F93CF93DF93F82ED62EEA011E
:1054C000B22E9C2CE0919A07F0919B078091F807EF
:1054D0009091F9078E1B9F0B60E270E00E941D7790
:1054E0009B017093E1076093E0076115710521F05E
:1054F000F093F907E093F807E0919607F09197078A
:105500008091F6079091F7078E1B9F0B60E470E087
:105510000E941D77A62E662321F0F093F707E093F3
:10552000F607E0919807F09199078091F407909120
:10553000F5078E1B9F0B60E470E00E941D77C62E5E
:10554000662321F0F093F507E093F407AA2021F4F5
:10555000CC2011F4232B89F08091720190E024EF8C
:1055600031E0AC01429FC001439F900D529F900DCE
:10557000112490936E0480936D04209711F429E711
:105580005FC08091F207882309F041C08091BF0776
:10559000882309F03CC0AA2011F48D2D09C09B2D51
:1055A00091508D2D8A1987FD80E098170CF4892F72
:1055B00054E6F51651F095E6F91699F4DD2011F050
:1055C0008D2D01C08B2D81500CC02D2D30E08B2DE9
:1055D00090E001972817390714F080E002C08D2D64
:1055E0008F5F282F332727FD30958D2D90E02817CA
:1055F000390711F442E00CC0F901EE0FFF1FEC0F68
:10560000FD1F859194910E94D92880E072C140E0ED
:105610001092BF078D2D6B2D0E942A2A2091250DF7
:105620002E508D2D90E0019666EF7FEF0E941D7742
:10563000CB01880F991F880F991F860F971F280F7E
:105640008EE498E0622F0E9493620115110511F417
:1056500030E00AC08091F2079E2D8E1508F4982F35
:10566000F801E90FF11D34914091BD071416C4F102
:10567000CC2011F18091F2078C1987FD80E0992DE3
:1056800089150CF4982F9093F2072091F3070115D8
:10569000110511F480E00BC0892FE91608F48E2D56
:1056A000F801E80FF11D8491281708F4822F8093E8
:1056B000F30780E68093570DAA2091F08091F207BE
:1056C000882371F08091F3078A1987FD80E0932F7A
:1056D00083170CF4982F9093F30780E68093570D6F
:1056E000E0E6FE16C9F1EF15B8F0F3E4FF1609F491
:1056F000B2C0FF1540F051E2F516E9F182E4F81668
:1057000009F0D7C07FC094E4F91609F451C0E5E46C
:10571000FE1609F0CEC060C0F4E6FF1609F44DC0D5
:10572000FF1548F052E6F51609F471C083E6F81645
:1057300009F0BFC094C091E8F916D1F0EFEBFE1666
:1057400029F0F5E6FF1609F0B4C04BC01092F3073C
:105750001092F2078FEF09C0332309F4AAC0109208
:10576000BD0714160CF4A5C081E08093BD07A1C04D
:105770001092BD070BC014161CF41092BD0799C0FF
:105780008091F207882311F0209719F40E941829BC
:1057900090C0809162048093610482E38093000151
:1057A0001092F3071092F20780E68093570D85C0A0
:1057B0008091F307831709F47CC0012B09F479C0A9
:1057C00014160CF476C08091F307831710F48F5FE2
:1057D00013C01092F3076AC08091F307882309F47D
:1057E00068C0012B09F465C014160CF462C08091E6
:1057F000F307882321F081508093F30757C030933B
:10580000F30754C08091F207891509F452C01416A9
:105810000CF44FC08091F207891510F080E001C0B0
:105820008F5F0115110509F470C0982FE81608F470
:105830009E2DF801E90FF11DE491EF3F09F065C0DD
:10584000EBCF8091F2078E1508F4E82E0E0D111D96
:10585000F801049126C08091F207882351F11416B3
:1058600044F18091F207882311F4892D01C0815001
:105870000115110509F452C0982FE81608F49E2D61
:10588000F801E90FF11DE491EF3F09F047C0EBCFBC
:105890008091F2078E1508F4E82E0E0D111DF80107
:1058A0000491901708F4092F0093F30780E6809382
:1058B000570DCD2B11F456E001C057E04091F2078F
:1058C000442319F41092BC0713C0242F30E08091B8
:1058D000BC07281B3109852F90E08217930714F429
:1058E000451B04C0121613061CF041504093BC0720
:1058F00081E0DF91CF911F910F91FF90EF90DF90AA
:10590000CF90BF90AF909F9008958093F2079091B1
:10591000F3070115110509F094CF08C08093F20731
:105920009091F3070115110509F0B2CF00E0BCCF4B
:10593000CF92EF920F931F93C02E00E010E0EE2461
:105940000E94522A1F910F91EF90CF9008950F93CC
:10595000062F60E040E050E020E00E94982C0F917C
:1059600008950F93942F222311F400E001C002E068
:1059700043E0949FA00111244954504F23E00E941A
:10598000176D0F910895DC01FB0105C09C9180818A
:105990008D93919341504423C9F70895CF92DF929C
:1059A000EF92FF920F931F93CF93DF93182F80E016
:1059B00060E04CEF58E122E00E94D868812F6CE053
:1059C0004CE755E02DE008E00E94982C882309F46C
:1059D00068C0F090F207FA941038C1F480E80E9491
:1059E000027089E18093BE0786E08F1518F08F2D35
:1059F0000E94857487E0F81611F40E941474809157
:105A000063048093610482E38093000118E0EE2434
:105A1000CF2CDD24C7FCD0944091BC074E0D4730FD
:105A200019F4193370F13DC0C42FD0E0CC16DD0657
:105A300011F020E101C022E1AE014F5F5F4F82E132
:105A4000612F02E00E942E6A8091BE07882319F41C
:105A5000CC16DD0609F000E0AE01440F551F4C0FD7
:105A60005D1F440F551F440F551F46535E4E88E17E
:105A7000612F2CE00E94176D185FE394103461F6DB
:105A800010C08091BE07882329F487E0F81611F42E
:105A900022E001C020E086E0612F4CEF54E10E943B
:105AA000D868DF91CF911F910F91FF90EF90DF9019
:105AB000CF9008950F93942F222311F400E001C09A
:105AC00002E043E0949FA00111244354504F23E08F
:105AD0000E94176D0F9108952F923F924F925F92FF
