:100000000C94F00C0C94110D0C94110D0C94B71071
:100010000C94CD100C94110D0C94E3100C94F91069
:100020000C94110D0C94110D0C94110D0C94110DD8
:100030000C94110D0C94CE110C94110D0C94F10F25
:100040000C94110D0C94D1270C94110D0C94110DDE
:100050000C94110D0C94110D0C94110D0C94110DA8
:100060000C94110D0C94DEA70C9490100C94110DAF
:100070000C94110D0C94110D0C94036F0C94111031
:100080000C94110D0C94110D0C94110D0C94110D78
:100090000C94110D0C94110D0C94110D0C94110D68
:1000A0000C94110D0C94110D0C94110D0C94110D58
:1000B0000C94110D0C94110D0C94110D0C94110D48
:1000C0000C94110D0C94110D0C94110D0C94110D38
:1000D0000C94110D0C94110D0C94110D0C94110D28
:1000E0000C94110D535053008040000000F8FE06A0
:1000F0000303030306FEF8000000000000000000F8
:10010000000080C0C0E0F0F8FCFEFEFFFF7F7E3EF6
:100110003C1C0000C0E0E0F0E00000000000000037
:100120000000000000000080E0F0F8F8FCFCFC7C1F
:100130003C3810000000000000000000000000003B
:1001400000000000000000C04020202020202040AF
:1001500040800000000000000000000000000000DF
:1001600000000000000000000000000000E1E76661
:100170006C6C6C6CE6C781000000000080E0F0F859
:10018000FCFE7FBF3F1F0F070783C1E1F0F8FCFCB7
:10019000FEFE00000103070F0F1E3C3870F0E0C0A8
:1001A00080000080E0F8FEFFFF3F0F1F0F030000FC
:1001B000000000000000000000000080402020300F
:1001C0001010307E7FFFFBBCC8F0000000F0103044
:1001D000608001063CE0000000000000000000001C
:1001E00000000000000000000000000000FFFF0C05
:1001F0000C0C0C0C0E0703000000F8FEFFFFFFFFC5
:10020000CFC7E1F0F0F8FC7E7F1FFFFFFFFFFFFF8D
:100210007F0700000000000000000000000080C117
:10022000F3FFFEFF7F7FEFC1C080000000000000F1
:1002300000000000000000001C7C7FFD800000002A
:100240008080C0C0E0F040F0F0C0038E7800818272
:10025000424320100807808080404020202030103A
:1002600030202020E05048440020000000FDFD8C9C
:100270008C8C8C8C8C8C8C00000001070707070786
:100280000F1F1F0F0703010000F8FFFFFFFF3F07CD
:1002900000000000000000000080C070BC7E171B42
:1002A0000F07010000000003071F3FFEF8F0E0C049
:1002B00080000000000000000000000000010101BB
:1002C00000F049AB1E1D353532323E3D3C1E1F3C11
:1002D0004CCE8E0E0F0B02161510080808040402EF
:1002E00002030305070309060202000000BFBF3135
:1002F0003131313131B1B1000000000000000000A7
:1003000000000000000000F0FFFFFFFF0F010000F1
:100310000000000000C06018060305020000000095
:1003200000000000000000000000000001010407C0
:1003300007000000000000000000000000000000B6
:1003400000000103020201F92D2E0EFB0101808045
:1003500080808183061870C000000000000000004B
:1003600000000000000000000000000000FFFF0788
:100370000E3870C080FFFF00000000000000000089
:1003800000000000C0F8FF7F1F37070000000000DA
:100390000000707C7F3F380000000000000000007B
:1003A000000000000000000000000000000000004D
:1003B00000000000000080F038180808080808084D
:1003C00008080808080C0C1F101019190909090859
:1003D000080808181018080F0C0E0A0A0A0A0A0C56
:1003E0000C08080C0C0C38E00000000000070700A7
:1003F00000000001030707000000000000000000EB
:1004000000000403060301000000000000000000DB
:1004100000000000000000000000000000000000DC
:1004200000000000000000000000000000000000CC
:100430000000000000E0FF4F40404040404040408E
:1004400040404040404040404040404040404040AC
:10045000404040404040404040404040404040409C
:10046000404040404040403FF80000000000000095
:10047000000000000000000000000000000000007C
:10048000000000000000000000000000000000006C
:10049000000000000000000000000000000000005C
:1004A000000000000000000000000000000000004C
:1004B00000000000E0FF030000000000000000005A
:1004C000000000000000000000000000000000002C
:1004D000000000000000000000000000000000001C
:1004E000000000000000000007FC5350450001021E
:1004F00003040102040301030204010304020104D2
:1005000002030104030202010304020104030203C3
:1005100001040203040102040103020403010301B4
:1005200002040301040203020104030204010304A0
:100530000102030402010401020304010302040294
:100540000103040203010403010204030201010286
:100550000304010302040402030104030201000076
:100560000000000001081E640101081E6401010F63
:1005700032960A0A1E329603010200040506075F3E
:100580002D2E2C00564552533A2056322E30302D07
:1005900062736F6E676973002053564E3A206F7016
:1005A000656E39782D7231333700444154453A2015
:1005B000323031322D30312D32350054494D453AEB
:1005C0002032323A31303A303700204D4F443A2011
:1005D0004C00884AA846C643783F733FA934FA3393
:1005E000CF3119317A30E92C5E2C00FF0100010275
:1005F00002FF0100010202000001000100020003ED
:100600000303030303030303030303030303032F8E
:100610003332002F31340006000375000009020256
:100620000000000000060201120800081C0808086B
:100630001C080000082200490022080000000000F9
:10064000227F220000000822004900220800000842
:10065000220049002208000000227F220000000042
:1006600000082200490022080000081C0808081C95
:1006700008009353A2513350964E6E4FD34E884D7F
:100680004100000202020200000241203A007A3AD0
:1006900000793A00783A0040430040430041203A54
:1006A00000500800000000000000006F000007007C
:1006B0000700147F147F14242A7F2A12231308644E
:1006C0006236495522500005030000001C224100FB
:1006D0000041221C0014083E081408083E080800C7
:1006E0005030000008080808080060600000201072
:1006F000080402003E41413E0000427F400062513A
:1007000049460041494936001814127F00274545E3
:1007100039003E494932000179050300364949361E
:10072000000649291E00003636000000563600003B
:100730000814224114141414144122140800020154
:1007400051090606090906007E0909097E7F494903
:1007500049363E414141227F4141221C7F4949495E
:10076000417F090909013E4149497A7F0808087F0C
:1007700000417F41002040413F017F081422417F1A
:10078000404040407F020C027F7F0408107F3E41C2
:1007900041413E7F090909063E4151215E7F091909
:1007A0002946264949493201017F01013F40404025
:1007B0003F1F2040201F3F4030403F631408146318
:1007C00007087008076151494543007F4141000215
:1007D000040810200041417F00040201020440404F
:1007E000404040000102040020545454787F4844A3
:1007F00044383844444420384444487F385454549E
:1008000018087E0901020C5252523E7F08040478F7
:1008100000447D40002040443D007F1028440000FB
:10082000417F40007C041804787C08040478384434
:100830004444387C14141408081414187C7C0804EC
:1008400004084854545420043F4440203C40402075
:100850007C1C2040201C3C4020403C442810284464
:100860000C5050503C4464544C4400083641000045
:10087000007F000000413608000808221C08081C00
:10088000220808A060000000000000000000000036
:10089000000000FEFE0000000000003E7E00007E22
:1008A0003E00006060FEFE6060FEFE606060F098EA
:1008B00098FEFE989818180C1E1E0C80C0E0703828
:1008C0001878FC8EC6E6763C180000000066763E7E
:1008D0001E000000000000E0F0381C0E06000000C2
:1008E00000060E1C38F0E000006060C080F8F88060
:1008F000C0606080808080F8F88080808000000088
:100900000000000000000080808080808080808067
:1009100080000000000000000000000000000080D7
:10092000C0E0703818000000000000000000000067
:1009300000000071710000000000000000000000D5
:1009400000000006067F7F06067F7F06061818193E
:10095000197F7F19190F06181C0E070301307878CC
:10096000301E3F716367663C3C6666000000000015
:1009700000000000000000070F1C3870600000003D
:10098000006070381C0F070000060603011F1F01DE
:10099000030606010101011F1F010101010000669C
:1009A000763E1E000000000101010101010101016C
:1009B0000100003078783000000000181C0E07039A
:1009C00001000000000000F8FC0E06060EFCF80016
:1009D00000181CFEFE000000000000181C0E068619
:1009E000CEFC7800000606868686CEFC7800008065
:1009F000C0E070381CFEFE00007E7E666666E6C6BD
:100A0000860000F8FC8E86868E1C1800000606867E
:100A1000C6E6763E1E000078FCCE8686CEFC7800C8
:100A20000078FCCE8686CEFCF80000307878300066
:100A300000000000003078783000000000000080E6
:100A4000C0E070381C0E06606060606060606060CE
:100A500060060E1C3870E0C0800000181C0E0606F0
:100A60000686CEFC7800001F3F706060703F1F005C
:100A70000060607F7F606000000000787C6E6763CC
:100A800061606000006060616161733F1E0000078B
:100A900007060606067F7F00001838706060703F0A
:100AA0001F00001F3F716161733F1E000000007F47
:100AB0007F0000000000001E3F736161733F1E0055
:100AC0000000006171391D0F0700000C1E1E0C0094
:100AD000000000000066763E1E00000000000001DD
:100AE00003070E1C38706006060606060606060694
:100AF000066070381C0E070301000000000000664D
:100B0000670301000078FCCE8686CEFC780000E00A
:100B1000F0B89C8E8E9CB8F0E0FEFE8686868686B7
:100B2000CEFC78F8FC0E060606060E1C18FEFE0625
:100B300006060E1C38F0E0FEFE8686868686860651
:100B400006FEFE8686868686860606F8FC0E0686E5
:100B500086868E9C98FEFE808080808080FEFE00CF
:100B6000000606FEFE06060000000000000606FE67
:100B7000FE0606FEFE80C0E070381C0E06FEFE007B
:100B800000000000000000FEFE1C38F0F0381CFEE3
:100B9000FEFEFE70E0C0800000FEFEF8FC0E0606C1
:100BA00006060EFCF8000001010101000000007FB4
:100BB0007F0101010101017F7F7F7F6161616161CF
:100BC000733F1E1F3F70606060607038187F7F60E9
:100BD000606070381C0F077F7F61616161616160D7
:100BE000607F7F01010101010100001F3F70606112
:100BF0006161717F3F7F7F0101010101017F7F0002
:100C00000060607F7F606000001838706060703F37
:100C10001F00007F7F0103070E1C3870607F7F601C
:100C2000606060606060607F7F0000010100007FA5
:100C30007F7F7F00000103070E7F7F1F3F70606092
:100C40006060703F1FFEFE8686868686CEFC78F842
:100C5000FC0E060606060EFCF8FEFE8686868686D6
:100C6000CEFC7878FCCE868686868E1C1806060614
:100C700006FEFE06060606FEFE000000000000FE60
:100C8000FEFEFE000000000000FEFEFEFE00000072
:100C9000000000FEFE1E3E70E0C0C0E0703E1E7E02
:100CA000FEC080000080C0FE7E0606060686C6E600
:100CB000763E1E0000FEFE0606060600001838708E
:100CC000E0C08000000000000006060606FEFE00F0
:100CD000006070381C0E0E1C3870600000000000B0
:100CE00000000000007F7F01010101010100001FE1
:100CF0003F7060666E3C387F677F7F0101070F1D84
:100D000039706018387161616161733F1E000000C5
:100D1000007F7F000000001F3F7060606060703FD8
:100D20001F070F1C387070381C0F071F3F70703E74
:100D30003E70703F1F787C0E070303070E7C78001F
:100D40000001037F7F03010000787C6E67636160B0
:100D500060606000007F7F606060600000000000F5
:100D6000000103070E1C180000606060607F7F00B8
:100D70000000000000000000000000606060606093
:100D800060606060600000060E1C3870600000004B
:100D9000006060606060E0C080FEFE80C0E0606077
:100DA000E0C08080C0E06060606060000080C0E003
:100DB0006060E0C080FEFE80C0E060606060E0C017
:100DC000808080F8FC8E86060E1C18E0F03818181B
:100DD000181818F8F8FEFE80C0E06060E0C08000DF
:100DE000006060E6E600000000000000006060E6D1
:100DF000E60000FEFE000080C0E06000000000068B
:100E000006FEFE00000000E0E060E0C0C0E0E0C0E0
:100E100080E0E080C0E06060E0C08080C0E06060B2
:100E20006060E0C0800000000000000000000018CA
:100E30003C7E66666666667F7F7F7F61616060601C
:100E4000703F1F1F3F70606060607038181F3F70F8
:100E500060606061617F7F1F3F76666666666607D9
:100E60000701017F7F010100000000010367666642
:100E70006666763F1F7F7F0101000000007F7F00D4
:100E80000060607F7F606000001838706060703FB5
:100E90001F00007F7F060F1F397060000000006098
:100EA000607F7F606000007F7F0000070700007F99
:100EB0007F7F7F0101000000007F7F1F3F70606027
:100EC0006060703F1FE0E06060606060E0C0808054
:100ED000C0E0606060C080E0E0E0E080C0E06060B2
:100EE000E0C08080C0E0606060606000006060FE24
:100EF000FE606000000000E0E0000000000000E094
:100F0000E0E0E0000000000000E0E0E0E0000000C1
:100F1000000000E0E060E0C080000080C0E060E031
:100F2000E0000000000000E0E0606060606060E001
:100F3000E0E060000080C0787C0E06000000000049
:100F400000FEFE000000000000060E7C78C080005D
:100F500000808080801838F0E0C08080C0E0F038E9
:100F600018808080807F7F06060606060703010141
:100F7000030706060607077F7F7F7F010100000049
:100F8000000101616367666666667E3C1800001FAB
:100F90003F7060607038181F3F7060607038187F55
:100FA0007F070F1C387070381C0F071F3F70703898
:100FB0003870703F1F6070391F0F0F1F397060014C
:100FC000036766666666763F1F6070787C6E67634F
:100FD000616060000001031E3E70600000000000C0
:100FE000007F7F00000000000060703E1E030100D3
:100FF0000001010101181C0F0703010103070F1C69
:101000001801010101630001020408102040804F13
:1010100046464F4E202D2D2D494E563443482036FE
:101020004348203843482031304348313243483127
:101030003443483136434851756965744E6F4B658A
:10104000794E6F726D204C6F6E6720784C6F6E67B3
:1010500053494E474F534D5046494C54446F776E59
:101060004F464620557020206F6666202B3D203A63
:101070003D63683163683263683363683445787010
:10108000202020457846696E6546696E6520204DB2
:10109000656469756D436F61727365524554413182
:1010A000323350504D2020505858202044534D3258
:1010B0002050504D3136504F534E45472D2D2D78F1
:1010C0003E30783C307C787C663E30663C307C66D6
:1010D0007C45444954205052534554412E54485263
:1010E0005765696768744578706F20205068617330
:1010F00065205377746368205768656E20204375B8
:101100007276652020202020202041646420202049
:1011100020204D756C7469706C795265706C6163D8
:1011200065202B3D2A3D3A3D2D2D2D2D202020766A
:101130003E6F66732020763C6F667320207C767C41
:101140003E6F66737C767C3C6F6673414E44202014
:1011500020204F522020202020584F522020202095
:1011600076313D3D7632207631213D763220763122
:101170003E7632202076313C7632202076313E3D5C
:1011800076322076313C3D7632202D2D2D2D2020BB
:101190002020202020202020547261696E6572205A
:1011A000202020202020547261696E6572205255E3
:1011B00044202020547261696E657220454C4520A0
:1011C0002020547261696E6572205448522020209C
:1011D000547261696E65722041494C202020496E2D
:1011E0007374616E74205472696D20205472696D3D
:1011F00073324F666673657473205344434152449F
:10120000204C6F6773202020762D2D2D2D59656C75
:101210004F72675265643C3E4E6F6E654875622042
:1012200057534848414431414432414C5452504D47
:1012300053696D706C6520342D434820542D4375DF
:101240007420202020202020562D5461696C2020FD
:1012500020202020456C65766F6E5C44656C74615F
:10126000654343504D2020202020202048656C6994
:101270002053657475702020536572766F20546515
:1012800073742020204D656E752045786974204464
:101290006F776E20202055705269676874204C6506
:1012A0006674544852525544454C4549443049446B
:1012B0003149443241494C47454154524E535731CC
:1012C0005357325357335357345357355357365375
:1012D000573753573853573953574153574253573A
:1012E0004352554420454C45205448522041494CD6
:1012F000205031202050322020503320204D4158A2
:101300002046554C4C43594331435943324359438A
:10131000334F464641425354487354482554487409
:10132000524531524532444154453A54494D453A6B
:10133000005B4D454E555D202020205B45584954AB
:101340005D00205B4D454E555D205748454E20447D
:101350004F4E4500667265650044454C4554452036
:101360004D4F44454C00436F7079696E67206D6F37
:1013700064656C2E2E2E004D6F76696E67206D6F42
:1013800064656C2E2E2E004C6F6164696E67206D53
:101390006F64656C2E2E2E004E616D650054696D74
:1013A000657200452E4C696D69747300452E547248
:1013B000696D73005472696D20496E6300542D5439
:1013C0007261636500542D5472696D0042656570E9
:1013D000204374720050726F746F0050504D20663D
:1013E00072616D65006D73005377697463680054B2
:1013F00072696D73004661646520496E00466164E0
:1014000065204F7574002864656661756C742900E9
:10141000436865636B20202020205472696D73003F
:101420004D4F4445004E6F206672656520657870AB
:101430006F21004E6F2066726565206D6978657258
:101440002100494E53455254204D495820004544EF
:101450004954204D49582000536F757263650057F9
:101460006569676874004F666673657400547269D5
:101470006D0043757276657300462E506861736522
:10148000005761726E696E67004F4646004D756C7D
:101490007470780044656C617920446F776E004405
:1014A000656C617920557000536C6F772020446F14
:1014B000776E00536C6F77202055700044522F4593
:1014C00058504F004D4958455200434F50592054F1
:1014D00052494D205B4D454E555D004356005357D4
:1014E000004120206368616E6E656C004D6178007C
:1014F00043616C69620042617200416C61726D000F
:1015000055737250726F746F00434C454152204DB9
:1015100049584553205B4D454E555D004265657009
:10152000657200436F6E747261737400426174740B
:10153000657279207761726E696E6700496E6163CA
:1015400074697669747920616C61726D0046696CAA
:1015500074657220414443005468726F74746C6502
:101560002072657665727365004D696E75746520CD
:1015700062656570004265657020636F756E7464A6
:101580006F776E00466C617368206F6E20626565D0
:1015900070004C6967687420737769746368004CE5
:1015A00069676874206F66662061667465720053AF
:1015B000706C6173682073637265656E0054687245
:1015C0006F74746C65205761726E696E6700537733
:1015D00069746368205761726E696E67004D656D4E
:1015E0006F7279205761726E696E6700416C61722B
:1015F0006D205761726E696E67004E4F20444154F2
:101600004120416C61726D005278204368616E6EBA
:10161000656C204F7264004D6F646500536C617699
:1016200065006D6F64652020202520737263004D76
:10163000756C7469706C6965720043616C00454536
:1016400050524F4D2076005472696D2D202B004270
:101650004700205B4D454E555D20544F205354416B
:101660005254202000202020534554204D494450FE
:101670004F494E5420202000204D4F5645205354B2
:1016800049434B532F504F54532000416C743A0040
:10169000527820426174743A0052783A0054783A91
:1016A000004864673A005370643A0054656D7031C5
:1016B0003A0054656D70323A0052504D3A0046750A
:1016C000656C3A00566F6C74733A00416363656CE5
:1016D0000054656C653A00525353493A004E4F200E
:1016E0004441544100544D3100544D32005448524D
:1016F0000054482500544F5400746D72314C61748D
:10170000206D617820202020757300746D72314C3B
:101710006174206D696E20202020757300746D72D5
:1017200031204A697474657220202020757300741A
:101730006D61696E206D61782020202020206D73FE
:10174000004672656520537461636B206D696E207D
:1017500020202062005B4D454E555D20746F207245
:10176000657365740050504D00434800544D52005D
:101770004D4F44454C00465000454550524F4D207A
:101780006C6F77206D656D00414C4552540050726E
:1017900065737320616E79206B657920746F207397
:1017A0006B6970005468726F74746C65206E6F742E
:1017B0002069646C65005265736574207468726F8B
:1017C00074746C6500416C61726D7320446973615F
:1017D000626C6564005377697463686573206E6F2B
:1017E00074206F666600506C656173652072657366
:1017F0006574207468656D004D455353414745003D
:10180000707265737320616E79204B657900426157
:101810006420454570726F6D2044617461004545D8
:1018200050524F4D20466F726D617474696E67003F
:10183000454550524F4D206F766572666C6F77004C
:101840004D454E5553204F564552464C4F5700522A
:101850004144494F2053455455500044415445207C
:10186000414E442054494D4500545241494E455241
:101870000056455253494F4E004449414700414E9E
:10188000410043414C4942524154494F4E004D4F53
:1018900044454C53454C00534554555000464C4923
:1018A00047485420504841534500464C4947485406
:1018B000205048415345530044522F4558504F0043
:1018C0004C494D49545300435552564553004355D6
:1018D00052564500435553544F4D20535749544396
:1018E0004845530046554E432053574954434845B5
:1018F0005300534146455459205357495443484592
:10190000530054454C454D455452590054454D5093
:101910004C415445530053544154004445425547AB
:1019200000444154412043415244204552524F52B9
:1019300000444154412043415244204E4F542050D2
:10194000524553454E5400436865636B202F473919
:10195000584C4F475320666F6C6465720046494C83
:10196000452053595354454D204552524F52002F54
:101970004739584C4F47532F4D30305F3030302E61
:10198000545854009C1432465A5A4632465AECEC8B
:10199000003C649CC4003C649C0000006453696D7E
:1019A000706C6520342D434800542D4375740056E7
:1019B0002D5461696C00456C65766F6E5C44656C96
:1019C000746100654343504D0048656C6920536560
:1019D00074757000536572766F20546573740000DF
:1019E00011241FBECFEFD1E2DEBFCDBF00E00CBFA0
:1019F00012E0A0E0B2E0EAEFFAE501E00BBF02C0BE
:101A000007900D92A63DB107D9F712E1A6EDB2E01D
:101A100001C01D92AE37B107E1F70E94EE250C948C
:101A20007BAD0C940000E82F8823D9F087FF07C016
:101A3000863E1CF080E68E1B0895E19504C08B3134
:101A400014F4805C0895E5321CF48E2F8B5E0895AB
:101A5000E9323CF4FF27E7FDF095E65AFA4F84910E
:101A6000089580E208959DE0899F900111242E54ED
:101A70003A4FC9010895282F30E0220F331F220F5B
:101A8000331F25553B4FC901089599E0899F900167
:101A90001124255C3C4FC901089595E0899F900170
:101AA0001124255A3B4FC90108959C0140E068303C
:101AB00008F041E070E0442371F0CB010897FC018D
:101AC00063E0EE0FFF1F6A95E1F7E80FF91FDF01F2
:101AD000A55FBA4F0AC0FB01EE0FFF1FEE0FFF1FFD
:101AE000E60FF71FDF01AD51BB4FFD018081205094
:101AF0003C4F37FD0EC068E02030360784F04423A9
:101B000019F484E090E002C088E090E0A80FB91FCB
:101B10008C91992787FD9095582F442733C04423F3
:101B200031F0432FB9017070660F771F04C0432F47
:101B30004695B9017170842F90E0FD01E80FF91FFF
:101B40008181992787FD90959B0135952795829FE7
:101B5000A001839F500D929F500D112420813327A7
:101B600027FD309580E092E0861B970B9595879531
:101B7000BC01269FC001279F900D369F900D112418
:101B8000480F591FCA0169E170E00E94E9ACCB011E
:101B900008959C01633031F1643028F4613051F0D4
:101BA000623090F43CC0653039F1653008F1663040
:101BB00061F525C0493029F497FD24C020503240FA
:101BC0000AC097FF2CC026C0493041F418161906E8
:101BD00024F120503E4F220F331F21C01816190642
:101BE000CCF01DC097FF1BC0309521953F4F17C00B
:101BF0001816190694F00EC097FF0CC003C01816F3
:101C000019065CF020E03CEF0AC067500E94550DB9
:101C10009C0105C020E030E002C020E034E0C901B2
:101C200008956F927F928F929F92AF92BF92CF92C0
:101C3000DF92EF92FF920F931F933B017C0100E034
:101C400010E08824992464E670E080E090E0661952
:101C5000770988099909A80197010E94AAAC5B013C
:101C60006C0182E390E0A0E0B0E0A80EB91ECA1EAD
:101C7000DB1EC801B7010E94AAAC0E94AAACBC013D
:101C800088279927A40193010E94AAACE4E09695C5
:101C9000879577956795EA95D1F7A60EB71EC81E6A
:101CA000D91EC601B50124E630E040E050E00E94B4
:101CB000FCACC9011F910F91FF90EF90DF90CF9086
:101CC000BF90AF909F908F907F906F900895FF92FC
:101CD0000F931F939C01AB016115710531F1FF2436
:101CE00097FF05C0FF24F394309521953F4F57FF90
:101CF00010C000E014E066277727641B750BC8014D
:101D0000821B930B0E94110E9801281B390BC901ED
:101D100004C0C901BA010E94110EFF2011F49C01F8
:101D200004C022273327281B390BC9011F910F91AB
:101D3000FF9008951F93162F0E94330DFC01A12FD1
:101D4000B0E02481332727FD3095CD01880F991FFE
:101D500002C0359527958A95E2F723703070AE0F53
:101D6000BF1F8C91992787FD9095880F991F880F29
:101D7000991F280F391FC9011F910895FF920F93D2
:101D80001F93F82E162F00E0112391F0812F6F2D55
:101D90000E949A0E21E0853F920754F0282F255F7C
:101DA000211708F02F5F0F5F122F053069F710E041
:101DB000812F1F910F91FF900895E7E7F5E0E80F5D
:101DC000F11DE491F0E0EE0FFF1FEB58F74F20817B
:101DD0003181C9010895A5E7B8E0E5E8F8E060E0E1
:101DE000862F806480937C0080917A008064809349
:101DF0007A00208931898D919C91119796958795CC
:101E0000820F931F8E7F11969C938E9340815181F8
:101E1000240F351F36952795318B208B80917A00C2
:101E200084FFFCCF80917A00806180937A0080915A
:101E3000780090917900840F951F969587958193EE
:101E400091936F5F1296683059F60895E5E7F8E0D0
:101E500050E0852F806480937C0020E030E040E0FB
:101E600080917A00806480937A0080917A0084FF68
:101E7000FCCF80917A00806180937A008091780015
:101E800090917900280F391F4F5F443049F73695FC
:101E90002795219331935F5F5830D9F60895E5E790
:101EA000F8E020E0822F806480937C0080917A00AB
:101EB000806480937A0080917A0084FFFCCF8091C7
:101EC0007A00806180937A00809178009091790007
:101ED000880F991F819391932F5F283019F70895E8
:101EE00080917B00877F80937B0083E480937C00DC
:101EF00085E38A95F1F780917A00806480937A0077
:101F000080917A0084FFFCCF80917A008061809379
:101F10007A00609178007091790080917A008064F5
:101F200080937A0080917A0084FFFCCF80917A00C0
:101F3000806180937A0020917800309179008091BF
:101F40007A00806480937A0080917A0084FFFCCFCD
:101F500080917A00806180937A004091780050915E
:101F6000790080917A00806480937A0080917A0071
:101F700084FFFCCF80917A00806180937A00809109
:101F8000780090917900260F371F240F351F280FF6
:101F9000391F220F331F30931706209316068091A6
:101FA0007B00886080937B000895A82FB0E0FD013E
:101FB000E95DF94F1082882329F4809132039091D2
:101FC000330304C08091390390913A03FD01EE0F71
:101FD000FF1FE75DF94F91838083A35DB94F1C928A
:101FE00008951F920F920FB60F9211248F93809134
:101FF00042088F5F809342088F910F900FBE0F9021
:102000001F901895409142082091B200809142089B
:102010004817C1F7942F80E030E0282B392BC901F5
:1020200008951F920F920FB60F920BB60F921124C4
:102030002F933F934F935F936F937F938F939F93D0
:10204000AF93BF93CF93DF93EF93FF93C09196002D
:10205000D0919700809171008F7D8093710078946A
:1020600080914508909146089E01281B390B3695B2
:102070002795C901815A9F408F5D9E4220F481E0DF
:10208000809341082EC040914108842F81508830B0
:1020900040F5C901815293408757954000F5E42FE0
:1020A000F0E0EE0FFF1FE15DF74F2C5D35408091B2
:1020B0002403992787FD90950A96BC01269FC001AD
:1020C000279F900D369F900D11246AE070E00E94CA
:1020D000E9AC718360834F5F4093410802C0109266
:1020E0004108D0934608C0934508F8948091710048
:1020F000806280937100FF91EF91DF91CF91BF914A
:10210000AF919F918F917F916F915F914F913F918F
:102110002F910F900BBE0F900FBE0F901F90189530
:102120001F920F920FB60F920BB60F9211248F933E
:10213000EF93FF93E091BF0FEE2351F0E150E09356
:10214000BF0FF0E0ED54F04F80818093C60005C0D2
:102150008091C1008F7D8093C100FF91EF918F919D
:102160000F900BBE0F900FBE0F901F9018951F92EF
:102170000F920FB60F9211248F9389B18C7011F0CA
:102180008C3029F4809143088150809343088F91CB
:102190000F900FBE0F901F9018951F920F920FB6C1
:1021A0000F9211248F9389B18C7011F08C3029F427
:1021B000809143088F5F809343088F910F900FBEEB
:1021C0000F901F9018951F920F920FB60F92112427
:1021D0008F938CB1807611F0803629F48091440879
:1021E0008F5F809344088F910F900FBE0F901F90C8
:1021F00018951F920F920FB60F9211248F938CB1E6
:10220000807611F0803629F48091440881508093C3
:1022100044088F910F900FBE0F901F901895EFE715
:10222000F2E101C0319680818535E1F39F012E579F
:102230003241C9010895EF92FF920F931F93062F29
:102240007A010E94330DDC0110E0FC01E00FF11F68
:10225000C70195958795959587958083000F111FE8
:1022600083E090E0002E02C0880F991F0A94E2F7E5
:10227000809514962C911497822393E0E922FF24F1
:1022800002C0EE0CFF1C0A95E2F78E0D14968C939B
:1022900082E00E9442611F910F91FF90EF9008959C
:1022A000DF93CF93CDB7DEB729970FB6F894DEBF93
:1022B0000FBECDBF86ED92E0BE016F5F7F4F0E94E3
:1022C0007D782B81332727FD3095432F532F7BE0DB
:1022D000220F331F441F551F7A95D1F78C81992700
:1022E00087FD9095A92FB92FDC0199278827282BE6
:1022F000392B4A2B5B2B8A81992787FD9095A92F33
:10230000B92FF5E0880F991FAA1FBB1FFA95D1F7C7
:10231000282B392B4A2B5B2B8981992787FD909598
:10232000A92FB92FB695A79597958795282B392B67
:102330004A2B5B2B8E81992787FD90958055904085
:10234000AA2797FDA095BA2F79E1880F991FAA1F98
:10235000BB1F7A95D1F7282B392B4A2B5B2B8D810C
:10236000992787FD90950196AA2797FDA095BA2FEA
:1023700065E1880F991FAA1FBB1F6A95D1F7282B0B
:10238000392B4A2B5B2BB901CA0129960FB6F89459
:10239000DEBF0FBECDBFCF91DF91089578941F921D
:1023A0000F920FB60F920BB60F9211242F933F93FB
:1023B0004F935F936F937F938F939F93AF93BF934D
:1023C000EF93FF93F894809106028F5F809306024B
:1023D000815090E083709070892B11F49DE901C0C9
:1023E0009CE9809170008D7F809370008091B30094
:1023F000980F9093B300789490911006992369F008
:1024000080911F06882329F490931F0681E0809312
:10241000200691509093100621C030911E06332360
:10242000B9F020911F06222399F090E080912006B8
:10243000882309F491E090932006992309F428E079
:1024400020931006992351F0315030931E0606C098
:1024500010921F0610922006109209068091200605
:10246000882389F080910906882311F490E004C044
:102470009091470881E0982790934708992319F491
:1024800084B5806402C084B58F7B84BD0E94817056
:102490000E94AAA580910A06826080930A06F89499
:1024A000809170008260809370007894FF91EF912A
:1024B000BF91AF919F918F917F916F915F914F915C
:1024C0003F912F910F900BBE0F900FBE0F901F905A
:1024D00018950F931F938C010E94F86E82E260E0C2
:1024E00048EF57E124E00E944C6980E068E1A801D0
:1024F0000E9487690E94656D809108030E945B6D50
:102500001F910F9108958091090180958F73D9F7DC
:102510000E94546F0895EF92FF920F931F938C01C6
:102520007B010E94F86E82E260E048E857E124E017
:102530000E944C6980E060E2A8010E94876980E007
:1025400068E2A7010E94876980E060E34EE857E1F6
:102550000E9487690E94656D809108030E945B6DEF
:102560000E9483121F910F91FF90EF900895EF92B8
:10257000FF920F931F93CF93DF93E82E882349F4A4
:1025800080910C0690910D06492F441F4427441F4B
:1025900006C2992787FD909597FF03C09095819576
:1025A0009F4F863109F4F6C18A3030F490E00F96DF
:1025B0000E94F36F482FEFC18A50282F30E0890125
:1025C000000F111F020F131F0D5A1A4FD801129638
:1025D0008C91882311F440E0E2C1F80182818530BA
:1025E00010F420E007C0D80112968C91883008F4CE
:1025F000DEC122E0D801EC91E150E73008F449C097
:1026000053C080910E0690910F0640E08C239D23CD
:10261000892B89F127C080910C0690910D068C2B97
:102620009D2B90930D0680930C06F80180810E94EB
:10263000B712F82ED80111968C910E94B712982FDC
:10264000F8018281853019F0863049F403C0FF20FB
:1026500089F002C0FF2031F4992321F40BC040E03F
:10266000F91649F041E080910E0690910F068C2BEF
:102670009D2B0AC040E020910E0630910F06CE013E
:10268000809590958223932390930F0680930E0656
:1026900082C180910B06882309F060C0F0E0EE0F44
:1026A000FF1FE25CF64F31C0E93018F460E074E0DF
:1026B00057C0E03178F4F0E0EE0FFF1FDF01AC50BF
:1026C000BD4FE75EF74F608171818D919C91681BD2
:1026D000790B09C0E43150F4F0E0EE0FFF1FE75E24
:1026E000F74F60817181660F771F3AC0E43230F492
:1026F000F0E0EE0FFF1FEC5DF64F07C0E63240F44E
:10270000F0E0EE0FFF1FEF51FA4F6081718128C09A
:10271000E83270F48E2F90E08697FC01EE0FFF1FD9
:10272000E80FF91FED53F04F8081682F70E018C05B
:10273000E83259F460910D1070910E108091E90FFC
:102740009091EA0F680F791F0BC0E93239F460915C
:10275000DF0F7091E00F7695679502C060E070E042
:10276000222309F079C0D8018C918A324CF011965D
:102770009C9189E19802C00111248058934F3FC079
:10278000F801808189325CF08181992787FD9095DD
:1027900080589F4F880F991F880F991F30C0D8010C
:1027A0008C91873244F011968C91992787FD9095F2
:1027B00080589F4F24C0F801808185323CF0818190
:1027C000992787FD90958E599F4F19C0D801119672
:1027D0009C9189E2980290011124359527953595B1
:1027E000279597FD915C96FB990F990B90F9892F8E
:1027F000992787FD9095F901E81BF90BCF01D801C6
:1028000012962C91223051F0233071F02130C1F416
:1028100040E0861797070CF0BEC0BCC040E06817C8
:1028200079070CF0B8C0B6C040E0FB0177FF03C0E9
:10283000F095E195FF4F8E179F070CF0ACC0AAC032
:1028400040E0FB0177FF03C0F095E195FF4FE817EB
:10285000F9070CF0A0C09EC0D8011196EC91E15090
:10286000E73058F480910B06882309F063C0F0E04C
:10287000EE0FFF1FE25CF64F33C0E93018F4E0E0E2
:10288000F4E05AC0E03180F4F0E0EE0FFF1FDF010A
:10289000AC50BD4FE75EF74F0190F081E02D8D9178
:1028A0009C91E81BF90B0AC0E43158F4F0E0EE0FFC
:1028B000FF1FE75EF74F0190F081E02DEE0FFF1F45
:1028C0003BC0E43230F4F0E0EE0FFF1FEC5DF64F5A
:1028D00007C0E63248F4F0E0EE0FFF1FEF51FA4F69
:1028E0000190F081E02D28C0E83270F48E2F90E046
:1028F0008697FC01EE0FFF1FE80FF91FED53F04F15
:102900008081E82FF0E018C0E83259F4E0910D1012
:10291000F0910E108091E90F9091EA0FE80FF91FE6
:102920000BC0E93239F4E091DF0FF091E00FF6953A
:10293000E79502C0E0E0F0E0D80112968C91893072
:1029400089F08A3018F4883009F507C08A3079F0A8
:102950008B3091F08C30D1F414C040E06E177F07BB
:10296000D1F418C040E06E177F07A1F414C040E016
:10297000E617F70784F40EC040E06E177F075CF49B
:1029800009C040E06E177F0734F004C040E0E6174E
:10299000F7070CF041E01E1414F081E04827842F63
:1029A000DF91CF911F910F91FF90EF900895C1E0BB
:1029B000D0E002C0CC0FDD1F2A95E2F780910C0613
:1029C00090910D068C239D23892B09F01ACE23CEDE
:1029D000362F37953327379520E030930D06209317
:1029E0000C060E94B7120895EF92FF920F931F9367
:1029F000CF93DF93C7E9D5E051E0E52EF12C288194
:102A0000222309F189818823F1F090E00197870161
:102A100002C0000F111F8A95E2F7822F60E00E942A
:102A2000E81420912F0830913008882319F0202BCA
:102A3000312B05C0C8018095909528233923309308
:102A4000300820932F08229685E0CF3AD807B9F6B0
:102A5000DF91CF911F910F91FF90EF900895FF921A
:102A60000F931F938C01F62E0E94F86E82E260E0B5
:102A700048E857E124E00E944C6980E060E2A80148
:102A80000E94876989E168E340E058E10E94876914
:102A90000E94656DFF2011F089E102C0809108035A
:102AA0000E945B6D809115068093100684E687BDB9
:102AB0000E9483128091090180958F7391F4809117
:102AC0000B0360E00E94E814882331F48091220314
:102AD000882311F4FF2019F0409AA895EBCF409875
:102AE000FCCF1F910F91FF90089580911D0387FDEA
:102AF00007C0887329F485EC97E160E00E942F15E8
:102B0000089580911D0386FD0AC00E945A63883C87
:102B1000910528F489E797E160E00E942F15089558
:102B20000F931F9380911D038670A1F185ED97E1AE
:102B300066EE77E10E948B1200E080911D038670A3
:102B4000823009F401E010E10AC0133139F0812F1D
:102B50008F5060E00E94E814801729F41F5F18313D
:102B6000A0F31831B9F08091090180958F7391F429
:102B700006C080912203882351F0409A09C08091B9
:102B80000B0360E00E94E8148823B9F7F2CF409865
:102B900010E1DDCF1F910F9108950F931F93CF93F5
:102BA000DF9380911D0380FD44C080911E0390E05F
:102BB0008170907002E010E0081B190BF801EE0F15
:102BC000FF1FE652FD4FC181D281609687859089B3
:102BD000C81BD90B0E944F0F102F802F0E94DD0EB3
:102BE000C817D90734F584EA97E166EB77E10E94CC
:102BF0008B120E944F0F812F0E94DD0EC817D9073C
:102C00002CF48091090180958F7349F00E94831202
:102C100010C080912203882351F0409AEACF80911E
:102C20000B0360E00E94E8148823B9F7F2CF4098C4
:102C3000E0CFDF91CF911F910F910895AF92BF9296
:102C4000CF92DF92EF92FF920F93CF93DF93809119
:102C5000200384FD6FC080910B0360E00E94E814A4
:102C6000882329F480912203882309F457C0409ACD
:102C70000E94F86E80E060E048EE50E020E000E066
:102C80000E9424680E94656D809108030E945B6D1C
:102C90000E9483120E94EB0E0F5F0032D9F7AA2424
:102CA000BB2400E0802F0E94DD0EC92FD0E0AC0EC7
:102CB000BD1E0F5F0430B1F7F894C0908F0FD09015
:102CC000900F789480E991E0C80ED91E1DC00E9433
:102CD000EB0EC0E0D0E000E0802F0E94DD0EE92E78
:102CE000FF24CE0DDF1D0F5F0430B1F78091090185
:102CF00080958F73F9F4CA15DB05E1F411C080915A
:102D000022038823A9F0409AF89480918F0F909124
:102D1000900F7894C816D906D1F60CC04098A8CF69
:102D200080910B0360E00E94E814882361F7E7CFED
:102D30004098EACFDF91CF910F91FF90EF90DF9015
:102D4000CF90BF90AF9008951F93CF93DF93C4ECC3
:102D5000D5E011E08881882351F060E00E94E814FA
:102D6000882329F0812FDF91CF911F9108951F5F54
:102D70002D96153079F710E0F5CFDF92EF92FF92A4
:102D80000F931F93CF93DF93E82E082F0F700650F9
:102D9000109135031770083008F0CCC0E02FE5958E
:102DA000FF27E7FDF09580911E0390E0880F991FA3
:102DB000880F991FE80FF91FE25BFA4FF490FA941D
:102DC0000E94A416682F8F2D0E94BE0ED82E6F2D44
:102DD0000E949A0EBC01112389F477FF04C0882752
:102DE0009927861B970B95958795959587950196BD
:102DF0008132910584F080E290E00DC0212F3327CD
:102E000027FD30952150304081E090E002C0880FCE
:102E1000991F2A95E2F7982F32E0F31639F4809142
:102E2000340383FF03C094E021E001C020E0492F78
:102E3000552747FD509500FF07C0EA01C60FD71F71
:102E400010E083E89FEF04C0EB01C41BD50BF8CF63
:102E5000009719F4222329F015C03FEF8338930718
:102E600049F0C817D9071CF0681779074CF08D375F
:102E7000910541F08C179D072CF08617970714F4E5
:102E8000EC0111E083589F4F8A3F910509F76C17B9
:102E90007D0724F4CE37D10544F40CC0C617D707FC
:102EA0004CF48FEFC338D8072CF48091350386FF9C
:102EB000EB0111E03EEFCC30D3071CF4CCE0DEEFA9
:102EC00006C081E0C53FD80714F0C4EFD1E08D2DD6
:102ED0006F2DAE010E941B11CE37D1051CF0CDE73E
:102EE000D0E006C03FEFC338D30714F4C3E8DFEFE8
:102EF000CE0164E070E00E94E9ACEB01EC96112396
:102F000041F08E2D0E947270109209068091130676
:102F100007C0E6FE03C081E0809309068091110698
:102F20008093100688E893E16C2F70E00E94E9AC72
:102F300067BDEE248E2DDF91CF911F910F91FF90F1
:102F4000EF90DF900895AF92BF92CF92DF92EF9211
:102F5000FF920F931F93CF93DF935C01A5EAB8E034
:102F6000FC0198E001900D929150E1F76F3F19F448
:102F70000E94A416682F1EEAC12E14E0D12E0FEF76
:102F8000C0E0D0E0E62EFF240894E11CF11CFE0115
:102F9000EE0FFF1FEE0FFF1FE555FB4F2081822F25
:102FA000837009F4A2C026952695237030E0802F07
:102FB000992787FD90952817390709F48DC08181DD
:102FC000807E99F0828180FD10C0FE01EE0FFF1F10
:102FD000EE0FFF1FE455FB4F808182958695877029
:102FE00090E0E816F90609F077C0FE01EE0FFF1F2A
:102FF000EE0FFF1FE455FB4F8081880F880F880F6D
:1030000085958595859561E00E94E814882309F4EB
:1030100063C0FE01EE0FFF1FEE0FFF1FE555FB4FD4
:103020008081182F169516951370E12FF0E0EE0FA2
:10303000FF1FEB55F74F0190F081E02D8370F7FFF4
:1030400003C080FD03C048C081FF46C0012FD601E8
:103050006C91772767FD7095CF010E94670E9C01E8
:10306000FE01EE0FFF1FEE0FFF1FE555FB4FE08146
:103070008E2F807F69F06E2F62956F70862F90E0A3
:103080000B970CF06C5FC90140E00E94C90D9C01D8
:10309000B901882777FD8095982FFE01EE0FFF1F5D
:1030A000EE0FFF1FE355FB4F2081269530E040E0F7
:1030B00050E00E94AAAC24E630E040E050E00E94DC
:1030C0001EADE12FFF27E7FDF095EE0FFF1FEA0D84
:1030D000FB1DC90120839183219684E090E0C80EF6
:1030E000D91ECE30D10509F052CFDF91CF911F917B
:1030F0000F91FF90EF90DF90CF90BF90AF90089529
:103100007F928F929F92AF92BF92CF92DF92EF9277
:10311000FF920F931F93CF93DF93782E0BEDA02E8A
:1031200002E0B02EEE24CC24DD2411E0812E912C7F
:103130008C2D843010F0FC2C0DC0E0911E03F0E0CB
:10314000EE0FFF1FEE0FFF1FEC0DFD1DE25BFA4FB0
:10315000F490FA940E94DD0E9C01D5018D919C9112
:103160001197281B390B121613062CF45C96ED915F
:10317000FC915D9705C0D5011E96ED91FC911F97BE
:10318000E436F10514F4E4E6F0E0B901882777FDB0
:103190008095982FAAE0660F771F881F991FAA9520
:1031A000D1F79F01442737FD4095542F0E941EAD53
:1031B000E901BCEF21303B071CF4C0E0DCEF06C0A6
:1031C000E4E020303E0714F0C0E0D4E0809120031A
:1031D00080FF06C0F2E0FF1619F4D095C195DF4FCD
:1031E0000F2D10E0F801EE0FFF1FE25CF64FD183C8
:1031F000C083CE010F964F9740F4C4010F2C02C03C
:10320000880F991F0A94E2F7E82A23E02F1508F4A3
:103210005DC080910B06882309F058C032E0F30EA0
:103220008F2D90E00197D40102C0AA0FBB1F8A9591
:10323000E2F7CD01816020912F0830913008822380
:103240009323892B09F442C0F801EE0FFF1FEC5EB7
:10325000FC4FF0808F2D807CC9F1EF2DEF73F0E0F3
:10326000EE0FFF1FDF01A45FBC4FEF5CF74F6081E3
:1032700071812D913C91621B730B882777FD80959E
:10328000982FF801EE0FFF1FE652FD4F23AD3327B5
:1032900027FD3095432F532F0E94AAAC22E330E044
:1032A00040E050E00E941EADF694F694F694F69439
:1032B000F694F694EF2DF0E0E130F10519F0329735
:1032C00029F403C0C20FD31F01C0E901000F111F71
:1032D0000555194FF801D183C0830894C11CD11C36
:1032E00022E030E0A20EB31E37E0C316D10409F08D
:1032F0001FCF8BEA96E0672D0E94A317FF2400E002
:1033000010E0A12C94E0B92EF801E555F94FC080EA
:10331000D1808F2D672D0E94BE0E6F2D0E949A0EB8
:10332000EC0182E0F81671F58091340383FF2AC026
:103330008091200380FF03C0D095C195DF4FBE016F
:10334000882777FD8095982F63587F4F8F4F9F4F29
:1033500095012C193D09442737FD4095542F0E94B3
:10336000AAAC20E038E040E050E00E941EADB90178
:10337000CA016030A8E07A07A0E08A07A0E09A07B7
:1033800041F406C080912F06882311F0C0E0D0E000
:103390009E01220F331FF801E150F94F3183208342
:1033A000F3940E5F1F4FB4E0FB1609F0ADCF8E2DE6
:1033B000DF91CF911F910F91FF90EF90DF90CF9011
:1033C000BF90AF909F908F907F9008958F929F9223
:1033D000AF92BF92CF92DF92EF92FF920F931F9323
:1033E000CF93DF930E94A416C82E9BEAE92E96E0A5
:1033F000F92E0FEF16E0C0E0D0E082E0882E912C8D
:10340000AA24A394BC2E80911E0390E0817090703A
:103410009401281B390B2C173D0751F18C2F6C2D73
:103420000E94BE0ED82EA0920B068C2D0E948018F2
:1034300010920B06F80180819181F7012081318182
:10344000820F931F62E070E00E94E9ACAB01FEEFD7
:103450006C307F071CF44CE05EEF06C021E0653F56
:10346000720714F044EF51E08D2D6B2D0E941B115B
:10347000219682E090E0E80EF91E0E5F1F4FC430E7
:10348000D10509F0BFCF82E00E944261809112060F
:103490008093100684E687BDDF91CF911F910F9135
:1034A000FF90EF90DF90CF90BF90AF909F908F9064
:1034B00008952F923F924F925F926F927F928F92D8
:1034C0009F92AF92BF92CF92DF92EF92FF920F93B3
:1034D0001F93DF93CF93CDB7DEB729970FB6F8943C
:1034E000DEBF0FBECDBF9F838E83162F862F0E9417
:1034F0008018409137034823242F30E080914D07F6
:1035000090E08227932782239323892B31F08091A7
:1035100012068093100684E687BD40934D0780E035
:1035200094E09093BA068093B9069093BC0680937A
:10353000BB0680910B06882379F180911E0390E0F1
:103540008170907022E030E0281B390B1092AC069D
:103550001092AB062130310521F01092AE06109288
:10356000AD062230310521F01092B0061092AF0660
:103570001092B2061092B106E3ECF6E011921192AD
:1035800026E0E33DF207D1F747E057E05A8349834D
:1035900023ED36E0FA0146C063EC76E040E050E00F
:1035A000FA01EF5CF74FDA01A652BD4F808191819D
:1035B000D2962D913C91D397821B930B880F991F24
:1035C000DB018D939D93BD014E5F5F4F48305105E8
:1035D00039F78091390890913A08880F991F909394
:1035E000CC068093CB0680913B0890913C08880FD5
:1035F000991F9093CE068093CD0680913D089091BF
:103600003E08880F991F9093D0068093CF06809133
:103610003F0890914008880F991F9093D20680939D
:10362000D106B2CF80819181D9018D939D939D0167
:103630003496B7E0EF35FB07A9F780E4E7E0F7E061
:10364000DF011D928A95E9F710922E08BEE04B2EFD
:10365000B8E05B2EAEE88A2EA7E09A2EFEE46F2E2D
:10366000F7E07F2E1D82212E33240894211C311C6B
:103670008D810E94450D6C01FC0180818F7159F490
:10368000EBE54E2EE4E05E2E27E735E03C832B830E
:1036900022243324A4C290E0419794F7D6011796D0
:1036A0009C91892F807FC1F0892F8595859585957F
:1036B0008595282F332727FD309518162CF42216D0
:1036C000330609F07AC208C088279927821B930B1A
:1036D0002816390609F471C2F601838161E00E945F
:1036E000E814D2019C918823C1F4492F1C92F60161
:1036F0009181892F8850823008F05FC287818E7057
:10370000843009F45AC2993019F01986188640C0DD
:1037100020E03CEF398728873BC040E0992309F43B
:1037200041E081E0D2018C93F60181818150A82F84
:10373000B0E0FD01EE0FFF1FE555F94F208131810B
:1037400039872887843168F03D81831750F4AA0FA8
:10375000BB1FAA0FBB1FA95FB84F8D919C91998782
:103760008887D6019C91892F807E91F092959695BD
:103770009770892F90E00197E1E0F0E002C0EE0F32
:10378000FF1F8A95E2F720912E082E2B20932E08FA
:10379000D60118968C918823C9F0B9E28B0290016A
:1037A0001124359527953595279587FD815C86FBF6
:1037B000880F880B80F9992787FD9095281B390B76
:1037C000E885F985E20FF31FF987E887D601169699
:1037D0008C911697882329F415968C91882309F4E7
:1037E0006CC1F4016081718182819381442391F4E1
:1037F00020E031E040E050E00E941EAD5095409541
:10380000309521953F4F4F4F5F4FA884B984A20E4A
:10381000B31E5FC0D60117968C9117978E708430B7
:1038200049F5EC91EF71F0E0EE0FFF1FEF52F94F09
:1038300060817181882777FD8095982F20E034E69C
:1038400040E050E00E94AAACF4016083718382835F
:103850009383D60112962C91222361F0332727FD02
:103860003095432F532F0E941EADF40120833183E6
:1038700042835383D4016D917D918D919C9120E081
:1038800031E040E050E00E941EAD509540953095EB
:1038900021953F4F4F4F5F4FA884B984A20EB31EAE
:1038A000A114B104B1F0F6018581B7FE02C08F709A
:1038B00002C082958F7090E09C0144E650E0249F06
:1038C000C001259F900D349F900D1124D3018D933D
:1038D0009C93F301208131812115310599F080916C
:1038E0001B06882321F02150304031832083D301EF
:1038F0008D919C91892B31F0F401608171818281DD
:103900009381C2C0A114B10409F4D7C0D6011696A0
:103910008C911697882309F4C0C080911B068823D8
:1039200009F477C012962C91222329F460E070E00C
:1039300080E293E017C0332727FD309537FF03C09F
:10394000309521953F4F332727FD3095432F532F37
:1039500060E070E080E293E00E941EADC901DA01F0
:10396000BC01CD01F60126811A141B040CF52F7041
:10397000422F50E041155105D9F1A4E6B0E04A9F2D
:1039800090014B9F300D5A9F300D1124442737FD75
:103990004095542F0E941EAD79018A01F401808167
:1039A0009181A281B381E80EF91E0A1F1B1F2BC053
:1039B00022952F70422F50E041155105C9F0A4E621
:1039C000B0E04A9F90014B9F300D5A9F300D11245B
:1039D000442737FD4095542F0E941EADF401E0802E
:1039E000F18002811381E21AF30A040B150B0BC05C
:1039F00028853985C901AA2797FDA095BA2FEE24FD
:103A0000F82E092F1A2FD401ED92FD920D931C93DD
:103A10001397F401608171818281938128853985B2
:103A200079010027F7FC0095102F1A141B0464F489
:103A300020E031E040E050E00E941EADE216F306C7
:103A40000407150764F01BC020E031E040E050E0BF
:103A50000E941EAD2E153F054007510784F448858E
:103A60005985CA01AA2797FDA095BA2FBA2FA92F69
:103A7000982F8827F40180839183A283B383D40194
:103A80006D917D918D919C9120E031E040E050E07E
:103A90000E941EAD3987288710C0E885F985CF01BF
:103AA000AA2797FDA095BA2FBA2FA92F982F88275C
:103AB000F40180839183A283B383D60114966C9121
:103AC0001497662341F08885998511964C910E9440
:103AD000C90D99878887F601878180FD12C0E18131
:103AE000EE2379F0E53068F4F0E0EE0FFF1FE350CD
:103AF000F94F8081918128853985280F391F3987B1
:103B0000288748855985BA01882777FD8095982FA1
:103B1000D60112962C91332727FD3095432F532F32
:103B20000E94AAAC9B01AC01F60180818F71082F25
:103B300010E00150104087818695877090E08130B9
:103B4000910551F0F801EE0FFF1FEE0FFF1F0297D6
:103B500031F5E95FF84F1EC0CA01B90124E630E033
:103B600040E050E00E941EADB901CA01000F111FD4
:103B7000000F111F095F184FD8012D913D914D91F4
:103B80005C910E94AAAC20E034E040E050E00E944A
:103B90001EADF80120833183428353830EC0E95F59
:103BA000F84F80819181A281B381820F931FA41F5E
:103BB000B51F80839183A283B383FD81FF5FFD8363
:103BC0000894411C511C24E030E0820E931E42E018
:103BD00050E0640E751EF03209F04ACD51CDA98136
:103BE000BA818D909D90AD90BC90C501B40124E642
:103BF00030E040E050E00E941EADE981FA81208370
:103C0000318342835383F101E45BF64FC901208382
:103C10009183D20113962D913C91149711968C911A
:103C20001197FAE08F02F0011124E851FC4FF98757
:103C3000E8878C914AE084023001112488E19CEFEE
:103C4000680E791ECF015E2F492F2E173F071CF4F7
:103C5000C901522F492F852F942F8C010615170566
:103C60000CF4830181149104A104B10479F1980149
:103C7000442737FD4095542F181419041A041B04C7
:103C800064F4A885B985BD01882777FD8095982FB4
:103C9000621B730B840B950B0BC0C301AA2797FD06
:103CA000A095BA2F281B390B4A0B5B0BCA01B9012F
:103CB000A50194010E94AAAC20EA36E841E050E058
:103CC0000E941EADC901DA014C015D01C80155E039
:103CD000959587955A95E1F7800F911F9801232FAD
:103CE000330F330B2595820F931F000F012F001FF9
:103CF000110B801B910B6C01EE24D7FCE094FE2C81
:103D00008885998525E0959587952A95E1F7E88539
:103D1000F9858E0F9F1FA30105E0559547950A95DC
:103D2000E1F7B301660F672F661F770B460D571D2E
:103D30009F01232F330F330B2595820F931FEE0F17
:103D4000EF2FEE1FFF0B8E1B9F0B8C01222717FD01
:103D50002095322FC80CD91CEA1CFB1C0C151D0524
:103D60002E053F0514F468017901461B570B759524
:103D7000679575956795460F571FCA01AA2797FD46
:103D8000A095BA2F87017601E816F9060A071B07E6
:103D900014F47C018D01D20112968C91882341F09C
:103DA00010950095F094E094E11CF11C011D111D8B
:103DB000EB81FC818081882309F160E00E94E81496
:103DC0008823E1F0AB81BC8111968C91B9E28B0222
:103DD00090011124359527953595279587FD815CB0
:103DE00086FB880F880B80F9992787FD9095281B03
:103DF000390B79010027F7FC0095102FEE81FF8128
:103E0000E20DF31DF182E082E981FA813496FA83B2
:103E1000E98322E030E0220E331E45E050E0440EFC
:103E2000551E8B819C8102969C838B83E754F740BF
:103E300009F0D5CE29960FB6F894DEBF0FBECDBFE0
:103E4000CF91DF911F910F91FF90EF90DF90CF9076
:103E5000BF90AF909F908F907F906F905F904F90AA
:103E60003F902F900895CF92DF92EF92FF920F93A1
:103E70001F93DF93CF93CDB7DEB7A0970FB6F8941B
:103E8000DEBF0FBECDBF81E080930B060E94A4165B
:103E9000682F8E010F5F1F4FC8010E94591A1092A0
:103EA0000B06F801AEE5B4E09E012F5D3F4F808127
:103EB00091814CEF883194071CF488E19CEF06C097
:103EC00043E0883E940714F088EE93E011969C93AB
:103ED0008E9332961596E217F30749F700E010E04B
:103EE000F2E0CF2ED12CE02E80911E0390E0817065
:103EF00090709601281B390B2017310791F0FF2491
:103F00008F2D6E2D0E949A0E855F914034F48F2D77
:103F10006E2D40E050E00E941B11F39445E0F41632
:103F200079F70F5F1F4F04301105E9F682E00E9418
:103F30004261809112068093100684E687BDA096A8
:103F40000FB6F894DEBF0FBECDBFCF91DF911F91AA
:103F50000F91FF90EF90DF90CF9008952F923F92B6
:103F60004F925F926F927F928F929F92AF92BF9289
:103F7000CF92DF92EF92FF920F931F93DF93CF9335
:103F8000CDB7DEB7C756D0400FB6F894DEBF0FBE30
:103F9000CDBFF89420918F0F3091900FA4963FAF32
:103FA0002EAFA497789420E08091730890917408C4
:103FB000A4964EAD5FADA4974817590709F021E0CC
:103FC00020931B06A4966EAD7FADA49770937408E2
:103FD000609373080E94A416A2968FAFA297409197
:103FE0000702481709F475C0282F30E04F3F51F4FD
:103FF000220F331F2759374F8FEF9FEFD9018D9332
:104000009C9362C0A42FB0E08DE090E0A89FF001E7
:10401000A99FF00DB89FF00D1124E254FA4F608172
:1040200062956F70289FF001299FF00D389FF00D69
:104030001124E254FA4FE081EF70E61718F0EE23F6
:10404000F9F06E2F81E090E0FC0102C0EE0FFF1F3F
:104050002A95E2F79F0102C0880F991FAA95E2F7FF
:10406000280F80916608822B809366088FE892E083
:1040700070E00E94D5AC709368086093670824C014
:10408000AA0FBB1FA759B74F1D921C92F901EE0F43
:10409000FF1FE759F74F8FEF9FEF9183808381E0F8
:1040A00090E0BC0102C0660F771F2A95E2F79B01E2
:1040B00002C0880F991F4A95E2F7280F209580913A
:1040C0006608822380936608A2967FADA2977093BC
:1040D000070280916608882309F493C0FE01B19617
:1040E00080E4DF011D928A95E9F7A9E62A2EA8E06F
:1040F0003A2E662477244301EE24FF24A596EFAFE1
:10410000A597A696FFAFA697FE01EF59FF4FA89679
:10411000FFAFEEAFA8978091660890E00E2C02C02A
:10412000959587950A94E2F780FF41C0CE010196EC
:104130006E2D0E94591ACE0101966E2D0E94591AB9
:10414000D1018D919C915C01CC24DD24A5968FAD8D
:10415000A597A6969FADA6978C012E010894411CA9
:10416000511CF201219131912F01442737FD4095D7
:10417000542FC601B5010E94AAACD8012D913D91E2
:104180004D915C91260F371F481F591FF80121934D
:104190003193419351938F01A8962EAD3FADA897CF
:1041A000E217F307F1F66A0C7B1C8C1C9D1C08942B
:1041B000E11CF11C42E050E0240E351E55E0E516EE
:1041C000F10409F0A8CF8E010F5D1F4F7E01089406
:1041D000E11CF11CE1E6CE2ED12CCC0EDD1ED80167
:1041E0006D917D918D919D918D01A40193010E940E
:1041F0001EADF701219331937F010C151D0579F751
:1042000007C0CE010196A2966FADA2970E94591ADF
:1042100020E030E0AE014F5F5F4FF894F901E059C4
:10422000F64FDA01A20FB31F8D919C919183808389
:1042300078942E5F3F4F2032310579F780915E0FE1
:10424000882381F480910B0A882329F083E09AE087
:104250000E94666407C08091160A882319F080E0E6
:104260000E94486180911B06882309F49DC48091B7
:104270000306882379F440914209509143098091C3
:10428000200380FF05C020E034E0241B350B15C05F
:104290009A010AC0E82FF0E0843048F0EE0FFF1FCB
:1042A000E859F64F2081318120503C4F06C0EE0F77
:1042B000FF1FEC5BF64F20813181490156E0969457
:1042C00087945A95E1F7609161086F5F6093610888
:1042D00040915F0850916008480D591D5093600847
:1042E00040935F082091640830916508A4968EADD4
:1042F0009FADA497821B930B8436910508F487C069
:104300002C593F4F30936508209364088091210613
:104310009091220601969093220680932106CA016D
:1043200070E00E94D5AC4B019B013695279580919A
:10433000250690912606820F931F90932606809360
:1043400025066115710549F0809123069091240698
:1043500001969093240680932306809161086091D2
:104360005D0870915E08680F711D70935E08609320
:104370005D0840915B0850915C0880915F089091C6
:104380006008480F591F50935C0840935B081092D7
:1043900061081092600810925F08209162083091C5
:1043A0006308A4968EAD9FADA497821B930B885E85
:1043B000934068F128513C4F309363082093620882
:1043C000CA010E94D5AC4B0110925C0810925B08A8
:1043D00010925E0810925D088091A8069091A9063F
:1043E000FC01E05DF94F608301969093A9068093EC
:1043F000A8068837910520F01092A9061092A80609
:104400008091AA0687FD03C08F5F8093AA0655247A
:1044100022E0222E4424439494E0392E552039F48E
:10442000F0903103A0903203B09033030AC021E032
:10443000521609F063C1F0903803A0903903B09090
:104440003A03FF2009F458C1052D10E0F801E95D99
:10445000F94F8081882391F44082F801EE0FFF1F0D
:10446000DF01A85BB74F1D921C92DF01A45BB74F21
:104470001D921C92E05BF74F11821082F7FC02C084
:10448000EF2C02C0E32CEF1833E0E316A9F4F80197
:10449000EE0FFF1FDF01A85BB74F8D919C91119725
:1044A00001968D939C93E45BF74F80819181880DF9
:1044B000991D9183808348C049E14E1508F044C09E
:1044C000F801EE0FFF1FDF01A45BB74FE85BF74F6A
:1044D000208131818D919C91282B392BF801EC5A48
:1044E000F74F808190E0282B392BF801EA5AF74FDB
:1044F000808190E0282B392B232B31F4FF208F2D46
:10450000880F880B842180831F141CF48F2D895100
:1045100002C08F2D875E60E00E94E814282F882358
:1045200079F0F801EA5AF74F8081882349F4F801BD
:10453000EC5AF74F90E08081882309F491E0908352
:10454000F801EA5AF74F2083F801E35DF94F9081B3
:10455000892F8F5F8083843608F4CEC09356908372
:10456000A114B10461F0F801EE0FFF1FE75DF94FF0
:1045700080819181B501681B790B7183608371E043
:10458000E71609F47BC082E0E81629F4811491044F
:1045900009F47EC073C093E0E91609F047C06801D2
:1045A000CC0CDD1C58E4652E58E0752E6C0C7D1C7F
:1045B000D301ED90FC90E114F10409F469C0F60117
:1045C000E45BF74F20813181C901B7010E94D5AC6E
:1045D0004B016E9DC0016F9D900D7E9D900D11242D
:1045E000281B390B31832083F301118210829B0138
:1045F00036952795D601A05BB74F8D919C91119769
:10460000280F391F11963C932E932031310508F461
:104610003FC0F601E75DF94F80819181019691835A
:104620008083205130402D933C9332C0F4E0EF164C
:1046300071F48114910411F5F801EE0FFF1FE75D8D
:10464000F94F8081918118161906C4F021C029E123
:104650002E1570F01F141CF48F2D845002C08F2D66
:104660008C5F60E00E94E814F801EC5AF74F8083F9
:10467000F801EC5AF74F8081882351F0F801EE0FD2
:10468000FF1FE75DF94F80819181019691838083BF
:10469000D801A95DB94F8C91813019F08230F1F4C5
:1046A0000FC0A114B10441F1F801EE0FFF1FE75D47
:1046B000F94F808191818A159B059CF02C9211C045
:1046C000C501CB96F801EE0FFF1FE75DF94F208182
:1046D00031818217930714F433E03C93A114B104A1
:1046E00059F0F801EE0FFF1FE75DF94F80819181CE
:1046F000A81AB90AB182A082539490CE20912906BB
:1047000030912A068091590890915A088217930790
:1047100009F497C080912706813009F078C0809114
:10472000200382FF53C08091320390913303892B81
:1047300009F44CC02E31310549F482E080931E0605
:10474000809113068093100684E687BD8091290628
:1047500090912A06449749F481E080931E06809147
:1047600013068093100684E687BD809129069091F8
:104770002A060A9731F4809113068093100684E686
:1047800087BD8091290690912A06049734F4809180
:1047900013068093100684E687BD8091200383FF73
:1047A00015C08091290690912A068E31910541F01D
:1047B0008431910529F08A30910511F0049734F481
:1047C00082E390E090931D0680931C068091200365
:1047D00081FF2FC020913203309133032115310521
:1047E00049F08091290690912A06A901481B590B8E
:1047F000CA0104C08091290690912A066CE370E0FA
:104800000E94D5AC892BA9F48091130604C0823094
:1048100081F4809114068093100684E687BD809110
:10482000200383FF06C082E390E090931D068093EF
:104830001C068091290690912A0690935A0880932D
:10484000590880916608882309F452C0E9E6F8E027
:10485000A0E0B0E051E0E52EF12CCC24CA94DC2C91
:104860008701A2960FACA29702C0000F111F0A94F5
:10487000E2F760916608862F90E00A2E02C09595B7
:1048800087950A94E2F780FF2EC0408151812091E4
:10489000670830916808A2968FADA2978A1779F4BD
:1048A000CA01809590952817390728F4240F351FE1
:1048B0003183208318C0D182C082601B12C02417AC
:1048C000350728F4421B530B518340830CC01182DF
:1048D0001082C7010A2E02C0880F991F0A94E2F7BE
:1048E000681B6093660811963296A530B10509F6EB
:1048F0000E94F41480916E09882319F081508093EE
:104900006E0980911F03882309F468C080911A06FC
:10491000833308F463C08091470790914807A091C2
:104920004907B0914A070196A11DB11D8093470721
:1049300090934807A0934907B0934A0700E010E01E
:10494000FF248F2D0E94DD0E46E0969587954A95AF
:10495000E1F7080F191FF39494E0F91691F780918D
:104960004B0790914C070817190761F010934C07FB
:1049700000934B071092470710924807109249077F
:1049800010924A07E0904707F090480700914907C6
:1049900010914A0760911F0370E080E090E020E7EB
:1049A00037E140E050E00E94AAAC6E157F05800719
:1049B0009107A0F42FE330E040E050E0E222F32240
:1049C000042315233AE0E316F1040105110531F43F
:1049D000809114068093100684E687BD80912F068F
:1049E000882319F0815080932F060E94BAA80E9454
:1049F000F86E0E94576F0E94BD16182F80911C06FA
:104A000090911D06009729F0019790931D068093C1
:104A10001C06112389F08091220390E024EF31E0FD
:104A2000AC01429FC001439F900D529F900D1124F5
:104A300090931D0680931C0680910B0360E00E94FA
:104A4000E814882339F480911C0690911D06892B67
:104A500009F4A8C0409AE091A109F0E0EE0FFF1F11
:104A6000ED56F64F0190F081E02D812F19950E94AF
:104A7000656D919B02C0A49A01C0A498A4968EADC6
:104A80009FADA4978F7190708230910521F00397AC
:104A900009F08AC070C08091180690911906892B80
:104AA00039F487E00E94DD0E909319068093180672
:104AB00080911806909119068C0123E0000F111FB8
:104AC0002A95E1F7081B190B87E00E94DD0E800F85
:104AD000911F13E0969587951A95E1F77C0100E008
:104AE00010E0909319068093180620910A0333274B
:104AF00027FD3095432F532FC801B7010E94AAAC60
:104B000028E030E040E050E00E941EADB4E0EE0C42
:104B1000FF1C001F111FBA95D1F7E20EF31E041FF0
:104B2000151F209116063091170640E050E0C8018D
:104B3000B7010E941EAD20931A0680915808805E2E
:104B400080935808882381F580910903281760F520
:104B5000233350F1809115068093100684E687BDBB
:104B60008091200383FF20C082E390E090931D0694
:104B700080931C0619C080911D03869586958695A5
:104B8000877090E0BC01660F771F660F771F680F74
:104B9000791F625A7A4F81E196E045E050E00E9429
:104BA00039AD02C0409857CFC959DF4F0FB6F894BE
:104BB000DEBF0FBECDBFCF91DF911F910F91FF9050
:104BC000EF90DF90CF90BF90AF909F908F907F90AD
:104BD0006F905F904F903F902F9008950F931F9389
:104BE000DF93CF93CDB7DEB761970FB6F894DEBFF2
:104BF0000FBECDBF9FEF91B912B887EC84B98FE398
:104C000085B987B980EC88B91AB88CEF8BB91AE0EE
:104C10001DB985EF8EB910BA11BA80E183BB94BB80
:104C200080E3809301018FED8093020110920401D3
:104C300090930501109207011092080180E880937B
:104C40000A018FE780930B010E94276D80E4809317
:104C50007C0085E880937A0088E080937B0087E081
:104C60008093B1008CE98093B300809170008360E1
:104C7000809370008BE085BD81E084BD109381003E
:104C800082E880939100809171008062809371002E
:104C9000EDB7FEB7329785E502C08083319742E1D8
:104CA000EE37F40709F0C8F786EC98E5909394097D
:104CB0008093930988E89AE49093960980939509E4
:104CC00089E10E945B6D78940E9487A80E947462BB
:104CD0001091070384B7813061F00E941E160E9474
:104CE00081150E944F0F0E94CD150E9490150E94C1
:104CF00075150E9483120E94A416682F80E799E020
:104D00000E94591A809108030E945B6D80912203D2
:104D100090E024EF31E0AC01429FC001439F900D31
:104D2000529F900D112490931D0680931C06809134
:104D30000703181719F081E00E944261CE01019625
:104D40000E949E7989818C568E878B8181508D87B8
:104D50008C818C878E818B878F818A8788858987D4
:104D60008D8181508F87CE0109960E94767860935D
:104D7000D6027093D7028093D8029093D9021DBABD
:104D800084E180936A0080E68CBB80E580936900B3
:104D90008CE08CBB8CE68DBB0E944F282DE088E117
:104DA00090E00FB6F894A895809360000FBE209312
:104DB00060000E9402108C01E0912103F0E0EE0FF0
:104DC000FF1FE050FE4F0190F081E02D19950E94E9
:104DD000700F0E94AE1F80910A06833019F4A895C7
:104DE00010920A060E9402102091070630910806D0
:104DF000801B910B8217930708F4C9019093080652
:104E000080930706D6CFE1E7F0E08081817F808341
:104E10006F98779AA1E9B0E01C921092900082E816
:104E20008C9380818062808308956F927F928F92AD
:104E30009F92AF92BF92CF92DF92EF92FF920F9329
:104E40001F93CF93DF939091340397708091080262
:104E5000891709F1909308020E940327109281009C
:104E600080E49CE9909389008093880010928500EB
:104E70001092840080916F00837C80936F008FE29A
:104E800086BB80916F00806180936F0010928000DC
:104E90008AE0809381008091350385FD04C0E12C78
:104EA00034E0F32E03C0E12C25E0F22E40913403D0
:104EB0004595459545954595440F485F9091360336
:104EC00084E69802D0011124A85ABD4F8824992461
:104ED0008A1A9B0A80910206992787FD909528EEF1
:104EE00033E0829FB001839F700D929F700D11245B
:104EF000685370456A1B7B0B00E719E0EDEAF8E0A8
:104F000050E0440F551F440F551F5F01A40EB51EFE
:104F1000CC24DD24CE18DF0888E5682E82E0782EC8
:104F20006A1A7B0A1DC0C601E801288139812C1547
:104F30003D0534F02E153F0514F0C70101C0C9012D
:104F4000805A964F9401281B390B620F731F860DF0
:104F5000971D91838083B383A28334960E5F1F4F86
:104F6000EA15FB0501F7FA01E355F74F71836083FA
:104F7000B383A283158214828DEA98E090930A028B
:104F800080930902DF91CF911F910F91FF90EF90D5
:104F9000DF90CF90BF90AF909F908F907F906F9059
:104FA00008951F920F920FB60F920BB60F92112415
:104FB0001F932F933F934F935F936F937F938F93A1
:104FC0009F93AF93BF93EF93FF9310918400E09171
:104FD0000902F0910A028081918190938900809367
:104FE000880090938B0080938A0080913D098823EC
:104FF00031F080E38093800010923D0906C080E28A
:105000008093800081E080933D093296F0930A02FC
:10501000E0930902329782819381892BD9F48091A0
:10502000350382958F708095817080933D098091C2
:105030006F008D7F80936F000E941527809134034D
:10504000877011F0833031F480916F00826080931B
:105050006F00789480910506811710F4109305066F
:1050600080910606181710F41093060680910A0620
:10507000816080930A06FF91EF91BF91AF919F915C
:105080008F917F916F915F914F913F912F911F91E0
:105090000F900BBE0F900FBE0F901F9018950E949F
:1050A00015278FEF9FEF90938B0080938A0080E30A
:1050B00080938000EFE6F0E0808182608083089535
:1050C0009C01E091A109F0E0EE0FFF1FED56F64FB5
:1050D000318320838FEBF90119958091110680931C
:1050E000100684E687BD08959C019091A109E92FDF
:1050F000F0E0E356F64F8091A2098083E92FEF5F3D
:10510000E093A109E53040F09093A10980E498E193
:1051100060E00E942F15089580911106809310067B
:1051200084E687BDF0E0EE0FFF1FED56F64F3183AA
:1051300020838FEBF90119950895E091A109EE23E1
:10514000E1F0E150E093A1098091110680931006EF
:1051500084E687BD1092A309F0E0DF01A356B64FA5
:105160008C918093A209EE0FFF1FED56F64F019030
:10517000F081E02D8EEB1995089580E498E160E0D0
:105180000E942F1508958F929F92AF92BF92CF9257
:10519000DF92EF92FF920F931F93CF93DF93182F1D
:1051A0007B014A015901C02E84FD04C044E0D42E85
:1051B00005E005C01F70106635E0D32E04E08D2D8C
:1051C0008066181761F08D2D8064181741F090915A
:1051D0006D09191674F4133611F0133451F4E70104
:1051E000219680911106809310068AE587BD802F55
:1051F00019C0802F8066181761F0802F80641817FF
:1052000041F019160CF085C0123619F0123409F06D
:1052100080C0E701219780911106809310068FE6E8
:1052200087BD8D2D90E00E94F36F882351F0CC272D
:10523000DD27CE19DF09802F0E9472708D2D0E940C
:1052400072708114910491F481E0A816B10471F494
:10525000103661F410926D09C0E0D0E0E114F10461
:1052600011F4C1E0D0E080E60E9472708091900954
:1052700090919109C81BD90BAC16BD0654F4812F2F
:105280000E94727080911306809310068AE587BD94
:10529000E501C815D90554F4812F0E9472708091E0
:1052A0001306809310068FE687BDE401CE15DF0557
:1052B00001F1209789F4812F0E946570F7FE06C0E6
:1052C00080911306809310068AE505C0809113062D
:1052D000809310068FE687BD8C2D83700E944261FB
:1052E000EC16FD0614F08FEF01C081E08093920967
:1052F00002C010929209CE01DF91CF911F910F91C0
:10530000FF90EF90DF90CF90BF90AF909F908F90E5
:105310000895E70196CF0F93772767FD709555277E
:1053200047FD5095332727FD309501E00E94C328A3
:105330000F9108950F93772767FD7095552747FDC7
:105340005095332727FD309502E00E94C3280F9126
:105350000895FF920F931F93F82E162F042F80E8C5
:1053600060E0412F50E0202F0E94AA6B1A3010F409
:1053700085E701C08FE660E04FE2202F0E94816840
:105380001A3010F485E701C08FE64F2D50E04F5FD3
:105390005F4F60E0202F0E94AA6B1F910F91FF903A
:1053A0000895BF92CF92DF92EF92FF920F931F93D7
:1053B000CF93DF93D82EB62EEA01622F1092910977
:1053C0001092900980914308F090A409F81A99F07E
:1053D000809143088093A4091092A50980916D09DA
:1053E00018164CF48F2D992787FD9095909391096D
:1053F00080939009FF244EE6D416B1F480916D0994
:105400008F5F80936D098150181614F410926D0906
:1054100080916D0918163CF48091A209882319F433
:105420008FEF80936D09FF248091900990919109ED
:10543000892B89F08091220390E024EF31E0FC0178
:10544000E29FC001E39F900DF29F900D1124909375
:105450001D0680931C06209711F429E762C08091F5
:10546000A209882309F045C080916F09882309F0BB
:1054700040C09B2DFF2071F080916D0987FF0AC00D
:10548000262F21508B2D8F1987FD80E0982F28170C
:105490000CF4922FF4E6DF1651F045E6D41699F499
:1054A000BB2011F09B2D01C0962F91500CC02B2DCD
:1054B00030E0862F90E001972817390714F090E02C
:1054C00002C09B2D9F5F292F332727FD30958B2D01
:1054D00090E02817390711F442E00CC0F901EE0FF3
:1054E000FF1FEC0FFD1F859194910E94602880E0C2
:1054F00092C140E010926F098B2D0E94A929209142
:10550000590F2E508B2D90E0019666EF7FEF0E9491
:10551000E9ACCB01880F991F880F991F860F971F41
:10552000280F83E09AE0622F0E940963011511059C
:1055300011F460E00AC08091A2099E2D8E1508F436
:10554000982FF801E90FF11D649150916D0915161E
:105550000CF459C03091A2098091A3094DC01F14C9
:1055600064F5FA94482F4F5F0115110519F4E0E036
:10557000F0E009C0832FE31608F48E2DF801E80F40
:10558000F11DE491F0E0842F90E0E817F9078CF525
:10559000232F2F5FC21610F040E02CC0011511051B
:1055A00011F440E008C08C2DEC1408F48E2DF801A5
:1055B000E80FF11D44912C2D0BC0F394482F41505E
:1055C0008823B9F4232F2150332321F420E040E035
:1055D000FF2410C00115110511F480E008C0822FCE
:1055E000E21608F48E2DF801E80FF11D8491482F82
:1055F00001C0232F322F842FFF2009F0B0CF30932A
:10560000A2098093A30980E6D816C9F18D15B8F0D8
:10561000E3E4DE1609F4B1C0ED1540F0F1E2DF1667
:10562000E9F142E4D41609F0D6C07EC084E4D8166D
:1056300009F450C0E5E4DE1609F0CDC05FC0F4E621
:10564000DF1609F44CC0FD1548F042E6D41609F403
:1056500070C083E6D81609F0BEC093C0E1E8DE163C
:10566000D1F0FFEBDF1629F045E6D41609F0B3C000
:105670004AC01092A3091092A2098FEF09C06623B5
:1056800009F4A9C010926D0915160CF4A4C081E0AC
:1056900080936D09A0C010926D090BC015161CF403
:1056A00010926D0998C08091A209882311F020976B
:1056B00019F40E949D288FC08091110680931006D6
:1056C00084E687BD1092A3091092A20980E6809318
:1056D000910F85C08091A309861709F47CC0012B26
:1056E00009F479C015160CF476C08091A3098617C9
:1056F00010F48F5F13C01092A3096AC08091A309B0
:10570000882309F468C0012B09F465C015160CF450
:1057100062C08091A309882321F081508093A3095E
:1057200057C06093A30954C08091A2098C1509F455
:1057300052C015160CF44FC08091A2098C1510F0C0
:1057400080E001C08F5F0115110509F46EC0982F2C
:10575000E81608F49E2DF801E90FF11DE491EF3FE2
:1057600009F063C0EBCF8091A2098E1508F4E82EF2
:105770000E0D111DF801049126C08091A209882305
:1057800051F1151644F18091A209882311F48C2D52
:1057900001C081500115110509F450C0982FE81679
:1057A00008F49E2DF801E90FF11DE491EF3F09F097
:1057B00045C0EBCF8091A2098E1508F4E82E0E0D9E
:1057C000111DF8010491901708F4092F0093A30903
:1057D00080E68093910FCD2B11F456E001C057E085
:1057E0004091A209442319F410926C0913C0242F8C
:1057F00030E080916C09281B3109852F90E08217D9
:10580000930714F4451B04C0121613061CF04150F4
:1058100040936C0981E0DF91CF911F910F91FF9030
:10582000EF90DF90CF90BF9008958093A209909160
:10583000A3090115110509F096CF08C08093A209AC
:105840009091A3090115110509F0B4CF00E0BECF76
:10585000CF92EF920F931F93C02E00E010E0EE2442
:105860000E94D1291F910F91EF90CF9008950F932F
:10587000062F60E040E050E020E00E94282C0F91CD
:1058800008950F93942F222311F400E001C002E049
:1058900043E0949FA0011124415F5F4E23E00E94EA
:1058A0008B6D0F910895DC01FB0105C09C918081F7
:1058B0008D93919341504423C9F70895CF92DF927D
:1058C000EF92FF920F931F93CF93DF93F82E80E018
:1058D00060E04CE059E122E00E944C698F2D6BE0C2
:1058E00042ED55E02CE008E00E94282C882309F4C2
:1058F00067C01091A209115080E8F816A9F480E859
:105900000E94727089E180936E09173018F4812F1C
:105910000E9451AA173011F40E94E0A9809112064A
:105920008093100684E687BDEE2428E0F22EC12E77
:10593000DD24C7FCD09440916C094E0D473071F1C5
:10594000C42FD0E0CC16DD0611F020E101C022E129
:10595000AE014F5F5F4F82E16F2D02E00E94A26AAD
:1059600080916E09882319F4CC16DD0609F000E059
:10597000AE01440F551F4C0F5D1F440F551F440FC0
:10598000551F405D5D4E88E16F2D2CE00E948B6DB0
:1059900088E0F80EE39487E0E81669F688E38F154F
:1059A00078F080916E09882321F4173011F422E0F9
:1059B00001C020E086E06F2D49E055E10E944C696E
:1059C000DF91CF911F910F91FF90EF90DF90CF90DB
:1059D00008952F923F924F925F926F927F928F9293
:1059E0009F92AF92BF92CF92DF92EF92FF920F936E
:1059F0001F93DF93CF93CDB7DEB762970FB6F894BE
:105A0000DEBF0FBECDBF8E8780E060E042E059E18F
:105A100022E00E944C698E856AE042ED55E02CE060
:105A20000AEE15E09DE0E92EBDE0CB2E0E94D129C3
:105A3000882309F446C32091A2092D878E858252BE
:105A4000843038F480916D0918161CF484E080933A
:105A50000F1080916D0918161CF032E03C8702C0CF
:105A600081E08C87A3ECBFE0BF83AE83A3EF4A2E17
:105A7000A5E05A2E1A8A198AE4E0F0E0FB87EA874B
:105A800023E030E03987288782E090E09D838C8393
:105A9000A1E0B0E0BB83AA83BD856B2E772467FCB1
:105AA0007094EC85E868EF87FC85F068F88B80914E
:105AB0006C092A818217C0F40A811B81081B110915
:105AC000F3E0000F111FFA95E1F780E0602F41EE3F
:105AD00054E10E94876949895A894F5F5F4F8CE082
