:100000000C94890C0C94A60C0C94A60C0C94A60CC5
:100010000C94A60C0C94A60C0C94A60C0C94A60C98
:100020000C94A60C0C94A60C0C94A60C0C94A60C88
:100030000C94A4270C94A60C0C94A60C0C941D10E4
:100040000C94420F0C94A60C0C94A60C0C94A60CC9
:100050000C94A60C0C94A60C0C946D650C94A60C38
:100060000C94A60C0C94610F0C94A60C0C94A60C8A
:100070000C94A60C0C94A60C0C94A60C0C94A60C38
:100080000C94A60C0C94A60C0C94A60C5350530084
:100090008040000000F8FE060303030306FEF8009C
:1000A0000000000000000000000080C0C0E0F0F888
:1000B000FCFEFEFFFF7F7E3E3C1C0000C0E0E0F047
:1000C000E0000000000000000000000000000080D0
:1000D000E0F0F8F8FCFCFC7C3C381000000000006C
:1000E000000000000000000000000000000000C050
:1000F0004020202020202040408000000000000000
:1001000000000000000000000000000000000000EF
:100110000000000000E1E7666C6C6C6CE6C78100D3
:100120000000000080E0F0F8FCFE7FBF3F1F0F07DB
:100130000783C1E1F0F8FCFCFEFE00000103070F9D
:100140000F1E3C3870F0E0C080000080E0F8FEFF39
:10015000FF3F0F1F0F030000000000000000000021
:1001600000000080402020301010307E7FFFFBBC5C
:10017000C8F0000000F01030608001063CE0000094
:10018000000000000000000000000000000000006F
:100190000000000000FFFF0C0C0C0C0C0E0703000D
:1001A0000000F8FEFFFFFFFFCFC7E1F0F0F8FC7E94
:1001B0007F1FFFFFFFFFFFFF7F0700000000000021
:1001C00000000000000080C1F3FFFEFF7F7FEFC151
:1001D000C0800000000000000000000000000000DF
:1001E0001C7C7FFD800000008080C0C0E0F040F0FB
:1001F000F0C0038E7800818242432010080780807F
:10020000804040202020301030202020E050484402
:100210000020000000FDFD8C8C8C8C8C8C8C8C0064
:1002200000000107070707070F1F1F0F0703010043
:1002300000F8FFFFFFFF3F07000000000000000084
:100240000080C070BC7E171B0F0701000000000378
:10025000071F3FFEF8F0E0C0800000000000000033
:10026000000000000001010100F049AB1E1D353502
:1002700032323E3D3C1E1F3C4CCE8E0E0F0B021602
:100280001510080808040402020303050703090601
:100290000202000000BFBF313131313131B1B10054
:1002A000000000000000000000000000000000F05E
:1002B000FFFFFFFF0F0100000000000000C06018FA
:1002C000060305020000000000000000000000001E
:1002D000000000000101040707000000000000000A
:1002E000000000000000000000000103020201F90C
:1002F0002D2E0EFB0101808080808183061870C046
:1003000000000000000000000000000000000000ED
:100310000000000000FFFF070E3870C080FFFF00E4
:10032000000000000000000000000000C0F8FF7F97
:100330001F370700000000000000707C7F3F38007E
:1003400000000000000000000000000000000000AD
:10035000000000000000000000000000000080F02D
:10036000381808080808080808080808080C0C1FAE
:100370001010191909090908080808181018080F99
:100380000C0E0A0A0A0A0A0C0C08080C0C0C38E0BD
:10039000000000000007070000000001030707003D
:1003A000000000000000000000000403060301003C
:1003B000000000000000000000000000000000003D
:1003C000000000000000000000000000000000002D
:1003D00000000000000000000000000000E0FF4FEF
:1003E000404040404040404040404040404040400D
:1003F00040404040404040404040404040404040FD
:100400004040404040404040404040404040403FED
:10041000F8000000000000000000000000000000E4
:1004200000000000000000000000000000000000CC
:1004300000000000000000000000000000000000BC
:1004400000000000000000000000000000000000AC
:10045000000000000000000000000000E0FF0300BA
:10046000000000000000000000000000000000008C
:10047000000000000000000000000000000000007C
:10048000000000000000000000000000000000006C
:1004900007FC535045000102030401020403010359
:1004A0000204010304020104020301040302020125
:1004B0000304020104030203010402030401020411
:1004C0000103020403010301020403010402030205
:1004D00001040302040103040102030402010401F4
:1004E00002030401030204020103040203010403E2
:1004F00001020403020101020304010302040402D5
:1005000003010403020100000000000001081E6452
:100510000101081E6401010F32960A0A1E32960379
:10052000010200040506075F2D2E2C00564552538C
:100530003A2056322E30302D62736F6E6769730029
:100540002053564E3A206F70656E39782D723133D4
:100550003700444154453A20323031322D30312D6C
:1005600032350054494D453A2032313A30393A3229
:100570003500204D4F443A2048005D477D43FE2D15
:100580009B404D3C483C7E31CF301A2FA92C5F2D2B
:100590000B2C00010001000200030303030303030B
:1005A0000303030303030303032F3332002F313408
:1005B00000060003750000090202000000000006AA
:1005C0000201120800081C0808081C080000082284
:1005D00000490022080000000000227F22000000E5
:1005E00008220049002208000008220049002208D1
:1005F000000000227F2200000000000822004900C5
:1006000022080000081C0808081C0800534EE14C92
:100610006D4B454CAA4B5F4A4100000202020200AA
:10062000500800000000000000006F0000070007F5
:1006300000147F147F14242A7F2A12231308646273
:1006400036495522500005030000001C22410000DD
:1006500041221C0014083E081408083E08080050F7
:10066000300000080808080800606000002010083A
:100670000402003E41413E0000427F400062514979
:10068000460041494936001814127F002745453974
:10069000003E4949320001790503003649493600D8
:1006A0000649291E000036360000005636000008B4
:1006B000142241141414141441221408000201518C
:1006C000090606090906007E0909097E7F4949498C
:1006D000363E414141227F4141221C7F49494941E7
:1006E0007F090909013E4149497A7F0808087F00CE
:1006F000417F41002040413F017F081422417F405B
:100700004040407F020C027F7F0408107F3E414141
:10071000413E7F090909063E4151215E7F091929A1
:1007200046264949493201017F01013F4040403F8F
:100730001F2040201F3F4030403F631408146307D0
:10074000087008076151494543007F414100020498
:100750000810200041417F00040201020440404093
:100760004040000102040020545454787F4844441F
:10077000383844444420384444487F38545454184A
:10078000087E0901020C5252523E7F080404780090
:10079000447D40002040443D007F1028440000413B
:1007A0007F40007C041804787C08040478384444B2
:1007B00044387C14141408081414187C7C080404AD
:1007C000084854545420043F4440203C4040207C7E
:1007D0001C2040201C3C4020403C44281028440C55
:1007E0005050503C4464544C4400083641000000D2
:1007F0007F000000413608000808221C08081C225F
:100800000808A060000000000000000000000000D8
:100810000000FEFE0000000000003E7E00007E3E64
:1008200000006060FEFE6060FEFE606060F0989810
:10083000FEFE989818180C1E1E0C80C0E070381828
:1008400078FC8EC6E6763C180000000066763E1EF8
:10085000000000000000E0F0381C0E060000000060
:10086000060E1C38F0E000006060C080F8F880C020
:10087000606080808080F8F88080808000000000C8
:100880000000000000008080808080808080808068
:10089000000000000000000000000000000080C018
:1008A000E0703818000000000000000000000000A8
:1008B0000000717100000000000000000000000056
:1008C000000006067F7F06067F7F060618181919A6
:1008D0007F7F19190F06181C0E0703013078783036
:1008E0001E3F716367663C3C6666000000000000C6
:1008F000000000000000070F1C38706000000000BE
:100900006070381C0F070000060603011F1F01035B
:100910000606010101011F1F0101010100006676A9
:100920003E1E000000000101010101010101010161
:1009300000003078783000000000181C0E0703011A
:10094000000000000000F8FC0E06060EFCF8000097
:10095000181CFEFE000000000000181C0E0686CECB
:10096000FC7800000606868686CEFC78000080C0F3
:10097000E070381CFEFE00007E7E666666E6C68677
:100980000000F8FC8E86868E1C180000060686C6BF
:10099000E6763E1E000078FCCE8686CEFC7800000F
:1009A00078FCCE8686CEFCF80000307878300000E7
:1009B000000000003078783000000000000080C0A7
:1009C000E070381C0E0660606060606060606060AF
:1009D000060E1C3870E0C0800000181C0E060606CB
:1009E00086CEFC7800001F3F706060703F1F0000E3
:1009F00060607F7F606000000000787C6E676361EC
:100A0000606000006060616161733F1E0000070765
:100A1000060606067F7F00001838706060703F1F72
:100A200000001F3F716161733F1E000000007F7F67
:100A30000000000000001E3F736161733F1E000054
:100A400000006171391D0F0700000C1E1E0C000014
:100A50000000000066763E1E00000000000001035A
:100A6000070E1C3870600606060606060606060611
:100A70006070381C0E07030100000000000066676C
:100A80000301000078FCCE8686CEFC780000E0F002
:100A9000B89C8E8E9CB8F0E0FEFE8686868686CE5A
:100AA000FC78F8FC0E060606060E1C18FEFE06066E
:100AB000060E1C38F0E0FEFE8686868686860606D2
:100AC000FEFE8686868686860606F8FC0E068686E6
:100AD000868E9C98FEFE808080808080FEFE0000D6
:100AE0000606FEFE06060000000000000606FEFEEA
:100AF0000606FEFE80C0E070381C0E06FEFE0000FA
:100B0000000000000000FEFE1C38F0F0381CFEFE65
:100B1000FEFE70E0C0800000FEFEF8FC0E06060639
:100B2000060EFCF8000001010101000000007F7FBB
:100B30000101010101017F7F7F7F6161616161735B
:100B40003F1E1F3F70606060607038187F7F60607C
:100B50006070381C0F077F7F616161616161606057
:100B60007F7F01010101010100001F3F7060616191
:100B700061717F3F7F7F0101010101017F7F0000E3
:100B800060607F7F606000001838706060703F1F99
:100B900000007F7F0103070E1C3870607F7F60605C
:100BA0006060606060607F7F0000010100007F7F07
:100BB0007F7F00000103070E7F7F1F3F7060606032
:100BC00060703F1FFEFE8686868686CEFC78F8FC27
:100BD0000E060606060EFCF8FEFE8686868686CE85
:100BE000FC7878FCCE868686868E1C18060606065D
:100BF000FEFE06060606FEFE000000000000FEFEE9
:100C0000FEFE000000000000FEFEFEFE00000000F0
:100C10000000FEFE1E3E70E0C0C0E0703E1E7EFE84
:100C2000C080000080C0FE7E0606060686C6E67608
:100C30003E1E0000FEFE060606060000183870E0A4
:100C4000C08000000000000006060606FEFE000050
:100C50006070381C0E0E1C38706000000000000030
:100C6000000000007F7F01010101010100001F3F22
:100C70007060666E3C387F677F7F0101070F1D390A
:100C8000706018387161616161733F1E000000007F
:100C90007F7F000000001F3F7060606060703F1F3A
:100CA000070F1C387070381C0F071F3F70703E3ED6
:100CB00070703F1F787C0E070303070E7C780000DE
:100CC00001037F7F03010000787C6E6763616060D1
:100CD000606000007F7F60606060000000000000D6
:100CE0000103070E1C180000606060607F7F000039
:100CF00000000000000000000000606060606060B4
:100D0000606060600000060E1C387060000000002B
:100D10006060606060E0C080FEFE80C0E06060E017
:100D2000C08080C0E06060606060000080C0E06003
:100D300060E0C080FEFE80C0E060606060E0C08077
:100D40008080F8FC8E86060E1C18E0F03818181803
:100D50001818F8F8FEFE80C0E06060E0C080000077
:100D60006060E6E600000000000000006060E6E66B
:100D70000000FEFE000080C0E060000000000606EB
:100D8000FEFE00000000E0E060E0C0C0E0E0C080E7
:100D9000E0E080C0E06060E0C08080C0E060606053
:100DA00060E0C08000000000000000000000183C6F
:100DB0007E66666666667F7F7F7F61616060607069
:100DC0003F1F1F3F70606060607038181F3F706089
:100DD000606061617F7F1F3F7666666666660707B3
:100DE00001017F7F01010000000001036766666664
:100DF00066763F1F7F7F0101000000007F7F0000BB
:100E000060607F7F606000001838706060703F1F16
:100E100000007F7F060F1F397060000000006060D7
:100E20007F7F606000007F7F0000070700007F7FFA
:100E30007F7F0101000000007F7F1F3F70606060C6
:100E400060703F1FE0E06060606060E0C08080C074
:100E5000E0606060C080E0E0E0E080C0E06060E012
:100E6000C08080C0E0606060606000006060FEFE86
:100E7000606000000000E0E0000000000000E0E032
:100E8000E0E0000000000000E0E0E0E00000000022
:100E90000000E0E060E0C080000080C0E060E0E0D2
:100EA000000000000000E0E0606060606060E0E082
:100EB000E060000080C0787C0E06000000000000AA
:100EC000FEFE000000000000060E7C78C0800000DE
:100ED000808080801838F0E0C08080C0E0F0381852
:100EE000808080807F7F06060606060703010103D7
:100EF0000706060607077F7F7F7F010100000000CD
:100F00000101616367666666667E3C1800001F3FEC
:100F10007060607038181F3F7060607038187F7F95
:100F2000070F1C387070381C0F071F3F707038385F
:100F300070703F1F6070391F0F0F1F397060010301
:100F40006766666666763F1F6070787C6E67636171
:100F50006060000001031E3E7060000000000000A1
:100F60007F7F00000000000060703E1E0301000053
:100F700001010101181C0F0703010103070F1C18D1
:100F800001010101630040800804201002014F4666
:100F9000464F4E202D2D2D494E5634434820364382
:100FA00048203843482031304348313243483134B7
:100FB00043483136434851756965744E6F4B6579C6
:100FC0004E6F726D204C6F6E6720784C6F6E67535A
:100FD000494E474F534D5046494C54446F776E4FDE
:100FE000464620557020206F6666202B3D203A3DF6
:100FF00063683163683263683363683445787020AE
:101000002020457846696E6546696E6520204D65ED
:101010006469756D436F6172736552455441313235
:101020003350504D2020505858202044534D3220EA
:1010300050504D3136504F534E45472D2D2D783E53
:1010400030783C307C787C663E30663C307C667C18
:1010500045444954205052534554412E5448525708
:1010600065696768744578706F20205068617365A2
:10107000205377746368205768656E20204375722B
:10108000766520202020202020416464202020201C
:10109000204D756C7469706C795265706C61636514
:1010A000202B3D2A3D3A3D2D2D2D2D202020763E12
:1010B0006F66732020763C6F667320207C767C3EC2
:1010C0006F66737C767C3C6F6673414E44202020B3
:1010D000204F522020202020584F522020202076C0
:1010E000313D3D7632207631213D76322076313EDB
:1010F0007632202076313C7632202076313E3D76A5
:10110000322076313C3D7632202D2D2D2D20202091
:1011100020202020202020547261696E65722020DA
:101120002020202020547261696E6572205255443F
:10113000202020547261696E657220454C45202044
:1011400020547261696E65722054485220202054E8
:101150007261696E65722041494C202020496E738E
:1011600074616E74205472696D20205472696D73BD
:10117000324F6666736574732053696D706C6520B9
:10118000342D434820542D437574202020202020E6
:1011900020562D5461696C202020202020456C654C
:1011A000766F6E5C44656C7461654343504D2020DE
:1011B000202020202048656C6920536574757020BC
:1011C00020536572766F205465737420202D2D2D69
:1011D0002020203132302020203132305820203160
:1011E0003430202020393020202020204D656E759D
:1011F000204578697420446F776E20202055705206
:1012000069676874204C6566745448525255444569
:101210004C4549443049443149443241494C4745A1
:101220004154524E53573153573253573353573417
:1012300053573553573653573753573853573953F6
:10124000574153574253574352554420454C45202C
:101250005448522041494C20503120205032202007
:10126000503320204D41582046554C4C4359433172
:1012700043594332435943334F46464142535448FE
:1012800073544825544874005B4D454E555D2020ED
:1012900020205B455849545D00205B4D454E555D0F
:1012A000205748454E20444F4E4500667265650004
:1012B00044454C455445204D4F44454C00436F70C8
:1012C00079696E67206D6F64656C2E2E2E004D6FF0
:1012D00076696E67206D6F64656C2E2E2E004C6FE4
:1012E0006164696E67206D6F64656C2E2E2E004EF2
:1012F000616D650054696D657200452E4C696D69BC
:10130000747300452E5472696D73005472696D20B8
:10131000496E6300542D547261636500542D5472FC
:10132000696D0042656570204374720050726F747D
:101330006F0050504D206672616D65006D730053F3
:101340007769746368005472696D730046616465FF
:1013500020496E0046616465204F757400286465FD
:101360006661756C742900436865636B20202020DA
:10137000205472696D7300537761736820547970DB
:101380006500436F6C6C65637469766500537761C3
:1013900073682052696E6700454C45204469726548
:1013A0006374696F6E0041494C20446972656374CF
:1013B000696F6E00434F4C20446972656374696FB6
:1013C0006E004D4F4445004E6F2066726565206586
:1013D00078706F21004E6F2066726565206D6978A8
:1013E00065722100494E53455254204D4958200002
:1013F00045444954204D49582000536F7572636528
:1014000000576569676874004F66667365740054B9
:1014100072696D0043757276657300462E5068617F
:101420007365005761726E696E67004F4646004DE6
:10143000756C7470780044656C617920446F776EC8
:101440000044656C617920557000536C6F772020E3
:10145000446F776E00536C6F7720205570004452B4
:101460002F4558504F004D4958455200434F505951
:10147000205452494D205B4D454E555D004356006A
:101480005357004120206368616E6E656C004D61AA
:10149000780043616C69620042617200416C617264
:1014A0006D0055737250726F746F00434C4541521A
:1014B000204D49584553205B4D454E555D004265D2
:1014C0006570657200436F6E74726173740042617F
:1014D0007474657279207761726E696E6700496E07
:1014E000616374697669747920616C61726D00461C
:1014F000696C74657220414443005468726F74745F
:101500006C652072657665727365004D696E7574E1
:10151000652062656570004265657020636F756E59
:1015200074646F776E00466C617368206F6E206222
:10153000656570004C6967687420737769746368C7
:10154000004C69676874206F666620616674657216
:101550000053706C6173682073637265656E00542C
:1015600068726F74746C65205761726E696E670083
:10157000537769746368205761726E696E67004DB6
:10158000656D6F7279205761726E696E6700416C8C
:1015900061726D205761726E696E67004E4F204414
:1015A00041544120416C61726D0052782043686162
:1015B0006E6E656C204F7264004D6F646500536CF5
:1015C000617665006D6F646520202025207372634D
:1015D000004D756C7469706C6965720043616C00D4
:1015E000454550524F4D2076005472696D2D202B89
:1015F00000424700205B4D454E555D20544F20531F
:1016000054415254202000202020534554204D495D
:1016100044504F494E5420202000204D4F56452025
:10162000535449434B532F504F54532000416C7433
:101630003A00527820426174743A0052783A005469
:10164000783A004864673A005370643A0054656D14
:1016500070313A0054656D70323A0052504D3A0084
:101660004675656C3A00566F6C74733A004163635B
:10167000656C0054656C653A00525353493A004E0C
:101680004F204441544100544D3100544D320054D8
:1016900048520054482500544F5400746D72314C28
:1016A0006174206D617820202020757300746D7244
:1016B000314C6174206D696E202020207573007498
:1016C0006D7231204A697474657220202020757310
:1016D00000746D61696E206D6178202020202020CB
:1016E0006D73004672656520537461636B206D698C
:1016F0006E2020202062005B4D454E555D20746FAA
:101700002072657365740050504D00434800544D7D
:1017100052004D4F44454C00465000454550524FF5
:101720004D206C6F77206D656D00414C4552540023
:10173000507265737320616E79206B657920746FC8
:1017400020736B6970005468726F74746C65206EDE
:101750006F742069646C65005265736574207468E9
:10176000726F74746C6500416C61726D73204469B2
:101770007361626C65640053776974636865732094
:101780006E6F74206F666600506C656173652072C1
:1017900065736574207468656D004D45535341470A
:1017A0004500707265737320616E79204B65790016
:1017B00042616420454570726F6D20446174610020
:1017C000454550524F4D20466F726D617474696E7D
:1017D0006700454550524F4D206F766572666C6FBD
:1017E00077004D454E5553204F564552464C4F5766
:1017F00000524144494F20534554555000545241E2
:10180000494E45520056455253494F4E00444941B6
:101810004700414E410043414C4942524154494FD7
:101820004E004D4F44454C53454C00534554555084
:1018300000464C4947485420504841534500464CC7
:1018400049474854205048415345530048454C4966
:101850002053455455500044522F4558504F004C8A
:10186000494D495453004355525645530043555230
:10187000564500435553544F4D2053574954434800
:1018800045530046554E432053574954434845530A
:1018900000534146455459205357495443484553F2
:1018A0000054454D504C415445530053544154004D
:1018B0004445425547009C1432465A5A4632465ACD
:1018C000ECEC003C649CC4003C649C00000064534D
:1018D000696D706C6520342D434800542D43757438
:1018E00000562D5461696C00456C65766F6E5C44E2
:1018F000656C746100654343504D0048656C692018
:10190000536574757000536572766F2054657374F7
:10191000000011241FBECFEFD0E1DEBFCDBF11E02C
:10192000A0E0B1E0E0EEF6ED02C005900D92A83225
:10193000B107D9F71DE0A8E2B1E001C01D92A834BB
:10194000B107E1F70E9421260C946E6B0C94000005
:10195000E82F8823D9F087FF07C0863E1CF080E679
:101960008E1B0895E19504C08B3114F4805C0895BA
:10197000E5321CF48E2F8B5E0895E9323CF4FF278C
:10198000E7FDF095EE5FFA4F8491089580E20895A7
:101990009DE0899F9001112420503C4FC90108957A
:1019A000282F30E0220F331F220F331F27503D4FC7
:1019B000C901089599E0899F9001112427573E4F4E
:1019C000C901089595E0899F9001112427553D4F45
:1019D000C90108959C0140E0683008F041E070E0E2
:1019E000442371F0CB010897FC0163E0EE0FFF1F69
:1019F0006A95E1F7E80FF91FDF01A75ABC4F0AC04B
:101A0000FB01EE0FFF1FEE0FFF1FE60FF71FDF01B9
:101A1000AF5CBC4FFD01808120503C4F37FD0EC0B4
:101A200068E02030360784F0442319F484E090E025
:101A300002C088E090E0A80FB91F8C91992787FD1C
:101A40009095582F442733C0442331F0432FB901D8
:101A50007070660F771F04C0432F4695B9017170EF
:101A6000842F90E0FD01E80FF91F8181992787FD00
:101A700090959B0135952795829FA001839F500DDE
:101A8000929F500D11242081332727FD309580E04F
:101A900092E0861B970B95958795BC01269FC00108
:101AA000279F900D369F900D1124480F591FCA0192
:101AB00069E170E00E94E36ACB0108959C01633004
:101AC00031F1643028F4613051F0623090F43CC060
:101AD000653039F1653008F1663061F525C049306F
:101AE00029F497FD24C0205032400AC097FF2CC033
:101AF00026C0493041F41816190624F120503E4FF3
:101B0000220F331F21C018161906CCF01DC097FFF5
:101B10001BC0309521953F4F17C01816190694F039
:101B20000EC097FF0CC003C0181619065CF020E029
:101B30003CEF0AC067500E94EA0C9C0105C020E0FF
:101B400030E002C020E034E0C90108956F927F9236
:101B50008F929F92AF92BF92CF92DF92EF92FF92BD
:101B60000F931F933B017C0100E010E0882499242F
:101B700064E670E080E090E06619770988099909C9
:101B8000A80197010E94A46A5B016C0182E390E0C6
:101B9000A0E0B0E0A80EB91ECA1EDB1EC801B70146
:101BA0000E94A46A0E94A46ABC0188279927A40104
:101BB00093010E94A46AE4E09695879577956795CE
:101BC000EA95D1F7A60EB71EC81ED91EC601B501EB
:101BD00024E630E040E050E00E94F66AC9011F911F
:101BE0000F91FF90EF90DF90CF90BF90AF909F90BC
:101BF0008F907F906F900895FF920F931F939C0199
:101C0000AB016115710531F1FF2497FF05C0FF2479
:101C1000F394309521953F4F57FF10C000E014E03A
:101C200066277727641B750BC801821B930B0E94E4
:101C3000A60D9801281B390BC90104C0C901BA01BE
:101C40000E94A60DFF2011F49C0104C02227332717
:101C5000281B390BC9011F910F91FF9008951F9305
:101C6000162F0E94C80CFC01A12FB0E0248133275D
:101C700027FD3095CD01880F991F02C03595279516
:101C80008A95E2F723703070AE0FBF1F8C919927B1
:101C900087FD9095880F991F880F991F280F391F6E
:101CA000C9011F910895FF920F931F93F82E162FCD
:101CB00000E0112391F0812F6F2D0E942F0E21E063
:101CC000853F920754F0282F255F211708F02F5FDA
:101CD0000F5F122F053069F710E0812F1F910F91D0
:101CE000FF900895EFE1F5E0E80FF11DE491F0E0D9
:101CF000EE0FFF1FE554F94F20813181C90108958E
:101D0000ABEBB6E0EBECF6E060E0862F806487B9E1
:101D1000369A208931898D919C9111979695879556
:101D2000820F931F8E7F11969C938E9340815181D9
:101D3000240F351F36952795318B208B349BFECF92
:101D4000349A84B195B1840F951F969587958193A8
:101D500091936F5F12966830C1F60895EBEBF6E051
:101D600050E0852F806487B920E030E040E0369A6B
:101D7000349BFECF349A84B195B1280F391F4F5F41
:101D80004430A9F736952795219331935F5F5830FA
:101D900041F70895EBEBF6E020E0822F806487B9ED
:101DA000369A349BFECF349A84B195B1880F991F2F
:101DB000819391932F5F283081F708958EE587B93D
:101DC00085E28A95F1F7369A349BFECF349A84B136
:101DD00095B190936604809365040895A82FB0E0B0
:101DE000FD01EA58FB4F1082882329F4809180017D
:101DF0009091810104C08091870190918801FD013B
:101E0000EE0FFF1FE858FB4F91838083A458BB4F10
:101E10001C920895AF92BF92CF92DF92EF92FF9201
:101E20000F931F93CF93DF935B016C01C0E0D0E869
:101E300000E010E8EE24FF249E0140E050E0CA01DB
:101E4000B9010E94A46AA616B706C806D90610F4FE
:101E5000C027D127169507950894E11CF11C80E155
:101E6000E816F10461F4CE01DF91CF911F910F913B
:101E7000FF90EF90DF90CF90BF90AF900895C02B70
:101E8000D12BDACF1F920F920FB60F9211248F939E
:101E9000809189068F5F809389068F910F900FBE86
:101EA0000F901F9018954091890622B7809189065E
:101EB0004817C9F7942F80E030E0282B392BC9014F
:101EC00008951F920F920FB60F9211242F933F93F4
:101ED0004F935F936F937F938F939F93AF93BF9332
:101EE000CF93DF93EF93FF93C0918000D091810057
:101EF00080917D008F7D80937D00789480918A060B
:101F000090918B069E01281B390B36952795C901A8
:101F1000815A9F408F5D9E4220F481E08093880625
:101F20002EC040918806842F8150883040F5C90129
:101F3000815293408757954000F5E42FF0E0EE0F73
:101F4000FF1FEA58F94F2C5D3540809172019927A7
:101F500087FD90950A96BC01269FC001279F900D92
:101F6000369F900D11246AE070E00E94E36A71834D
:101F700060834F5F4093880602C010928806D0931A
:101F80008B06C0938A06F89480917D0080628093CE
:101F90007D00FF91EF91DF91CF91BF91AF919F9124
:101FA0008F917F916F915F914F913F912F910F9002
:101FB0000FBE0F901F901895E9E4FDE001C0319627
:101FC00080818535E1F39F0128543D40C901089582
:101FD000EF92FF920F931F93062F7A010E94C80C75
:101FE000DC0110E0FC01E00FF11FC701959587951A
:101FF000959587958083000F111F83E090E0002E58
:1020000002C0880F991F0A94E2F7809514962C91CC
:102010001497822393E0E922FF2402C0EE0CFF1CF8
:102020000A95E2F78E0D14968C9382E00E94165862
:102030001F910F91FF90EF90089578941F920F9247
:102040000FB60F9211242F933F934F935F936F938B
:102050007F938F939F93AF93BF93EF93FF93F894E6
:1020600087B78D7F87BF81B78E5F81BF789480915E
:102070005704882359F08091000190918D06890FB3
:1020800080938D0687FF02C01B9A01C01B98809128
:1020900007018150809307018F5F09F054C08DE4E0
:1020A0008093070190915F04992369F080916E04F9
:1020B000882329F490936E0481E080936F049150FB
:1020C00090935F0421C030916D043323B9F02091C7
:1020D0006E04222399F090E080916F04882309F424
:1020E00091E090936F04992309F428E020935F0412
:1020F000992351F0315030936D0406C010926E0454
:1021000010926F041092580480916F04882391F00C
:1021100080915804882311F490E004C090918C06BB
:1021200081E0982790938C06992321F481E0809395
:10213000570402C0109257040E94F166809159041E
:10214000826080935904F89487B7826087BF78943F
:10215000FF91EF91BF91AF919F918F917F916F917F
:102160005F914F913F912F910F900FBE0F901F9055
:1021700018950F931F938C010E94626582E260E0C4
:102180004AE957E124E00E94186080E068E1A80174
:102190000E9453600E94D663809156010E94CC63D6
:1021A0001F910F91089586B380958E77E1F70E9475
:1021B000BA650895EF92FF920F931F938C017B01F4
:1021C0000E94626582E260E04AE257E124E00E94F8
:1021D000186080E060E2A8010E94536080E068E23D
:1021E000A7010E94536080E060E340E357E10E9452
:1021F00053600E94D663809156010E94CC630E9476
:10220000D3101F910F91FF90EF900895EF92FF92DE
:102210000F931F93CF93DF93E82E882349F4809187
:102220005B0490915C04492F441F4427441F90C1D4
:10223000992787FD909597FF03C0909581959F4FB3
:10224000863109F480C18A3030F490E00D960E9406
:102250005966482F79C18A50282F30E08901000F34
:10226000111F020F131F0F551C4FD80112968C918E
:10227000882311F440E06CC1F8018281853010F4AC
:1022800020E007C0D80112968C91883008F468C10C
:1022900022E0D801EC91E150E73008F449C052C087
:1022A00080915D0490915E0440E08C239D23892BF6
:1022B00089F127C080915B0490915C048C2B9D2B4D
:1022C00090935C0480935B04F80180810E94061166
:1022D000F82ED80111968C910E940611982FF801C2
:1022E0008281853019F0863049F403C0FF2089F0DF
:1022F00002C0FF2031F4992321F40BC040E0F9160D
:1023000049F041E080915D0490915E048C2B9D2BFF
:102310000AC040E020915D0430915E04CE018095BA
:1023200090958223932390935E0480935D040CC167
:1023300080915A048823D1F5F0E0EE0FFF1FEC578F
:10234000F84F31C0E93018F460E074E031C0E0319A
:1023500078F4F0E0EE0FFF1FDF01AE5BBE4FE05AF6
:10236000F94F608171818D919C91681B790B09C037
:10237000E43150F4F0E0EE0FFF1FE05AF94F6081B6
:102380007181660F771F14C0E43230F4F0E0EE0F75
:10239000FF1FE659F84F07C0E63240F4F0E0EE0FB9
:1023A000FF1FE05DFB4F6081718102C060E070E063
:1023B000222309F051C0D8018C91853244F0119646
:1023C0008C91992787FD90958E599F4F18C0F801E1
:1023D000918189E2980290011124359527953595D0
:1023E000279597FD915C96FB990F990B90F9892F92
:1023F000992787FD9095A901481B590BCA01D8015F
:1024000012962C91223051F0233071F02130C1F41A
:1024100040E0861797070CF097C095C040E068171A
:1024200079070CF091C08FC040E0FB0177FF03C03B
:10243000F095E195FF4F8E179F070CF085C083C084
:1024400040E0FB0177FF03C0F095E195FF4FE817EF
:10245000F9070CF079C077C0D8011196EC91E150E2
:10246000E73050F480915A048823E9F5F0E0EE0F4C
:10247000FF1FEC57F84F33C0E93018F4E0E0F4E008
:1024800034C0E03180F4F0E0EE0FFF1FDF01AE5BFF
:10249000BE4FE05AF94F0190F081E02D8D919C9153
:1024A000E81BF90B0AC0E43158F4F0E0EE0FFF1F0F
:1024B000E05AF94F0190F081E02DEE0FFF1F15C09B
:1024C000E43230F4F0E0EE0FFF1FE659F84F07C09A
:1024D000E63248F4F0E0EE0FFF1FE05DFB4F0190A5
:1024E000F081E02D02C0E0E0F0E0D80112968C917E
:1024F000893089F08A3018F4883009F507C08A30AD
:1025000079F08B3091F08C30D1F414C040E06E172C
:102510007F07D1F418C040E06E177F07A1F414C004
:1025200040E0E617F70784F40EC040E06E177F071F
:102530005CF409C040E06E177F0734F004C040E04F
:10254000E617F7070CF041E01E1414F081E048276D
:10255000842FDF91CF911F910F91FF90EF900895FD
:10256000C1E0D0E002C0CC0FDD1F2A95E2F78091D8
:102570005B0490915C048C239D23892B09F090CE01
:1025800099CE362F37953327379520E030935C046A
:1025900020935B040E9406110895EF92FF920F931F
:1025A0001F93CF93DF93C5EED3E051E0E52EF12CDE
:1025B0002881222309F189818823F1F090E0019795
:1025C000870102C0000F111F8A95E2F7822F60E099
:1025D0000E94C1122091760630917706882319F067
:1025E000202B312B05C0C8018095909528233923D5
:1025F0003093770620937606229683E0CD3FD80766
:10260000B9F6DF91CF911F910F91FF90EF90089550
:10261000FF920F931F938C01F62E0E94626582E257
:1026200060E04AE257E124E00E94186080E060E246
:10263000A8010E94536089E168E342EA57E10E94E1
:1026400053600E94D663FF2011F089E102C080919F
:1026500056010E94CC638091640480935F0482E3FE
:10266000809300010E94D31086B380958E7791F4F9
:102670008091590160E00E94C112882331F4809159
:102680007001882311F4FF2019F0C79AA895ECCFA8
:10269000C798FCCF1F910F91FF90089580916B0117
:1026A00087FD07C0887329F487E697E160E00E9400
:1026B0000813089580916B0186FD0AC00E94245A78
:1026C000883C910528F48BE197E160E00E940813B3
:1026D00008950F931F9380916B01867099F187E79E
:1026E00097E168E877E10E94DA1000E080916B01E1
:1026F0008670823009F401E01EE00AC0113139F021
:10270000812F8D5060E00E94C112801729F41F5F55
:102710001631A0F31631B1F086B380958E7791F41F
:1027200006C080917001882351F0C79A09C080913A
:10273000590160E00E94C1128823B9F7F2CFC7980F
:102740001EE0DECF1F910F9108950F931F93CF933B
:10275000DF9380916B0180FD43C080916C0190E01C
:102760008170907002E010E0081B190BF801EE0F69
:10277000FF1FE85DFE4FC181D281609687859089F9
:10278000C81BD90B0E94CA0E102F802F0E94720EF8
:10279000C817D9072CF586E497E168E577E10E9430
:1027A000DA100E94CA0E812F0E94720EC817D90734
:1027B00024F486B380958E7749F00E94D31010C020
:1027C00080917001882351F0C79AEBCF8091590115
:1027D00060E00E94C1128823B9F7F2CFC798E1CF19
:1027E000DF91CF911F910F910895AF92BF92CF9239
:1027F000DF92EF92FF920F93CF93DF9380916E0160
:1028000084FD6EC08091590160E00E94C11288234E
:1028100029F480917001882309F456C0C79A0E9458
:10282000626580E060E040E950E020E000E00E9466
:10283000F05E0E94D663809156010E94CC630E9494
:10284000D3100E94800E0F5F0032D9F7AA24BB2458
:1028500000E0802F0E94720EC92FD0E0AC0EBD1E8A
:102860000F5F0430B1F7F894C090440DD090450D3F
:10287000789480E991E0C80ED91E1CC00E94800E99
:10288000C0E0D0E000E0802F0E94720EE92EFF240D
:10289000CE0DDF1D0F5F0430B1F786B380958E77C4
:1028A000F9F4CA15DB05E1F411C0809170018823A9
:1028B000A9F0C79AF8948091440D9091450D7894B1
:1028C000C816D906D9F60CC0C798A9CF809159016E
:1028D00060E00E94C112882361F7E7CFC798EACF72
:1028E000DF91CF910F91FF90EF90DF90CF90BF904D
:1028F000AF9008951F93CF93DF93C2E1D4E011E02E
:102900008881882351F060E00E94C112882329F059
:10291000812FDF91CF911F9108951F5F2D96153064
:1029200079F710E0F5CFDF92EF92FF920F931F93AC
:10293000CF93DF93E82E082F0F700650109183017C
:102940001770083008F0C7C0E02FE595FF27E7FDB6
:10295000F09580916C0190E0880F991F880F991F66
:10296000E80FF91FEA50FB4FF490FA940E947A1492
:10297000682F8F2D0E94530ED82E6F2D0E942F0E80
:10298000BC01112389F477FF04C088279927861B8F
:10299000970B959587959595879501968132910529
:1029A00084F080E290E00DC0212F332727FD309581
:1029B0002150304081E090E002C0880F991F2A9595
:1029C000E2F7982F32E0F31639F48091820183FF09
:1029D00003C094E021E001C020E0492F552747FDC6
:1029E000509500FF07C0EA01C60FD71F10E083E82B
:1029F0009FEF04C0EB01C41BD50BF8CF009719F46F
:102A0000222329F015C03FEF8338930749F0C817F8
:102A1000D9071CF0681779074CF08D37910541F004
:102A20008C179D072CF08617970714F4EC0111E022
:102A300083589F4F8A3F910509F76C177D0724F44F
:102A4000CE37D10544F40CC0C617D7074CF48FEF2E
:102A5000C338D8072CF48091830186FFEB0111E085
:102A60003EEFCC30D3071CF4CCE0DEEF06C081E0B3
:102A7000C53FD80714F0C4EFD1E08D2D6F2DAE0106
:102A80000E94E80FCE37D1051CF0CDE7D0E006C09C
:102A90003FEFC338D30714F4C3E8DFEFCE0164E09F
:102AA00070E00E94E36AEB01EC96112341F08E2D59
:102AB0000E94E066109258048091620407C0E6FE0E
:102AC00003C081E0809358048091600480935F0488
:102AD000C0930001EE248E2DDF91CF911F910F91B5
:102AE000FF90EF90DF900895AF92BF92CF92DF9268
:102AF000EF92FF920F931F93CF93DF935C01ABEEA6
:102B0000B6E0FC0198E001900D929150E1F76F3F23
:102B100019F40E947A14682F1CEFC12E12E0D12EF6
:102B20000FEFC0E0D0E0E62EFF240894E11CF11C7A
:102B3000FE01EE0FFF1FEE0FFF1FE750FD4F20813C
:102B4000822F837009F4A2C026952695237030E069
:102B5000802F992787FD90952817390709F48DC094
:102B60008181807E99F0828180FD10C0FE01EE0F90
:102B7000FF1FEE0FFF1FE650FD4F80818295869567
:102B8000877090E0E816F90609F077C0FE01EE0FB5
:102B9000FF1FEE0FFF1FE650FD4F8081880F880F4B
:102BA000880F85958595859561E00E94C1128823DF
:102BB00009F463C0FE01EE0FFF1FEE0FFF1FE75089
:102BC000FD4F8081182F169516951370E12FF0E0B8
:102BD000EE0FFF1FE551F94F0190F081E02D83705A
:102BE000F7FF03C080FD03C048C081FF46C0012F2E
:102BF000D6016C91772767FD7095CF010E94FC0D7F
:102C00009C01FE01EE0FFF1FEE0FFF1FE750FD4F6F
:102C1000E0818E2F807F69F06E2F62956F70862F16
:102C200090E00B970CF06C5FC90140E00E945E0DD4
:102C30009C01B901882777FD8095982FFE01EE0F42
:102C4000FF1FEE0FFF1FE550FD4F2081269530E05E
:102C500040E050E00E94A46A24E630E040E050E00A
:102C60000E94186BE12FFF27E7FDF095EE0FFF1F85
:102C7000EA0DFB1DC90120839183219684E090E039
:102C8000C80ED91ECE30D10509F052CFDF91CF91B9
:102C90001F910F91FF90EF90DF90CF90BF90AF907A
:102CA00008952F923F924F925F926F927F928F92F0
:102CB0009F92AF92BF92CF92DF92EF92FF920F93CB
:102CC0001F93CF93DF93282E9090FF03992009F450
:102CD00067C080916C0190E0FC01E170F07031966A
:102CE000EE0FFF1FEC57F84F0190F081E02D9C0193
:102CF0002270307081FD03C0A3E0B0E002C0A0E00C
:102D0000B0E0AA0FBB1FAC57B84FCD91DC91232B7D
:102D100019F4A3E0B0E002C0A0E0B0E07F0100271A
:102D2000F7FC0095102FAA0FBB1FAC57B84F6D9141
:102D30007C91882777FD8095982F9E01442737FD49
:102D40004095542F0E94A46A5B016C01C801B70131
:102D5000A80197010E94A46AA60EB71EC81ED91E1C
:102D6000692D70E080E090E02AE0660F771F881FF1
:102D7000991F2A95D1F724E630E040E050E00E9408
:102D8000186BB901CA010E94A46A6A157B058C05FB
:102D90009D0530F4C601B5010E940A0F4C0102C026
:102DA00088249924B40180E090E024E630E040E0FB
:102DB00050E00E94A46A2B013C0109E2E02E01E0F0
:102DC000F02E3324AA24BB248A2D843010F01A2D2F
:102DD0000DC0E0916C01F0E0EE0FFF1FEE0FFF1F42
:102DE000EA0DFB1DEA50FB4F149111500E94720E28
:102DF0009C01D7018D919C911197281B390B1216BC
:102E000013062CF45C96ED91FC915D9705C0D701FB
:102E10001E96ED91FC911F97E436F10514F4E4E65B
:102E2000F0E0B901882777FD8095982FBAE0660F0A
:102E3000771F881F991FBA95D1F79F01442737FD47
:102E40004095542F0E94186BE901BCEF21303B07DD
:102E50001CF4C0E0DCEF06C0E4E020303E0714F0D4
:102E6000C0E0D4E080916E0180FF05C0123019F4FB
:102E7000D095C195DF4FC12EDD24F601EE0FFF1F67
:102E8000EC57F84FD183C083CE010F964F9748F48B
:102E900081E090E0012E02C0880F991F0A94E2F7AA
:102EA000382A143008F07BC080915A04882309F036
:102EB00057C01E5F812F90E01250019721E030E053
:102EC00002C0220F331F8A95E2F7C9018160209169
:102ED00076063091770682239323892B09F440C02C
:102EE000F601EE0FFF1FEE59FE4F0081802F807C10
:102EF000B9F1E02FEF73F0E0EE0FFF1FDF01A65AEC
:102F0000BE4FE858F94F608171812D913C91621B51
:102F1000730B882777FD8095982FF601EE0FFF1F22
:102F2000E85DFE4F23AD332727FD3095432F532F08
:102F30000E94A46A22E330E040E050E00E94186B57
:102F40000295069506950370E02FF0E0E130F1055B
:102F500019F0329729F403C0C20FD31F01C0E90151
:102F600081149104E1F0113011F01330C1F460913B
:102F7000FF0370E080E090E03AE0660F771F881F63
:102F8000991F3A95D1F79E01442737FD4095542F5C
:102F90000E94A46AA30192010E94186BE901CC0C63
:102FA000DD1C8AEF94E0C80ED91ED601CD93DC93C8
:102FB0000894A11CB11CE2E0F0E0EE0EFF1EF7E069
:102FC000AF16B10409F000CF622D0E947415EE24F3
:102FD00000E010E0A12C94E0B92EF801E650FB4F80
:102FE000C080D1808E2D622D0E94530E6E2D0E94C6
:102FF0002F0EEC0122E0E21671F58091820183FF31
:103000002AC080916E0180FF03C0D095C195DF4F2B
:10301000BE01882777FD8095982F63587F4F8F4F8B
:103020009F4F95012C193D09442737FD4095542F9A
:103030000E94A46A20E038E040E050E00E94186B53
:10304000B901CA01603038E0730730E0830730E02F
:10305000930749F406C080917E04882311F0C0E0F4
:10306000D0E09E0101C09B01220F331FF801EA5BF3
:10307000FA4F31832083E3940E5F1F4F84E0E816FC
:1030800009F0ABCF832DDF91CF911F910F91FF906E
:10309000EF90DF90CF90BF90AF909F908F907F90F8
:1030A0006F905F904F903F902F9008958F929F92D6
:1030B000AF92BF92CF92DF92EF92FF920F931F9346
:1030C000CF93DF930E947A14C82E7AEFE72E74E034
:1030D000F72E06E415E0C0E0D0E062E0862E912CE9
:1030E000AA24A394BC2E80916C0190E08170907012
:1030F0009401281B390B2C173D0751F18C2F6C2D97
:103100000E94530ED82EA0925A048C2D0E94511664
:1031100010925A04F80180819181F7012081318158
:10312000820F931F62E070E00E94E36AAB01FEEF42
:103130006C307F071CF44CE05EEF06C021E0653F79
:10314000720714F044EF51E08D2D6B2D0E94E80FB3
:10315000219682E090E0E80EF91E0E5F1F4FC4300A
:10316000D10509F0BFCF82E00E941658809161041A
:1031700080935F0482E380930001DF91CF911F91E0
:103180000F91FF90EF90DF90CF90BF90AF909F9006
:103190008F9008952F923F924F925F926F927F92FD
:1031A0008F929F92AF92BF92CF92DF92EF92FF9257
:1031B0000F931F93DF93CF93CDB7DEB727970FB64B
:1031C000F894DEBF0FBECDBF9D838C83362E862F35
:1031D0000E945116409185014823242F30E08091B0
:1031E000940590E08227932782239323892B39F03B
:1031F0008091610480935F0482E380930001409397
:10320000940580E094E090930905809308059093DD
:103210000B0580930A059090FF03992009F4C1C023
:1032200080916C0190E0FC01E170F0703196EE0F3E
:10323000FF1FE650FB4F0190F081E02D9C012270B2
:10324000307081FD03C0A3E0B0E002C0A0E0B0E0B8
:10325000AA0FBB1FA650BB4FCD90DC90232B19F4B7
:10326000A3E0B0E002C0A0E0B0E07F010027F7FCDF
:103270000095102FAA0FBB1FA650BB4F6D917C91DC
:10328000882777FD8095982F9601442737FD409534
:10329000542F0E94A46A5B016C01C801B701A80108
:1032A00097010E94A46AA60EB71EC81ED91E692DDA
:1032B00070E080E090E0AAE0660F771F881F991FFA
:1032C000AA95D1F724E630E040E050E00E94186B68
:1032D000B901CA010E94A46A6A157B058C059D0587
:1032E00008F05FC0C601B5010E940A0FE0906C01B2
:1032F000FF248701017010700F5F1F4F2091FF03A3
:10330000A22EBB24CC24DD24FAE0AA0CBB1CCC1CCE
:10331000DD1CFA95D1F7A0E0B0E0BC01CD0124E6B8
:1033200030E040E050E00E94A46A3B014C01000FF5
:10333000111F06501B4FD8012D913C91442737FD9A
:103340004095542FC601B5010E94A46AA4019301BF
:103350000E94186BF80131832083E1FC05C0E3E093
:10336000F0E003E010E004C0E0E0F0E000E010E096
:10337000000F111F06501B4FEE0FFF1FE650FB4FB3
:1033800020813181442737FD4095542FC601B50176
:103390000E94A46AA40193010E94186BD8012D9386
:1033A0003C934091FD03842F887F09F4EDC0209168
:1033B0006C0130E0F901E170F0703196EE0FFF1F03
:1033C000DF01A650BB4FEA5BFA4FE080F1808D91A0
:1033D0009C91E80EF91EC9018270907021FD03C016
:1033E000E3E0F0E002C0E0E0F0E0EE0FFF1FE650A7
:1033F000FB4F20813181892B19F4E3E0F0E002C01A
:10340000E0E0F0E0EE0FFF1FEA5BFA4FC080D180F2
:10341000C20ED31EE091FE03EE2319F400E010E08B
:1034200007C0F0E0EE0FFF1FE850FB4F0081118155
:1034300040FF04C0F094E194F108F39441FF04C00C
:10344000D094C194D108D39442FF03C01095019544
:103450001F4F8091FD0386958695869590E082307A
:10346000910589F18330910524F4019709F08CC00E
:1034700008C08330910509F45BC0049709F084C04B
:103480006FC0C60160E072E00E94E36AFB01C60102
:1034900068E070E00E94E36A9B01C60160E870E0AA
:1034A0000E94E36AA601421B530B9A01261B370BAD
:1034B0002E1B3F0BC8018E199F0990930D05809319
:1034C0000C05C70121C0C70160E072E00E94E36AF9
:1034D000FB01C70168E070E00E94E36A9B01C7013D
:1034E00060E870E00E94E36AC701821B930B9C01B5
:1034F000261B370B2E1B3F0BC8018C199D0990937F
:103500000D0580930C05C60162E070E00E94E36A3D
:10351000600F711FCB01820F931F90930F05809353
:103520000E05621B730B70931105609310052CC080
:10353000C8018E199F0990930D0580930C05C80151
:103540008E0D9F1D9C012C0D3D1D30930F0520936A
:103550000E058C199D09909311058093100514C0D8
:10356000C8018E199F0990930D0580930C05C80121
:103570008C0D9D1D90930F0580930E050C191D0950
:10358000109311050093100580915A04882379F156
:1035900080916C0190E08170907022E030E0281BF7
:1035A000390B1092FB041092FA042130310521F0FE
:1035B0001092FD041092FC042230310521F010928B
:1035C000FF041092FE041092010510920005E2E142
:1035D000F5E01192119295E0E232F907D1F7AEE4ED
:1035E000B5E0BA83A98322E235E0FD0146C062E17D
:1035F00075E040E050E0FA01E858F94FDA01A85DC3
:10360000BE4F80819181D2962D913C91D397821BA0
:10361000930B880F991FFB0181939193BF014E5F1C
:103620005F4F4830510539F78091800690918106AF
:10363000880F991F90931B0580931A05809182062D
:1036400090918306880F991F90931D0580931C0508
:103650008091840690918506880F991F90931F058D
:1036600080931E058091860690918706880F991F8A
:103670009093210580932005B2CF80819181D9015B
:103680008D939D939D013496B5E0E639FB07A9F72C
:1036900080E4EEE4F5E0DF011D928A95E9F71092EF
:1036A0007506E5E54E2EE6E05E2E75ED872E75E09B
:1036B000972E65E9662E65E0762E1B82232C332437
:1036C0000894211C311C8B810E94DA0C6C01FC01D6
:1036D00080818F7159F459EA652E52E0752E45ECC0
:1036E000242E43E0342E44245524A4C290E0419774
:1036F00094F7D60117969C91892F807FC1F0892F6E
:103700008595859585958595282F332727FD3095B7
:1037100018162CF42216330609F07AC208C088273E
:103720009927821B930B2816390609F471C2F601FA
:10373000838161E00E94C112D2019C918823C1F46F
:10374000492F1C92F6019181892F8850823008F010
:103750005FC287818E70843009F45AC2993019F0A3
:103760001F821E8240C020E03CEF3F832E833BC07F
:1037700040E0992309F441E081E0D2018C93F60105
:1037800081818150A82FB0E0FD01EE0FFF1FE650B0
:10379000FB4F208131813F832E83843168F03B8150
:1037A000831750F4AA0FBB1FAA0FBB1FA25BBA4F0F
:1037B0008D919C919F838E83D6019C91892F807ED1
:1037C00091F0929596959770892F90E00197E1E09E
:1037D000F0E002C0EE0FFF1F8A95E2F72091750618
:1037E0002E2B20937506D60118968C918823C9F04C
:1037F000B9E28B02900111243595279535952795CF
:1038000087FD815C86FB880F880B80F9992787FDEF
:103810009095281B390BEE81FF81E20FF31FFF8388
:10382000EE83D60116968C911697882329F4159667
:103830008C91882309F46CC1F401608171818281CB
:103840009381442391F420E031E040E050E00E9475
:10385000186B50954095309521953F4F4F4F5F4FD6
:10386000AE80BF80A20EB31E5FC0D60117968C91AA
:1038700017978E70843049F5EC91EF71F0E0EE0F00
:10388000FF1FE05EFA4F60817181882777FD809588
:10389000982F20E034E640E050E00E94A46AF40152
:1038A0006083718382839383D60112962C912223A5
:1038B00061F0332727FD3095432F532F0E94186B5B
:1038C000F4012083318342835383D4016D917D9130
:1038D0008D919C9120E031E040E050E00E94186B17
:1038E00050954095309521953F4F4F4F5F4FAE809B
:1038F000BF80A20EB31EA114B104B1F0F601858100
:10390000B7FE02C08F7002C082958F7090E09C015C
:1039100044E650E0249FC001259F900D349F900DF8
:103920001124D3018D939C93F301208131812115C2
:10393000310599F080916A04882321F021503040AC
:1039400031832083D3018D919C91892B31F0F40137
:103950006081718182819381C2C0A114B10409F494
:10396000D7C0D60116968C911697882309F4C0C04B
:1039700080916A04882309F477C012962C9122233F
:1039800029F460E070E080E293E017C0332727FD60
:10399000309537FF03C0309521953F4F332727FDE2
:1039A0003095432F532F60E070E080E293E00E9457
:1039B000186BC901DA01BC01CD01F60126811A1488
:1039C0001B040CF52F70422F50E041155105D9F121
:1039D000A4E6B0E04A9F90014B9F300D5A9F300DF6
:1039E0001124442737FD4095542F0E94186B79010C
:1039F0008A01F40180819181A281B381E80EF91ED0
:103A00000A1F1B1F2BC022952F70422F50E041151B
:103A10005105C9F0A4E6B0E04A9F90014B9F300DDC
:103A20005A9F300D1124442737FD4095542F0E9492
:103A3000186BF401E080F18002811381E21AF30A2D
:103A4000040B150B0BC02E813F81C901AA2797FDDE
:103A5000A095BA2FEE24F82E092F1A2FD401ED923B
:103A6000FD920D931C931397F40160817181828103
:103A700093812E813F8179010027F7FC0095102F5B
:103A80001A141B0464F420E031E040E050E00E948E
:103A9000186BE216F3060407150764F01BC020E05C
:103AA00031E040E050E00E94186B2E153F054007C2
:103AB000510784F44E815F81CA01AA2797FDA09522
:103AC000BA2FBA2FA92F982F8827F40180839183CA
:103AD000A283B383D4016D917D918D919C9120E05F
:103AE00031E040E050E00E94186B3F832E8310C00D
:103AF000EE81FF81CF01AA2797FDA095BA2FBA2F9B
:103B0000A92F982F8827F40180839183A283B38300
:103B1000D60114966C911497662341F08E819F8193
:103B200011964C910E945E0D9F838E83F6018781D2
:103B300080FD12C0E181EE2379F0E53068F4F0E019
:103B4000EE0FFF1FEC5BFA4F808191812E813F8148
:103B5000280F391F3F832E834E815F81BA0188274A
:103B600077FD8095982FD60112962C91332727FD4B
:103B70003095432F532F0E94A46A9B01AC01F6019C
:103B800080818F71082F10E0015010408781869549
:103B9000877090E08130910551F0F801EE0FFF1F22
:103BA000EE0FFF1F029731F5E25BFA4F1EC0CA010C
:103BB000B90124E630E040E050E00E94186BB90102
:103BC000CA01000F111F000F111F025B1A4FD8010D
:103BD0002D913D914D915C910E94A46A20E034E0CA
:103BE00040E050E00E94186BF8012083318342834B
:103BF00053830EC0E25BFA4F80819181A281B38131
:103C0000820F931FA41FB51F80839183A283B38368
:103C1000FB81FF5FFB830894411C511C24E030E0D2
:103C2000820E931E42E050E0640E751EF03209F0E1
:103C30004ACD51CDA981BA81AD90BD90CD90DC9097
:103C4000C601B50124E630E040E050E00E94186B68
:103C5000E981FA812083318342835383F201EE5656
:103C6000F84FC90120839183D30113962D913C9184
:103C7000149711968C911197FAE08F02F00111249C
:103C8000E851FC4FFF83EE838C914AE084024001AF
:103C9000112488E19CEF880E991ECF015E2F492FD9
:103CA0002E173F071CF4C901522F492F852F942F3F
:103CB0008C01081519050CF48401A114B104C10488
:103CC000D10479F19801442737FD4095542F1A14F7
:103CD0001B041C041D0464F4AE81BF81BD01882750
:103CE00077FD8095982F621B730B840B950B0BC08F
:103CF000C401AA2797FDA095BA2F281B390B4A0BA0
:103D00005B0BCA01B901A60195010E94A46A20EAD1
:103D100036E841E050E00E94186BC901DA015C010D
:103D20006D01C80125E0959587952A95E1F7800FEB
:103D3000911F9801232F330F330B2595820F931F6B
:103D4000000F012F001F110B801B910B7C0100271E
:103D5000F7FC0095102F8E819F81F5E09595879552
:103D6000FA95E1F7EE81FF818E0F9F1F9401E5E048
:103D700035952795EA95E1F7F401EE0FEF2FEE1F49
:103D8000FF0B280D391D4E815F81440F452F441FC5
:103D9000550B841B950B5595479555954795840F65
:103DA000951FAC01662757FD6095762FEA0CFB1C2A
:103DB0000C1D1D1D4E155F056007710714F47A0177
:103DC0008B012E1B3F0BF595E795F595E7952E0F8B
:103DD0003F1FC901AA2797FDA095BA2FE816F9063B
:103DE0000A071B0714F47C018D01D30112968C91F4
:103DF000882341F010950095F094E094E11CF11CAB
:103E0000011D111DF1018081882301F160E00E94F4
:103E1000C1128823D9F0D10111968C91B9E28B029D
:103E200090011124359527953595279587FD815C5F
:103E300086FB880F880B80F9992787FD9095281BB2
:103E4000390B79010027F7FC0095102FEC81FD81DB
:103E5000E40DF51DF182E082E981FA813496FA835E
:103E6000E98322E030E0420E531E45E050E0640E4C
:103E7000751E220E331EEE58F54009F0DBCE279654
:103E80000FB6F894DEBF0FBECDBFCF91DF911F916B
:103E90000F91FF90EF90DF90CF90BF90AF909F90E9
:103EA0008F907F906F905F904F903F902F900895EC
:103EB000CF92DF92EF92FF920F931F93DF93CF93F6
:103EC000CDB7DEB7A0970FB6F894DEBF0FBECDBF5B
:103ED00081E080935A040E947A14682F8E010F5F4C
:103EE0001F4FC8010E94CA1810925A04F801ACEA88
:103EF000B2E09E012F5D3F4F808191814CEF883170
:103F000094071CF488E19CEF06C043E0883E9407C8
:103F100014F088EE93E011969C938E93329615964A
:103F2000E217F30749F700E010E032E0C32ED12C8E
:103F3000E02E80916C0190E0817090709601281BBA
:103F4000390B2017310791F0FF248F2D6E2D0E9421
:103F50002F0E855F914034F48F2D6E2D40E050E0A0
:103F60000E94E80FF39445E0F41679F70F5F1F4FB6
:103F700004301105E9F682E00E9416588091610430
:103F800080935F0482E380930001A0960FB6F894BB
:103F9000DEBF0FBECDBFCF91DF911F910F91FF907C
:103FA000EF90DF90CF9008952F923F924F925F92C3
:103FB0006F927F928F929F92AF92BF92CF92DF9239
:103FC000EF92FF920F931F93DF93CF93CDB7DEB79E
:103FD000C756D0400FB6F894DEBF0FBECDBFF894E1
:103FE0002091440D3091450DA4963FAF2EAFA4977C
:103FF000789420E08091B9069091BA06A4964EADCF
:104000005FADA4974817590709F021E020936A048F
:10401000A4966EAD7FADA4977093BA066093B9066F
:104020000E947A14A2968FAFA29740910801481778
:1040300009F475C0282F30E04F3F51F4220F331F91
:104040002155394F8FEF9FEFD9018D939C9362C01B
:10405000A42FB0E08DE090E0A89FF001A99FF00DA3
:10406000B89FF00D1124E45FFB4F608162956F7083
:10407000289FF001299FF00D389FF00D1124E45F77
:10408000FB4FE081EF70E61718F0EE23F9F06E2F8A
:1040900081E090E0FC0102C0EE0FFF1F2A95E2F7DD
:1040A0009F0102C0880F991FAA95E2F7280F8091FF
:1040B000AC06822B8093AC068FE892E070E00E9401
:1040C000CF6A7093AE066093AD0624C0AA0FBB1FE3
:1040D000A155B94F1D921C92F901EE0FFF1FE1553A
:1040E000F94F8FEF9FEF9183808381E090E0BC01D7
:1040F00002C0660F771F2A95E2F79B0102C0880F66
:10410000991F4A95E2F7280F20958091AC068223EB
:104110008093AC06A2967FADA29770930801809120
:10412000AC06882309F493C0FE01B19680E4DF0158
:104130001D928A95E9F7AFEA2A2EA6E03A2E662468
:1041400077244301EE24FF24A596EFAFA597A6960A
:10415000FFAFA697FE01EF59FF4FA896FFAFEEAF56
:10416000A8978091AC0690E00E2C02C0959587959B
:104170000A94E2F780FF41C0CE0101966E2D0E94A5
:10418000CA18CE0101966E2D0E94CA18D1018D91D8
:104190009C915C01CC24DD24A5968FADA597A696B5
:1041A0009FADA6978C012E010894411C511CF20171
:1041B000219131912F01442737FD4095542FC6019D
:1041C000B5010E94A46AD8012D913D914D915C9159
:1041D000260F371F481F591FF80121933193419330
:1041E00051938F01A8962EAD3FADA897E217F30724
:1041F000F1F66A0C7B1C8C1C9D1C0894E11CF11CC4
:1042000042E050E0240E351E55E0E516F10409F0B9
:10421000A8CF8E010F5D1F4F7E010894E11CF11C99
:10422000E1E6CE2ED12CCC0EDD1ED8016D917D9114
:104230008D919D918D01A40193010E94186BF7014E
:10424000219331937F010C151D0579F707C0CE012D
:104250000196A2966FADA2970E94CA1820E030E0A6
:10426000AE014F5F5F4FF894F901EA54F84FDA015D
:10427000A20FB31F8D919C919183808378942E5FC0
:104280003F4F2032310579F78091190D882381F451
:1042900080914508882329F08DE398E00E94315BE6
:1042A00007C080915008882319F080E00E941C58B4
:1042B00080916A04882309F4AAC480915104882358
:1042C00079F4409188075091890780916E0180FFB1
:1042D00005C020E034E0241B350B15C09A010AC04C
:1042E000E82FF0E0843048F0EE0FFF1FE255F84F62
:1042F0002081318120503C4F06C0EE0FFF1FE65752
:10430000F84F20813181490156E0969487945A955F
:10431000E1F76091A7066F5F6093A7064091A5063D
:104320005091A606480D591D5093A6064093A50628
:104330002091AA063091AB06A4968EAD9FADA497AE
:10434000821B930B8436910508F487C02C593F4F8C
:104350003093AB062093AA0680917004909171046B
:1043600001969093710480937004CA0170E00E94DA
:10437000CF6A4B019B0136952795809174049091EB
:104380007504820F931F90937504809374046115D4
:10439000710549F080917204909173040196909395
:1043A0007304809372048091A7066091A3067091B4
:1043B000A406680F711D7093A4066093A306409134
:1043C000A1065091A2068091A5069091A606480FDD
:1043D000591F5093A2064093A1061092A70610926F
:1043E000A6061092A5062091A8063091A906A496CB
:1043F0008EAD9FADA497821B930B885E934068F1AE
:1044000028513C4F3093A9062093A806CA010E9468
:10441000CF6A4B011092A2061092A1061092A40638
:104420001092A3068091F7049091F804FC01E158E2
:10443000FB4F608301969093F8048093F7048837CC
:10444000910520F01092F8041092F7048091F9047D
:1044500087FD03C08F5F8093F904552432E0232E3B
:104460004424439424E0322E552039F4F0907F0107
:10447000A0908001B09081010AC021E0521609F09D
:1044800063C1F0908601A0908701B0908801FF2061
:1044900009F458C1052D10E0F801EA58FB4F80815E
:1044A000882391F44082F801EE0FFF1FDF01A2572D
:1044B000B94F1D921C92DF01AE56B94F1D921C924E
:1044C000EA56F94F11821082F7FC02C0EF2C02C0AD
:1044D000E32CEF1833E0E316A9F4F801EE0FFF1F09
:1044E000DF01A257B94F8D919C91119701968D9341
:1044F0009C93EE56F94F80819181880D991D91838F
:10450000808348C049E14E1508F044C0F801EE0F21
:10451000FF1FDF01AE56B94FE257F94F20813181BD
:104520008D919C91282B392BF801E656F94F80810B
:1045300090E0282B392BF801E456F94F808190E068
:10454000282B392B232B31F4FF208F2D880F880B3C
:10455000842180831F141CF48F2D895102C08F2D5C
:10456000875E60E00E94C112282F882379F0F8014D
:10457000E456F94F8081882349F4F801E656F94F53
:1045800090E08081882309F491E09083F801E4565B
:10459000F94F2083F801E458FB4F9081892F8F5FFA
:1045A0008083843608F4CEC093569083A114B1045E
:1045B00061F0F801EE0FFF1FE858FB4F80819181F9
:1045C000B501681B790B7183608371E0E71609F40C
:1045D0007BC082E0E81629F48114910409F47EC0BE
:1045E00073C093E0E91609F047C06801CC0CDD1CEC
:1045F0007EE8672E76E0772E6C0C7D1CD301ED9063
:10460000FC90E114F10409F469C0F601EE56F94F8B
:1046100020813181C901B7010E94CF6A4B016E9D93
:10462000C0016F9D900D7E9D900D1124281B390BAC
:1046300031832083F301118210829B0136952795E7
:10464000D601AA56B94F8D919C911197280F391F09
:1046500011963C932E932031310508F43FC0F601AA
:10466000E858FB4F8081918101969183808320518E
:1046700030402D933C9332C0F4E0EF1671F4811476
:10468000910411F5F801EE0FFF1FE858FB4F8081F0
:10469000918118161906C4F021C029E12E1570F079
:1046A0001F141CF48F2D845002C08F2D8C5F60E08E
:1046B0000E94C112F801E656F94F8083F801E656D0
:1046C000F94F8081882351F0F801EE0FFF1FE85861
:1046D000FB4F80819181019691838083D801AA58F4
:1046E000BB4F8C91813019F08230F1F40FC0A114CE
:1046F000B10441F1F801EE0FFF1FE858FB4F808134
:1047000091818A159B059CF02C9211C0C501CB9616
:10471000F801EE0FFF1FE858FB4F2081318182170F
:10472000930714F433E03C93A114B10459F0F80159
:10473000EE0FFF1FE858FB4F80819181A81AB90A3C
:10474000B182A082539490CE209178043091790464
:1047500080919F069091A0068217930709F49CC050
:1047600080917604813009F07CC080916E0182FFD7
:1047700057C08091800190918101892B09F450C02C
:104780002E31310551F482E080936D0480916204F2
:1047900080935F0482E3809300018091780490917C
:1047A0007904449751F481E080936D048091620410
:1047B00080935F0482E3809300018091780490915C
:1047C00079040A9739F48091620480935F0482E34C
:1047D00080930001809178049091790404973CF4CF
:1047E0008091620480935F0482E380930001809152
:1047F0006E0183FF15C080917804909179048E3109
:10480000910541F08431910529F08A30910511F02C
:10481000049734F482E390E090936C0480936B04EB
:1048200080916E0181FF30C0209180013091810123
:104830002115310549F08091780490917904A901FE
:10484000481B590BCA0104C08091780490917904E7
:104850006CE370E00E94CF6A892BB1F4809162040E
:1048600004C0823089F48091630480935F0482E302
:104870008093000180916E0183FF06C082E390E087
:1048800090936C0480936B048091780490917904E8
:104890009093A00680939F068091AC06882309F42C
:1048A00052C0EFEAF6E0A0E0B0E011E0E12EF12C1A
:1048B000CC24CA94DC2C8701A2960FACA29702C02C
:1048C000000F111F0A94E2F76091AC06862F90E06A
:1048D0000A2E02C0959587950A94E2F780FF2EC0B4
:1048E000408151812091AD063091AE06A2968FADE8
:1048F000A2978A1779F4CA018095909528173907ED
:1049000028F4240F351F3183208318C0D182C08240
:10491000601B12C02417350728F4421B530B518328
:1049200040830CC011821082C7010A2E02C0880F7A
:10493000991F0A94E2F7681B6093AC0611963296B1
:10494000A530B10509F60E94CD128091B4078823E5
:1049500019F081508093B40780916D01882309F488
:1049600069C080916904833308F464C080918E0526
:1049700090918F05A0919005B09191050196A11D90
:10498000B11D80938E0590938F05A0939005B093F1
:10499000910500E010E0FF248F2D0E94720EB6E01A
:1049A00096958795BA95E1F7080F191FF39494E04F
:1049B000F91691F7809192059091930508171907C0
:1049C00061F0109393050093920510928E0510925A
:1049D0008F051092900510929105E0908E05F09051
:1049E0008F05009190051091910560916D0170E027
:1049F00080E090E020E737E140E050E00E94A46AC8
:104A00006E157F0580079107A8F42FE330E040E0A2
:104A100050E0E222F322042315233AE0E316F104E6
:104A20000105110539F48091630480935F0482E3EA
:104A30008093000180917E04882319F08150809337
:104A40007E040E9462650E94BD650E949314182F27
:104A500080916B0490916C04009729F001979093DA
:104A60006C0480936B04112389F08091700190E0B5
:104A700024EF31E0AC01429FC001439F900D529F53
:104A8000900D112490936C0480936B0480915901D4
:104A900060E00E94C112882339F480916B049091E8
:104AA0006C04892B09F4B1C0C79AE091E707F0E0E4
:104AB000EE0FFF1FE752F84F0190F081E02D812F9C
:104AC00009950E94D6638091630081FF04C08091A4
:104AD00065008F7E03C080916500806180936500D2
:104AE000A4968EAD9FADA4978F7190708230910582
:104AF00021F0039709F08BC071C0809167049091F9
:104B00006804892B39F487E00E94720E9093680440
:104B10008093670480916704909168048C01E3E0BE
:104B2000000F111FEA95E1F7081B190B87E00E949F
:104B3000720E800F911F73E0969587957A95E1F735
:104B40007C0100E010E0909368048093670420915A
:104B50005801332727FD3095432F532FC801B70144
:104B60000E94A46A28E030E040E050E00E94186B08
:104B700064E0EE0CFF1C001F111F6A95D1F7E20ED6
:104B8000F31E041F151F209165043091660440E058
:104B900050E0C801B7010E94186B2093690480910E
:104BA0009E06805E80939E06882389F5809157013A
:104BB000281768F5233358F18091640480935F04CB
:104BC00082E38093000180916E0183FF20C082E325
:104BD00090E090936C0480936B0419C080916B01FA
:104BE000869586958695877090E0BC01660F771F45
:104BF000660F771F680F791F6A5F7A4F80E694E02F
:104C000045E050E00E94336B02C0C7984ECFC959AF
:104C1000DF4F0FB6F894DEBF0FBECDBFCF91DF914F
:104C20001F910F91FF90EF90DF90CF90BF90AF90CA
:104C30009F908F907F906F905F904F903F902F90BC
:104C400008951F93CF93DF939FEF9ABB1BBA81E820
:104C500087BB8EE788BB8EE384BB81EC85BB11BA32
:104C600092BB88E082B987EF83B9109261001092FD
:104C7000620080E180936400909365000E949863D5
:104C800080E487B985E886B987E083BF82E081BF89
:104C900087B7836087BF8AE08EBD82E880938A00F1
:104CA00080917D00806280937D00EDB7FEB73297E2
:104CB00085E502C0808331974DE0E834F40709F0C0
:104CC000C8F78FE593E59093DA078093D9078DE5D0
:104CD00097E49093DC078093DB0789E10E94CC6323
:104CE00078940E943E591091550184B7813061F04B
:104CF0000E94F5130E945A130E94CA0E0E94A51327
:104D00000E9469130E944E130E94D3100E947A14CD
:104D1000682F86EB97E00E94CA18809156010E9486
:104D2000CC638091700190E024EF31E0AC01429FB0
:104D3000C001439F900D529F900D112490936C04DD
:104D400080936B0480915501181719F081E00E943F
:104D500016580E9410282DE088E190E00FB6F894D4
:104D6000A89581BD0FBE21BD0E94530FEC01E091BB
:104D70006F01F0E0EE0FFF1FEF5FFE4F0190F0813B
:104D8000E02D09950E94DE0E0E94D41F80915904E7
:104D9000833019F4A895109259040E94530F209162
:104DA0005504309156048C1B9D0B8217930708F411
:104DB000C9019093560480935504D6CFEDE7F0E0F7
:104DC0008081857E808317981F9AAAE8B0E01C92A4
:104DD00010928B0082E88C9380818062808308959A
:104DE0006F927F928F929F92AF92BF92CF92DF92FB
:104DF000EF92FF920F931F93CF93DF9390918201D5
:104E00009770809109018917C9F0909309010E9458
:104E1000DE261EBC80E49CE99BBD8ABD1DBC1CBC7B
:104E200087B7837C87BF8CE386BF8FE380937C004A
:104E300087B7806187BF1FBC8AE08EBD80918301E8
:104E400085FD04C0E12C34E0F32E03C0E12C25E005
:104E5000F22E409182014595459545954595440F23
:104E6000485F9091840184E69802D0011124A85AE9
:104E7000BD4F882499248A1A9B0A8091500499274F
:104E800087FD909528EE33E0829FB001839F700DDF
:104E9000929F700D1124685370456A1B7B0B06EBC3
:104EA00017E0E3EFF6E050E0440F551F440F551FA5
:104EB0005F01A40EB51ECC24DD24CE18DF0888E5E2
:104EC000682E82E0782E6A1A7B0A1DC0C601E801AE
:104ED000288139812C153D0534F02E153F0514F03D
:104EE000C70101C0C901805A964F9401281B390B94
:104EF000620F731F860D971D91838083B383A283F6
:104F000034960E5F1F4FEA15FB0501F7FA01ED50CD
:104F1000F94F71836083B383A2831582148283EF78
:104F200096E090930B0180930A01DF91CF911F913E
:104F30000F91FF90EF90DF90CF90BF90AF909F9038
:104F40008F907F906F9008951F920F920FB60F92DF
:104F500011241F932F933F934F935F936F937F93EE
:104F60008F939F93AF93BF93EF93FF931CB5809163
:104F70008307882321F0C09A1092830704C0C09849
:104F800081E080938307A0910A01B0910B01FD019C
:104F9000819191919BBD8ABDF0930B01E0930A0131
:104FA00012968D919C911397892BB9F4809183016E
:104FB00082958F70809581708093830787B78F7EED
:104FC00087BF0E94F02680918201877011F08330A4
:104FD00021F487B7806187BF78948091530481174B
:104FE00010F41093530480915404181710F4109384
:104FF000540480915904816080935904FF91EF918A
:10500000BF91AF919F918F917F916F915F914F91E0
:105010003F912F911F910F900FBE0F901F901895E9
:105020000E94F02687B7806187BF08959C01E091B8
:10503000E707F0E0EE0FFF1FE752F84F31832083C0
:105040008FEBF90109958091600480935F0482E3FE
:105050008093000108959C019091E707E92FF0E00B
:10506000ED51F84F8091E8078083E92FEF5FE093DF
:10507000E707E53040F09093E70782EE97E160E0C4
:105080000E94081308958091600480935F0482E376
:1050900080930001F0E0EE0FFF1FE752F84F3183DD
:1050A00020838FEBF90109950895E091E707EE233E
:1050B000E9F0E150E093E7078091600480935F049A
:1050C00082E3809300011092E907F0E0DF01AD5127
:1050D000B84F8C918093E807EE0FFF1FE752F84F0F
:1050E0000190F081E02D8EEB0995089582EE97E115
:1050F00060E00E94081308958F929F92AF92BF9232
:10510000CF92DF92EF92FF920F931F93CF93DF9393
:10511000182F7B014A015901C02E84FD04C044E0D0
:10512000D42E05E005C01F70106635E0D32E04E0D4
:105130008D2D8066181761F08D2D8064181741F051
:105140009091B30719167CF4133611F0133459F407
:10515000E70121968091600480935F0487E3809348
:105160000001802F1AC0802F8066181761F0802FF1
:105170008064181741F019160CF089C0123619F026
:10518000123409F084C0E701219780916004809374
:105190005F048DE2809300018D2D90E00E9459669E
:1051A000882351F0CC27DD27CE19DF09802F0E94FC
:1051B000E0668D2D0E94E0668114910491F481E0F7
:1051C000A816B10471F4103661F41092B307C0E070
:1051D000D0E0E114F10411F4C1E0D0E080E60E94D7
:1051E000E0668091D6079091D707C81BD90BAC1603
:1051F000BD065CF4812F0E94E0668091620480937A
:105200005F0487E380930001E501C815D9055CF4CC
:10521000812F0E94E0668091620480935F048DE29A
:1052200080930001E401CE15DF0509F1209791F488
:10523000812F0E94D166F7FE06C0809162048093A0
:105240005F0487E305C08091620480935F048DE270
:10525000809300018C2D83700E941658EC16FD0679
:1052600014F08FEF01C081E08093D80702C0109244
:10527000D807CE01DF91CF911F910F91FF90EF9052
:10528000DF90CF90BF90AF909F908F900895E701EF
:1052900093CF0F93772767FD7095552747FD50955E
:1052A000332727FD309501E00E947C280F91089557
:1052B0000F93772767FD7095552747FD5095332746
:1052C00027FD309502E00E947C280F910895FF92FF
:1052D0000F931F93F82E162F042F80E860E0412FC4
:1052E00050E0202F0E9476621A3010F485E701C04A
:1052F0008FE660E04FE2202F0E944D5F1A3010F4DD
:1053000085E701C08FE64F2D50E04F5F5F4F60E0B3
:10531000202F0E9476621F910F91FF9008959F9217
:10532000AF92BF92CF92DF92EF92FF920F931F93B3
:10533000CF93DF93F82ED62EEA01B22E9C2CE0916B
:105340009007F09191078091EE079091EF078E1BE7
:105350009F0B60E270E00E94E36A9B017093D707A5
:105360006093D6076115710521F0F093EF07E09384
:10537000EE07E0918C07F0918D078091EC079091FA
:10538000ED078E1B9F0B60E470E00E94E36AA62E7F
:10539000662321F0F093ED07E093EC07E0918E0790
:1053A000F0918F078091EA079091EB078E1B9F0B7E
:1053B00060E470E00E94E36AC62E662321F0F09359
:1053C000EB07E093EA07AA2021F4CC2011F4232B69
:1053D00089F08091700190E024EF31E0AC01429FB0
:1053E000C001439F900D529F900D112490936C0427
:1053F00080936B04209711F429E75FC08091E80740
:10540000882309F041C08091B507882309F03CC08A
:10541000AA2011F48D2D09C09B2D91508D2D8A1934
:1054200087FD80E098170CF4892F54E6F51651F0AB
:1054300095E6F91699F4DD2011F08D2D01C08B2D24
:1054400081500CC02D2D30E08B2D90E00197281756
:10545000390714F080E002C08D2D8F5F282F33278D
:1054600027FD30958D2D90E02817390711F442E083
:105470000CC0F901EE0FFF1FEC0FFD1F85919491F9
:105480000E94162880E072C140E01092B5078D2D71
:105490006B2D0E9467292091140D2E508D2D90E0C8
:1054A000019666EF7FEF0E94E36ACB01880F991F98
:1054B000880F991F860F971F280F8DE398E0622FA2
:1054C0000E94D3590115110511F430E00AC08091F2
:1054D000E8079E2D8E1508F4982FF801E90FF11DAD
:1054E00034914091B3071416C4F1CC2011F180918E
:1054F000E8078C1987FD80E0992D89150CF4982F09
:105500009093E8072091E9070115110511F480E057
:105510000BC0892FE91608F48E2DF801E80FF11D54
:105520008491281708F4822F8093E90780E68093FE
:10553000460DAA2091F08091E807882371F08091B0
:10554000E9078A1987FD80E0932F83170CF4982FC1
:105550009093E90780E68093460DE0E6FE16C9F1D8
:10556000EF15B8F0F3E4FF1609F4B2C0FF1540F0F0
:1055700051E2F516E9F182E4F81609F0D7C07FC0D0
:1055800094E4F91609F451C0E5E4FE1609F0CEC022
:1055900060C0F4E6FF1609F44DC0FF1548F052E66E
:1055A000F51609F471C083E6F81609F0BFC094C07F
:1055B00091E8F916D1F0EFEBFE1629F0F5E6FF16AB
:1055C00009F0B4C04BC01092E9071092E8078FEFC2
:1055D00009C0332309F4AAC01092B30714160CF4BF
:1055E000A5C081E08093B307A1C01092B3070BC0A0
:1055F00014161CF41092B30799C08091E807882311
:1056000011F0209719F40E94552890C080916004F1
:1056100080935F0482E3809300011092E907109267
:10562000E80780E68093460D85C08091E9078317DF
:1056300009F47CC0012B09F479C014160CF476C06F
:105640008091E907831710F48F5F13C01092E90768
:105650006AC08091E907882309F468C0012B09F426
:1056600065C014160CF462C08091E907882321F00C
:1056700081508093E90757C03093E90754C0809167
:10568000E807891509F452C014160CF44FC0809134
:10569000E807891510F080E001C08F5F0115110542
:1056A00009F470C0982FE81608F49E2DF801E90F50
:1056B000F11DE491EF3F09F065C0EBCF8091E80761
:1056C0008E1508F4E82E0E0D111DF801049126C068
:1056D0008091E807882351F1141644F18091E8077E
:1056E000882311F4892D01C081500115110509F499
:1056F00052C0982FE81608F49E2DF801E90FF11D0D
:10570000E491EF3F09F047C0EBCF8091E8078E1599
:1057100008F4E82E0E0D111DF8010491901708F4FD
:10572000092F0093E90780E68093460DCD2B11F4F5
:1057300056E001C057E04091E807442319F4109265
:10574000B20713C0242F30E08091B207281B310923
:10575000852F90E08217930714F4451B04C012169E
:1057600013061CF041504093B20781E0DF91CF91C6
:105770001F910F91FF90EF90DF90CF90BF90AF906F
:105780009F9008958093E8079091E907011511050E
:1057900009F094CF08C08093E8079091E9070115BC
:1057A000110509F0B2CF00E0BCCFCF92EF920F937A
:1057B0001F93C02E00E010E0EE240E948F291F915D
:1057C0000F91EF90CF9008950F93062F60E040E087
:1057D00050E020E00E94D52B0F9108950F93942F55
:1057E000222311F400E001C002E043E0949FA001F5
:1057F00011244257504F23E00E94FC630F910895FB
:10580000DC01FB0105C09C9180818D9391934150F7
:105810004423C9F70895CF92DF92EF92FF920F933E
:105820001F93CF93DF93182F80E060E041EA58E1A7
:1058300022E00E941860812F6BE04AE755E02CE0DF
:1058400008E00E94D52B882309F468C0F090E8078F
:10585000FA941038C1F480E80E94E06689E18093F0
:10586000B40786E08F1518F08F2D0E944B6887E0F3
:10587000F81611F40E94DA678091610480935F0446
:1058800082E38093000118E0EE24CF2CDD24C7FCD6
:10589000D0944091B2074E0D473019F4193370F18E
:1058A0003DC0C42FD0E0CC16DD0611F020E101C0D0
:1058B00022E1AE014F5F5F4F82E1612F02E00E9463
:1058C0006E618091B407882319F4CC16DD0609F0C7
:1058D00000E0AE01440F551F4C0F5D1F440F551FD4
:1058E000440F551F47585E4E88E1612F2CE00E94FF
:1058F000FC63185FE394103461F610C08091B40724
:10590000882329F487E0F81611F422E001C020E092
:1059100086E0612F4BEA54E10E941860DF91CF913D
:105920001F910F91FF90EF90DF90CF9008950F930C
:10593000942F222311F400E001C002E043E0949F81
:10594000A00111244C56504F23E00E94FC630F919C
:1059500008955F926F927F928F929F92AF92BF92C3
:10596000CF92DF92EF92FF920F931F93CF93DF932B
:10597000882E80E060E043E858E122E00E94186051
:10598000882D69E04AE755E02CE004E915E0EE24B3
:10599000E3947CE0C72E0E948F29882309F47FC0FE
:1059A0008091E8078150992458E0A52E682E77242D
:1059B00067FC70944EE0542E8091B207890D8031BF
:1059C00009F46DC0C82EDD24BB24E601CC0FDD1F19
:1059D000CB51DC4F7601EE0CFF1C86EE93E0E80E17
:1059E000F91E6C147D0461F48091E9078B1541F474
:1059F0008091B30718160CF047C011E001E002C017
:105A000000E010E0BB2021F091E0B91681F510C054
:105A100086E06A2D4881202F0E948064112339F18D
:105A2000882D68814AEE26E10E94582988831FC08C
:105A300088818823C1F0F7014081459DA001112490
:105A4000475F5E4E8EE16A2D2EE00E94FC631123BB
:105A500071F0882DF701608140E027E00E9458290D
:105A6000F701808304C0002311F01092E907B3947A
:105A7000F2E0BF1609F0B5CF939488E0A80E97E046
:105A8000991609F099CF0BC08091D6079091D7074E
:105A9000892B19F011E002E0B5CF02E0B2CFDF911F
:105AA000CF911F910F91FF90EF90DF90CF90BF901B
:105AB000AF909F908F907F906F905F9008959F928E
:105AC000AF92BF92CF92DF92EF92FF920F931F930C
:105AD000CF93DF93982E80E060E041E958E122E027
