:100000000C94890C0C94A60C0C94A60C0C94A60CC5
:100010000C94A60C0C94A60C0C94A60C0C94A60C98
:100020000C94A60C0C94A60C0C94A60C0C94A60C88
:100030000C9499270C94A60C0C94A60C0C943E10CE
:100040000C94630F0C94A60C0C94A60C0C94A60CA8
:100050000C94A60C0C94A60C0C942C650C94A60C79
:100060000C94A60C0C94820F0C94A60C0C94A60C69
:100070000C94A60C0C94A60C0C94A60C0C94A60C38
:100080000C94A60C0C94A60C0C94A60C5350530084
:100090008040000000F8FE060303030306FEF8009C
:1000A0000000000000000000000080C0C0E0F0F888
:1000B000FCFEFEFFFF7F7E3E3C1C0000C0E0E0F047
:1000C000E0000000000000000000000000000080D0
:1000D000E0F0F8F8FCFCFC7C3C381000000000006C
:1000E000000000000000000000000000000000C050
:1000F0004020202020202040408000000000000000
:1001000000000000000000000000000000000000EF
:100110000000000000E1E7666C6C6C6CE6C78100D3
:100120000000000080E0F0F8FCFE7FBF3F1F0F07DB
:100130000783C1E1F0F8FCFCFEFE00000103070F9D
:100140000F1E3C3870F0E0C080000080E0F8FEFF39
:10015000FF3F0F1F0F030000000000000000000021
:1001600000000080402020301010307E7FFFFBBC5C
:10017000C8F0000000F01030608001063CE0000094
:10018000000000000000000000000000000000006F
:100190000000000000FFFF0C0C0C0C0C0E0703000D
:1001A0000000F8FEFFFFFFFFCFC7E1F0F0F8FC7E94
:1001B0007F1FFFFFFFFFFFFF7F0700000000000021
:1001C00000000000000080C1F3FFFEFF7F7FEFC151
:1001D000C0800000000000000000000000000000DF
:1001E0001C7C7FFD800000008080C0C0E0F040F0FB
:1001F000F0C0038E7800818242432010080780807F
:10020000804040202020301030202020E050484402
:100210000020000000FDFD8C8C8C8C8C8C8C8C0064
:1002200000000107070707070F1F1F0F0703010043
:1002300000F8FFFFFFFF3F07000000000000000084
:100240000080C070BC7E171B0F0701000000000378
:10025000071F3FFEF8F0E0C0800000000000000033
:10026000000000000001010100F049AB1E1D353502
:1002700032323E3D3C1E1F3C4CCE8E0E0F0B021602
:100280001510080808040402020303050703090601
:100290000202000000BFBF313131313131B1B10054
:1002A000000000000000000000000000000000F05E
:1002B000FFFFFFFF0F0100000000000000C06018FA
:1002C000060305020000000000000000000000001E
:1002D000000000000101040707000000000000000A
:1002E000000000000000000000000103020201F90C
:1002F0002D2E0EFB0101808080808183061870C046
:1003000000000000000000000000000000000000ED
:100310000000000000FFFF070E3870C080FFFF00E4
:10032000000000000000000000000000C0F8FF7F97
:100330001F370700000000000000707C7F3F38007E
:1003400000000000000000000000000000000000AD
:10035000000000000000000000000000000080F02D
:10036000381808080808080808080808080C0C1FAE
:100370001010191909090908080808181018080F99
:100380000C0E0A0A0A0A0A0C0C08080C0C0C38E0BD
:10039000000000000007070000000001030707003D
:1003A000000000000000000000000403060301003C
:1003B000000000000000000000000000000000003D
:1003C000000000000000000000000000000000002D
:1003D00000000000000000000000000000E0FF4FEF
:1003E000404040404040404040404040404040400D
:1003F00040404040404040404040404040404040FD
:100400004040404040404040404040404040403FED
:10041000F8000000000000000000000000000000E4
:1004200000000000000000000000000000000000CC
:1004300000000000000000000000000000000000BC
:1004400000000000000000000000000000000000AC
:10045000000000000000000000000000E0FF0300BA
:10046000000000000000000000000000000000008C
:10047000000000000000000000000000000000007C
:10048000000000000000000000000000000000006C
:1004900007FC535045000102030401020403010359
:1004A0000204010304020104020301040302020125
:1004B0000304020104030203010402030401020411
:1004C0000103020403010301020403010402030205
:1004D00001040302040103040102030402010401F4
:1004E00002030401030204020103040203010403E2
:1004F00001020403020101020304010302040402D5
:1005000003010403020100000000000001081E6452
:100510000101081E6401010F32960A0A1E32960379
:10052000010200040506075F2D2E2C00564552538C
:100530003A2056322E30302D62736F6E6769730029
:100540002053564E3A206F70656E39782D723133D4
:100550003700444154453A20323031322D30312D6C
:1005600032350054494D453A2032313A30393A3427
:100570003800204D4F443A2048002B474B43CC2DA8
:1005800069401B3C163C4C319D30E82E772C2D2DBC
:10059000DC2B00010001000200030303030303033B
:1005A0000303030303030303032F3332002F313408
:1005B00000060003750000090202000000000006AA
:1005C0000201120800081C0808081C080000082284
:1005D00000490022080000000000227F22000000E5
:1005E00008220049002208000008220049002208D1
:1005F000000000227F2200000000000822004900C5
:1006000022080000081C0808081C0800184EA94C05
:10061000354B0D4C724B274A41000002020202008A
:10062000500800000000000000006F0000070007F5
:1006300000147F147F14242A7F2A12231308646273
:1006400036495522500005030000001C22410000DD
:1006500041221C0014083E081408083E08080050F7
:10066000300000080808080800606000002010083A
:100670000402003E41413E0000427F400062514979
:10068000460041494936001814127F002745453974
:10069000003E4949320001790503003649493600D8
:1006A0000649291E000036360000005636000008B4
:1006B000142241141414141441221408000201518C
:1006C000090606090906007E0909097E7F4949498C
:1006D000363E414141227F4141221C7F49494941E7
:1006E0007F090909013E4149497A7F0808087F00CE
:1006F000417F41002040413F017F081422417F405B
:100700004040407F020C027F7F0408107F3E414141
:10071000413E7F090909063E4151215E7F091929A1
:1007200046264949493201017F01013F4040403F8F
:100730001F2040201F3F4030403F631408146307D0
:10074000087008076151494543007F414100020498
:100750000810200041417F00040201020440404093
:100760004040000102040020545454787F4844441F
:10077000383844444420384444487F38545454184A
:10078000087E0901020C5252523E7F080404780090
:10079000447D40002040443D007F1028440000413B
:1007A0007F40007C041804787C08040478384444B2
:1007B00044387C14141408081414187C7C080404AD
:1007C000084854545420043F4440203C4040207C7E
:1007D0001C2040201C3C4020403C44281028440C55
:1007E0005050503C4464544C4400083641000000D2
:1007F0007F000000413608000808221C08081C225F
:100800000808A060000000000000000000000000D8
:100810000000FEFE0000000000003E7E00007E3E64
:1008200000006060FEFE6060FEFE606060F0989810
:10083000FEFE989818180C1E1E0C80C0E070381828
:1008400078FC8EC6E6763C180000000066763E1EF8
:10085000000000000000E0F0381C0E060000000060
:10086000060E1C38F0E000006060C080F8F880C020
:10087000606080808080F8F88080808000000000C8
:100880000000000000008080808080808080808068
:10089000000000000000000000000000000080C018
:1008A000E0703818000000000000000000000000A8
:1008B0000000717100000000000000000000000056
:1008C000000006067F7F06067F7F060618181919A6
:1008D0007F7F19190F06181C0E0703013078783036
:1008E0001E3F716367663C3C6666000000000000C6
:1008F000000000000000070F1C38706000000000BE
:100900006070381C0F070000060603011F1F01035B
:100910000606010101011F1F0101010100006676A9
:100920003E1E000000000101010101010101010161
:1009300000003078783000000000181C0E0703011A
:10094000000000000000F8FC0E06060EFCF8000097
:10095000181CFEFE000000000000181C0E0686CECB
:10096000FC7800000606868686CEFC78000080C0F3
:10097000E070381CFEFE00007E7E666666E6C68677
:100980000000F8FC8E86868E1C180000060686C6BF
:10099000E6763E1E000078FCCE8686CEFC7800000F
:1009A00078FCCE8686CEFCF80000307878300000E7
:1009B000000000003078783000000000000080C0A7
:1009C000E070381C0E0660606060606060606060AF
:1009D000060E1C3870E0C0800000181C0E060606CB
:1009E00086CEFC7800001F3F706060703F1F0000E3
:1009F00060607F7F606000000000787C6E676361EC
:100A0000606000006060616161733F1E0000070765
:100A1000060606067F7F00001838706060703F1F72
:100A200000001F3F716161733F1E000000007F7F67
:100A30000000000000001E3F736161733F1E000054
:100A400000006171391D0F0700000C1E1E0C000014
:100A50000000000066763E1E00000000000001035A
:100A6000070E1C3870600606060606060606060611
:100A70006070381C0E07030100000000000066676C
:100A80000301000078FCCE8686CEFC780000E0F002
:100A9000B89C8E8E9CB8F0E0FEFE8686868686CE5A
:100AA000FC78F8FC0E060606060E1C18FEFE06066E
:100AB000060E1C38F0E0FEFE8686868686860606D2
:100AC000FEFE8686868686860606F8FC0E068686E6
:100AD000868E9C98FEFE808080808080FEFE0000D6
:100AE0000606FEFE06060000000000000606FEFEEA
:100AF0000606FEFE80C0E070381C0E06FEFE0000FA
:100B0000000000000000FEFE1C38F0F0381CFEFE65
:100B1000FEFE70E0C0800000FEFEF8FC0E06060639
:100B2000060EFCF8000001010101000000007F7FBB
:100B30000101010101017F7F7F7F6161616161735B
:100B40003F1E1F3F70606060607038187F7F60607C
:100B50006070381C0F077F7F616161616161606057
:100B60007F7F01010101010100001F3F7060616191
:100B700061717F3F7F7F0101010101017F7F0000E3
:100B800060607F7F606000001838706060703F1F99
:100B900000007F7F0103070E1C3870607F7F60605C
:100BA0006060606060607F7F0000010100007F7F07
:100BB0007F7F00000103070E7F7F1F3F7060606032
:100BC00060703F1FFEFE8686868686CEFC78F8FC27
:100BD0000E060606060EFCF8FEFE8686868686CE85
:100BE000FC7878FCCE868686868E1C18060606065D
:100BF000FEFE06060606FEFE000000000000FEFEE9
:100C0000FEFE000000000000FEFEFEFE00000000F0
:100C10000000FEFE1E3E70E0C0C0E0703E1E7EFE84
:100C2000C080000080C0FE7E0606060686C6E67608
:100C30003E1E0000FEFE060606060000183870E0A4
:100C4000C08000000000000006060606FEFE000050
:100C50006070381C0E0E1C38706000000000000030
:100C6000000000007F7F01010101010100001F3F22
:100C70007060666E3C387F677F7F0101070F1D390A
:100C8000706018387161616161733F1E000000007F
:100C90007F7F000000001F3F7060606060703F1F3A
:100CA000070F1C387070381C0F071F3F70703E3ED6
:100CB00070703F1F787C0E070303070E7C780000DE
:100CC00001037F7F03010000787C6E6763616060D1
:100CD000606000007F7F60606060000000000000D6
:100CE0000103070E1C180000606060607F7F000039
:100CF00000000000000000000000606060606060B4
:100D0000606060600000060E1C387060000000002B
:100D10006060606060E0C080FEFE80C0E06060E017
:100D2000C08080C0E06060606060000080C0E06003
:100D300060E0C080FEFE80C0E060606060E0C08077
:100D40008080F8FC8E86060E1C18E0F03818181803
:100D50001818F8F8FEFE80C0E06060E0C080000077
:100D60006060E6E600000000000000006060E6E66B
:100D70000000FEFE000080C0E060000000000606EB
:100D8000FEFE00000000E0E060E0C0C0E0E0C080E7
:100D9000E0E080C0E06060E0C08080C0E060606053
:100DA00060E0C08000000000000000000000183C6F
:100DB0007E66666666667F7F7F7F61616060607069
:100DC0003F1F1F3F70606060607038181F3F706089
:100DD000606061617F7F1F3F7666666666660707B3
:100DE00001017F7F01010000000001036766666664
:100DF00066763F1F7F7F0101000000007F7F0000BB
:100E000060607F7F606000001838706060703F1F16
:100E100000007F7F060F1F397060000000006060D7
:100E20007F7F606000007F7F0000070700007F7FFA
:100E30007F7F0101000000007F7F1F3F70606060C6
:100E400060703F1FE0E06060606060E0C08080C074
:100E5000E0606060C080E0E0E0E080C0E06060E012
:100E6000C08080C0E0606060606000006060FEFE86
:100E7000606000000000E0E0000000000000E0E032
:100E8000E0E0000000000000E0E0E0E00000000022
:100E90000000E0E060E0C080000080C0E060E0E0D2
:100EA000000000000000E0E0606060606060E0E082
:100EB000E060000080C0787C0E06000000000000AA
:100EC000FEFE000000000000060E7C78C0800000DE
:100ED000808080801838F0E0C08080C0E0F0381852
:100EE000808080807F7F06060606060703010103D7
:100EF0000706060607077F7F7F7F010100000000CD
:100F00000101616367666666667E3C1800001F3FEC
:100F10007060607038181F3F7060607038187F7F95
:100F2000070F1C387070381C0F071F3F707038385F
:100F300070703F1F6070391F0F0F1F397060010301
:100F40006766666666763F1F6070787C6E67636171
:100F50006060000001031E3E7060000000000000A1
:100F60007F7F00000000000060703E1E0301000053
:100F700001010101181C0F0703010103070F1C18D1
:100F800001010101630040800804201002014F4666
:100F9000464F4E202D2D2D494E5634434820364382
:100FA00048203843482031304348313243483134B7
:100FB00043483136434851756965744E6F4B6579C6
:100FC0004E6F726D204C6F6E6720784C6F6E67535A
:100FD000494E474F534D5046494C54446F776E4FDE
:100FE000464620557020206F6666202B3D203A3DF6
:100FF00063683163683263683363683445787020AE
:101000002020457846696E6546696E6520204D65ED
:101010006469756D436F6172736552455441313235
:101020003350504D2020505858202044534D3220EA
:1010300050504D3136504F534E45472D2D2D783E53
:1010400030783C307C787C663E30663C307C667C18
:1010500045444954205052534554412E5448525708
:1010600065696768744578706F20205068617365A2
:10107000205377746368205768656E20204375722B
:10108000766520202020202020416464202020201C
:10109000204D756C7469706C795265706C61636514
:1010A000202B3D2A3D3A3D2D2D2D2D202020763E12
:1010B0006F66732020763C6F667320207C767C3EC2
:1010C0006F66737C767C3C6F6673414E44202020B3
:1010D000204F522020202020584F522020202076C0
:1010E000313D3D7632207631213D76322076313EDB
:1010F0007632202076313C7632202076313E3D76A5
:10110000322076313C3D7632202D2D2D2D20202091
:1011100020202020202020547261696E65722020DA
:101120002020202020547261696E6572205255443F
:10113000202020547261696E657220454C45202044
:1011400020547261696E65722054485220202054E8
:101150007261696E65722041494C202020496E738E
:1011600074616E74205472696D20205472696D73BD
:10117000324F6666736574732053696D706C6520B9
:10118000342D434820542D437574202020202020E6
:1011900020562D5461696C202020202020456C654C
:1011A000766F6E5C44656C7461654343504D2020DE
:1011B000202020202048656C6920536574757020BC
:1011C00020536572766F205465737420202D2D2D69
:1011D0002020203132302020203132305820203160
:1011E0003430202020393020202020204D656E759D
:1011F000204578697420446F776E20202055705206
:1012000069676874204C6566745448525255444569
:101210004C4549443049443149443241494C4745A1
:101220004154524E53573153573253573353573417
:1012300053573553573653573753573853573953F6
:10124000574153574253574352554420454C45202C
:101250005448522041494C20503120205032202007
:10126000503320204D41582046554C4C4359433172
:1012700043594332435943334F46464142535448FE
:1012800073544825544874005B4D454E555D2020ED
:1012900020205B455849545D00205B4D454E555D0F
:1012A000205748454E20444F4E4500667265650004
:1012B00044454C455445204D4F44454C00436F70C8
:1012C00079696E67206D6F64656C2E2E2E004D6FF0
:1012D00076696E67206D6F64656C2E2E2E004C6FE4
:1012E0006164696E67206D6F64656C2E2E2E004EF2
:1012F000616D650054696D657200452E4C696D69BC
:10130000747300452E5472696D73005472696D20B8
:10131000496E6300542D547261636500542D5472FC
:10132000696D0042656570204374720050726F747D
:101330006F0050504D206672616D65006D730053F3
:101340007769746368005472696D730046616465FF
:1013500020496E0046616465204F757400286465FD
:101360006661756C742900436865636B20202020DA
:10137000205472696D7300537761736820547970DB
:101380006500436F6C6C65637469766500537761C3
:1013900073682052696E6700454C45204469726548
:1013A0006374696F6E0041494C20446972656374CF
:1013B000696F6E00434F4C20446972656374696FB6
:1013C0006E004D4F4445004E6F2066726565206586
:1013D00078706F21004E6F2066726565206D6978A8
:1013E00065722100494E53455254204D4958200002
:1013F00045444954204D49582000536F7572636528
:1014000000576569676874004F66667365740054B9
:1014100072696D0043757276657300462E5068617F
:101420007365005761726E696E67004F4646004DE6
:10143000756C7470780044656C617920446F776EC8
:101440000044656C617920557000536C6F772020E3
:10145000446F776E00536C6F7720205570004452B4
:101460002F4558504F004D4958455200434F505951
:10147000205452494D205B4D454E555D004356006A
:101480005357004120206368616E6E656C004D61AA
:10149000780043616C69620042617200416C617264
:1014A0006D0055737250726F746F00434C4541521A
:1014B000204D49584553205B4D454E555D004265D2
:1014C0006570657200436F6E74726173740042617F
:1014D0007474657279207761726E696E6700496E07
:1014E000616374697669747920616C61726D00461C
:1014F000696C74657220414443005468726F74745F
:101500006C652072657665727365004D696E7574E1
:10151000652062656570004265657020636F756E59
:1015200074646F776E00466C617368206F6E206222
:10153000656570004C6967687420737769746368C7
:10154000004C69676874206F666620616674657216
:101550000053706C6173682073637265656E00542C
:1015600068726F74746C65205761726E696E670083
:10157000537769746368205761726E696E67004DB6
:10158000656D6F7279205761726E696E6700416C8C
:1015900061726D205761726E696E67004E4F204414
:1015A00041544120416C61726D0052782043686162
:1015B0006E6E656C204F7264004D6F646500536CF5
:1015C000617665006D6F646520202025207372634D
:1015D000004D756C7469706C6965720043616C00D4
:1015E000454550524F4D2076005472696D2D202B89
:1015F00000424700205B4D454E555D20544F20531F
:1016000054415254202000202020534554204D495D
:1016100044504F494E5420202000204D4F56452025
:10162000535449434B532F504F54532000416C7433
:101630003A00527820426174743A0052783A005469
:10164000783A004864673A005370643A0054656D14
:1016500070313A0054656D70323A0052504D3A0084
:101660004675656C3A00566F6C74733A004163635B
:10167000656C0054656C653A00525353493A004E0C
:101680004F204441544100544D3100544D320054D8
:1016900048520054482500544F5400746D72314C28
:1016A0006174206D617820202020757300746D7244
:1016B000314C6174206D696E202020207573007498
:1016C0006D7231204A697474657220202020757310
:1016D00000746D61696E206D6178202020202020CB
:1016E0006D73004672656520537461636B206D698C
:1016F0006E2020202062005B4D454E555D20746FAA
:101700002072657365740050504D00434800544D7D
:1017100052004D4F44454C00465000454550524FF5
:101720004D206C6F77206D656D00414C4552540023
:10173000507265737320616E79206B657920746FC8
:1017400020736B6970005468726F74746C65206EDE
:101750006F742069646C65005265736574207468E9
:10176000726F74746C6500416C61726D73204469B2
:101770007361626C65640053776974636865732094
:101780006E6F74206F666600506C656173652072C1
:1017900065736574207468656D004D45535341470A
:1017A0004500707265737320616E79204B65790016
:1017B00042616420454570726F6D20446174610020
:1017C000454550524F4D20466F726D617474696E7D
:1017D0006700454550524F4D206F766572666C6FBD
:1017E00077004D454E5553204F564552464C4F5766
:1017F00000524144494F20534554555000545241E2
:10180000494E45520056455253494F4E00444941B6
:101810004700414E410043414C4942524154494FD7
:101820004E004D4F44454C53454C00534554555084
:1018300000464C4947485420504841534500464CC7
:1018400049474854205048415345530048454C4966
:101850002053455455500044522F4558504F004C8A
:10186000494D495453004355525645530043555230
:10187000564500435553544F4D2053574954434800
:1018800045530046554E432053574954434845530A
:1018900000534146455459205357495443484553F2
:1018A0000054454D504C415445530053544154004D
:1018B0004445425547009C1432465A5A4632465ACD
:1018C000ECEC003C649CC4003C649C00000064534D
:1018D000696D706C6520342D434800542D43757438
:1018E00000562D5461696C00456C65766F6E5C44E2
:1018F000656C746100654343504D0048656C692018
:10190000536574757000536572766F2054657374F7
:10191000000011241FBECFEFD0E1DEBFCDBF11E02C
:10192000A0E0B1E0ECE4F6ED02C005900D92A63225
:10193000B107D9F71DE0A6E2B1E001C01D92A634BF
:10194000B107E1F70E9416260C94246B0C9400005A
:10195000E82F8823D9F087FF07C0863E1CF080E679
:101960008E1B0895E19504C08B3114F4805C0895BA
:10197000E5321CF48E2F8B5E0895E9323CF4FF278C
:10198000E7FDF095EE5FFA4F8491089580E20895A7
:101990009DE0899F9001112422503C4FC901089578
:1019A000282F30E0220F331F220F331F29503D4FC5
:1019B000C901089599E0899F9001112429573E4F4C
:1019C000C901089595E0899F9001112429553D4F43
:1019D000C90108959C0140E0683008F041E070E0E2
:1019E000442371F0CB010897FC0163E0EE0FFF1F69
:1019F0006A95E1F7E80FF91FDF01A95ABC4F0AC049
:101A0000FB01EE0FFF1FEE0FFF1FE60FF71FDF01B9
:101A1000A15DBC4FFD01808120503C4F37FD0EC0C1
:101A200068E02030360784F0442319F484E090E025
:101A300002C088E090E0A80FB91F8C91992787FD1C
:101A40009095582F442733C0442331F0432FB901D8
:101A50007070660F771F04C0432F4695B9017170EF
:101A6000842F90E0FD01E80FF91F8181992787FD00
:101A700090959B0135952795829FA001839F500DDE
:101A8000929F500D11242081332727FD309580E04F
:101A900092E0861B970B95958795BC01269FC00108
:101AA000279F900D369F900D1124480F591FCA0192
:101AB00069E170E00E94996ACB0108959C0163304E
:101AC00031F1643028F4613051F0623090F43CC060
:101AD000653039F1653008F1663061F525C049306F
:101AE00029F497FD24C0205032400AC097FF2CC033
:101AF00026C0493041F41816190624F120503E4FF3
:101B0000220F331F21C018161906CCF01DC097FFF5
:101B10001BC0309521953F4F17C01816190694F039
:101B20000EC097FF0CC003C0181619065CF020E029
:101B30003CEF0AC067500E94EA0C9C0105C020E0FF
:101B400030E002C020E034E0C90108956F927F9236
:101B50008F929F92AF92BF92CF92DF92EF92FF92BD
:101B60000F931F933B017C0100E010E0882499242F
:101B700064E670E080E090E06619770988099909C9
:101B8000A80197010E945A6A5B016C0182E390E010
:101B9000A0E0B0E0A80EB91ECA1EDB1EC801B70146
:101BA0000E945A6A0E945A6ABC0188279927A40198
:101BB00093010E945A6AE4E0969587957795679518
:101BC000EA95D1F7A60EB71EC81ED91EC601B501EB
:101BD00024E630E040E050E00E94AC6AC9011F9169
:101BE0000F91FF90EF90DF90CF90BF90AF909F90BC
:101BF0008F907F906F900895FF920F931F939C0199
:101C0000AB016115710531F1FF2497FF05C0FF2479
:101C1000F394309521953F4F57FF10C000E014E03A
:101C200066277727641B750BC801821B930B0E94E4
:101C3000A60D9801281B390BC90104C0C901BA01BE
:101C40000E94A60DFF2011F49C0104C02227332717
:101C5000281B390BC9011F910F91FF9008951F9305
:101C6000162F0E94C80CFC01A12FB0E0248133275D
:101C700027FD3095CD01880F991F02C03595279516
:101C80008A95E2F723703070AE0FBF1F8C919927B1
:101C900087FD9095880F991F880F991F280F391F6E
:101CA000C9011F910895FF920F931F93F82E162FCD
:101CB00000E0112391F0812F6F2D0E942F0E21E063
:101CC000853F920754F0282F255F211708F02F5FDA
:101CD0000F5F122F053069F710E0812F1F910F91D0
:101CE000FF900895EFE1F5E0E80FF11DE491F0E0D9
:101CF000EE0FFF1FE754F94F20813181C90108958C
:101D0000A9EBB6E0E9ECF6E060E0862F806487B9E5
:101D1000369A208931898D919C9111979695879556
:101D2000820F931F8E7F11969C938E9340815181D9
:101D3000240F351F36952795318B208B349BFECF92
:101D4000349A84B195B1840F951F969587958193A8
:101D500091936F5F12966830C1F60895E9EBF6E053
:101D600050E0852F806487B920E030E040E0369A6B
:101D7000349BFECF349A84B195B1280F391F4F5F41
:101D80004430A9F736952795219331935F5F5830FA
:101D900041F70895E9EBF6E020E0822F806487B9EF
:101DA000369A349BFECF349A84B195B1880F991F2F
:101DB000819391932F5F283081F708958EE587B93D
:101DC00085E28A95F1F7369A349BFECF349A84B136
:101DD00095B19093630480936204089580915C04AC
:101DE000882341F480916A04882321F480916C0453
:101DF000882311F084E105C080918706882321F0B3
:101E000081508093870608C08091630090E096958A
:101E10008795817080938806809188060895A82F01
:101E2000B0E0FD01ED58FB4F1082882329F480912A
:101E30007E0190917F0104C080918501909186017F
:101E4000FD01EE0FFF1FEB58FB4F91838083A758D6
:101E5000BB4F1C920895AF92BF92CF92DF92EF9248
:101E6000FF920F931F93CF93DF935B016C0100E010
:101E700010E8C0E0D0E8EE24FF249E0140E050E0EE
:101E8000CA01B9010E945A6AA616B706C806D90641
:101E900010F4C027D127169507950894E11CF11C72
:101EA00080E1E816F10461F4CE01DF91CF911F913A
:101EB0000F91FF90EF90DF90CF90BF90AF9008957B
:101EC000C02BD12BDACF1F920F920FB60F92112495
:101ED0008F93809186068F5F809386068F910F90F7
:101EE0000FBE0F901F9018954091860622B78091E3
:101EF00086064817C9F7942F80E030E0282B392B4D
:101F0000C90108951F920F920FB60F9211242F93BB
:101F10003F934F935F936F937F938F939F93AF9371
:101F2000BF93CF93DF93EF93FF93C0918000D09145
:101F3000810080917D008F7D80937D0078948091D9
:101F4000890690918A069E01281B390B36952795A4
:101F5000C901815A9F408F5D9E4220F481E08093A9
:101F600085062EC040918506842F8150883040F52B
:101F7000C901815293408757954000F5E42FF0E066
:101F8000EE0FFF1FED58F94F2C5D35408091700129
:101F9000992787FD90950A96BC01269FC001279F2F
:101FA000900D369F900D11246AE070E00E94996AAE
:101FB000718360834F5F4093850602C0109285064F
:101FC000D0938A06C0938906F89480917D00806240
:101FD00080937D00FF91EF91DF91CF91BF91AF9101
:101FE0009F918F917F916F915F914F913F912F9131
:101FF0000F900FBE0F901F901895E7E4FDE001C011
:10200000319680818535E1F39F0126543D40C90119
:102010000895EF92FF920F931F93062F7A010E946B
:10202000C80CDC0110E0FC01E00FF11FC701959521
:102030008795959587958083000F111F83E090E029
:10204000002E02C0880F991F0A94E2F7809514961B
:102050002C911497822393E0E922FF2402C0EE0C16
:10206000FF1C0A95E2F78E0D14968C9382E00E9475
:10207000D5571F910F91FF90EF90089578941F927C
:102080000F920FB60F9211242F933F934F935F93AC
:102090006F937F938F939F93AF93BF93EF93FF9330
:1020A000F89487B78D7F87BF809106018F5F8093FB
:1020B0000601815090E083709070892B11F49DE9A6
:1020C00001C09CE981B7980F91BF789490915C040E
:1020D000992369F080916B04882329F490936B0411
:1020E00081E080936C04915090935C0421C0309106
:1020F0006A043323B9F020916B04222399F090E015
:1021000080916C04882309F491E090936C049923E6
:1021100009F428E020935C04992351F03150309366
:102120006A0406C010926B0410926C04109255045D
:1021300080916C04882381F080915504882311F4E8
:1021400090E004C090918B0681E0982790938B06D5
:10215000992311F41B9A01C01B980E94B0668091CC
:102160005604826080935604F89487B7826087BFD4
:102170007894FF91EF91BF91AF919F918F917F9153
:102180006F915F914F913F912F910F900FBE0F90E4
:102190001F9018950F931F938C010E94216582E276
:1021A00060E04AE957E124E00E94D75F80E068E1FF
:1021B000A8010E9412600E949563809154010E94C0
:1021C0008B631F910F91089586B380958E77E1F709
:1021D0000E9479650895EF92FF920F931F938C01EF
:1021E0007B010E94216582E260E04AE257E124E03F
:1021F0000E94D75F80E060E2A8010E94126080E048
:1022000068E2A7010E94126080E060E340E357E1CA
:102210000E9412600E949563809154010E948B631A
:102220000E94E4101F910F91FF90EF900895EF929C
:10223000FF920F931F93CF93DF93E82E882349F4E7
:102240008091580490915904492F441F4427441FFA
:1022500090C1992787FD909597FF03C09095819530
:102260009F4F863109F480C18A3030F490E00D969A
:102270000E941866482F79C18A50282F30E08901C2
:10228000000F111F020F131F01561C4FD801129689
:102290008C91882311F440E06CC1F8018281853073
:1022A00010F420E007C0D80112968C91883008F411
:1022B00068C122E0D801EC91E150E73008F449C050
:1022C00052C080915A0490915B0440E08C239D237E
:1022D000892B89F127C080915804909159048C2B47
:1022E0009D2B9093590480935804F80180810E949B
:1022F0001711F82ED80111968C910E941711982F62
:10230000F8018281853019F0863049F403C0FF203E
:1023100089F002C0FF2031F4992321F40BC040E082
:10232000F91649F041E080915A0490915B048C2B9E
:102330009D2B0AC040E020915A0430915B04CE01ED
:10234000809590958223932390935B0480935A0405
:102350000CC1809157048823D1F5F0E0EE0FFF1FE8
:10236000EE57F84F31C0E93018F460E074E031C046
:10237000E03178F4F0E0EE0FFF1FDF01A05CBE4F0C
:10238000E35AF94F608171818D919C91681B790BA3
:1023900009C0E43150F4F0E0EE0FFF1FE35AF94FAB
:1023A00060817181660F771F14C0E43230F4F0E071
:1023B000EE0FFF1FE859F84F07C0E63240F4F0E097
:1023C000EE0FFF1FE35DFB4F6081718102C060E093
:1023D00070E0222309F051C0D8018C91853244F07D
:1023E00011968C91992787FD90958E599F4F18C013
:1023F000F801918189E29802900111243595279581
:102400003595279597FD915C96FB990F990B90F95F
:10241000892F992787FD9095A901481B590BCA015F
:10242000D80112962C91223051F0233071F02130D6
:10243000C1F440E0861797070CF097C095C040E0C4
:10244000681779070CF091C08FC040E0FB0177FF5F
:1024500003C0F095E195FF4F8E179F070CF085C0E4
:1024600083C040E0FB0177FF03C0F095E195FF4F8B
:10247000E817F9070CF079C077C0D8011196EC91F4
:10248000E150E73050F4809157048823E9F5F0E0FB
:10249000EE0FFF1FEE57F84F33C0E93018F4E0E0BD
:1024A000F4E034C0E03180F4F0E0EE0FFF1FDF0114
:1024B000A05CBE4FE35AF94F0190F081E02D8D9161
:1024C0009C91E81BF90B0AC0E43158F4F0E0EE0FE0
:1024D000FF1FE35AF94F0190F081E02DEE0FFF1F2F
:1024E00015C0E43230F4F0E0EE0FFF1FE859F84F6A
:1024F00007C0E63248F4F0E0EE0FFF1FE35DFB4F4C
:102500000190F081E02D02C0E0E0F0E0D8011296E9
:102510008C91893089F08A3018F4883009F507C029
:102520008A3079F08B3091F08C30D1F414C040E0D7
:102530006E177F07D1F418C040E06E177F07A1F433
:1025400014C040E0E617F70784F40EC040E06E17B1
:102550007F075CF409C040E06E177F0734F004C0C9
:1025600040E0E617F7070CF041E01E1414F081E09C
:102570004827842FDF91CF911F910F91FF90EF900B
:102580000895C1E0D0E002C0CC0FDD1F2A95E2F72C
:1025900080915804909159048C239D23892B09F034
:1025A00090CE99CE362F37953327379520E030934C
:1025B0005904209358040E9417110895EF92FF9236
:1025C0000F931F93CF93DF93C3EED3E051E0E52E3B
:1025D000F12C2881222309F189818823F1F090E0F0
:1025E0000197870102C0000F111F8A95E2F7822F21
:1025F00060E00E94D2122091730630917406882305
:1026000019F0202B312B05C0C80180959095282307
:1026100039233093740620937306229683E0CB3FD0
:10262000D807B9F6DF91CF911F910F91FF90EF90EE
:102630000895FF920F931F938C01F62E0E9421653F
:1026400082E260E04AE257E124E00E94D75F80E046
:1026500060E2A8010E94126089E168E342EA57E162
:102660000E9412600E949563FF2011F089E102C070
:10267000809154010E948B638091610480935C047B
:102680000E94E41086B380958E7791F48091570173
:1026900060E00E94D212882331F480916E01882379
:1026A00011F4FF2019F0C79AA895ECCFC798FCCF7A
:1026B0001F910F91FF9008958091690187FD07C0D8
:1026C000887329F487E697E160E00E941913089562
:1026D0008091690186FD0AC00E94E359883C9105FA
:1026E00028F48BE197E160E00E94191308950F939D
:1026F0001F9380916901867099F187E797E168E8F7
:1027000077E10E94EB1000E08091690186708230D1
:1027100009F401E01EE00AC0113139F0812F8D501B
:1027200060E00E94D212801729F41F5F1631A0F3D7
:102730001631B1F086B380958E7791F406C0809102
:102740006E01882351F0C79A09C08091570160E05B
:102750000E94D2128823B9F7F2CFC7981EE0DECFCD
:102760001F910F9108950F931F93CF93DF93809143
:10277000690180FD43C080916A0190E08170907092
:1027800002E010E0081B190BF801EE0FFF1FEA5DD5
:10279000FE4FC181D281609687859089C81BD90B75
:1027A0000E94CA0E102F802F0E94720EC817D907E0
:1027B0002CF586E497E168E577E10E94EB100E9432
:1027C000CA0E812F0E94720EC817D90724F486B34F
:1027D00080958E7749F00E94E41010C080916E01C0
:1027E000882351F0C79AEBCF8091570160E00E9497
:1027F000D2128823B9F7F2CFC798E1CFDF91CF91FA
:102800001F910F910895AF92BF92CF92DF92EF92F6
:10281000FF920F93CF93DF9380916C0184FD6EC084
:102820008091570160E00E94D212882329F48091A0
:102830006E01882309F456C0C79A0E94216580E082
:1028400060E040E950E020E000E00E94AF5E0E94BE
:102850009563809154010E948B630E94E4100E9452
:10286000800E0F5F0032D9F7AA24BB2400E0802F2E
:102870000E94720EC92FD0E0AC0EBD1E0F5F043057
:10288000B1F7F894C090420DD090430D789480E950
:1028900091E0C80ED91E1CC00E94800EC0E0D0E09E
:1028A00000E0802F0E94720EE92EFF24CE0DDF1D66
:1028B0000F5F0430B1F786B380958E77F9F4CA15AF
:1028C000DB05E1F411C080916E018823A9F0C79A5D
:1028D000F8948091420D9091430D7894C816D906D2
:1028E000D9F60CC0C798A9CF8091570160E00E942B
:1028F000D212882361F7E7CFC798EACFDF91CF9153
:102900000F91FF90EF90DF90CF90BF90AF90089520
:102910001F93CF93DF93C0E1D4E011E08881882337
:1029200051F060E00E94D212882329F0812FDF91BC
:10293000CF911F9108951F5F2D96153079F710E004
:10294000F5CFDF92EF92FF920F931F93E82E082F9F
:102950000F700650109181011770083008F0B2C056
:10296000E02FE595FF27E7FDF09580916A0190E063
:10297000880F991F880F991FE80FF91FEA50FB4F26
:10298000F490FA940E948814682F8F2D0E94530EA1
:10299000D82E6F2D0E942F0EBC01112389F477FFD2
:1029A00004C088279927861B970B95958795959541
:1029B000879501968132910584F080E290E00DC008
:1029C000212F332727FD30952150304081E090E0C2
:1029D00002C0880F991F2A95E2F7982F22E0F2167D
:1029E00039F48091800183FF03C094E081E001C04D
:1029F00080E0492F552747FD509500FF06C0460F40
:102A0000571F10E023E83FEF05C09B01241B350B47
:102A1000A901F7CF2115310519F4882329F015C034
:102A20009FEF2338390749F0421753071CF062170C
:102A300073074CF02D37310541F0241735072CF082
:102A40002617370714F4A90111E023583F4F2A3FF6
:102A5000310501F76417750724F44E37510544F426
:102A60000CC0461757074CF42FEF433852072CF48D
:102A70008091810186FFAB0111E03EEF4C3053079E
:102A80001CF44CE05EEF06C081E0453F580714F0AF
:102A900044EF51E08D2D6F2D0E940910112341F05C
:102AA0008E2D0E949F661092550480915F0407C08E
:102AB000E6FE03C081E08093550480915E0480931C
:102AC0005C04EE248E2D1F910F91FF90EF90DF900C
:102AD0000895AF92BF92CF92DF92EF92FF920F9341
:102AE0001F93CF93DF935C01A9EEB6E0FC0198E061
:102AF00001900D929150E1F76F3F19F40E948814F4
:102B0000682F1AEFC12E12E0D12E0FEFC0E0D0E0F7
:102B1000E62EFF240894E11CF11CFE01EE0FFF1FBE
:102B2000EE0FFF1FE950FD4F2081822F837009F4C3
:102B3000A2C026952695237030E0802F992787FD27
:102B400090952817390709F48DC08181807E99F00E
:102B5000828180FD10C0FE01EE0FFF1FEE0FFF1FF0
:102B6000E850FD4F808182958695877090E0E81649
:102B7000F90609F077C0FE01EE0FFF1FEE0FFF1FF1
:102B8000E850FD4F8081880F880F880F85958595C7
:102B9000859561E00E94D212882309F463C0FE018A
:102BA000EE0FFF1FEE0FFF1FE950FD4F8081182F22
:102BB000169516951370E12FF0E0EE0FFF1FE75109
:102BC000F94F0190F081E02D8370F7FF03C080FD85
:102BD00003C048C081FF46C0012FD6016C91772702
:102BE00067FD7095CF010E94FC0D9C01FE01EE0F68
:102BF000FF1FEE0FFF1FE950FD4FE0818E2F807FFA
:102C000069F06E2F62956F70862F90E00B970CF035
:102C10006C5FC90140E00E945E0D9C01B9018827EC
:102C200077FD8095982FFE01EE0FFF1FEE0FFF1F1F
:102C3000E750FD4F2081269530E040E050E00E94B3
:102C40005A6A24E630E040E050E00E94CE6AE12F6C
:102C5000FF27E7FDF095EE0FFF1FEA0DFB1DC901F1
:102C600020839183219684E090E0C80ED91ECE3057
:102C7000D10509F052CFDF91CF911F910F91FF90B5
:102C8000EF90DF90CF90BF90AF9008952F923F923A
:102C90004F925F926F927F928F929F92AF92BF926C
:102CA000CF92DF92EF92FF920F931F93CF93DF9318
:102CB000282E9090FD03992009F467C080916A0145
:102CC00090E0FC01E170F0703196EE0FFF1FEE57BF
:102CD000F84F0190F081E02D9C012270307081FD51
:102CE00003C0A3E0B0E002C0A0E0B0E0AA0FBB1FA9
:102CF000AE57B84FCD91DC91232B19F4A3E0B0E08F
:102D000002C0A0E0B0E07F010027F7FC0095102F83
:102D1000AA0FBB1FAE57B84F6D917C91882777FDE6
:102D20008095982F9E01442737FD4095542F0E948F
:102D30005A6A5B016C01C801B701A80197010E94A2
:102D40005A6AA60EB71EC81ED91E692D70E080E013
:102D500090E02AE0660F771F881F991F2A95D1F708
:102D600024E630E040E050E00E94CE6AB901CA019A
:102D70000E945A6A6A157B058C059D0530F4C601D0
:102D8000B5010E942B0F4C0102C088249924B40184
:102D900080E090E024E630E040E050E00E945A6A93
:102DA0002B013C0107E2E02E01E0F02E3324AA249F
:102DB000BB248A2D843010F01A2D0DC0E0916A01D9
:102DC000F0E0EE0FFF1FEE0FFF1FEA0DFB1DEA50B4
:102DD000FB4F149111500E94720E9C01D7018D91EE
:102DE0009C911197281B390B121613062CF45C9634
:102DF000ED91FC915D9705C0D7011E96ED91FC9178
:102E00001F97E436F10514F4E4E6F0E0B9018827F1
:102E100077FD8095982FBAE0660F771F881F991F5E
:102E2000BA95D1F79F01442737FD4095542F0E9452
:102E3000CE6AE901BCEF21303B071CF4C0E0DCEFB7
:102E400006C0E4E020303E0714F0C0E0D4E08091FA
:102E50006C0180FF05C0123019F4D095C195DF4F89
:102E6000C12EDD24F601EE0FFF1FEE57F84FD18380
:102E7000C083CE010F964F9748F481E090E0012E79
:102E800002C0880F991F0A94E2F7382A143008F01C
:102E90007BC080915704882309F057C01E5F812FA3
:102EA00090E01250019721E030E002C0220F331F62
:102EB0008A95E2F7C901816020917306309174060A
:102EC00082239323892B09F440C0F601EE0FFF1FE4
:102ED000E05AFE4F0081802F807CB9F1E02FEF7324
:102EE000F0E0EE0FFF1FDF01A85ABE4FEB58F94F7D
:102EF000608171812D913C91621B730B882777FD56
:102F00008095982FF601EE0FFF1FEA5DFE4F23AD6F
:102F1000332727FD3095432F532F0E945A6A22E30F
:102F200030E040E050E00E94CE6A0295069506959A
:102F30000370E02FF0E0E130F10519F0329729F449
:102F400003C0C20FD31F01C0E90181149104E1F055
:102F5000113011F01330C1F46091FD0370E080E096
:102F600090E03AE0660F771F881F991F3A95D1F7D6
:102F70009E01442737FD4095542F0E945A6AA301B1
:102F800092010E94CE6AE901CC0CDD1C87EF94E02F
:102F9000C80ED91ED601CD93DC930894A11CB11C98
:102FA000E2E0F0E0EE0EFF1EF7E0AF16B10409F02C
:102FB00000CF622D0E946915EE2400E010E0A12CE4
:102FC00094E0B92EF801E950FB4FC080D1808E2DDE
:102FD000622D0E94530E6E2D0E942F0EEC0122E0F6
:102FE000E21671F58091800183FF2AC080916C0107
:102FF00080FF03C0D095C195DF4FBE01882777FDC4
:103000008095982F63587F4F8F4F9F4F95012C19B4
:103010003D09442737FD4095542F0E945A6A20E00D
:1030200038E040E050E00E94CE6AB901CA01603049
:1030300038E0730730E0830730E0930749F406C0B7
:1030400080917B04882311F0C0E0D0E09E0101C094
:103050009B01220F331FF801ED5BFA4F3183208370
:10306000E3940E5F1F4F84E0E81609F0ABCF832D89
:10307000DF91CF911F910F91FF90EF90DF90CF9054
:10308000BF90AF909F908F907F906F905F904F9088
:103090003F902F9008958F929F92AF92BF92CF92C0
:1030A000DF92EF92FF920F931F93CF93DF930E94D3
:1030B0008814C82E77EFE72E74E0F72E03E415E0AE
:1030C000C0E0D0E062E0862E912CAA24A394BC2E0E
:1030D00080916A0190E0817090709401281B390BF7
:1030E0002C173D0751F18C2F6C2D0E94530ED82EBA
:1030F000A09257048C2D0E94461610925704F80196
:1031000080819181F70120813181820F931F62E0DC
:1031100070E00E94996AAB01FEEF6C307F071CF4EF
:103120004CE05EEF06C021E0653F720714F044EF0B
:1031300051E08D2D6B2D0E940910219682E090E0C8
:10314000E80EF91E0E5F1F4FC430D10509F0BFCF46
:1031500082E00E94D55780915E0480935C04DF91E9
:10316000CF911F910F91FF90EF90DF90CF90BF9084
:10317000AF909F908F9008952F923F924F925F92C1
:103180006F927F928F929F92AF92BF92CF92DF9277
:10319000EF92FF920F931F93DF93CF93CDB7DEB7DC
:1031A00027970FB6F894DEBF0FBECDBF9D838C83EB
:1031B000362E862F0E944616409183014823242FE5
:1031C00030E08091910590E082279327822393231A
:1031D000892B21F080915E0480935C0440939105DB
:1031E00080E094E090930605809305059093080590
:1031F000809307059090FD03992009F4C1C0809148
:103200006A0190E0FC01E170F0703196EE0FFF1F53
:10321000E950FB4F0190F081E02D9C01227030704D
:1032200081FD03C0A3E0B0E002C0A0E0B0E0AA0FBF
:10323000BB1FA950BB4FCD90DC90232B19F4A3E00A
:10324000B0E002C0A0E0B0E07F010027F7FC0095ED
:10325000102FAA0FBB1FA950BB4F6D917C918827DF
:1032600077FD8095982F9601442737FD4095542F80
:103270000E945A6A5B016C01C801B701A80197015D
:103280000E945A6AA60EB71EC81ED91E692D70E08C
:1032900080E090E0AAE0660F771F881F991FAA952B
:1032A000D1F724E630E040E050E00E94CE6AB90158
:1032B000CA010E945A6A6A157B058C059D0508F0B3
:1032C0005FC0C601B5010E942B0FE0906A01FF2488
:1032D0008701017010700F5F1F4F2091FD03A22E18
:1032E000BB24CC24DD24FAE0AA0CBB1CCC1CDD1CC6
:1032F000FA95D1F7A0E0B0E0BC01CD0124E630E0C2
:1033000040E050E00E945A6A3B014C01000F111F3F
:1033100009501B4FD8012D913C91442737FD409512
:10332000542FC601B5010E945A6AA40193010E945C
:10333000CE6AF80131832083E1FC05C0E3E0F0E0D0
:1033400003E010E004C0E0E0F0E000E010E0000F77
:10335000111F09501B4FEE0FFF1FE950FB4F20813B
:103360003181442737FD4095542FC601B5010E9495
:103370005A6AA40193010E94CE6AD8012D933C930E
:103380004091FB03842F887F09F4EDC020916A01EE
:1033900030E0F901E170F0703196EE0FFF1FDF01B0
:1033A000A950BB4FED5BFA4FE080F1808D919C916D
:1033B000E80EF91EC9018270907021FD03C0E3E0A0
:1033C000F0E002C0E0E0F0E0EE0FFF1FE950FB4F3D
:1033D00020813181892B19F4E3E0F0E002C0E0E0C4
:1033E000F0E0EE0FFF1FED5BFA4FC080D180C20E00
:1033F000D31EE091FC03EE2319F400E010E007C0B7
:10340000F0E0EE0FFF1FEB50FB4F0081118140FFFA
:1034100004C0F094E194F108F39441FF04C0D09407
:10342000C194D108D39442FF03C0109501951F4F5A
:103430008091FB0386958695869590E08230910574
:1034400089F18330910524F4019709F08CC008C0FC
:103450008330910509F45BC0049709F084C06FC004
:10346000C60160E072E00E94996AFB01C60168E053
:1034700070E00E94996A9B01C60160E870E00E94BA
:10348000996AA601421B530B9A01261B370B2E1B70
:103490003F0BC8018E199F0990930A058093090577
:1034A000C70121C0C70160E072E00E94996AFB0178
:1034B000C70168E070E00E94996A9B01C70160E85B
:1034C00070E00E94996AC701821B930B9C01261B26
:1034D000370B2E1B3F0BC8018C199D0990930A05D1
:1034E00080930905C60162E070E00E94996A600F4E
:1034F000711FCB01820F931F90930C0580930B05D6
:10350000621B730B70930E0560930D052CC0C801F0
:103510008E199F0990930A0580930905C8018E0DA5
:103520009F1D9C012C0D3D1D30930C0520930B0518
:103530008C199D0990930E0580930D0514C0C80148
:103540008E199F0990930A0580930905C8018C0D77
:103550009D1D90930C0580930B050C191D0910936C
:103560000E0500930D0580915704882379F1809111
:103570006A0190E08170907022E030E0281B390BE6
:103580001092F8041092F7042130310521F01092C6
:10359000FA041092F9042230310521F01092FC0453
:1035A0001092FB041092FE041092FD04EFE0F5E08F
:1035B0001192119295E0EF31F907D1F7ABE4B5E044
:1035C000BA83A9832FE135E0FD0146C06FE075E0C5
:1035D00040E050E0FA01EB58F94FDA01AA5DBE4F26
:1035E00080819181D2962D913C91D397821B930B30
:1035F000880F991FFB0181939193BF014E5F5F4F2D
:103600004830510539F780917D0690917E06880FEC
:10361000991F909318058093170580917F069091CC
:103620008006880F991F90931A0580931905809141
:10363000810690918206880F991F90931C058093B4
:103640001B058091830690918406880F991F9093A3
:103650001E0580931D05B2CF80819181D9018D9384
:103660009D939D013496B5E0E339FB07A9F780E40B
:10367000EBE4F5E0DF011D928A95E9F710927206FE
:10368000E2E54E2EE6E05E2E72ED872E75E0972E77
:1036900062E9662E65E0762E1B82232C3324089483
:1036A000211C311C8B810E94DA0C6C01FC01808191
:1036B0008F7159F457EA652E52E0752E43EC242E93
:1036C00043E0342E44245524A4C290E0419794F75B
:1036D000D60117969C91892F807FC1F0892F8595FF
:1036E000859585958595282F332727FD30951816C4
:1036F0002CF42216330609F07AC208C088279927CD
:10370000821B930B2816390609F471C2F6018381D6
:1037100061E00E94D212D2019C918823C1F4492F0A
:103720001C92F6019181892F8850823008F05FC287
:1037300087818E70843009F45AC2993019F01F8243
:103740001E8240C020E03CEF3F832E833BC040E020
:10375000992309F441E081E0D2018C93F601818143
:103760008150A82FB0E0FD01EE0FFF1FE950FB4F85
:10377000208131813F832E83843168F03B81831720
:1037800050F4AA0FBB1FAA0FBB1FA55BBA4F8D91A8
:103790009C919F838E83D6019C91892F807E91F08E
:1037A000929596959770892F90E00197E1E0F0E06F
:1037B00002C0EE0FFF1F8A95E2F7209172062E2BB2
:1037C00020937206D60118968C918823C9F0B9E22D
:1037D0008B0290011124359527953595279587FD06
:1037E000815C86FB880F880B80F9992787FD90956F
:1037F000281B390BEE81FF81E20FF31FFF83EE835D
:10380000D60116968C911697882329F415968C91DB
:10381000882309F46CC1F4016081718182819381F4
:10382000442391F420E031E040E050E00E94CE6A71
:1038300050954095309521953F4F4F4F5F4FAE804B
:10384000BF80A20EB31E5FC0D60117968C9117974A
:103850008E70843049F5EC91EF71F0E0EE0FFF1FB0
:10386000E35EFA4F60817181882777FD8095982FFC
:1038700020E034E640E050E00E945A6AF4016083A0
:10388000718382839383D60112962C91222361F057
:10389000332727FD3095432F532F0E94CE6AF40122
:1038A0002083318342835383D4016D917D918D9127
:1038B0009C9120E031E040E050E00E94CE6A5095BB
:1038C0004095309521953F4F4F4F5F4FAE80BF8061
:1038D000A20EB31EA114B104B1F0F6018581B7FEAA
:1038E00002C08F7002C082958F7090E09C0144E608
:1038F00050E0249FC001259F900D349F900D11240E
:10390000D3018D939C93F3012081318121153105E1
:1039100099F080916704882321F021503040318351
:103920002083D3018D919C91892B31F0F40160812A
:10393000718182819381C2C0A114B10409F4D7C0FE
:10394000D60116968C911697882309F4C0C08091F1
:103950006704882309F477C012962C91222329F456
:1039600060E070E080E293E017C0332727FD3095D8
:1039700037FF03C0309521953F4F332727FD309502
:10398000432F532F60E070E080E293E00E94CE6A04
:10399000C901DA01BC01CD01F60126811A141B040C
:1039A0000CF52F70422F50E041155105D9F1A4E6D6
:1039B000B0E04A9F90014B9F300D5A9F300D11246B
:1039C000442737FD4095542F0E94CE6A79018A0121
:1039D000F40180819181A281B381E80EF91E0A1F52
:1039E0001B1F2BC022952F70422F50E0411551050F
:1039F000C9F0A4E6B0E04A9F90014B9F300D5A9F5A
:103A0000300D1124442737FD4095542F0E94CE6A73
:103A1000F401E080F18002811381E21AF30A040BC1
:103A2000150B0BC02E813F81C901AA2797FDA095D8
:103A3000BA2FEE24F82E092F1A2FD401ED92FD9201
:103A40000D931C931397F40160817181828193819E
:103A50002E813F8179010027F7FC0095102F1A1461
:103A60001B0464F420E031E040E050E00E94CE6AA4
:103A7000E216F3060407150764F01BC020E031E0EE
:103A800040E050E00E94CE6A2E153F0540075107E6
:103A900084F44E815F81CA01AA2797FDA095BA2FB1
:103AA000BA2FA92F982F8827F40180839183A283AE
:103AB000B383D4016D917D918D919C9120E031E093
:103AC00040E050E00E94CE6A3F832E8310C0EE811A
:103AD000FF81CF01AA2797FDA095BA2FBA2FA92F52
:103AE000982F8827F40180839183A283B383D60122
:103AF00014966C911497662341F08E819F811196E4
:103B00004C910E945E0D9F838E83F601878180FD1C
:103B100012C0E181EE2379F0E53068F4F0E0EE0FB9
:103B2000FF1FEF5BFA4F808191812E813F81280F2B
:103B3000391F3F832E834E815F81BA01882777FD2D
:103B40008095982FD60112962C91332727FD30951A
:103B5000432F532F0E945A6A9B01AC01F6018081CA
:103B60008F71082F10E00150104087818695877073
:103B700090E08130910551F0F801EE0FFF1FEE0F3C
:103B8000FF1F029731F5E55BFA4F1EC0CA01B9016C
:103B900024E630E040E050E00E94CE6AB901CA015C
:103BA000000F111F000F111F055B1A4FD8012D9137
:103BB0003D914D915C910E945A6A20E034E040E0D2
:103BC00050E00E94CE6AF801208331834283538300
:103BD0000EC0E55BFA4F80819181A281B381820F93
:103BE000931FA41FB51F80839183A283B383FB819E
:103BF000FF5FFB830894411C511C24E030E0820EDF
:103C0000931E42E050E0640E751EF03209F04ACD7A
:103C100051CDA981BA81AD90BD90CD90DC90C60107
:103C2000B50124E630E040E050E00E94CE6AE98130
:103C3000FA812083318342835383F201E057F84FA6
:103C4000C90120839183D30113962D913C91149740
:103C500011968C911197FAE08F02F0011124E8512E
:103C6000FC4FFF83EE838C914AE0840240011124D3
:103C700088E19CEF880E991ECF015E2F492F2E17E9
:103C80003F071CF4C901522F492F852F942F8C0117
:103C9000081519050CF48401A114B104C104D10460
:103CA00079F19801442737FD4095542F1A141B04CD
:103CB0001C041D0464F4AE81BF81BD01882777FD1B
:103CC0008095982F621B730B840B950B0BC0C4015E
:103CD000AA2797FDA095BA2F281B390B4A0B5B0B1F
:103CE000CA01B901A60195010E945A6A20EA36E884
:103CF00041E050E00E94CE6AC901DA015C016D0129
:103D0000C80125E0959587952A95E1F7800F911FC9
:103D10009801232F330F330B2595820F931F000F2C
:103D2000012F001F110B801B910B7C010027F7FC5A
:103D30000095102F8E819F81F5E095958795FA95D6
:103D4000E1F7EE81FF818E0F9F1F9401E5E035952D
:103D50002795EA95E1F7F401EE0FEF2FEE1FFF0B29
:103D6000280D391D4E815F81440F452F441F550B8F
:103D7000841B950B5595479555954795840F951F31
:103D8000AC01662757FD6095762FEA0CFB1C0C1DD5
:103D90001D1D4E155F056007710714F47A018B0134
:103DA0002E1B3F0BF595E795F595E7952E0F3F1FD9
:103DB000C901AA2797FDA095BA2FE816F9060A07A8
:103DC0001B0714F47C018D01D30112968C9188237A
:103DD00041F010950095F094E094E11CF11C011D58
:103DE000111DF1018081882301F160E00E94D2124F
:103DF0008823D9F0D10111968C91B9E28B02900100
:103E00001124359527953595279587FD815C86FB8F
:103E1000880F880B80F9992787FD9095281B390B0F
:103E200079010027F7FC0095102FEC81FD81E40D4E
:103E3000F51DF182E082E981FA813496FA83E98303
:103E400022E030E0420E531E45E050E0640E751E45
:103E5000220E331EEB58F54009F0DBCE27960FB645
:103E6000F894DEBF0FBECDBFCF91DF911F910F91B0
:103E7000FF90EF90DF90CF90BF90AF909F908F908A
:103E80007F906F905F904F903F902F900895CF92CA
:103E9000DF92EF92FF920F931F93DF93CF93CDB7F3
:103EA000DEB7A0970FB6F894DEBF0FBECDBF81E09E
:103EB000809357040E948814682F8E010F5F1F4F54
:103EC000C8010E94BC1810925704F801AAEAB2E097
:103ED0009E012F5D3F4F808191814CEF8831940787
:103EE0001CF488E19CEF06C043E0883E940714F080
:103EF00088EE93E011969C938E9332961596E21776
:103F0000F30749F700E010E032E0C32ED12CE02E99
:103F100080916A0190E0817090709601281B390BA6
:103F20002017310791F0FF248F2D6E2D0E942F0E48
:103F3000855F914034F48F2D6E2D40E050E00E945B
:103F40000910F39445E0F41679F70F5F1F4F043022
:103F50001105E9F682E00E94D55780915E048093B6
:103F60005C04A0960FB6F894DEBF0FBECDBFCF9114
:103F7000DF911F910F91FF90EF90DF90CF90089508
:103F80002F923F924F925F926F927F928F929F9269
:103F9000AF92BF92CF92DF92EF92FF920F931F9357
:103FA000DF93CF93CDB7DEB7C756D0400FB6F894A6
:103FB000DEBF0FBECDBFF8942091420D3091430D6E
:103FC000A4963FAF2EAFA497789420E08091B706D7
:103FD0009091B806A4964EAD5FADA49748175907C7
:103FE00009F021E020936704A4966EAD7FADA497FD
:103FF0007093B8066093B7060E948814A2968FAF9C
:10400000A29740910701481709F475C0282F30E0A6
:104010004F3F51F4220F331F2355394F8FEF9FEF3E
:10402000D9018D939C9362C0A42FB0E08DE090E005
:10403000A89FF001A99FF00DB89FF00D1124E65F35
:10404000FB4F608162956F70289FF001299FF00DF2
:10405000389FF00D1124E65FFB4FE081EF70E6170B
:1040600018F0EE23F9F06E2F81E090E0FC0102C021
:10407000EE0FFF1F2A95E2F79F0102C0880F991FDC
:10408000AA95E2F7280F8091AA06822B8093AA06B0
:104090008FE892E070E00E94856A7093AC066093AE
:1040A000AB0624C0AA0FBB1FA355B94F1D921C928B
:1040B000F901EE0FFF1FE355F94F8FEF9FEF91834B
:1040C000808381E090E0BC0102C0660F771F2A95D3
:1040D000E2F79B0102C0880F991F4A95E2F7280F6B
:1040E00020958091AA0682238093AA06A2967FAD8E
:1040F000A297709307018091AA06882309F493C0C0
:10410000FE01B19680E4DF011D928A95E9F7ADEAE0
:104110002A2EA6E03A2E662477244301EE24FF24BB
:10412000A596EFAFA597A696FFAFA697FE01EF590C
:10413000FF4FA896FFAFEEAFA8978091AA0690E038
:104140000E2C02C0959587950A94E2F780FF41C036
:10415000CE0101966E2D0E94BC18CE0101966E2DE7
:104160000E94BC18D1018D919C915C01CC24DD246E
:10417000A5968FADA597A6969FADA6978C012E010B
:104180000894411C511CF201219131912F014427C7
:1041900037FD4095542FC601B5010E945A6AD801D7
:1041A0002D913D914D915C91260F371F481F591F4E
:1041B000F80121933193419351938F01A8962EAD2D
:1041C0003FADA897E217F307F1F66A0C7B1C8C1C35
:1041D0009D1C0894E11CF11C42E050E0240E351EA9
:1041E00055E0E516F10409F0A8CF8E010F5D1F4FD1
:1041F0007E010894E11CF11CE1E6CE2ED12CCC0E00
:10420000DD1ED8016D917D918D919D918D01A4014F
:1042100093010E94CE6AF701219331937F010C151F
:104220001D0579F707C0CE010196A2966FADA29742
:104230000E94BC1820E030E0AE014F5F5F4FF89461
:10424000F901EC54F84FDA01A20FB31F8D919C9144
:104250009183808378942E5F3F4F2032310579F728
:104260008091170D882381F480914308882329F0D9
:104270008BE398E00E94F05A07C080914E08882393
:1042800019F080E00E94DB5780916704882309F4CD
:10429000B3C480914F04882379F4409186075091EC
:1042A000870780916C0180FF05C020E034E0241B6B
:1042B000350B15C09A010AC0E82FF0E0843048F0B1
:1042C000EE0FFF1FE455F84F2081318120503C4F05
:1042D00006C0EE0FFF1FE857F84F208131814901DA
:1042E00056E0969487945A95E1F76091A5066F5F22
:1042F0006093A5064091A3065091A406480D591D50
:104300005093A4064093A3062091A8063091A906D5
:10431000A4968EAD9FADA497821B930B8436910516
:1043200008F487C02C593F4F3093A9062093A80664
:1043300080916D0490916E04019690936E04809329
:104340006D04CA0170E00E94856A4B019B0136959D
:1043500027958091710490917204820F931F90931E
:104360007204809371046115710549F080916F04A6
:104370009091700401969093700480936F048091E3
:10438000A5066091A1067091A206680F711D709339
:10439000A2066093A10640919F065091A0068091CD
:1043A000A3069091A406480F591F5093A00640936E
:1043B0009F061092A5061092A4061092A3062091C3
:1043C000A6063091A706A4968EAD9FADA497821B3A
:1043D000930B885E934068F128513C4F3093A706B9
:1043E0002093A606CA010E94856A4B011092A0067E
:1043F00010929F061092A2061092A1068091F404DA
:104400009091F504FC01E458FB4F60830196909372
:10441000F5048093F4048837910520F01092F50498
:104420001092F4048091F60487FD03C08F5F80939F
:10443000F604552432E0232E4424439424E0322E03
:10444000552039F4F0907D01A0907E01B0907F015D
:104450000AC021E0521609F063C1F0908401A090D7
:104460008501B0908601FF2009F458C1052D10E0A8
:10447000F801ED58FB4F8081882391F44082F801C8
:10448000EE0FFF1FDF01A457B94F1D921C92DF01F1
:10449000A057B94F1D921C92EC56F94F1182108211
:1044A000F7FC02C0EF2C02C0E32CEF1833E0E31658
:1044B000A9F4F801EE0FFF1FDF01A457B94F8D914A
:1044C0009C91119701968D939C93E057F94F8081B1
:1044D0009181880D991D9183808348C049E14E15D3
:1044E00008F044C0F801EE0FFF1FDF01A057B94FDD
:1044F000E457F94F208131818D919C91282B392BE4
:10450000F801E856F94F808190E0282B392BF8010B
:10451000E656F94F808190E0282B392B232B31F47C
:10452000FF208F2D880F880B842180831F141CF49B
:104530008F2D895102C08F2D875E60E00E94D212BC
:10454000282F882379F0F801E656F94F80818823D7
:1045500049F4F801E856F94F90E08081882309F486
:1045600091E09083F801E656F94F2083F801E7586F
:10457000FB4F9081892F8F5F8083843608F4CEC0F3
:1045800093569083A114B10461F0F801EE0FFF1F60
:10459000EB58FB4F80819181B501681B790B7183CA
:1045A000608371E0E71609F47BC082E0E81629F425
:1045B0008114910409F47EC073C093E0E91609F0F8
:1045C00047C06801CC0CDD1C7CE8672E76E0772EB6
:1045D0006C0C7D1CD301ED90FC90E114F10409F406
:1045E00069C0F601E057F94F20813181C901B70157
:1045F0000E94856A4B016E9DC0016F9D900D7E9D4E
:10460000900D1124281B390B31832083F301118273
:1046100010829B0136952795D601AC56B94F8D91E6
:104620009C911197280F391F11963C932E9320319E
:10463000310508F43FC0F601EB58FB4F80819181B2
:10464000019691838083205130402D933C9332C05A
:10465000F4E0EF1671F48114910411F5F801EE0FF6
:10466000FF1FEB58FB4F8081918118161906C4F08B
:1046700021C029E12E1570F01F141CF48F2D8450D9
:1046800002C08F2D8C5F60E00E94D212F801E856C4
:10469000F94F8083F801E856F94F8081882351F063
:1046A000F801EE0FFF1FEB58FB4F808191810196BF
:1046B00091838083D801AD58BB4F8C91813019F024
:1046C0008230F1F40FC0A114B10441F1F801EE0FF2
:1046D000FF1FEB58FB4F808191818A159B059CF051
:1046E0002C9211C0C501CB96F801EE0FFF1FEB58BD
:1046F000FB4F208131818217930714F433E03C9300
:10470000A114B10459F0F801EE0FFF1FEB58FB4F55
:1047100080819181A81AB90AB182A082539490CE67
:10472000209175043091760480919D0690919E06AB
:104730008217930709F48DC080917304813009F0CA
:1047400070C080916C0182FF4BC080917E0190917E
:104750007F01892B09F444C02E31310539F482E000
:1047600080936A0480915F0480935C048091750457
:1047700090917604449739F481E080936A048091A3
:104780005F0480935C0480917504909176040A978D
:1047900021F480915F0480935C0480917504909172
:1047A0007604049724F480915F0480935C048091E4
:1047B0006C0183FF15C080917504909176048E3151
:1047C000910541F08431910529F08A30910511F06D
:1047D000049734F482E390E0909369048093680432
:1047E00080916C0181FF2DC020917E0130917F016D
:1047F0002115310549F08091750490917604A90145
:10480000481B590BCA0104C080917504909176042D
:104810006CE370E00E94856A892B99F480915F04B3
:1048200004C0823071F48091600480935C048091B4
:104830006C0183FF06C082E390E09093690480934B
:104840006804809175049091760490939E068093FD
:104850009D068091AA06882309F452C0EDEAF6E08D
:10486000A0E0B0E011E0E12EF12CCC24CA94DC2CC5
:104870008701A2960FACA29702C0000F111F0A94E5
:10488000E2F76091AA06862F90E00A2E02C0959565
:1048900087950A94E2F780FF2EC0408151812091D4
:1048A000AB063091AC06A2968FADA2978A1779F429
:1048B000CA01809590952817390728F4240F351FD1
:1048C0003183208318C0D182C082601B12C024179C
:1048D000350728F4421B530B518340830CC01182CF
:1048E0001082C7010A2E02C0880F991F0A94E2F7AE
:1048F000681B6093AA0611963296A530B10509F699
:104900000E94DE128091B207882319F081508093B3
:10491000B20780916B01882309F466C08091660418
:10492000833308F461C080918B0590918C05A09130
:104930008D05B0918E050196A11DB11D80938B054B
:1049400090938C05A0938D05B0938E0500E010E048
:10495000FF248F2D0E94720EB6E096958795BA952A
:10496000E1F7080F191FF39494E0F91691F780917D
:104970008F05909190050817190761F01093900525
:1049800000938F0510928B0510928C0510928D0567
:1049900010928E05E0908B05F0908C0500918D05AE
:1049A00010918E0560916B0170E080E090E020E74F
:1049B00037E140E050E00E945A6A6E157F0580079B
:1049C000910790F42FE330E040E050E0E222F32240
:1049D000042315233AE0E316F1040105110521F43F
:1049E0008091600480935C0480917B04882319F09B
:1049F000815080937B040E9421650E947C650E9407
:104A0000A114182F8091680490916904009729F0EF
:104A100001979093690480936804112389F0809131
:104A20006E0190E024EF31E0AC01429FC001439F52
:104A3000900D529F900D1124909369048093680407
:104A40008091570160E00E94D212882339F480914E
:104A5000680490916904892B09F4CCC0C79AE0914D
:104A6000E507F0E0EE0FFF1FE952F84F0190F081EB
:104A7000E02D812F09950E94956380915C04882325
:104A800041F480916A04882321F480916C04882386
:104A900011F084E105C080918706882321F08150C0
:104AA0008093870608C08091630090E09695879573
:104AB00081708093880680918806882321F08091F8
:104AC00065008F7E03C080916500806180936500E2
:104AD000A4968EAD9FADA4978F7190708230910592
:104AE00021F0039709F088C06EC080916404909112
:104AF0006504892B39F487E00E94720E9093650457
:104B00008093640480916404909165048C01E3E0D7
:104B1000000F111FEA95E1F7081B190B87E00E94AF
:104B2000720E800F911F73E0969587957A95E1F745
:104B30007C0100E010E09093650480936404209170
:104B40005601332727FD3095432F532FC801B70156
:104B50000E945A6A28E030E040E050E00E94CE6AAD
:104B600064E0EE0CFF1C001F111F6A95D1F7E20EE6
:104B7000F31E041F151F209162043091630440E06E
:104B800050E0C801B7010E94CE6A2093660480916C
:104B90009C06805E80939C06882371F58091550168
:104BA000281750F5233340F18091610480935C0411
:104BB00080916C0183FF20C082E390E090936904B0
:104BC0008093680419C080916901869586958695C1
:104BD000877090E0BC01660F771F660F771F680F24
:104BE000791F6A5F7A4F8DE594E045E050E00E94BE
:104BF000E96A02C0C79833CFC959DF4F0FB6F8949E
:104C0000DEBF0FBECDBFCF91DF911F910F91FF90FF
:104C1000EF90DF90CF90BF90AF909F908F907F905C
:104C20006F905F904F903F902F9008951F93CF9378
:104C3000DF939FEF9ABB1BBA81E887BB8EE788BBE7
:104C40008EE384BB81EC85BB11BA92BB88E082B94C
:104C500087EF83B9109261001092620080E1809327
:104C60006400909365000E94576380E487B985E8EB
:104C700086B987E083BF8CE981BF87B7836087BF30
:104C80008AE08EBD82E880938A0080917D008062F8
:104C900080937D00EDB7FEB7329785E502C0808333
:104CA00031974DE0E634F40709F0C8F784E293E564
:104CB0009093D8078093D7078BE297E49093DA0715
:104CC0008093D90789E10E948B6378940E94FD58F4
:104CD0001091530184B7813061F00E9403140E9447
:104CE00068130E94CA0E0E94B3130E9477130E9499
:104CF0005C130E94E4100E948814682F84EB97E0F4
:104D00000E94BC18809154010E948B6380916E01B7
:104D100090E024EF31E0AC01429FC001439F900D31
:104D2000529F900D112490936904809368048091A0
:104D30005301181719F081E00E94D5570E940528E9
:104D40002DE088E190E00FB6F894A89581BD0FBEE4
:104D500021BD0E94740FEC01E0916D01F0E0EE0FB7
:104D6000FF1FE050FF4F0190F081E02D09950E9458
:104D7000DE0E0E94C01F80915604833019F4A8955E
:104D8000109256040E94740F2091530430915404E1
:104D90008C1B9D0B8217930708F4C9019093540450
:104DA00080935304D6CFEDE7F0E08081857E808349
:104DB00017981F9AAAE8B0E01C9210928B0082E824
:104DC0008C9380818062808308956F927F928F920E
:104DD0009F92AF92BF92CF92DF92EF92FF920F938A
:104DE0001F93CF93DF93909180019770809108017A
:104DF0008917C9F0909308010E94D3261EBC80E455
:104E00009CE99BBD8ABD1DBC1CBC87B7837C87BF4A
:104E10008CE386BF8FE380937C0087B7806187BF78
:104E20001FBC8AE08EBD8091810185FD04C0E12C0C
:104E300034E0F32E03C0E12C25E0F22E40918001F6
:104E40004595459545954595440F485F909182015C
:104E500084E69802D0011124A85ABD4F88249924D1
:104E60008A1A9B0A80914E04992787FD909528EE17
:104E700033E0829FB001839F700D929F700D1124CB
:104E8000685370456A1B7B0B04EB17E0E1EFF6E01B
:104E900050E0440F551F440F551F5F01A40EB51E6F
:104EA000CC24DD24CE18DF0888E5682E82E0782E39
:104EB0006A1A7B0A1DC0C601E801288139812C15B8
:104EC0003D0534F02E153F0514F0C70101C0C9019E
:104ED000805A964F9401281B390B620F731F860D61
:104EE000971D91838083B383A28334960E5F1F4FF7
:104EF000EA15FB0501F7FA01EF50F94F7183608362
:104F0000B383A2831582148281EF96E090930A0105
:104F100080930901DF91CF911F910F91FF90EF9046
:104F2000DF90CF90BF90AF909F908F907F906F90C9
:104F300008951F920F920FB60F9211241F932F9373
:104F40003F934F935F936F937F938F939F93AF9311
:104F5000BF93EF93FF931CB580918107882321F0C5
:104F6000C09A1092810704C0C09881E080938107A5
:104F7000A0910901B0910A01FD01819191919BBD20
:104F80008ABDF0930A01E093090112968D919C91DC
:104F90001397892BB9F48091810182958F70809548
:104FA00081708093810787B78F7E87BF0E94E52637
:104FB00080918001877011F0833021F487B7806180
:104FC00087BF789480915104811710F41093510495
:104FD00080915204181710F41093520480915604D3
:104FE000816080935604FF91EF91BF91AF919F91A3
:104FF0008F917F916F915F914F913F912F911F9171
:105000000F900FBE0F901F9018950E94E52687B74E
:10501000806187BF0895FC01A091E507B0E0AA0F69
:10502000BB1FA952B84FED93FC938FEB099580916C
:105030005D0480935C0408959C019091E507E92F3D
:10504000F0E0EF51F84F8091E6078083E92FEF5FA2
:10505000E093E507E53040F09093E50782EE97E1B5
:1050600060E00E941913089580915D0480935C04B0
:10507000F0E0EE0FFF1FE952F84F318320838FEBF2
:10508000F90109950895E091E507EE23D1F0E1508B
:10509000E093E50780915D0480935C041092E7073C
:1050A000F0E0DF01AF51B84F8C918093E607EE0F2F
:1050B000FF1FE952F84F0190F081E02D8EEB09952A
:1050C000089582EE97E160E00E94191308958F928F
:1050D0009F92AF92BF92CF92DF92EF92FF920F9387
:1050E0001F93CF93DF93182F7B014A015901C02EE4
:1050F00084FD04C044E0D42E05E005C01F70106696
:1051000035E0D32E04E08D2D8066181761F08D2DCB
:105110008064181741F09091B107191664F41336A2
:1051200011F0133441F4E701219680915D048093DE
:105130005C04802F17C0802F8066181761F0802FC5
:105140008064181741F019160CF075C0123619F06A
:10515000123409F070C0E701219780915D048093BB
:105160005C048D2D90E00E941866882351F0CC27B6
:10517000DD27CE19DF09802F0E949F668D2D0E94AA
:105180009F668114910491F481E0A816B10471F432
:10519000103661F41092B107C0E0D0E0E114F104E0
:1051A00011F4C1E0D0E080E60E949F668091D407B0
:1051B0009091D507C81BD90BAC16BD0644F4812FBE
:1051C0000E949F6680915F0480935C04E501C8158E
:1051D000D90544F4812F0E949F6680915F048093DB
:1051E0005C04E401CE15DF05B1F0209739F4812F7E
:1051F0000E94906680915D0480935C048C2D837086
:105200000E94D557EC16FD0614F08FEF01C081E027
:105210008093D60702C01092D607CE01DF91CF91BE
:105220001F910F91FF90EF90DF90CF90BF90AF90C4
:105230009F908F900895E701A4CF0F93772767FD84
:105240007095552747FD5095332727FD309501E090
:105250000E9467280F9108950F93772767FD709537
:10526000552747FD5095332727FD309502E00E94D2
:1052700067280F910895FF920F931F93F82E162F12
:10528000042F80E860E0412F50E0202F0E9435621B
:105290001A3010F485E701C08FE660E04FE2202F5E
:1052A0000E940C5F1A3010F485E701C08FE64F2D85
:1052B00050E04F5F5F4F60E0202F0E9435621F91EA
:1052C0000F91FF9008959F92AF92BF92CF92DF927D
:1052D000EF92FF920F931F93CF93DF93F82ED62E6A
:1052E000EA01B22E9C2CE0918E07F0918F078091FD
:1052F000EC079091ED078E1B9F0B60E270E00E941F
:10530000996A9B017093D5076093D4076115710565
:1053100021F0F093ED07E093EC07E0918A07F0911C
:105320008B078091EA079091EB078E1B9F0B60E43F
:1053300070E00E94996AA62E662321F0F093EB0795
:10534000E093EA07E0918C07F0918D078091E807E0
:105350009091E9078E1B9F0B60E470E00E94996AB0
:10536000C62E662321F0F093E907E093E807AA2010
:1053700021F4CC2011F4232B89F080916E0190E070
:1053800024EF31E0AC01429FC001439F900D529F3A
:10539000900D11249093690480936804209711F470
:1053A00029E75FC08091E607882309F041C080911A
:1053B000B307882309F03CC0AA2011F48D2D09C041
:1053C0009B2D91508D2D8A1987FD80E098170CF444
:1053D000892F54E6F51651F095E6F91699F4DD207B
:1053E00011F08D2D01C08B2D81500CC02D2D30E082
:1053F0008B2D90E001972817390714F080E002C048
:105400008D2D8F5F282F332727FD30958D2D90E030
:105410002817390711F442E00CC0F901EE0FFF1F05
:10542000EC0FFD1F859194910E940B2880E06FC1C5
:1054300040E01092B3078D2D6B2D0E943B292091E7
:10544000120D2E508D2D90E0019666EF7FEF0E9499
:10545000996ACB01880F991F880F991F860F971F94
:10546000280F8BE398E0622F0E94925901151105D5
:1054700011F430E00AC08091E6079E2D8E1508F4E5
:10548000982FF801E90FF11D34914091B1071416DE
:10549000C4F1CC2011F18091E6078C1987FD80E0E2
:1054A000992D89150CF4982F9093E6072091E70722
:1054B0000115110511F480E00BC0892FE91608F4DD
:1054C0008E2DF801E80FF11D8491281708F4822F22
:1054D0008093E70780E68093440DAA2091F08091A5
:1054E000E607882371F08091E7078A1987FD80E03D
:1054F000932F83170CF4982F9093E70780E68093FF
:10550000440DE0E6FE16C9F1EF15B8F0F3E4FF161E
:1055100009F4AFC0FF1540F051E2F516E9F182E45D
:10552000F81609F0D4C07CC094E4F91609F44EC012
:10553000E5E4FE1609F0CBC05DC0F4E6FF1609F401
:105540004AC0FF1548F052E6F51609F46EC083E62E
:10555000F81609F0BCC091C091E8F916D1F0EFEB54
:10556000FE1629F0F5E6FF1609F0B1C048C010920A
:10557000E7071092E6078FEF09C0332309F4A7C0AD
:105580001092B10714160CF4A2C081E08093B10709
:105590009EC01092B1070BC014161CF41092B107F4
:1055A00096C08091E607882311F0209719F40E9495
:1055B00043288DC080915D0480935C041092E707BE
:1055C0001092E60780E68093440D85C08091E7073E
:1055D000831709F47CC0012B09F479C014160CF46C
:1055E00076C08091E707831710F48F5F13C0109285
:1055F000E7076AC08091E707882309F468C0012B98
:1056000009F465C014160CF462C08091E707882382
:1056100021F081508093E70757C03093E70754C0CB
:105620008091E607891509F452C014160CF44FC096
:105630008091E607891510F080E001C08F5F0115A9
:10564000110509F470C0982FE81608F49E2DF80192
:10565000E90FF11DE491EF3F09F065C0EBCF8091B8
:10566000E6078E1508F4E82E0E0D111DF8010491C1
:1056700026C08091E607882351F1141644F18091E9
:10568000E607882311F4892D01C081500115110509
:1056900009F452C0982FE81608F49E2DF801E90F7E
:1056A000F11DE491EF3F09F047C0EBCF8091E60791
:1056B0008E1508F4E82E0E0D111DF80104919017B7
:1056C00008F4092F0093E70780E68093440DCD2B63
:1056D00011F456E001C057E04091E607442319F465
:1056E0001092B00713C0242F30E08091B007281B20
:1056F0003109852F90E08217930714F4451B04C0ED
:10570000121613061CF041504093B00781E0DF9160
:10571000CF911F910F91FF90EF90DF90CF90BF90AE
:10572000AF909F9008958093E6079091E707011549
:10573000110509F094CF08C08093E6079091E70720
:105740000115110509F0B2CF00E0BCCFCF92EF9266
:105750000F931F93C02E00E010E0EE240E946329F7
:105760001F910F91EF90CF9008950F93062F60E057
:1057700040E050E020E00E94A62B0F9108950F9387
:10578000942F222311F400E001C002E043E0949F33
:10579000A00111244257504F23E00E94BB630F9198
:1057A0000895DC01FB0105C09C9180818D9391934C
:1057B00041504423C9F70895CF92DF92EF92FF92B0
:1057C0000F931F93CF93DF93182F80E060E041EA9F
:1057D00058E122E00E94D75F812F6BE04AE755E055
:1057E0002CE008E00E94A62B882309F465C0F09005
:1057F000E607FA941038A9F480E80E949F6689E1D0
:105800008093B20786E08F1518F08F2D0E940168F3
:1058100087E0F81611F40E94906780915E048093EF
:105820005C0418E0EE24CF2CDD24C7FCD09440911A
:10583000B0074E0D473019F4193370F13DC0C42F35
:10584000D0E0CC16DD0611F020E101C022E1AE016E
:105850004F5F5F4F82E1612F02E00E942D618091D6
:10586000B207882319F4CC16DD0609F000E0AE017A
:10587000440F551F4C0F5D1F440F551F440F551FFC
:1058800047585E4E88E1612F2CE00E94BB63185F91
:10589000E394103461F610C08091B207882329F494
:1058A00087E0F81611F422E001C020E086E0612FC5
:1058B0004BEA54E10E94D75FDF91CF911F910F9186
:1058C000FF90EF90DF90CF9008950F93942F2223B5
:1058D00011F400E001C002E043E0949FA001112414
:1058E0004C56504F23E00E94BB630F9108955F9286
:1058F0006F927F928F929F92AF92BF92CF92DF92E0
:10590000EF92FF920F931F93CF93DF93882E80E047
:1059100060E043E858E122E00E94D75F882D69E00B
:105920004AE755E02CE004E915E0EE24E3947CE03E
:10593000C72E0E946329882309F47FC08091E6075F
:105940008150992458E0A52E682E772467FC709426
:105950004EE0542E8091B007890D803109F46DC05E
:10596000C82EDD24BB24E601CC0FDD1FCD51DC4F5A
:105970007601EE0CFF1C84EE93E0E80EF91E6C1429
:105980007D0461F48091E7078B1541F48091B107A4
:1059900018160CF047C011E001E002C000E010E072
:1059A000BB2021F091E0B91681F510C086E06A2D88
:1059B0004881202F0E943F64112339F1882D68818E
:1059C0004AEE26E10E942C2988831FC08881882303
:1059D000C1F0F7014081459DA0011124475F5E4E53
:1059E0008EE16A2D2EE00E94BB63112371F0882D99
:1059F000F701608140E027E00E942C29F7018083B5
:105A000004C0002311F01092E707B394F2E0BF1630
:105A100009F0B5CF939488E0A80E97E0991609F0A5
:105A200099CF0BC08091D4079091D507892B19F09D
:105A300011E002E0B5CF02E0B2CFDF91CF911F912C
:105A40000F91FF90EF90DF90CF90BF90AF909F901D
:105A50008F907F906F905F9008959F92AF92BF92CA
:105A6000CF92DF92EF92FF920F931F93CF93DF932A
:105A7000982E80E060E041E958E122E00E94D75F83
:105A8000892D6AE04AE755E02CE002E915E0EE24B2
:105A9000E394B0E1CB2E0E946329882309F470C0FF
:105AA000AA24A8E0BA2E4091B0074A0D403109F46B
:105AB00067C0C42EDD244F5F80E06B2D20E00E9484
:105AC000116500E07601EE0CFF1C83EC93E0E80E1C
:105AD000F91EE601CC0FDD1FCC53DC4F8091E607A9
