:100000000C944D0C0C946A0C0C946A0C0C946A0CB5
:100010000C946A0C0C946A0C0C946A0C0C946A0C88
:100020000C946A0C0C946A0C0C946A0C0C946A0C78
:100030000C94D3240C946A0C0C946A0C0C94CA0F84
:100040000C94EF0E0C946A0C0C946A0C0C946A0CD1
:100050000C946A0C0C946A0C0C9438610C946A0C25
:100060000C946A0C0C940E0F0C946A0C0C946A0C91
:100070000C946A0C0C946A0C0C946A0C0C946A0C28
:100080000C946A0C0C946A0C0C946A0C5350530038
:100090008040000000F8FE060303030306FEF8009C
:1000A0000000000000000000000080C0C0E0F0F888
:1000B000FCFEFEFFFF7F7E3E3C1C0000C0E0E0F047
:1000C000E0000000000000000000000000000080D0
:1000D000E0F0F8F8FCFCFC7C3C381000000000006C
:1000E000000000000000000000000000000000C050
:1000F0004020202020202040408000000000000000
:1001000000000000000000000000000000000000EF
:100110000000000000E1E7666C6C6C6CE6C78100D3
:100120000000000080E0F0F8FCFE7FBF3F1F0F07DB
:100130000783C1E1F0F8FCFCFEFE00000103070F9D
:100140000F1E3C3870F0E0C080000080E0F8FEFF39
:10015000FF3F0F1F0F030000000000000000000021
:1001600000000080402020301010307E7FFFFBBC5C
:10017000C8F0000000F01030608001063CE0000094
:10018000000000000000000000000000000000006F
:100190000000000000FFFF0C0C0C0C0C0E0703000D
:1001A0000000F8FEFFFFFFFFCFC7E1F0F0F8FC7E94
:1001B0007F1FFFFFFFFFFFFF7F0700000000000021
:1001C00000000000000080C1F3FFFEFF7F7FEFC151
:1001D000C0800000000000000000000000000000DF
:1001E0001C7C7FFD800000008080C0C0E0F040F0FB
:1001F000F0C0038E7800818242432010080780807F
:10020000804040202020301030202020E050484402
:100210000020000000FDFD8C8C8C8C8C8C8C8C0064
:1002200000000107070707070F1F1F0F0703010043
:1002300000F8FFFFFFFF3F07000000000000000084
:100240000080C070BC7E171B0F0701000000000378
:10025000071F3FFEF8F0E0C0800000000000000033
:10026000000000000001010100F049AB1E1D353502
:1002700032323E3D3C1E1F3C4CCE8E0E0F0B021602
:100280001510080808040402020303050703090601
:100290000202000000BFBF313131313131B1B10054
:1002A000000000000000000000000000000000F05E
:1002B000FFFFFFFF0F0100000000000000C06018FA
:1002C000060305020000000000000000000000001E
:1002D000000000000101040707000000000000000A
:1002E000000000000000000000000103020201F90C
:1002F0002D2E0EFB0101808080808183061870C046
:1003000000000000000000000000000000000000ED
:100310000000000000FFFF070E3870C080FFFF00E4
:10032000000000000000000000000000C0F8FF7F97
:100330001F370700000000000000707C7F3F38007E
:1003400000000000000000000000000000000000AD
:10035000000000000000000000000000000080F02D
:10036000381808080808080808080808080C0C1FAE
:100370001010191909090908080808181018080F99
:100380000C0E0A0A0A0A0A0C0C08080C0C0C38E0BD
:10039000000000000007070000000001030707003D
:1003A000000000000000000000000403060301003C
:1003B000000000000000000000000000000000003D
:1003C000000000000000000000000000000000002D
:1003D00000000000000000000000000000E0FF4FEF
:1003E000404040404040404040404040404040400D
:1003F00040404040404040404040404040404040FD
:100400004040404040404040404040404040403FED
:10041000F8000000000000000000000000000000E4
:1004200000000000000000000000000000000000CC
:1004300000000000000000000000000000000000BC
:1004400000000000000000000000000000000000AC
:10045000000000000000000000000000E0FF0300BA
:10046000000000000000000000000000000000008C
:10047000000000000000000000000000000000007C
:10048000000000000000000000000000000000006C
:1004900007FC535045000102030401020403010359
:1004A0000204010304020104020301040302020125
:1004B0000304020104030203010402030401020411
:1004C0000103020403010301020403010402030205
:1004D00001040302040103040102030402010401F4
:1004E00002030401030204020103040203010403E2
:1004F00001020403020101020304010302040402D5
:1005000003010403020100000000000001081E6452
:100510000101081E6401010F32960A0A1E32960379
:10052000010200040506075F2D2E2C00564552538C
:100530003A2056322E30302D62736F6E6769730029
:100540002053564E3A206F70656E39782D723133D4
:100550003700444154453A20323031322D30312D6C
:1005600032350054494D453A2032313A30393A302B
:100570003600204D4F443A20003743573F753C2703
:10058000382238582DA92CF42A9F29552A162900DB
:100590000100010002000303030303030303030339
:1005A0000303030303032F3332002F31340006000B
:1005B000037500000902020000000000060201129B
:1005C0000800081C0808081C080000082200490050
:1005D00022080000000000227F2200000008220004
:1005E00049002208000008220049002208000000FB
:1005F000227F22000000000008220049002208009B
:1006000000081C0808081C0800244AB5484147197E
:10061000487E4733464100000202020200500800B3
:10062000000000000000006F000007000700147FBA
:10063000147F14242A7F2A12231308646236495532
:1006400022500005030000001C2241000041221C32
:100650000014083E081408083E0808005030000046
:100660000808080808006060000020100804020064
:100670003E41413E0000427F4000625149460041F8
:10068000494936001814127F0027454539003E4974
:1006900049320001790503003649493600064929E7
:1006A0001E000036360000005636000008142241B5
:1006B00014141414144122140800020151090606EE
:1006C000090906007E0909097E7F494949363E41EC
:1006D0004141227F4141221C7F494949417F09090B
:1006E00009013E4149497A7F0808087F00417F415E
:1006F000002040413F017F081422417F404040409C
:100700007F020C027F7F0408107F3E4141413E7F03
:10071000090909063E4151215E7F091929462649EA
:1007200049493201017F01013F4040403F1F2040C5
:10073000201F3F4030403F631408146307087008CF
:10074000076151494543007F4141000204081020E0
:100750000041417F0004020102044040404040004B
:100760000102040020545454787F484444383844EB
:10077000444420384444487F3854545418087E096F
:1007800001020C5252523E7F0804047800447D401E
:10079000002040443D007F1028440000417F40007D
:1007A0007C041804787C0804047838444444387C79
:1007B00014141408081414187C7C08040408485401
:1007C000545420043F4440203C4040207C1C2040A6
:1007D000201C3C4020403C44281028440C505050E1
:1007E0003C4464544C44000836410000007F000043
:1007F00000413608000808221C08081C220808A02E
:10080000600000000000000000000000000000FE8A
:10081000FE0000000000003E7E00007E3E00006002
:1008200060FEFE6060FEFE606060F09898FEFE98DC
:100830009818180C1E1E0C80C0E070381878FC8EBA
:10084000C6E6763C180000000066763E1E000000FA
:10085000000000E0F0381C0E0600000000060E1C30
:1008600038F0E000006060C080F8F880C060608010
:10087000808080F8F8808080800000000000000008
:100880000000008080808080808080808000000068
:10089000000000000000000000000080C0E0703890
:1008A00018000000000000000000000000000071BF
:1008B00071000000000000000000000000000006C1
:1008C000067F7F06067F7F0606181819197F7F1995
:1008D000190F06181C0E070301307878301E3F717F
:1008E0006367663C3C666600000000000000000094
:1008F000000000070F1C38706000000000607038B6
:100900001C0F070000060603011F1F010306060156
:100910000101011F1F01010101000066763E1E005A
:10092000000000010101010101010101010000308D
:1009300078783000000000181C0E0703010000004A
:10094000000000F8FC0E06060EFCF80000181CFE65
:10095000FE000000000000181C0E0686CEFC780089
:10096000000606868686CEFC78000080C0E07038DF
:100970001CFEFE00007E7E666666E6C6860000F807
:10098000FC8E86868E1C180000060686C6E6763E1D
:100990001E000078FCCE8686CEFC78000078FCCE67
:1009A0008686CEFCF8000030787830000000000029
:1009B000003078783000000000000080C0E070381F
:1009C0001C0E0660606060606060606060060E1C07
:1009D0003870E0C0800000181C0E06060686CEFCAB
:1009E0007800001F3F706060703F1F000060607FF4
:1009F0007F606000000000787C6E6763616060006B
:100A0000006060616161733F1E0000070706060613
:100A1000067F7F00001838706060703F1F00001F65
:100A20003F716161733F1E000000007F7F00000086
:100A30000000001E3F736161733F1E0000000061F3
:100A400071391D0F0700000C1E1E0C000000000075
:100A50000066763E1E0000000000000103070E1C29
:100A6000387060060606060606060606066070383A
:100A70001C0E070301000000000000666703010070
:100A80000078FCCE8686CEFC780000E0F0B89C8E24
:100A90008E9CB8F0E0FEFE8686868686CEFC78F8D0
:100AA000FC0E060606060E1C18FEFE0606060E1CAA
:100AB00038F0E0FEFE8686868686860606FEFE8680
:100AC00086868686860606F8FC0E068686868E9CB8
:100AD00098FEFE808080808080FEFE00000606FE7C
:100AE000FE06060000000000000606FEFE0606FEEA
:100AF000FE80C0E070381C0E06FEFE000000000004
:100B0000000000FEFE1C38F0F0381CFEFEFEFE70F9
:100B1000E0C0800000FEFEF8FC0E060606060EFC95
:100B2000F8000001010101000000007F7F010101C8
:100B30000101017F7F7F7F6161616161733F1E1FE2
:100B40003F70606060607038187F7F6060607038F0
:100B50001C0F077F7F61616161616160607F7F0160
:100B6000010101010100001F3F7060616161717F3F
:100B70003F7F7F0101010101017F7F000060607FF5
:100B80007F606000001838706060703F1F00007F59
:100B90007F0103070E1C3870607F7F6060606060BB
:100BA0006060607F7F0000010100007F7F7F7F0029
:100BB000000103070E7F7F1F3F7060606060703F21
:100BC0001FFEFE8686868686CEFC78F8FC0E06061C
:100BD00006060EFCF8FEFE8686868686CEFC7878B3
:100BE000FCCE868686868E1C1806060606FEFE0647
:100BF000060606FEFE000000000000FEFEFEFE00EF
:100C00000000000000FEFEFEFE000000000000FEEE
:100C1000FE1E3E70E0C0C0E0703E1E7EFEC0800042
:100C20000080C0FE7E0606060686C6E6763E1E00EC
:100C300000FEFE060606060000183870E0C08000C0
:100C4000000000000006060606FEFE000060703888
:100C50001C0E0E1C38706000000000000000000038
:100C6000007F7F01010101010100001F3F706066EC
:100C70006E3C387F677F7F0101070F1D3970601858
:100C8000387161616161733F1E000000007F7F0069
:100C90000000001F3F7060606060703F1F070F1C06
:100CA000387070381C0F071F3F70703E3E70703FE9
:100CB0001F787C0E070303070E7C78000001037F7A
:100CC0007F03010000787C6E676361606060600094
:100CD000007F7F606060600000000000000103078B
:100CE0000E1C180000606060607F7F000000000044
:100CF0000000000000000060606060606060606094
:100D0000600000060E1C387060000000006060602B
:100D10006060E0C080FEFE80C0E06060E0C0808077
:100D2000C0E06060606060000080C0E06060E0C0C3
:100D300080FEFE80C0E060606060E0C0808080F87F
:100D4000FC8E86060E1C18E0F0381818181818F8D3
:100D5000F8FEFE80C0E06060E0C08000006060E6F9
:100D6000E600000000000000006060E6E60000FE13
:100D7000FE000080C0E060000000000606FEFE00ED
:100D8000000000E0E060E0C0C0E0E0C080E0E080A3
:100D9000C0E06060E0C08080C0E060606060E0C093
:100DA0008000000000000000000000183C7E666625
:100DB0006666667F7F7F7F6161606060703F1F1F36
:100DC0003F70606060607038181F3F7060606061E5
:100DD000617F7F1F3F766666666666070701017F53
:100DE0007F01010000000001036766666666763FCA
:100DF0001F7F7F0101000000007F7F000060607F97
:100E00007F606000001838706060703F1F00007FD6
:100E10007F060F1F3970600000000060607F7F60F8
:100E20006000007F7F0000070700007F7F7F7F0159
:100E300001000000007F7F1F3F7060606060703FB6
:100E40001FE0E06060606060E0C08080C0E06060E3
:100E500060C080E0E0E0E080C0E06060E0C08080F2
:100E6000C0E0606060606000006060FEFE60600086
:100E7000000000E0E0000000000000E0E0E0E00032
:100E80000000000000E0E0E0E0000000000000E002
:100E9000E060E0C080000080C0E060E0E0000000B2
:100EA000000000E0E0606060606060E0E0E0600042
:100EB0000080C0787C0E06000000000000FEFE00EE
:100EC0000000000000060E7C78C08000008080805A
:100ED000801838F0E0C08080C0E0F0381880808052
:100EE000807F7F0606060606070301010307060644
:100EF0000607077F7F7F7F0101000000000101617D
:100F00006367666666667E3C1800001F3F7060601F
:100F10007038181F3F7060607038187F7F070F1C93
:100F2000387070381C0F071F3F7070383870703F72
:100F30001F6070391F0F0F1F3970600103676666ED
:100F40006666763F1F6070787C6E676361606000E4
:100F50000001031E3E70600000000000007F7F0063
:100F6000000000000060703E1E030100000101014E
:100F700001181C0F0703010103070F1C18010101D1
:100F800001630040800804201002014F46464F4E86
:100F9000202D2D2D494E56344348203643482038C5
:100FA000434820313043483132434831344348319B
:100FB00036434851756965744E6F4B65794E6F7253
:100FC0006D204C6F6E6720784C6F6E6753494E47AB
:100FD0004F534D5046494C54446F776E4F46462010
:100FE000557020206F6666202B3D203A3D636831A6
:100FF0006368326368336368344578702020204525
:101000007846696E6546696E6520204D6564697530
:101010006D436F61727365524554413132335050A4
:101020004D2020505858202044534D322050504DD0
:101030003136504F534E45472D2D2D783E30783C5C
:10104000307C787C663E30663C307C667C4544492A
:1010500054205052534554412E54485257656967A5
:1010600068744578706F20205068617365205377ED
:10107000746368205768656E20204375727665201A
:1010800020202020202041646420202020204D7535
:101090006C7469706C795265706C616365202B3D6E
:1010A0002A3D3A3D2D2D2D2D202020763E6F667352
:1010B0002020763C6F667320207C767C3E6F6673C2
:1010C0007C767C3C6F6673414E44202020204F523A
:1010D0002020202020584F522020202076313D3DD6
:1010E0007632207631213D76322076313E763220BE
:1010F0002076313C7632202076313E3D76322076A5
:10110000313C3D7632202D2D2D2D202020202020F9
:1011100020202020547261696E65722020202020DA
:101120002020547261696E6572205255442020203F
:10113000547261696E657220454C452020205472BE
:1011400061696E6572205448522020205472616992
:101150006E65722041494C202020496E7374616E87
:1011600074205472696D20205472696D73324F6619
:1011700066736574732053696D706C6520342D43FC
:101180004820542D43757420202020202020562DE7
:101190005461696C202020202020456C65766F6E9C
:1011A0005C44656C7461654343504D2020202020D1
:1011B000202048656C692053657475702020536544
:1011C00072766F20546573742020204D656E7520F3
:1011D0004578697420446F776E20202055705269DD
:1011E000676874204C656674544852525544454CA7
:1011F0004549443049443149443241494C474541CD
:1012000054524E5357315357325357335357345325
:101210005735535736535737535738535739535712
:101220004153574253574352554420454C4520544F
:1012300048522041494C205031202050322020502B
:101240003320204D41582046554C4C43594331439F
:10125000594332435943334F4646414253544873EE
:10126000544825544874005B4D454E555D20202060
:10127000205B455849545D00205B4D454E555D202F
:101280005748454E20444F4E450066726565004400
:10129000454C455445204D4F44454C00436F7079B3
:1012A000696E67206D6F64656C2E2E2E004D6F7613
:1012B000696E67206D6F64656C2E2E2E004C6F6119
:1012C00064696E67206D6F64656C2E2E2E004E6112
:1012D0006D650054696D657200452E4C696D6974C9
:1012E0007300452E5472696D73005472696D204904
:1012F0006E6300542D547261636500542D547269FD
:101300006D0042656570204374720050726F746F97
:101310000050504D206672616D65006D730053770B
:1013200069746368005472696D7300466164652076
:10133000496E0046616465204F75740028646566D7
:1013400061756C742900436865636B202020202040
:101350005472696D73004D4F4445004E6F206672A4
:101360006565206578706F21004E6F206672656537
:10137000206D697865722100494E53455254204DC5
:101380004958200045444954204D49582000536F86
:101390007572636500576569676874004F666673A8
:1013A0006574005472696D0043757276657300460A
:1013B0002E5068617365005761726E696E67004FE9
:1013C0004646004D756C7470780044656C617920F8
:1013D000446F776E0044656C617920557000536CE2
:1013E0006F772020446F776E00536C6F7720205505
:1013F000700044522F4558504F004D4958455200F7
:10140000434F5059205452494D205B4D454E555D38
:10141000004356005357004120206368616E6E659B
:101420006C004D61780043616C696200426172003A
:10143000416C61726D0055737250726F746F00432E
:101440004C454152204D49584553205B4D454E5522
:101450005D0042656570657200436F6E7472617302
:10146000740042617474657279207761726E696E7E
:101470006700496E616374697669747920616C6193
:10148000726D0046696C7465722041444300546873
:10149000726F74746C652072657665727365004D49
:1014A000696E7574652062656570004265657020BF
:1014B000636F756E74646F776E00466C617368203D
:1014C0006F6E2062656570004C6967687420737781
:1014D00069746368004C69676874206F6666206190
:1014E000667465720053706C617368207363726513
:1014F000656E005468726F74746C65205761726E0B
:10150000696E6700537769746368205761726E690A
:101510006E67004D656D6F7279205761726E696EEE
:101520006700416C61726D205761726E696E670071
:101530004E4F204441544120416C61726D005278FD
:10154000204368616E6E656C204F7264004D6F645D
:101550006500536C617665006D6F64652020202501
:1015600020737263004D756C7469706C69657200EC
:1015700043616C00454550524F4D207600547269CE
:101580006D2D202B00424700205B4D454E555D20C0
:10159000544F2053544152542020002020205345C2
:1015A00054204D4944504F494E5420202000204D96
:1015B0004F564520535449434B532F504F545320BB
:1015C00000416C743A00527820426174743A0052BF
:1015D000783A0054783A004864673A005370643AA5
:1015E0000054656D70313A0054656D70323A0052A6
:1015F000504D3A004675656C3A00566F6C74733AFC
:1016000000416363656C0054656C653A0052535346
:10161000493A004E4F204441544100544D3100544A
:101620004D32005448520054482500544F54007421
:101630006D72314C6174206D6178202020207573AB
:1016400000746D72314C6174206D696E2020202011
:10165000757300746D7231204A697474657220204C
:101660002020757300746D61696E206D6178202093
:10167000202020206D7300467265652053746163DD
:101680006B206D696E2020202062005B4D454E5519
:101690005D20746F2072657365740050504D004377
:1016A0004800544D52004D4F44454C0046500045B3
:1016B0004550524F4D206C6F77206D656D00414C49
:1016C00045525400507265737320616E79206B65CA
:1016D0007920746F20736B6970005468726F747432
:1016E0006C65206E6F742069646C6500526573656B
:1016F00074207468726F74746C6500416C61726DF3
:10170000732044697361626C656400537769746324
:10171000686573206E6F74206F666600506C65613B
:101720007365207265736574207468656D004D453E
:10173000535341474500707265737320616E792081
:101740004B65790042616420454570726F6D20449D
:1017500061746100454550524F4D20466F726D6176
:101760007474696E6700454550524F4D206F766521
:1017700072666C6F77004D454E5553204F5645525B
:10178000464C4F5700524144494F20534554555001
:1017900000545241494E45520056455253494F4E0E
:1017A000004449414700414E410043414C494252A7
:1017B0004154494F4E004D4F44454C53454C005306
:1017C0004554555000464C494748542050484153D1
:1017D0004500464C49474854205048415345530022
:1017E00044522F4558504F004C494D4954530043E3
:1017F0005552564553004355525645004355535490
:101800004F4D2053574954434845530046554E4386
:101810002053574954434845530053414645545972
:101820002053574954434845530054454D504C416B
:101830005445530053544154004445425547009C7D
:101840001432465A5A4632465AECEC003C649CC468
:10185000003C649C0000006453696D706C6520342A
:101860002D434800542D43757400562D5461696C06
:1018700000456C65766F6E5C44656C746100654311
:1018800043504D0048656C69205365747570005372
:101890006572766F20546573740011241FBECFEFFC
:1018A000D0E1DEBFCDBF11E0A0E0B1E0E4E6FEECA8
:1018B00002C005900D92A632B107D9F71DE0A6E24D
:1018C000B1E001C01D92A634B107E1F70E94502398
:1018D0000C9430670C940000E82F8823D9F087FF20
:1018E00007C0863E1CF080E68E1B0895E19504C07B
:1018F0008B3114F4805C0895E5321CF48E2F8B5EDE
:101900000895E9323CF4FF27E7FDF095EE5FFA4FCA
:101910008491089580E208959DE0899F90011124AB
:1019200022503C4FC9010895282F30E0220F331F69
:10193000220F331F29503D4FC901089599E0899F17
:101940009001112429573E4FC901089595E0899FC0
:101950009001112429553D4FC90108959C0140E093
:10196000683008F041E070E0442371F0CB01089743
:10197000FC0163E0EE0FFF1F6A95E1F7E80FF91F26
:10198000DF01A95ABC4F0AC0FB01EE0FFF1FEE0F8B
:10199000FF1FE60FF71FDF01A15DBC4FFD01808136
:1019A00020503C4F37FD0EC068E02030360784F0F1
:1019B000442319F484E090E002C088E090E0A80F8E
:1019C000B91F8C91992787FD9095582F442733C0D4
:1019D000442331F0432FB9017070660F771F04C0A4
:1019E000432F4695B9017170842F90E0FD01E80FF7
:1019F000F91F8181992787FD90959B013595279542
:101A0000829FA001839F500D929F500D1124208131
:101A1000332727FD309580E092E0861B970B959544
:101A20008795BC01269FC001279F900D369F900D82
:101A30001124480F591FCA0169E170E00E94A56690
:101A4000CB0108959C01633031F1643028F461309A
:101A500051F0623090F43CC0653039F1653008F1E6
:101A6000663061F525C0493029F497FD24C0205027
:101A700032400AC097FF2CC026C0493041F41816E6
:101A8000190624F120503E4F220F331F21C0181693
:101A90001906CCF01DC097FF1BC0309521953F4F14
:101AA00017C01816190694F00EC097FF0CC003C09B
:101AB000181619065CF020E03CEF0AC067500E943F
:101AC000AE0C9C0105C020E030E002C020E034E014
:101AD000C90108956F927F928F929F92AF92BF92A9
:101AE000CF92DF92EF92FF920F931F933B017C0105
:101AF00000E010E08824992464E670E080E090E043
:101B00006619770988099909A80197010E946666F4
:101B10005B016C0182E390E0A0E0B0E0A80EB91E8A
:101B2000CA1EDB1EC801B7010E9466660E94666677
:101B3000BC0188279927A40193010E946666E4E00E
:101B40009695879577956795EA95D1F7A60EB71E76
:101B5000C81ED91EC601B50124E630E040E050E0C1
:101B60000E94B866C9011F910F91FF90EF90DF901E
:101B7000CF90BF90AF909F908F907F906F9008957F
:101B8000FF920F931F939C01AB016115710531F119
:101B9000FF2497FF05C0FF24F394309521953F4F14
:101BA00057FF10C000E014E066277727641B750B11
:101BB000C801821B930B0E946A0D9801281B390BE8
:101BC000C90104C0C901BA010E946A0DFF2011F4C5
:101BD0009C0104C022273327281B390BC9011F9100
:101BE0000F91FF9008951F93162F0E948C0CFC01FB
:101BF000A12FB0E02481332727FD3095CD01880F38
:101C0000991F02C0359527958A95E2F723703070A9
:101C1000AE0FBF1F8C91992787FD9095880F991F54
:101C2000880F991F280F391FC9011F910895FF922E
:101C30000F931F93F82E162F00E0112391F0812FA0
:101C40006F2D0E94F30D21E0853F920754F0282F5D
:101C5000255F211708F02F5F0F5F122F053069F7FE
:101C600010E0812F1F910F91FF900895EFE1F5E0B3
:101C7000E80FF11DE491F0E0EE0FFF1FE754F94F7C
:101C800020813181C9010895A9EBB6E0E9ECF6E0C5
:101C900060E0862F806487B9369A208931898D91DA
:101CA0009C91119796958795820F931F8E7F119621
:101CB0009C938E9340815181240F351F3695279533
:101CC000318B208B349BFECF349A84B195B1840F35
:101CD000951F96958795819391936F5F12966830C3
:101CE000C1F60895E9EBF6E050E0852F806487B9EE
:101CF00020E030E040E0369A349BFECF349A84B145
:101D000095B1280F391F4F5F4430A9F736952795B5
:101D1000219331935F5F583041F70895E9EBF6E086
:101D200020E0822F806487B9369A349BFECF349AA4
:101D300084B195B1880F991F819391932F5F2830BB
:101D400081F708958EE587B985E28A95F1F7369A8D
:101D5000349BFECF349A84B195B190936304809301
:101D60006204089580915C04882341F480916A04A0
:101D7000882321F480916C04882311F084E105C04C
:101D800080918706882321F081508093870608C0C0
:101D90008091630090E09695879581708093880686
:101DA000809188060895A82FB0E0FD01ED58FB4F03
:101DB0001082882329F480917E0190917F0104C0D4
:101DC0008091850190918601FD01EE0FFF1FEB5878
:101DD000FB4F91838083A758BB4F1C9208951F929D
:101DE0000F920FB60F9211248F93809186068F5F0A
:101DF000809386068F910F900FBE0F901F901895BD
:101E00004091860622B7809186064817C9F7942F1D
:101E100080E030E0282B392BC90108951F920F92E2
:101E20000FB60F9211242F933F934F935F936F93AD
:101E30007F938F939F93AF93BF93CF93DF93EF9352
:101E4000FF93C0918000D091810080917D008F7DB3
:101E500080937D0078948091890690918A069E01F6
:101E6000281B390B36952795C901815A9F408F5DF4
:101E70009E4220F481E0809385062EC04091850625
:101E8000842F8150883040F5C90181529340875793
:101E9000954000F5E42FF0E0EE0FFF1FED58F94FED
:101EA0002C5D354080917001992787FD90950A96A9
:101EB000BC01269FC001279F900D369F900D1124D5
:101EC0006AE070E00E94A566718360834F5F409373
:101ED000850602C010928506D0938A06C0938906B3
:101EE000F89480917D00806280937D00FF91EF9156
:101EF000DF91CF91BF91AF919F918F917F916F9122
:101F00005F914F913F912F910F900FBE0F901F90B7
:101F10001895E7E4FDE001C0319680818535E1F355
:101F20009F0126543D40C9010895EF92FF920F93FF
:101F30001F93062F7A010E948C0CDC0110E0FC013B
:101F4000E00FF11FC701959587959595879580833B
:101F5000000F111F83E090E0002E02C0880F991F30
:101F60000A94E2F7809514962C911497822393E0BB
:101F7000E922FF2402C0EE0CFF1C0A95E2F78E0D49
:101F800014968C9382E00E94E1531F910F91FF9071
:101F9000EF90089578941F920F920FB60F9211242C
:101FA0002F933F934F935F936F937F938F939F9361
:101FB000AF93BF93EF93FF93F89487B78D7F87BF5D
:101FC000809106018F5F80930601815090E08370BD
:101FD0009070892B11F49DE901C09CE981B7980F9D
:101FE00091BF789490915C04992369F080916B047F
:101FF000882329F490936B0481E080936C049150C2
:1020000090935C0421C030916A043323B9F020918D
:102010006B04222399F090E080916C04882309F4EA
:1020200091E090936C04992309F428E020935C04D8
:10203000992351F0315030936A0406C010926B041A
:1020400010926C041092550480916C04882381F0E6
:1020500080915504882311F490E004C090918B0680
:1020600081E0982790938B06992311F41B9A01C065
:102070001B980E94BC628091560482608093560433
:10208000F89487B7826087BF7894FF91EF91BF91F2
:10209000AF919F918F917F916F915F914F913F9100
:1020A0002F910F900FBE0F901F9018950F931F93B5
:1020B0008C010E942D6182E260E04EE257E124E053
:1020C0000E94E35B80E068E1A8010E941E5C0E9420
:1020D000A15F809154010E94975F1F910F91089515
:1020E00086B380958E77E1F70E9485610895EF921F
:1020F000FF920F931F938C017B010E942D6182E25E
:1021000060E04EEB56E124E00E94E35B80E060E299
:10211000A8010E941E5C80E068E2A7010E941E5C8C
:1021200080E060E344EC56E10E941E5C0E94A15FE7
:10213000809154010E94975F0E9470101F910F912F
:10214000FF90EF900895EF92FF920F931F93CF931C
:10215000DF93E82E882349F4809158049091590424
:10216000492F441F4427441F90C1992787FD90950C
:1021700097FF03C0909581959F4F863109F480C1E8
:102180008A3030F490E00D960E942462482F79C185
:102190008A50282F30E08901000F111F020F131FF2
:1021A00001561C4FD80112968C91882311F440E0FF
:1021B0006CC1F8018281853010F420E007C0D8019D
:1021C00012968C91883008F468C122E0D801EC9115
:1021D000E150E73008F449C052C080915A04909110
:1021E0005B0440E08C239D23892B89F127C08091DB
:1021F0005804909159048C2B9D2B909359048093F3
:102200005804F80180810E94A310F82ED80111967D
:102210008C910E94A310982FF8018281853019F0CB
:10222000863049F403C0FF2089F002C0FF2031F45A
:10223000992321F40BC040E0F91649F041E0809168
:102240005A0490915B048C2B9D2B0AC040E0209196
:102250005A0430915B04CE0180959095822393239C
:1022600090935B0480935A040CC180915704882397
:10227000D1F5F0E0EE0FFF1FEE57F84F31C0E93017
:1022800018F460E074E031C0E03178F4F0E0EE0F73
:10229000FF1FDF01A05CBE4FE35AF94F60817181DF
:1022A0008D919C91681B790B09C0E43150F4F0E0EA
:1022B000EE0FFF1FE35AF94F60817181660F771FA0
:1022C00014C0E43230F4F0E0EE0FFF1FE859F84F8D
:1022D00007C0E63240F4F0E0EE0FFF1FE35DFB4F76
:1022E0006081718102C060E070E0222309F051C07A
:1022F000D8018C91853244F011968C91992787FDF5
:1023000090958E599F4F18C0F801918189E29802EB
:1023100090011124359527953595279597FD915C6A
:1023200096FB990F990B90F9892F992787FD909526
:10233000A901481B590BCA01D80112962C912230D1
:1023400051F0233071F02130C1F440E08617970737
:102350000CF097C095C040E0681779070CF091C069
:102360008FC040E0FB0177FF03C0F095E195FF4F80
:102370008E179F070CF085C083C040E0FB0177FFFC
:1023800003C0F095E195FF4FE817F9070CF079C00D
:1023900077C0D8011196EC91E150E73050F480916C
:1023A00057048823E9F5F0E0EE0FFF1FEE57F84FD2
:1023B00033C0E93018F4E0E0F4E034C0E03180F4F8
:1023C000F0E0EE0FFF1FDF01A05CBE4FE35AF94FB4
:1023D0000190F081E02D8D919C91E81BF90B0AC0D2
:1023E000E43158F4F0E0EE0FFF1FE35AF94F01908B
:1023F000F081E02DEE0FFF1F15C0E43230F4F0E065
:10240000EE0FFF1FE859F84F07C0E63248F4F0E03E
:10241000EE0FFF1FE35DFB4F0190F081E02D02C046
:10242000E0E0F0E0D80112968C91893089F08A3092
:1024300018F4883009F507C08A3079F08B3091F0B4
:102440008C30D1F414C040E06E177F07D1F418C06F
:1024500040E06E177F07A1F414C040E0E617F707CD
:1024600084F40EC040E06E177F075CF409C040E0C2
:102470006E177F0734F004C040E0E617F7070CF052
:1024800041E01E1414F081E04827842FDF91CF91A2
:102490001F910F91FF90EF900895C1E0D0E002C02E
:1024A000CC0FDD1F2A95E2F78091580490915904D2
:1024B0008C239D23892B09F090CE99CE362F37950A
:1024C0003327379520E030935904209358040E9415
:1024D000A3100895EF92FF920F931F93CF93DF9372
:1024E000C3EED3E051E0E52EF12C2881222309F13F
:1024F00089818823F1F090E00197870102C0000FE5
:10250000111F8A95E2F7822F60E00E945E122091EF
:10251000730630917406882319F0202B312B05C0E7
:10252000C801809590952823392330937406209311
:102530007306229683E0CB3FD807B9F6DF91CF919F
:102540001F910F91FF90EF900895FF920F931F93AB
:102550008C01F62E0E942D6182E260E04EEB56E186
:1025600024E00E94E35B80E060E2A8010E941E5C20
:1025700089E168E346E357E10E941E5C0E94A15F87
:10258000FF2011F089E102C0809154010E94975F01
:102590008091610480935C040E94701086B38095E2
:1025A0008E7791F48091570160E00E945E1288233B
:1025B00031F480916E01882311F4FF2019F0C79A3D
:1025C000A895ECCFC798FCCF1F910F91FF9008956D
:1025D0008091690187FD07C0887329F48BEF96E12C
:1025E00060E00E94A51208958091690186FD0AC0ED
:1025F0000E94EF55883C910528F48FEA96E160E04F
:102600000E94A51208950F931F938091690186700F
:1026100099F18BE097E16CE177E10E94771000E09F
:10262000809169018670823009F401E01EE00AC0E1
:10263000113139F0812F8D5060E00E945E128017B9
:1026400029F41F5F1631A0F31631B1F086B38095DF
:102650008E7791F406C080916E01882351F0C79A5D
:1026600009C08091570160E00E945E128823B9F78B
:10267000F2CFC7981EE0DECF1F910F9108950F9300
:102680001F93CF93DF938091690180FD43C08091B8
:102690006A0190E08170907002E010E0081B190B55
:1026A000F801EE0FFF1FEA5DFE4FC181D2816096F7
:1026B00087859089C81BD90B0E948E0E102F802F02
:1026C0000E94360EC817D9072CF58AED96E16CEEFC
:1026D00076E10E9477100E948E0E812F0E94360EA6
:1026E000C817D90724F486B380958E7749F00E94E5
:1026F000701010C080916E01882351F0C79AEBCF03
:102700008091570160E00E945E128823B9F7F2CFF2
:10271000C798E1CFDF91CF911F910F910895AF92AC
:10272000BF92CF92DF92EF92FF920F93CF93DF93FE
:1027300080916C0184FD6EC08091570160E00E9421
:102740005E12882329F480916E01882309F456C013
:10275000C79A0E942D6180E060E040E950E020E0EF
:1027600000E00E94BB5A0E94A15F809154010E9428
:10277000975F0E9470100E94440E0F5F0032D9F7DD
:10278000AA24BB2400E0802F0E94360EC92FD0E07F
:10279000AC0EBD1E0F5F0430B1F7F894C090420D2F
:1027A000D090430D789480E991E0C80ED91E1CC0EA
:1027B0000E94440EC0E0D0E000E0802F0E94360E60
:1027C000E92EFF24CE0DDF1D0F5F0430B1F786B375
:1027D00080958E77F9F4CA15DB05E1F411C080917C
:1027E0006E018823A9F0C79AF8948091420D9091C8
:1027F000430D7894C816D906D9F60CC0C798A9CF4E
:102800008091570160E00E945E12882361F7E7CF54
:10281000C798EACFDF91CF910F91FF90EF90DF90B3
:10282000CF90BF90AF9008951F93CF93DF93C0E1F7
:10283000D4E011E08881882351F060E00E945E12AC
:10284000882329F0812FDF91CF911F9108951F5F79
:102850002D96153079F710E0F5CFDF92EF92FF92C9
:102860000F931F93E82E082F0F70065010918101CF
:102870001770083008F0B2C0E02FE595FF27E7FD9C
:10288000F09580916A0190E0880F991F880F991F39
:10289000E80FF91FEA50FB4FF490FA940E941414C9
:1028A000682F8F2D0E94170ED82E6F2D0E94F30DCA
:1028B000BC01112389F477FF04C088279927861B60
:1028C000970B9595879595958795019681329105FA
:1028D00084F080E290E00DC0212F332727FD309552
:1028E0002150304081E090E002C0880F991F2A9566
:1028F000E2F7982F22E0F21639F48091800183FFED
:1029000003C094E081E001C080E0492F552747FDD6
:10291000509500FF06C0460F571F10E023E83FEF19
:1029200005C09B01241B350BA901F7CF21153105EB
:1029300019F4882329F015C09FEF2338390749F08F
:10294000421753071CF0621773074CF02D373105FF
:1029500041F0241735072CF02617370714F4A90186
:1029600011E023583F4F2A3F310501F764177507DF
:1029700024F44E37510544F40CC0461757074CF465
:102980002FEF433852072CF48091810186FFAB0171
:1029900011E03EEF4C3053071CF44CE05EEF06C0F4
:1029A00081E0453F580714F044EF51E08D2D6F2D25
:1029B0000E94950F112341F08E2D0E94AB62109260
:1029C000550480915F0407C0E6FE03C081E0809358
:1029D000550480915E0480935C04EE248E2D1F913B
:1029E0000F91FF90EF90DF900895AF92BF92CF923A
:1029F000DF92EF92FF920F931F93CF93DF935C01CF
:102A0000A9EEB6E0FC0198E001900D929150E1F73B
:102A10006F3F19F40E941414682F1AEFC12E12E0B0
:102A2000D12E0FEFC0E0D0E0E62EFF240894E11C89
:102A3000F11CFE01EE0FFF1FEE0FFF1FE950FD4FCF
:102A40002081822F837009F4A2C0269526952370D9
:102A500030E0802F992787FD90952817390709F4D2
:102A60008DC08181807E99F0828180FD10C0FE0141
:102A7000EE0FFF1FEE0FFF1FE850FD4F8081829584
:102A80008695877090E0E816F90609F077C0FE0198
:102A9000EE0FFF1FEE0FFF1FE850FD4F8081880FE4
:102AA000880F880F85958595859561E00E945E1257
:102AB000882309F463C0FE01EE0FFF1FEE0FFF1F16
:102AC000E950FD4F8081182F169516951370E12F50
:102AD000F0E0EE0FFF1FE751F94F0190F081E02D7C
:102AE0008370F7FF03C080FD03C048C081FF46C06C
:102AF000012FD6016C91772767FD7095CF010E9459
:102B0000C00D9C01FE01EE0FFF1FEE0FFF1FE950ED
:102B1000FD4FE0818E2F807F69F06E2F62956F7080
:102B2000862F90E00B970CF06C5FC90140E00E948B
:102B3000220D9C01B901882777FD8095982FFE0111
:102B4000EE0FFF1FEE0FFF1FE750FD4F2081269570
:102B500030E040E050E00E94666624E630E040E06D
:102B600050E00E94DA66E12FFF27E7FDF095EE0FB7
:102B7000FF1FEA0DFB1DC90120839183219684E08C
:102B800090E0C80ED91ECE30D10509F052CFDF91AA
:102B9000CF911F910F91FF90EF90DF90CF90BF905A
:102BA000AF9008957F928F929F92AF92BF92CF92F3
:102BB000DF92EF92FF920F931F93CF93DF93782EC4
:102BC00007E2A02E01E0B02EEE24CC24DD2411E09B
:102BD000812E912C8C2D843010F0FC2C0DC0E091B6
:102BE0006A01F0E0EE0FFF1FEE0FFF1FEC0DFD1D61
:102BF000EA50FB4FF490FA940E94360E9C01D501E6
:102C00008D919C911197281B390B121613062CF4E9
:102C10005C96ED91FC915D9705C0D5011E96ED91F6
:102C2000FC911F97E436F10514F4E4E6F0E0B901F5
:102C3000882777FD8095982FAAE0660F771F881F59
:102C4000991FAA95D1F79F01442737FD4095542F2E
:102C50000E94DA66E901BCEF21303B071CF4C0E0BA
:102C6000DCEF06C0E4E020303E0714F0C0E0D4E022
:102C700080916C0180FF06C0F2E0FF1619F4D09538
:102C8000C195DF4F0F2D10E0F801EE0FFF1FEE573B
:102C9000F84FD183C083CE010F964F9740F4C40103
:102CA0000F2C02C0880F991F0A94E2F7E82A23E04C
:102CB0002F1508F45DC080915704882309F058C08F
:102CC00032E0F30E8F2D90E00197D40102C0AA0FDD
:102CD000BB1F8A95E2F7CD01816020917306309188
:102CE000740682239323892B09F442C0F801EE0F66
:102CF000FF1FE05AFE4FF0808F2D807CC9F1EF2D31
:102D0000EF73F0E0EE0FFF1FDF01A85ABE4FEB5844
:102D1000F94F608171812D913C91621B730B882763
:102D200077FD8095982FF801EE0FFF1FEA5DFE4FAB
:102D300023AD332727FD3095432F532F0E9466661E
:102D400022E330E040E050E00E94DA66F694F69428
:102D5000F694F694F694F694EF2DF0E0E130F10558
:102D600019F0329729F403C0C20FD31F01C0E90143
:102D7000000F111F09501B4FF801D183C083089425
:102D8000C11CD11C22E030E0A20EB31E37E0C316F6
:102D9000D10409F01FCF87EF94E0672D0E94F5144E
:102DA000FF2400E010E0A12C94E0B92EF801E950D6
:102DB000FB4FC080D1808F2D672D0E94170E6F2D85
:102DC0000E94F30DEC0182E0F81671F5809180010C
:102DD00083FF2AC080916C0180FF03C0D095C1950C
:102DE000DF4FBE01882777FD8095982F63587F4F6E
:102DF0008F4F9F4F95012C193D09442737FD409572
:102E0000542F0E94666620E038E040E050E00E94C7
:102E1000DA66B901CA016030A8E07A07A0E08A0743
:102E2000A0E09A0741F406C080917B04882311F04A
:102E3000C0E0D0E09E01220F331FF801ED5BFA4F96
:102E400031832083F3940E5F1F4FB4E0FB1609F02B
:102E5000ADCF8E2DDF91CF911F910F91FF90EF900D
:102E6000DF90CF90BF90AF909F908F907F9008950C
:102E70008F929F92AF92BF92CF92DF92EF92FF928A
:102E80000F931F93CF93DF930E941414C82E97EFD4
:102E9000E92E94E0F92E03E415E0C0E0D0E082E0F2
:102EA000882E912CAA24A394BC2E80916A0190E0D4
:102EB000817090709401281B390B2C173D0751F13C
:102EC0008C2F6C2D0E94170ED82EA09257048C2D9B
:102ED0000E94D21510925704F80180819181F70168
:102EE00020813181820F931F62E070E00E94A5660D
:102EF000AB01FEEF6C307F071CF44CE05EEF06C0C8
:102F000021E0653F720714F044EF51E08D2D6B2DE9
:102F10000E94950F219682E090E0E80EF91E0E5F68
:102F20001F4FC430D10509F0BFCF82E00E94E153AA
:102F300080915E0480935C04DF91CF911F910F918B
:102F4000FF90EF90DF90CF90BF90AF909F908F90C9
:102F500008952F923F924F925F926F927F928F923D
:102F60009F92AF92BF92CF92DF92EF92FF920F9318
:102F70001F93DF93CF93CDB7DEB729970FB6F894A1
:102F8000DEBF0FBECDBF9F838E83162F862F0E947C
:102F9000D215409183014823242F30E08091910580
:102FA00090E08227932782239323892B21F080911D
:102FB0005E0480935C044093910580E094E09093DC
:102FC0000605809305059093080580930705809179
:102FD0005704882379F180916A0190E081709070A4
:102FE00022E030E0281B390B1092F8041092F7040D
:102FF0002130310521F01092FA041092F9042230A8
:10300000310521F01092FC041092FB041092FE0492
:103010001092FD04EFE0F5E01192119225E0EF31FE
:10302000F207D1F74BE455E05A8349832FE135E0AD
:10303000FA0146C06FE075E040E050E0FA01EB585D
:10304000F94FDA01AA5DBE4F80819181D2962D9110
:103050003C91D397821B930B880F991FDB018D93B3
:103060009D93BD014E5F5F4F4830510539F7809108
:103070007D0690917E06880F991F90931805809386
:10308000170580917F0690918006880F991F909375
:103090001A05809319058091810690918206880F08
:1030A000991F90931C0580931B0580918306909136
:1030B0008406880F991F90931E0580931D05B2CF3B
:1030C00080819181D9018D939D939D013496B5E0C6
:1030D000E339FB07A9F780E4EBE4F5E0DF011D929B
:1030E0008A95E9F710927206B2E54B2EB6E05B2E98
:1030F000A2ED8A2EA5E09A2EF2E96F2EF5E07F2E42
:103100001D82212E33240894211C311C8D810E94A4
:103110009E0C6C01FC0180818F7159F4E7EA4E2E00
:10312000E2E05E2E23EC33E03C832B832224332425
:10313000A4C290E0419794F7D60117969C91892FED
:10314000807FC1F0892F8595859585958595282F58
:10315000332727FD309518162CF42216330609F074
:103160007AC208C088279927821B930B2816390634
:1031700009F471C2F601838161E00E945E12D201FE
:103180009C918823C1F4492F1C92F6019181892FCB
:103190008850823008F05FC287818E70843009F4D5
:1031A0005AC2993019F01986188640C020E03CEFC9
:1031B000398728873BC040E0992309F441E081E04A
:1031C000D2018C93F60181818150A82FB0E0FD01DE
:1031D000EE0FFF1FE950FB4F20813181398728878F
:1031E000843168F03D81831750F4AA0FBB1FAA0FEA
:1031F000BB1FA55BBA4F8D919C9199878887D6019B
:103200009C91892F807E91F0929596959770892F49
:1032100090E00197E1E0F0E002C0EE0FFF1F8A9519
:10322000E2F7209172062E2B20937206D601189693
:103230008C918823C9F0B9E28B0290011124359555
:1032400027953595279587FD815C86FB880F880B30
:1032500080F9992787FD9095281B390BE885F9851A
:10326000E20FF31FF987E887D60116968C9116971F
:10327000882329F415968C91882309F46CC1F401F4
:103280006081718182819381442391F420E031E057
:1032900040E050E00E94DA665095409530952195C7
:1032A0003F4F4F4F5F4FA884B984A20EB31E5FC03B
:1032B000D60117968C9117978E70843049F5EC9152
:1032C000EF71F0E0EE0FFF1FE35EFA4F6081718156
:1032D000882777FD8095982F20E034E640E050E085
:1032E0000E946666F4016083718382839383D601B2
:1032F00012962C91222361F0332727FD3095432F1E
:10330000532F0E94DA66F401208331834283538372
:10331000D4016D917D918D919C9120E031E040E050
:1033200050E00E94DA6650954095309521953F4FC8
:103330004F4F5F4FA884B984A20EB31EA114B104ED
:10334000B1F0F6018581B7FE02C08F7002C0829590
:103350008F7090E09C0144E650E0249FC001259FBF
:10336000900D349F900D1124D3018D939C93F30104
:10337000208131812115310599F0809167048823DE
:1033800021F02150304031832083D3018D919C91D5
:10339000892B31F0F4016081718182819381C2C0F7
:1033A000A114B10409F4D7C0D60116968C911697D2
:1033B000882309F4C0C080916704882309F477C08A
:1033C00012962C91222329F460E070E080E293E0D1
:1033D00017C0332727FD309537FF03C0309521955F
:1033E0003F4F332727FD3095432F532F60E070E088
:1033F00080E293E00E94DA66C901DA01BC01CD01E6
:10340000F60126811A141B040CF52F70422F50E090
:1034100041155105D9F1A4E6B0E04A9F90014B9FB8
:10342000300D5A9F300D1124442737FD4095542FFD
:103430000E94DA6679018A01F40180819181A2817A
:10344000B381E80EF91E0A1F1B1F2BC022952F7097
:10345000422F50E041155105C9F0A4E6B0E04A9F63
:1034600090014B9F300D5A9F300D1124442737FD9A
:103470004095542F0E94DA66F401E080F1800281C9
:103480001381E21AF30A040B150B0BC0288539854A
:10349000C901AA2797FDA095BA2FEE24F82E092F6F
:1034A0001A2FD401ED92FD920D931C931397F40102
:1034B0006081718182819381288539857901002716
:1034C000F7FC0095102F1A141B0464F420E031E07F
:1034D00040E050E00E94DA66E216F30604071507A2
:1034E00064F01BC020E031E040E050E00E94DA666A
:1034F0002E153F054007510784F448855985CA01B8
:10350000AA2797FDA095BA2FBA2FA92F982F882701
:10351000F40180839183A283B383D4016D917D9163
:103520008D919C9120E031E040E050E00E94DA660D
:103530003987288710C0E885F985CF01AA2797FD2C
:10354000A095BA2FBA2FA92F982F8827F40180832E
:103550009183A283B383D60114966C91149766234A
:1035600041F08885998511964C910E94220D99878A
:103570008887F601878180FD12C0E181EE2379F012
:10358000E53068F4F0E0EE0FFF1FEF5BFA4F80814B
:10359000918128853985280F391F398728874885E3
:1035A0005985BA01882777FD8095982FD601129604
:1035B0002C91332727FD3095432F532F0E946666A9
:1035C0009B01AC01F60180818F71082F10E0015042
:1035D000104087818695877090E08130910551F089
:1035E000F801EE0FFF1FEE0FFF1F029731F5E55BAD
:1035F000FA4F1EC0CA01B90124E630E040E050E0B5
:103600000E94DA66B901CA01000F111F000F111FD5
:10361000055B1A4FD8012D913D914D915C910E940F
:10362000666620E034E040E050E00E94DA66F8018F
:1036300020833183428353830EC0E55BFA4F808140
:103640009181A281B381820F931FA41FB51F808334
:103650009183A283B383FD81FF5FFD830894411CA6
:10366000511C24E030E0820E931E42E050E0640ED4
:10367000751EF03209F04ACD51CDA981BA818D90E5
:103680009D90AD90BC90C501B40124E630E040E0CF
:1036900050E00E94DA66E981FA8120833183428317
:1036A0005383F101E057F84FC90120839183D20180
:1036B00013962D913C91149711968C911197FAE0E5
:1036C0008F02F0011124E851FC4FF987E8878C91B3
:1036D0004AE084023001112488E19CEF680E791ED3
:1036E000CF015E2F492F2E173F071CF4C901522F1F
:1036F000492F852F942F8C01061517050CF4830193
:1037000081149104A104B10479F19801442737FD93
:103710004095542F181419041A041B0464F4A88546
:10372000B985BD01882777FD8095982F621B730BA3
:10373000840B950B0BC0C301AA2797FDA095BA2F48
:10374000281B390B4A0B5B0BCA01B901A501940177
:103750000E94666620EA36E841E050E00E94DA66A0
:10376000C901DA014C015D01C80155E095958795C5
:103770005A95E1F7800F911F9801232F330F330BD8
:103780002595820F931F000F012F001F110B801B27
:10379000910B6C01EE24D7FCE094FE2C8885998572
:1037A00025E0959587952A95E1F7E885F9858E0FAF
:1037B0009F1FA30105E0559547950A95E1F7B301D1
:1037C000660F672F661F770B460D571D9F01232F2E
:1037D000330F330B2595820F931FEE0FEF2FEE1F44
:1037E000FF0B8E1B9F0B8C01222717FD2095322F7C
:1037F000C80CD91CEA1CFB1C0C151D052E053F0529
:1038000014F468017901461B570B759567957595FA
:103810006795460F571FCA01AA2797FDA095BA2F93
:1038200087017601E816F9060A071B0714F47C01E4
:103830008D01D20112968C91882341F0109500954C
:10384000F094E094E11CF11C011D111DEB81FC8141
:103850008081882309F160E00E945E128823E1F0F4
:10386000AB81BC8111968C91B9E28B02900111243D
:10387000359527953595279587FD815C86FB880FC3
:10388000880B80F9992787FD9095281B390B7901C2
:103890000027F7FC0095102FEE81FF81E20DF31D4C
:1038A000F182E082E981FA813496FA83E98322E0A9
:1038B00030E0220E331E45E050E0440E551E8B8151
:1038C0009C8102969C838B83EB58F54009F0D5CE02
:1038D00029960FB6F894DEBF0FBECDBFCF91DF9112
:1038E0001F910F91FF90EF90DF90CF90BF90AF901E
:1038F0009F908F907F906F905F904F903F902F9010
:103900000895CF92DF92EF92FF920F931F93DF9370
:10391000CF93CDB7DEB7A0970FB6F894DEBF0FBE3A
:10392000CDBF81E0809357040E941414682F8E014C
:103930000F5F1F4FC8010E94A91710925704F8018A
:10394000AAEAB2E09E012F5D3F4F808191814CEF4A
:10395000883194071CF488E19CEF06C043E0883E60
:10396000940714F088EE93E011969C938E93329610
:103970001596E217F30749F700E010E0F2E0CF2ECA
:10398000D12CE02E80916A0190E0817090709601B8
:10399000281B390B2017310791F0FF248F2D6E2D36
:1039A0000E94F30D855F914034F48F2D6E2D40E021
:1039B00050E00E94950FF39445E0F41679F70F5FFD
:1039C0001F4F04301105E9F682E00E94E153809117
:1039D0005E0480935C04A0960FB6F894DEBF0FBE21
:1039E000CDBFCF91DF911F910F91FF90EF90DF90AE
:1039F000CF9008952F923F924F925F926F927F9255
:103A00008F929F92AF92BF92CF92DF92EF92FF92EE
:103A10000F931F93DF93CF93CDB7DEB7C756D04038
:103A20000FB6F894DEBF0FBECDBFF8942091420DC3
:103A30003091430DA4963FAF2EAFA497789420E029
:103A40008091B7069091B806A4964EAD5FADA4974D
:103A50004817590709F021E020936704A4966EAD3A
:103A60007FADA4977093B8066093B7060E941414B4
:103A7000A2968FAFA29740910701481709F475C02D
:103A8000282F30E04F3F51F4220F331F2355394F79
:103A90008FEF9FEFD9018D939C9362C0A42FB0E06C
:103AA0008DE090E0A89FF001A99FF00DB89FF00D68
:103AB0001124E65FFB4F608162956F70289FF001D3
:103AC000299FF00D389FF00D1124E65FFB4FE08138
:103AD000EF70E61718F0EE23F9F06E2F81E090E01A
:103AE000FC0102C0EE0FFF1F2A95E2F79F0102C002
:103AF000880F991FAA95E2F7280F8091AA06822BBA
:103B00008093AA068FE892E070E00E94916670931D
:103B1000AC066093AB0624C0AA0FBB1FA355B94FD8
:103B20001D921C92F901EE0FFF1FE355F94F8FEF25
:103B30009FEF9183808381E090E0BC0102C0660F1B
:103B4000771F2A95E2F79B0102C0880F991F4A95BB
:103B5000E2F7280F20958091AA0682238093AA0677
:103B6000A2967FADA297709307018091AA06882341
:103B700009F493C0FE01B19680E4DF011D928A959D
:103B8000E9F7ADEA2A2EA6E03A2E6624772443010F
:103B9000EE24FF24A596EFAFA597A696FFAFA697B4
:103BA000FE01EF59FF4FA896FFAFEEAFA8978091A7
:103BB000AA0690E00E2C02C0959587950A94E2F72C
:103BC00080FF41C0CE0101966E2D0E94A917CE0143
:103BD00001966E2D0E94A917D1018D919C915C01D7
:103BE000CC24DD24A5968FADA597A6969FADA6976C
:103BF0008C012E010894411C511CF201219131913C
:103C00002F01442737FD4095542FC601B5010E946E
:103C10006666D8012D913D914D915C91260F371F1D
:103C2000481F591FF80121933193419351938F01FC
:103C3000A8962EAD3FADA897E217F307F1F66A0CF0
:103C40007B1C8C1C9D1C0894E11CF11C42E050E084
:103C5000240E351E55E0E516F10409F0A8CF8E01BB
:103C60000F5D1F4F7E010894E11CF11CE1E6CE2E92
:103C7000D12CCC0EDD1ED8016D917D918D919D9141
:103C80008D01A40193010E94DA66F701219331931B
:103C90007F010C151D0579F707C0CE010196A2968C
:103CA0006FADA2970E94A91720E030E0AE014F5FF0
:103CB0005F4FF894F901EC54F84FDA01A20FB31FEB
:103CC0008D919C919183808378942E5F3F4F203219
:103CD000310579F78091170D882381F4809143088D
:103CE000882329F08BE398E00E94FC5607C080915E
:103CF0004E08882319F080E00E94E7538091670402
:103D0000882309F4B3C480914F04882379F4409147
:103D100086075091870780916C0180FF05C020E0E5
:103D200034E0241B350B15C09A010AC0E82FF0E0DF
:103D3000843048F0EE0FFF1FE455F84F20813181A9
:103D400020503C4F06C0EE0FFF1FE857F84F208170
:103D50003181490156E0969487945A95E1F7609134
:103D6000A5066F5F6093A5064091A3065091A40637
:103D7000480D591D5093A4064093A3062091A80610
:103D80003091A906A4968EAD9FADA497821B930B8C
:103D90008436910508F487C02C593F4F3093A9060B
:103DA0002093A80680916D0490916E0401969093E3
:103DB0006E0480936D04CA0170E00E9491664B010D
:103DC0009B01369527958091710490917204820F22
:103DD000931F90937204809371046115710549F0EB
:103DE00080916F0490917004019690937004809379
:103DF0006F048091A5066091A1067091A206680FDC
:103E0000711D7093A2066093A10640919F06509188
:103E1000A0068091A3069091A406480F591F5093C5
:103E2000A00640939F061092A5061092A406109239
:103E3000A3062091A6063091A706A4968EAD9FAD4D
:103E4000A497821B930B885E934068F128513C4FE6
:103E50003093A7062093A606CA010E9491664B01E3
:103E60001092A00610929F061092A2061092A10630
:103E70008091F4049091F504FC01E458FB4F6083B9
:103E800001969093F5048093F4048837910520F00F
:103E90001092F5041092F4048091F60487FD03C09B
:103EA0008F5F8093F604552432E0232E44244394FC
:103EB00024E0322E552039F4F0907D01A0907E014F
:103EC000B0907F010AC021E0521609F063C1F09062
:103ED0008401A0908501B0908601FF2009F458C1AB
:103EE000052D10E0F801ED58FB4F8081882391F4F7
:103EF0004082F801EE0FFF1FDF01A457B94F1D925A
:103F00001C92DF01A057B94F1D921C92EC56F94F3D
:103F100011821082F7FC02C0EF2C02C0E32CEF18D4
:103F200033E0E316A9F4F801EE0FFF1FDF01A457F9
:103F3000B94F8D919C91119701968D939C93E05769
:103F4000F94F80819181880D991D9183808348C0AC
:103F500049E14E1508F044C0F801EE0FFF1FDF01E4
:103F6000A057B94FE457F94F208131818D919C9131
:103F7000282B392BF801E856F94F808190E0282B47
:103F8000392BF801E656F94F808190E0282B392B28
:103F9000232B31F4FF208F2D880F880B8421808301
:103FA0001F141CF48F2D895102C08F2D875E60E095
:103FB0000E945E12282F882379F0F801E656F94F07
:103FC0008081882349F4F801E856F94F90E0808118
:103FD000882309F491E09083F801E656F94F208395
:103FE000F801E758FB4F9081892F8F5F80838436DB
:103FF00008F4CEC093569083A114B10461F0F80187
:10400000EE0FFF1FEB58FB4F80819181B501681BBC
:10401000790B7183608371E0E71609F47BC082E05D
:10402000E81629F48114910409F47EC073C093E06A
:10403000E91609F047C06801CC0CDD1C7CE8672E4E
:1040400076E0772E6C0C7D1CD301ED90FC90E11492
:10405000F10409F469C0F601E057F94F208131817C
:10406000C901B7010E9491664B016E9DC0016F9D11
:10407000900D7E9D900D1124281B390B31832083D8
:10408000F301118210829B0136952795D601AC561B
:10409000B94F8D919C911197280F391F11963C9320
:1040A0002E932031310508F43FC0F601EB58FB4F49
:1040B00080819181019691838083205130402D939E
:1040C0003C9332C0F4E0EF1671F48114910411F5C1
:1040D000F801EE0FFF1FEB58FB4F808191811816FE
:1040E0001906C4F021C029E12E1570F01F141CF42C
:1040F0008F2D845002C08F2D8C5F60E00E945E1275
:10410000F801E856F94F8083F801E856F94F8081AD
:10411000882351F0F801EE0FFF1FEB58FB4F808111
:104120009181019691838083D801AD58BB4F8C91CA
:10413000813019F08230F1F40FC0A114B10441F1C3
:10414000F801EE0FFF1FEB58FB4F808191818A151C
:104150009B059CF02C9211C0C501CB96F801EE0F87
:10416000FF1FEB58FB4F208131818217930714F416
:1041700033E03C93A114B10459F0F801EE0FFF1F96
:10418000EB58FB4F80819181A81AB90AB182A082B5
:10419000539490CE209175043091760480919D06C1
:1041A00090919E068217930709F48DC08091730445
:1041B000813009F070C080916C0182FF4BC080910A
:1041C0007E0190917F01892B09F444C02E31310585
:1041D00039F482E080936A0480915F0480935C04E8
:1041E0008091750490917604449739F481E080932E
:1041F0006A0480915F0480935C04809175049091BF
:1042000076040A9721F480915F0480935C04809186
:10421000750490917604049724F480915F04809350
:104220005C0480916C0183FF15C0809175049091AE
:1042300076048E31910541F08431910529F08A3060
:10424000910511F0049734F482E390E090936904AF
:104250008093680480916C0181FF2DC020917E01C4
:1042600030917F012115310549F0809175049091BD
:104270007604A901481B590BCA0104C0809175043A
:10428000909176046CE370E00E949166892B99F41A
:1042900080915F0404C0823071F480916004809347
:1042A0005C0480916C0183FF06C082E390E09093F0
:1042B00069048093680480917504909176049093CA
:1042C0009E0680939D068091AA06882309F452C019
:1042D000EDEAF6E0A0E0B0E061E0E62EF12CCC24BF
:1042E000CA94DC2C8701A2960FACA29702C0000FE3
:1042F000111F0A94E2F76091AA06862F90E00A2E19
:1043000002C0959587950A94E2F780FF2EC0408100
:1043100051812091AB063091AC06A2968FADA29749
:104320008A1779F4CA01809590952817390728F4DF
:10433000240F351F3183208318C0D182C082601BB7
:1043400012C02417350728F4421B530B51834083B6
:104350000CC011821082C7010A2E02C0880F991F5B
:104360000A94E2F7681B6093AA0611963296A5306C
:10437000B10509F60E946A128091B207882319F0EC
:1043800081508093B20780916B01882309F466C045
:1043900080916604833308F461C080918B0590910D
:1043A0008C05A0918D05B0918E050196A11DB11DC2
:1043B00080938B0590938C05A0938D05B0938E050B
:1043C00000E010E0FF248F2D0E94360E56E09695F7
:1043D00087955A95E1F7080F191FF39494E0F916A1
:1043E00091F780918F05909190050817190761F05A
:1043F0001093900500938F0510928B0510928C05F9
:1044000010928D0510928E05E0908B05F0908C0532
:1044100000918D0510918E0560916B0170E080E038
:1044200090E020E737E140E050E00E9466666E15BC
:104430007F058007910790F42FE330E040E050E0E3
:10444000E222F322042315233AE0E316F1040105E6
:10445000110521F48091600480935C0480917B04B9
:10446000882319F0815080937B040E942D610E9463
:1044700088610E942D14182F80916804909169041E
:10448000009729F0019790936904809368041123A1
:1044900089F080916E0190E024EF31E0AC01429F01
:1044A000C001439F900D529F900D11249093690479
:1044B000809368048091570160E00E945E12882317
:1044C00039F48091680490916904892B09F4CCC077
:1044D000C79AE091E507F0E0EE0FFF1FE952F84FB1
:1044E0000190F081E02D812F09950E94A15F8091BC
:1044F0005C04882341F480916A04882321F480912C
:104500006C04882311F084E105C08091870688231C
:1045100021F081508093870608C08091630090E06D
:104520009695879581708093880680918806882368
:1045300021F0809165008F7E03C0809165008061CD
:1045400080936500A4968EAD9FADA4978F719070F7
:104550008230910521F0039709F088C06EC08091E8
:10456000640490916504892B39F487E00E94360E2B
:104570009093650480936404809164049091650431
:104580008C0123E0000F111F2A95E1F7081B190B7E
:1045900087E00E94360E800F911F13E09695879555
:1045A0001A95E1F77C0100E010E090936504809398
:1045B000640420915601332727FD3095432F532F54
:1045C000C801B7010E94666628E030E040E050E094
:1045D0000E94DA66B4E0EE0CFF1C001F111FBA95B2
:1045E000D1F7E20EF31E041F151F209162043091D3
:1045F000630440E050E0C801B7010E94DA662093EE
:10460000660480919C06805E80939C06882371F5E9
:1046100080915501281750F5233340F180916104B2
:1046200080935C0480916C0183FF20C082E390E062
:10463000909369048093680419C0809169018695FC
:1046400086958695877090E0BC01660F771F660F90
:10465000771F680F791F6A5F7A4F8DE594E045E018
:1046600050E00E94F56602C0C79833CFC959DF4FAA
:104670000FB6F894DEBF0FBECDBFCF91DF911F9173
:104680000F91FF90EF90DF90CF90BF90AF909F90F1
:104690008F907F906F905F904F903F902F900895F4
:1046A0001F93CF93DF939FEF9ABB1BBA81E887BB21
:1046B0008EE788BB8EE384BB81EC85BB11BA92BBCD
:1046C00088E082B987EF83B910926100109262008E
:1046D00080E180936400909365000E94635F80E4B2
:1046E00087B985E886B987E083BF8CE981BF87B742
:1046F000836087BF8AE08EBD82E880938A008091C4
:104700007D00806280937D00EDB7FEB7329785E52E
:1047100002C0808331974DE0E634F40709F0C8F712
:1047200080E39FE49093D8078093D70787E393E4CF
:104730009093DA078093D90789E10E94975F789474
:104740000E9409551091530184B7813061F00E9495
:104750008F130E94F4120E948E0E0E943F130E943B
:1047600003130E94E8120E9470100E941414682F14
:1047700084EB97E00E94A917809154010E94975FF3
:1047800080916E0190E024EF31E0AC01429FC001C6
:10479000439F900D529F900D112490936904809334
:1047A000680480915301181719F081E00E94E153C9
:1047B0000E943F252DE088E190E00FB6F894A8957F
:1047C00081BD0FBE21BD0E94000FEC01E0916D0183
:1047D000F0E0EE0FFF1FE050FF4F0190F081E02D61
:1047E00009950E94A20E0E94FA1C80915604833003
:1047F00019F4A895109256040E94000F20915304BA
:10480000309154048C1B9D0B8217930708F4C90147
:104810009093540480935304D6CFEDE7F0E0808169
:10482000857E808317981F9AAAE8B0E01C921092A8
:104830008B0082E88C9380818062808308956F92E0
:104840007F928F929F92AF92BF92CF92DF92EF9220
:10485000FF920F931F93CF93DF93909180019770F6
:10486000809108018917C9F0909308010E940D24D6
:104870001EBC80E49CE99BBD8ABD1DBC1CBC87B7E7
:10488000837C87BF8CE386BF8FE380937C0087B7F0
:10489000806187BF1FBC8AE08EBD8091810185FD4C
:1048A00004C0E12C34E0F32E03C0E12C25E0F22E0D
:1048B000409180014595459545954595440F485F44
:1048C0009091820184E69802D0011124A85ABD4F2C
:1048D000882499248A1A9B0A80914E04992787FD7F
:1048E000909528EE33E0829FB001839F700D929FD8
:1048F000700D1124685370456A1B7B0B04EB17E0A5
:10490000E1EFF6E050E0440F551F440F551F5F01E3
:10491000A40EB51ECC24DD24CE18DF0888E5682E51
:1049200082E0782E6A1A7B0A1DC0C601E801288140
:1049300039812C153D0534F02E153F0514F0C701C3
:1049400001C0C901805A964F9401281B390B620F90
:10495000731F860D971D91838083B383A283349642
:104960000E5F1F4FEA15FB0501F7FA01EF50F94FF3
:1049700071836083B383A2831582148281EF96E0F2
:1049800090930A0180930901DF91CF911F910F91BC
:10499000FF90EF90DF90CF90BF90AF909F908F905F
:1049A0007F906F9008951F920F920FB60F9211246F
:1049B0001F932F933F934F935F936F937F938F93A7
:1049C0009F93AF93BF93EF93FF931CB580918107A3
:1049D000882321F0C09A1092810704C0C09881E01A
:1049E00080938107A0910901B0910A01FD01819195
:1049F00091919BBD8ABDF0930A01E0930901129643
:104A00008D919C911397892BB9F4809181018295A6
:104A10008F70809581708093810787B78F7E87BF65
:104A20000E941F2480918001877011F0833021F44F
:104A300087B7806187BF789480915104811710F403
:104A40001093510480915204181710F410935204DB
:104A500080915604816080935604FF91EF91BF913D
:104A6000AF919F918F917F916F915F914F913F9106
:104A70002F911F910F900FBE0F901F9018950E94BD
:104A80001F2487B7806187BF0895FC01A091E507C7
:104A9000B0E0AA0FBB1FA952B84FED93FC938FEB68
:104AA000099580915D0480935C0408959C01909128
:104AB000E507E92FF0E0EF51F84F8091E60780839A
:104AC000E92FEF5FE093E507E53040F09093E507CD
:104AD00086E797E160E00E94A512089580915D0449
:104AE00080935C04F0E0EE0FFF1FE952F84F318332
:104AF00020838FEBF90109950895E091E507EE23F6
:104B0000D1F0E150E093E50780915D0480935C046F
:104B10001092E707F0E0DF01AF51B84F8C9180931E
:104B2000E607EE0FFF1FE952F84F0190F081E02DEC
:104B30008EEB0995089586E797E160E00E94A51243
:104B400008958F929F92AF92BF92CF92DF92EF9291
:104B5000FF920F931F93CF93DF93182F7B014A018E
:104B60005901C02E84FD04C044E0D42E05E005C0E8
:104B70001F70106635E0D32E04E08D2D8066181767
:104B800061F08D2D8064181741F09091B1071916CE
:104B900064F4133611F0133441F4E7012196809147
:104BA0005D0480935C04802F17C0802F80661817E7
:104BB00061F0802F8064181741F019160CF075C051
:104BC000123619F0123409F070C0E7012197809174
:104BD0005D0480935C048D2D90E00E942462882304
:104BE00051F0CC27DD27CE19DF09802F0E94AB6260
:104BF0008D2D0E94AB628114910491F481E0A8167E
:104C0000B10471F4103661F41092B107C0E0D0E045
:104C1000E114F10411F4C1E0D0E080E60E94AB623F
:104C20008091D4079091D507C81BD90BAC16BD064F
:104C300044F4812F0E94AB6280915F0480935C04F6
:104C4000E501C815D90544F4812F0E94AB6280911B
:104C50005F0480935C04E401CE15DF05B1F020977A
:104C600039F4812F0E949C6280915D0480935C04E2
:104C70008C2D83700E94E153EC16FD0614F08FEF2B
:104C800001C081E08093D60702C01092D607CE0102
:104C9000DF91CF911F910F91FF90EF90DF90CF9018
:104CA000BF90AF909F908F900895E701A4CF0F938E
:104CB000772767FD7095552747FD5095332727FDCA
:104CC000309501E00E94A1250F9108950F93772759
:104CD00067FD7095552747FD5095332727FD309583
:104CE00002E00E94A1250F910895FF920F931F9358
:104CF000F82E162F042F80E860E0412F50E0202F7F
:104D00000E94415E1A3010F485E701C08FE660E032
:104D10004FE2202F0E94185B1A3010F485E701C083
:104D20008FE64F2D50E04F5F5F4F60E0202F0E94D5
:104D3000415E1F910F91FF9008959F92AF92BF9295
:104D4000CF92DF92EF92FF920F931F93CF93DF9357
:104D5000F82ED62EEA01B22E9C2CE0918E07F0910F
:104D60008F078091EC079091ED078E1B9F0B60E2FF
:104D700070E00E94A5669B017093D5076093D407ED
:104D80006115710521F0F093ED07E093EC07E091D8
:104D90008A07F0918B078091EA079091EB078E1BB1
:104DA0009F0B60E470E00E94A566A62E662321F0AA
:104DB000F093EB07E093EA07E0918C07F0918D0701
:104DC0008091E8079091E9078E1B9F0B60E470E0EB
:104DD0000E94A566C62E662321F0F093E907E093B2
:104DE000E807AA2021F4CC2011F4232B89F080912C
:104DF0006E0190E024EF31E0AC01429FC001439F7F
:104E0000900D529F900D1124909369048093680433
:104E1000209711F429E75FC08091E607882309F005
:104E200041C08091B307882309F03CC0AA2011F447
:104E30008D2D09C09B2D91508D2D8A1987FD80E005
:104E400098170CF4892F54E6F51651F095E6F916EB
:104E500099F4DD2011F08D2D01C08B2D81500CC0F7
:104E60002D2D30E08B2D90E001972817390714F095
:104E700080E002C08D2D8F5F282F332727FD3095CE
:104E80008D2D90E02817390711F442E00CC0F9018C
:104E9000EE0FFF1FEC0FFD1F859194910E94452599
:104EA00080E06FC140E01092B3078D2D6B2D0E9402
:104EB00075262091120D2E508D2D90E0019666EFF3
:104EC0007FEF0E94A566CB01880F991F880F991F5D
:104ED000860F971F280F8BE398E0622F0E949E5544
:104EE0000115110511F430E00AC08091E6079E2DEE
:104EF0008E1508F4982FF801E90FF11D34914091B7
:104F0000B1071416C4F1CC2011F18091E6078C1979
:104F100087FD80E0992D89150CF4982F9093E60772
:104F20002091E7070115110511F480E00BC0892FCE
:104F3000E91608F48E2DF801E80FF11D8491281769
:104F400008F4822F8093E70780E68093440DAA201F
:104F500091F08091E607882371F08091E7078A1924
:104F600087FD80E0932F83170CF4982F9093E70729
:104F700080E68093440DE0E6FE16C9F1EF15B8F027
:104F8000F3E4FF1609F4AFC0FF1540F051E2F51647
:104F9000E9F182E4F81609F0D4C07CC094E4F91673
:104FA00009F44EC0E5E4FE1609F0CBC05DC0F4E69E
:104FB000FF1609F44AC0FF1548F052E6F51609F449
:104FC0006EC083E6F81609F0BCC091C091E8F916EE
:104FD000D1F0EFEBFE1629F0F5E6FF1609F0B1C0AF
:104FE00048C01092E7071092E6078FEF09C03323FD
:104FF00009F4A7C01092B10714160CF4A2C081E006
:105000008093B1079EC01092B1070BC014161CF418
:105010001092B10796C08091E607882311F020977F
:1050200019F40E947D258DC080915D0480935C04FD
:105030001092E7071092E60780E68093440D85C042
:105040008091E707831709F47CC0012B09F479C02C
:1050500014160CF476C08091E707831710F48F5F65
:1050600013C01092E7076AC08091E707882309F40C
:1050700068C0012B09F465C014160CF462C080915D
:10508000E707882321F081508093E70757C03093CA
:10509000E70754C08091E607891509F452C0141639
:1050A0000CF44FC08091E607891510F080E001C034
:1050B0008F5F0115110509F470C0982FE81608F4E8
:1050C0009E2DF801E90FF11DE491EF3F09F065C055
:1050D000EBCF8091E6078E1508F4E82E0E0D111D1A
:1050E000F801049126C08091E607882351F1141637
:1050F00044F18091E607882311F4892D01C0815085
:105100000115110509F452C0982FE81608F49E2DD8
:10511000F801E90FF11DE491EF3F09F047C0EBCF33
:105120008091E6078E1508F4E82E0E0D111DF8018A
:105130000491901708F4092F0093E70780E6809305
:10514000440DCD2B11F456E001C057E04091E60725
:10515000442319F41092B00713C0242F30E080913B
:10516000B007281B3109852F90E08217930714F4AC
:10517000451B04C0121613061CF041504093B007A3
:1051800081E0DF91CF911F910F91FF90EF90DF9021
:10519000CF90BF90AF909F9008958093E607909135
:1051A000E7070115110509F094CF08C08093E607C1
:1051B0009091E7070115110509F0B2CF00E0BCCFCF
:1051C000CF92EF920F931F93C02E00E010E0EE24D9
:1051D0000E949D261F910F91EF90CF9008950F93FD
:1051E000062F60E040E050E020E00E94E0280F91B0
:1051F00008950F93942F222311F400E001C002E0E0
:1052000043E0949FA00111244557504F23E00E9492
:10521000C75F0F910895DC01FB0105C09C9180815F
:105220008D93919341504423C9F70895CF92DF9213
:10523000EF92FF920F931F93CF93DF93182F80E08D
:1052400060E04AE258E122E00E94E35B812F6AE0DD
:1052500049E755E02BE008E00E94E028882309F4A4
:1052600065C0F090E607FA941038A9F480E80E942F
:10527000AB6289E18093B20786E08F1518F08F2D1D
:105280000E940D6487E0F81611F40E949C638091DF
:105290005E0480935C0418E0EE24CF2CDD24C7FC70
:1052A000D0944091B0074E0D473019F4193370F186
:1052B0003DC0C42FD0E0CC16DD0611F020E101C0C6
:1052C00022E1AE014F5F5F4F82E1612F02E00E9459
:1052D000395D8091B207882319F4CC16DD0609F0F8
:1052E00000E0AE01440F551F4C0F5D1F440F551FCA
:1052F000440F551F4A585E4E88E1612F2CE00E94F2
:10530000C75F185FE394103461F610C08091B20754
:10531000882329F487E0F81611F422E001C020E088
:1053200086E0612F4FE354E10E94E35BDF91CF9170
:105330001F910F91FF90EF90DF90CF9008955F92B3
:105340006F927F928F929F92AF92BF92CF92DF9295
:10535000EF92FF920F931F93CF93DF93882E80E0FD
:1053600060E04CE058E122E00E94E35B882D68E0B9
:1053700049E755E02BE001E915E0EE24E3947CE0F9
:10538000C72E0E949D26882309F47FC08091E607DE
:105390008150992458E0A52E682E772467FC7094DC
:1053A0004EE0542E8091B007890D803109F46DC014
:1053B000C82EDD24BB24E601CC0FDD1FCD51DC4F10
:1053C0007601EE0CFF1C84EE93E0E80EF91E6C14DF
:1053D0007D0461F48091E7078B1541F48091B1075A
:1053E00018160CF047C011E001E002C000E010E028
:1053F000BB2021F091E0B91681F510C086E06A2D3E
:105400004881202F0E944B60112339F1882D68813B
:105410004AEE26E10E94662688831FC08881882381
:10542000C1F0F7014081459DA00111244A5F5E4E05
:105430008EE16A2D2EE00E94C75F112371F0882D46
:10544000F701608140E027E00E946626F701808333
:1054500004C0002311F01092E707B394F2E0BF16E6
:1054600009F0B5CF939488E0A80E97E0991609F05B
:1054700099CF0BC08091D4079091D507892B19F053
:1054800011E002E0B5CF02E0B2CFDF91CF911F91E2
:105490000F91FF90EF90DF90CF90BF90AF909F90D3
:1054A0008F907F906F905F9008959F92AF92BF9280
:1054B000CF92DF92EF92FF920F931F93CF93DF93E0
:1054C000982E80E060E04AE158E122E00E94E35B30
:1054D000892D69E049E755E02BE00FE815E0EE245F
:1054E000E394B0E1CB2E0E949D26882309F470C07E
:1054F000AA24A8E0BA2E4091B0074A0D403109F421
:1055000067C0C42EDD244F5F80E06B2D20E00E9439
:105510001D6100E07601EE0CFF1C83EC93E0E80EC9
:10552000F91EE601CC0FDD1FCC53DC4F8091E6075E
:1055300090E001978C159D0559F48091E70780173D
:1055400039F48091B1071816C4F511E021E002C0CA
:1055500020E010E0002319F0013021F512C084E2B0
:105560006B2DF70140810E944B601123D9F0892DEA
:10557000F70160814AEE26E10E946626F7018083EA
:1055800011C04881552747FD509580E66B2D0E943C
:10559000415E112339F0892D688143E82DE70E948F
:1055A000662688830F5F033009F6A394F8E0BF0EE8
:1055B00087E0A81609F09FCF0BC08091D407909187
:1055C000D507892B19F011E022E0C4CF22E0C1CF2A
:1055D000DF91CF911F910F91FF90EF90DF90CF90CF
:1055E000BF90AF909F9008955F926F927F928F923D
:1055F0009F92AF92BF92CF92DF92EF92FF920F9362
:105600001F93CF93DF93982E80E060E04CEF57E13B
:1056100022E00E94E35B892D67E049E755E02BE03B
:1056200003E915E0EE24E3947CE0C72E0E949D265A
:10563000882309F47EC18091E6078150AA2438E0CE
:10564000B32E682E772467FC709427E0822E9EE9A3
:10565000592E1091B0071A0D1C3009F46AC1E12EC1
:10566000FF246E147F0411F0DD2409C08091B1077E
:1056700018161CF082E0D82E02C0DD24D39480E0FE
:105680006B2D44E154E10E941E5C193010F441E39B
:1056900001C048E3410F8CE06B2D0E94DF5BF701F6
:1056A000EE0FFF1FEE0DFF1DEF55FC4FE0818091C7
:1056B000E707882311F000E001C00D2DE89DA0014F
:1056C00011244C555F4E87E16B2D27E00E94C75F88
:1056D000F701EE0FFF1FEE0DFF1DED58FE4FE25DCF
:1056E000FD4F8081EE52F240853008F412C1909156
:1056F000E707E45DFD4F883008F415C14081913023
:1057000009F05DC02D2D5CC020E088E46B2D0E9467
:10571000F160F701EE0FFF1FEE0DFF1DED58FE4F7C
:10572000E45DFD4F81919091E7078532B4F04081AF
:10573000923019F000E020E002C00D2D2D2D5527EC
:1057400047FD50954E595F4F86E66B2D0E94B75E20
:1057500050E036E240E82FE711C04081923011F06E
:1057600020E001C02D2D552747FD509588E76B2D72
:105770000E94415E50E036E243E82DE7CC243DC074
:1057800020E08EE46B2D0E944B60F701EE0FFF1FAF
:10579000EE0DFF1DE056FC4F40818091E7078230FF
:1057A00011F020E001C02D2D86E66B2D0E944B608C
:1057B0005AEE36E14AEE26E1CC24C3941EC020E026
:1057C00088E46B2D0E94F160F701EE0FFF1FEE0DD4
:1057D000FF1DE056FC4F40818091E707823011F0B9
:1057E00020E001C02D2D86E66B2D0E94F16050E077
:1057F00036E240E026E262E0C62E8091B10718163C
:105800003CF08091D4079091D507892B09F479C099
:10581000DD2009F476C08091E707813099F181306D
:1058200020F0823009F06DC05EC08701000F111FAB
:105830000E0D1F1D0F551C4F892DF801608140E092
:105840002DE00E946626F8018083853018F420E060
:1058500030E007C0883018F022E030E002C021E0DC
:1058600030E08C2D90E08217930709F44AC0F701CD
:10587000EE0FFF1FEE0DFF1DED58FE4FE45DFD4FD7
:1058800011922FC0E701CC0FDD1FCE0DDF1DCD58CB
:10589000DE4F8E01045D1D4FF801C080892D6C2DF7
:1058A000452F232F0E946626F8018083853239F424
:1058B000F4E2FC1524F0FE01E35DFD4F5082F70198
:1058C000EE0FFF1FEE0DFF1DED58FE4FE45DFD4F87
:1058D0008081EC52F2408432A1F48C1594F4E35DA3
:1058E000FD4F10820EC08701000F111F0E0D1F1DEE
:1058F00000561C4F892DF80160810E946626F80130
:105900008083A394F8E0BF0E87E0A81609F0A1CE2B
:1059100010C0E45DFD4F40818091E707813009F0C0
:10592000F3CE2D2DF2CE4081913009F029CF2D2DCF
:1059300028CFDF91CF911F910F91FF90EF90DF90D3
:10594000CF90BF90AF909F908F907F906F905F901F
:1059500008958F929F92AF92BF92CF92DF92EF9273
:10596000FF920F931F93CF93DF93182F80E060E097
:105970004FEE57E122E00E94E35B812F66E049E7AA
:1059800055E02BE000E10E94E028882309F483C061
:105990000091E6070150103611F0143641F407FD6E
:1059A00006C00093F4078DE89AE30E94562518E09C
:1059B000DD24D394AA24BB24802E992487FC9094C0
:1059C0002091B0072B0DC22FD0E08C169D0611F050
:1059D00000E001C002E0CC24283030F0CC24C39495
:1059E00086E08D1528F450C0E7E0ED1508F44CC0B2
:1059F000AA2009F4A02E2F5F80E0612F41E154E13D
:105A00000E94365FCC2069F0CE0108979C01F3E03C
:105A1000220F331FFA95E1F7280F391F295A3C4FFF
:105A200009C09E01220F331F220F331F2C0F3D1F71
:105A3000215D3C4FE90179010CE2F70141917F01C1
:105A4000552747FD5095802F612F20E00E94415E31
:105A50000B5E053991F7185FD394CC2081F00CE2EE
:105A60004D81552747FD5095802F612F20E00E94E2
:105A7000415E21960B5E003899F7185FD394B3947A
:105A8000F7E0BF1609F09CCFAA2029F48091B00757
:105A90008F5F8093B007DF91CF911F910F91FF909F
:105AA000EF90DF90CF90BF90AF909F908F90089530
:105AB0004F925F926F927F928F929F92AF92BF921E
:105AC000CF92DF92EF92FF920F931F93CF93DF93CA
:105AD000B82E80E060E048EE57E122E00E94E35BF0
