:100000000C949B0C0C94B80C0C94B80C0C94B80C7D
:100010000C94B80C0C94B80C0C94B80C0C94B80C50
:100020000C94B80C0C94B80C0C94B80C0C94B80C40
:100030000C94C2250C94B80C0C94B80C0C941510AC
:100040000C941C0F0C94B80C0C943C6F0C94B60FD1
:100050000C94B80C0C94B80C0C94BE6A0C94B80CAC
:100060000C94B80C0C943B0F0C94B80C0C94B80C7A
:100070000C94B80C0C94B80C0C94B80C0C94B80CF0
:100080000C94B80C0C94B80C0C94B80C535053004E
:100090008040000000F8FE060303030306FEF8009C
:1000A0000000000000000000000080C0C0E0F0F888
:1000B000FCFEFEFFFF7F7E3E3C1C0000C0E0E0F047
:1000C000E0000000000000000000000000000080D0
:1000D000E0F0F8F8FCFCFC7C3C381000000000006C
:1000E000000000000000000000000000000000C050
:1000F0004020202020202040408000000000000000
:1001000000000000000000000000000000000000EF
:100110000000000000E1E7666C6C6C6CE6C78100D3
:100120000000000080E0F0F8FCFE7FBF3F1F0F07DB
:100130000783C1E1F0F8FCFCFEFE00000103070F9D
:100140000F1E3C3870F0E0C080000080E0F8FEFF39
:10015000FF3F0F1F0F030000000000000000000021
:1001600000000080402020301010307E7FFFFBBC5C
:10017000C8F0000000F01030608001063CE0000094
:10018000000000000000000000000000000000006F
:100190000000000000FFFF0C0C0C0C0C0E0703000D
:1001A0000000F8FEFFFFFFFFCFC7E1F0F0F8FC7E94
:1001B0007F1FFFFFFFFFFFFF7F0700000000000021
:1001C00000000000000080C1F3FFFEFF7F7FEFC151
:1001D000C0800000000000000000000000000000DF
:1001E0001C7C7FFD800000008080C0C0E0F040F0FB
:1001F000F0C0038E7800818242432010080780807F
:10020000804040202020301030202020E050484402
:100210000020000000FDFD8C8C8C8C8C8C8C8C0064
:1002200000000107070707070F1F1F0F0703010043
:1002300000F8FFFFFFFF3F07000000000000000084
:100240000080C070BC7E171B0F0701000000000378
:10025000071F3FFEF8F0E0C0800000000000000033
:10026000000000000001010100F049AB1E1D353502
:1002700032323E3D3C1E1F3C4CCE8E0E0F0B021602
:100280001510080808040402020303050703090601
:100290000202000000BFBF313131313131B1B10054
:1002A000000000000000000000000000000000F05E
:1002B000FFFFFFFF0F0100000000000000C06018FA
:1002C000060305020000000000000000000000001E
:1002D000000000000101040707000000000000000A
:1002E000000000000000000000000103020201F90C
:1002F0002D2E0EFB0101808080808183061870C046
:1003000000000000000000000000000000000000ED
:100310000000000000FFFF070E3870C080FFFF00E4
:10032000000000000000000000000000C0F8FF7F97
:100330001F370700000000000000707C7F3F38007E
:1003400000000000000000000000000000000000AD
:10035000000000000000000000000000000080F02D
:10036000381808080808080808080808080C0C1FAE
:100370001010191909090908080808181018080F99
:100380000C0E0A0A0A0A0A0C0C08080C0C0C38E0BD
:10039000000000000007070000000001030707003D
:1003A000000000000000000000000403060301003C
:1003B000000000000000000000000000000000003D
:1003C000000000000000000000000000000000002D
:1003D00000000000000000000000000000E0FF4FEF
:1003E000404040404040404040404040404040400D
:1003F00040404040404040404040404040404040FD
:100400004040404040404040404040404040403FED
:10041000F8000000000000000000000000000000E4
:1004200000000000000000000000000000000000CC
:1004300000000000000000000000000000000000BC
:1004400000000000000000000000000000000000AC
:10045000000000000000000000000000E0FF0300BA
:10046000000000000000000000000000000000008C
:10047000000000000000000000000000000000007C
:10048000000000000000000000000000000000006C
:1004900007FC535045000102030401020403010359
:1004A0000204010304020104020301040302020125
:1004B0000304020104030203010402030401020411
:1004C0000103020403010301020403010402030205
:1004D00001040302040103040102030402010401F4
:1004E00002030401030204020103040203010403E2
:1004F00001020403020101020304010302040402D5
:1005000003010403020100000000000001081E6452
:100510000101081E6401010F32960A0A1E32960379
:10052000010200040506075F2D2E2C00564552538C
:100530003A2056322E30302D62736F6E6769730029
:100540002053564E3A206F70656E39782D723133D4
:100550003700444154453A20323031322D30312D6C
:1005600032350054494D453A2032313A30393A3526
:100570003500204D4F443A20465700564876449463
:1005800041463D413D7732C8319D2FE72E482EB779
:100590002A292A00FF0100010202FF0100010202D4
:1005A000000001000100020003030303030303032F
:1005B00003030303030303032F3332002F313400FB
:1005C0000600037500000902020000000000060298
:1005D00001120800081C0808081C08000008220076
:1005E000490022080000000000227F2200000008CD
:1005F00022004900220800000822004900220800C9
:100600000000227F22000000000008220049002292
:10061000080000081C0808081C08004C4FDA4D664A
:100620004C3E4DA34C584B410000020202020041D7
:10063000203A007A3A00793A00783A004043004084
:10064000430041203A005008000000000000000074
:100650006F000007000700147F147F14242A7F2AEC
:100660001223130864623649552250000503000026
:10067000001C2241000041221C0014083E081408FE
:10068000083E08080050300000080808080800600C
:100690006000002010080402003E41413E0000427C
:1006A0007F40006251494600414949360018141202
:1006B0007F0027454539003E49493200017905034D
:1006C0000036494936000649291E0000363600002A
:1006D0000056360000081422411414141414412248
:1006E000140800020151090606090906007E0909DD
:1006F000097E7F494949363E414141227F4141229D
:100700001C7F494949417F090909013E4149497A0C
:100710007F0808087F00417F41002040413F017F62
:10072000081422417F404040407F020C027F7F043A
:1007300008107F3E4141413E7F090909063E415173
:10074000215E7F09192946264949493201017F0165
:10075000013F4040403F1F2040201F3F4030403F6E
:100760006314081463070870080761514945430082
:100770007F41410002040810200041417F00040233
:100780000102044040404040000102040020545453
:1007900054787F48444438384444442038444448DA
:1007A0007F3854545418087E0901020C5252523EAC
:1007B0007F0804047800447D40002040443D007FD1
:1007C0001028440000417F40007C041804787C0815
:1007D00004047838444444387C141414080814146D
:1007E000187C7C080404084854545420043F4440B6
:1007F000203C4040207C1C2040201C3C4020403CB1
:1008000044281028440C5050503C4464544C44003C
:100810000836410000007F0000004136080008084B
:10082000221C08081C220808A0600000000000002C
:100830000000000000000000FEFE000000000000BC
:100840003E7E00007E3E00006060FEFE6060FEFEB8
:10085000606060F09898FEFE989818180C1E1E0CA8
:1008600080C0E070381878FC8EC6E6763C18000030
:10087000000066763E1E000000000000E0F0381C1C
:100880000E0600000000060E1C38F0E0000060605C
:10089000C080F8F880C0606080808080F8F8808038
:1008A0008080000000000000000000008080808048
:1008B0008080808080800000000000000000000038
:1008C0000000000080C0E070381800000000000048
:1008D0000000000000000000717100000000000036
:1008E000000000000000000006067F7F06067F7FF4
:1008F0000606181819197F7F19190F06181C0E07FC
:100900000301307878301E3F716367663C3C666651
:10091000000000000000000000000000070F1C386D
:100920007060000000006070381C0F0700000606B1
:1009300003011F1F01030606010101011F1F010121
:100940000101000066763E1E000000000101010169
:100950000101010101010000307878300000000041
:10096000181C0E070301000000000000F8FC0E0632
:10097000060EFCF80000181CFEFE0000000000003F
:10098000181C0E0686CEFC7800000606868686CEEB
:10099000FC78000080C0E070381CFEFE00007E7E07
:1009A000666666E6C6860000F8FC8E86868E1C1893
:1009B0000000060686C6E6763E1E000078FCCE865F
:1009C00086CEFC78000078FCCE8686CEFCF800004F
:1009D0003078783000000000000030787830000077
:1009E0000000000080C0E070381C0E06606060608F
:1009F000606060606060060E1C3870E0C0800000BF
:100A0000181C0E06060686CEFC7800001F3F70609C
:100A100060703F1F000060607F7F6060000000002A
:100A2000787C6E6763616060000060606161617323
:100A30003F1E00000707060606067F7F00001838E5
:100A4000706060703F1F00001F3F716161733F1E47
:100A5000000000007F7F0000000000001E3F736167
:100A600061733F1E000000006171391D0F07000017
:100A70000C1E1E0C00000000000066763E1E0000EA
:100A8000000000000103070E1C3870600606060611
:100A90000606060606066070381C0E0703010000F5
:100AA0000000000066670301000078FCCE8686CE59
:100AB000FC780000E0F0B89C8E8E9CB8F0E0FEFE62
:100AC0008686868686CEFC78F8FC0E060606060E1E
:100AD0001C18FEFE0606060E1C38F0E0FEFE86869A
:100AE000868686860606FEFE8686868686860606B6
:100AF000F8FC0E068686868E9C98FEFE808080809E
:100B00008080FEFE00000606FEFE060600000000D5
:100B100000000606FEFE0606FEFE80C0E070381CE1
:100B20000E06FEFE0000000000000000FEFE1C3865
:100B3000F0F0381CFEFEFEFE70E0C0800000FEFEFD
:100B4000F8FC0E060606060EFCF800000101010185
:100B5000000000007F7F0101010101017F7F7F7F95
:100B60006161616161733F1E1F3F70606060607012
:100B700038187F7F60606070381C0F077F7F61616D
:100B80006161616160607F7F01010101010100001D
:100B90001F3F7060616161717F3F7F7F01010101D3
:100BA00001017F7F000060607F7F60600000183877
:100BB000706060703F1F00007F7F0103070E1C38CC
:100BC00070607F7F60606060606060607F7F000059
:100BD000010100007F7F7F7F00000103070E7F7F00
:100BE0001F3F7060606060703F1FFEFE86868686D5
:100BF00086CEFC78F8FC0E060606060EFCF8FEFE15
:100C00008686868686CEFC7878FCCE868686868E1C
:100C10001C1806060606FEFE06060606FEFE000078
:100C200000000000FEFEFEFE000000000000FEFED0
:100C3000FEFE000000000000FEFE1E3E70E0C0C090
:100C4000E0703E1E7EFEC080000080C0FE7E060674
:100C5000060686C6E6763E1E0000FEFE0606060670
:100C60000000183870E0C080000000000000060698
:100C70000606FEFE00006070381C0E0E1C38706008
:100C8000000000000000000000007F7F0101010162
:100C9000010100001F3F7060666E3C387F677F7FF8
:100CA0000101070F1D39706018387161616161734E
:100CB0003F1E000000007F7F000000001F3F7060AB
:100CC000606060703F1F070F1C387070381C0F0782
:100CD0001F3F70703E3E70703F1F787C0E0703030D
:100CE000070E7C78000001037F7F03010000787C01
:100CF0006E6763616060606000007F7F606060605D
:100D00000000000000000103070E1C1800006060D6
:100D100060607F7F00000000000000000000000015
:100D2000606060606060606060600000060E1C389B
:100D30007060000000006060606060E0C080FEFEE7
:100D400080C0E06060E0C08080C0E06060606060A3
:100D5000000080C0E06060E0C080FEFE80C0E06017
:100D6000606060E0C0808080F8FC8E86060E1C18F3
:100D7000E0F0381818181818F8F8FEFE80C0E06087
:100D800060E0C08000006060E6E600000000000057
:100D900000006060E6E60000FEFE000080C0E0604B
:100DA000000000000606FEFE00000000E0E060E03B
:100DB000C0C0E0E0C080E0E080C0E06060E0C080F3
:100DC00080C0E060606060E0C08000000000000063
:100DD00000000000183C7E66666666667F7F7F7F47
:100DE0006161606060703F1F1F3F70606060607095
:100DF00038181F3F7060606061617F7F1F3F7666BB
:100E000066666666070701017F7F0101000000003A
:100E100001036766666666763F1F7F7F01010000FB
:100E200000007F7F000060607F7F606000001838F6
:100E3000706060703F1F00007F7F060F1F39706079
:100E40000000000060607F7F606000007F7F000026
:100E5000070700007F7F7F7F0101000000007F7F88
:100E60001F3F7060606060703F1FE0E06060606026
:100E700060E0C08080C0E0606060C080E0E0E0E0F2
:100E800080C0E06060E0C08080C0E0606060606062
:100E900000006060FEFE606000000000E0E0000016
:100EA00000000000E0E0E0E0000000000000E0E002
:100EB000E0E0000000000000E0E060E0C080000032
:100EC00080C0E060E0E0000000000000E0E0606062
:100ED00060606060E0E0E060000080C0787C0E064A
:100EE000000000000000FEFE000000000000060EF2
:100EF0007C78C0800000808080801838F0E0C0805E
:100F000080C0E0F03818808080807F7F060606066B
:100F10000607030101030706060607077F7F7F7F99
:100F20000101000000000101616367666666667E7C
:100F30003C1800001F3F7060607038181F3F7060E1
:100F4000607038187F7F070F1C387070381C0F07CF
:100F50001F3F7070383870703F1F6070391F0F0F5F
:100F60001F39706001036766666666763F1F6070B2
:100F7000787C6E6763616060000001031E3E7060F4
:100F80000000000000007F7F000000000000607093
:100F90003E1E0301000001010101181C0F0703019F
:100FA0000103070F1C1801010101630040800804C0
:100FB000201002014F46464F4E202D2D2D494E56F2
:100FC0003443482036434820384348203130434892
:100FD00031324348313443483136434851756965AD
:100FE000744E6F4B65794E6F726D204C6F6E67203B
:100FF000784C6F6E6753494E474F534D5046494C9E
:1010000054426173204F464620486175746F66668E
:10101000202B3D203A3D6368316368326368336357
:101020006834457870202020457846696E204669EE
:101030006E2020204D6F79656E2047726F732020DF
:101040005245544131323350504D20205058582091
:101050002044534D322050504D3136504F534E4561
:10106000472D2D2D783E30783C307C787C663E30A4
:10107000663C307C667C454449542050525345546C
:10108000412E47415A5461757820204578706F2071
:1010900020506861736520496E74657220517561D6
:1010A0006E6420436F7572626520202020202041ED
:1010B0006A6F75746572204D756C7469706C7952C5
:1010C000656D706C6163652B3D2A3D3A3D2D2D2D7C
:1010D0002D202020763E6F66732020763C6F66734D
:1010E00020207C767C3E6F66737C767C3C6F6673DA
:1010F000455420202020204F552020202020584FCC
:10110000552020202076313D3D7632207631213D1C
:1011100076322076313E7632202076313C7632208F
:101120002076313E3D76322076313C3D7632202DA0
:101130002D2D2D2020202020202020202045636FD1
:101140006C6167652020202020202045636F6C6142
:1011500067652044455220202045636F6C616765B8
:101160002050524620202045636F6C616765204700
:10117000415A20202045636F6C6167652041494CCE
:10118000202020496E7374616E74205472696D2042
:10119000205472696D73324F66667365747320767E
:1011A0002D2D2D2D59656C4F72675265643C3E4E56
:1011B0006F6E654875622057534848414431414439
:1011C00032414C5452504D3420566F696573207330
:1011D000696D706C65436F75707572652047617AD3
:1011E000202020456D70656E6E6167652056202059
:1011F00020456C65766F6E5C44656C74612020657B
:101200004343504D202020202020202020436F6E7B
:10121000662E48656C69636F202020536572766F77
:10122000205465737420202020204D656E75204564
:101230007869742020426173204861757444726F2C
:101240006974476175636847415A44495250524630
:1012500049443049443149443241494C474541545D
:10126000524E5357315357325357335357345357C2
:1012700035535736535737535738535739535741C8
:1012800053574253574344495220505246204741F6
:101290005A2041494C2050312020503220205033D8
:1012A00020204D41582046554C4C43594331435919
:1012B0004332435943334F4646414253475A73479B
:1012C0005A25475A74005B4D454E555D202020201D
:1012D0005B455849545D00205B4D454E555D517549
:1012E000616E642050524554006C6962726500530F
:1012F00055505052494D4552204D4F44454C4500A4
:10130000436F7069652E2E2E004465706C616365B5
:101310006D656E742E2E2E004368617267656D6573
:101320006E742E2E2E004E6F6D004368726F6E6FBE
:1013300000452E4C696D6974657300452E547269C1
:101340006D73005472696D20496E6300542D5472A0
:1013500061636500542D5472696D004269702043C9
:1013600074720050726F746F0050504D206672613D
:101370006D65006D7300496E746572005472696D1D
:1013800073004661646520496E0046616465204FC4
:101390007574002864656661757429005665726904
:1013A0006620202020205472696D73004D4F444503
:1013B000004D6178206578706F2061747465696E86
:1013C0007421004D6178206D6978616765732061D3
:1013D000747465696E742100494E5345524552201C
:1013E0004D49584147452000454449544552204DF8
:1013F00049584147452000536F7572636500546139
:101400007578004F6666736574005472696D0043A9
:101410006F7572626500502E566F6C00416C65727C
:101420007465004F4646004D756C747078005265C7
:101430007461726420426173005265746172642049
:10144000486175740052616C656E74697220486100
:1014500075740052616C656E74697220426173002C
:1014600044522F4558504F004D495845555200435E
:101470004F50494552205452494D205B4D454E55E1
:101480005D00435600535700412020766F69650088
:101490004D61780043616C69620042617200416C89
:1014A00061726D650055737250726F746F004546BE
:1014B0004641434552204D4958414745535B4D45B0
:1014C0004E555D0042697065757200436F6E7472AF
:1014D0006173746500416C61726D65204261747462
:1014E0006572696500416C61726D6520696E61634A
:1014F0007469766974650046696C7472652041444C
:101500004300496E76657273696F6E2047617A0099
:1015100042697020742E6D696E757465730042693E
:1015200070202061207265626F75727300466C6175
:101530007368207175616E642062697000496E7411
:1015400065722065636C6169726167650045636CF3
:101550006169722E206F6666206170726573004546
:101560006372616E2064276163637565696C004115
:101570006C657274652047617A00416C65727465B0
:1015800020496E74657200416C65727465204D650A
:101590006D6F69726500416C6572746520416C61A4
:1015A000726D650050415320444520444F4E4E45D6
:1015B000455320416C61726D65004F726472652005
:1015C000566F696573205278004D6F6465004573EE
:1015D000636C617665006D6F646520202025207343
:1015E0007263004D756C7469706C69657572004347
:1015F000616C00454550524F4D2076005472696D24
:101600002D202B004247005B4D454E555D504F55F8
:101610005220444542555400202020534554204E2A
:1016200045555452452020200020424F55474552F1
:10163000204D414E434845532F504F5453200041B5
:101640006C743A00527820426174743A0052783ACD
:101650000054783A004864673A005370643A005482
:10166000656D70313A0054656D70323A0052504DDC
:101670003A004675656C3A00566F6C74733A0041D7
:101680006363656C0054656C653A00525353493A84
:10169000004E4F204441544100544D3100544D32CE
:1016A0000047415A0054482500544F5400746D724D
:1016B000314C6174206D6178202020207573007496
:1016C0006D72314C6174206D696E2020202075731D
:1016D00000746D7231204A69747465722020202074
:1016E000757300746D61696E206D61782020202013
:1016F00020206D73004672656520537461636B2012
:101700006D696E2020202062005B4D454E555D7056
:101710006F75722072657365740050504D004348B8
:1017200000544D52004D4F44454C45005056004525
:101730004550524F4D206C6F77206D656D00414CC8
:1017400045525445004170707579657A2073757201
:1017500020746F756368650047617A20706173203B
:10176000E0207A65726F005265696E697469616C18
:101770006973657A206C6500416C61726D657320D8
:101780004465736163746976656573005377697442
:101790006368657320656E636C656E63686573006E
:1017A0005265696E697469616C6973657A206C65EC
:1017B00073004D45535341474500546F7563686549
:1017C00020706F757220636F6E74696E756572003C
:1017D00042616420454570726F6D20446174610000
:1017E000466F726D61747461676520454550524F54
:1017F0004D00446570617373656D656E7420454579
:1018000050524F4D004D454E5553204F5645524670
:101810004C4F5700434F4E46494720524144494F91
:101820000045434F4C4147450056455253494F4EA2
:10183000004449414700414E410043414C49425216
:101840004154494F4E0053454C4D4F44450053457C
:1018500054555000504841534520444520564F4C64
:101860000050484153455320444520564F4C0044B6
:10187000522F4558504F004C494D49544553004351
:101880004F555242455300434F5552424500494E31
:1018900054455253205045525300494E54455253DB
:1018A00020464F4E4354494F4E5300494E544552E3
:1018B000532053454355524954450054454C454DDA
:1018C00045545249450047414241524954530053FF
:1018D000544154004445425547009C1432465A5ADC
:1018E0004632465AECEC003C649CC4003C649C00CC
:1018F00000006453696D706C6520342D43480054BA
:101900002D43757400562D5461696C00456C6576E5
:101910006F6E5C44656C746100654343504D0048D4
:10192000656C6920536574757000536572766F201D
:1019300054657374000011241FBECFEFD0E1DEBFE9
:10194000CDBF11E0A0E0B1E0E2EBF7EE02C0059000
:101950000D92AA32B107D9F71DE0AAE2B1E001C0A9
:101960001D92AE3CB107E1F70E943D240C94D77361
:101970000C940000E82F8823D9F087FF07C0863E2B
:101980001CF080E68E1B0895E19504C08B3114F4A1
:10199000805C0895E5321CF48E2F8B5E0895E93249
:1019A0003CF4FF27E7FDF095EE5FFA4F8491089530
:1019B00080E208959DE0899F900111242E5F3B4FA6
:1019C000C9010895282F30E0220F331F220F331F43
:1019D00025503D4FC901089599E0899F9001112438
:1019E00025573E4FC901089595E0899F9001112424
:1019F00025553D4FC90108959C0140E0683008F02D
:101A000041E070E0442371F0CB010897FC0163E0F2
:101A1000EE0FFF1F6A95E1F7E80FF91FDF01A55AE6
:101A2000BC4F0AC0FB01EE0FFF1FEE0FFF1FE60FBA
:101A3000F71FDF01AD5CBC4FFD01808120503C4FA2
:101A400037FD0EC068E02030360784F0442319F4D7
:101A500084E090E002C088E090E0A80FB91F8C916C
:101A6000992787FD9095582F442733C0442331F0A0
:101A7000432FB9017070660F771F04C0432F46953E
:101A8000B9017170842F90E0FD01E80FF91F818189
:101A9000992787FD90959B0135952795829FA001F9
:101AA000839F500D929F500D11242081332727FDD5
:101AB000309580E092E0861B970B95958795BC0149
:101AC000269FC001279F900D369F900D1124480F2F
:101AD000591FCA0169E170E00E944C73CB0108955F
:101AE0009C01633031F1643028F4613051F0623090
:101AF00090F43CC0653039F1653008F1663061F52D
:101B000025C0493029F497FD24C0205032400AC036
:101B100097FF2CC026C0493041F41816190624F14D
:101B200020503E4F220F331F21C018161906CCF04B
:101B30001DC097FF1BC0309521953F4F17C0181649
:101B4000190694F00EC097FF0CC003C018161906B2
:101B50005CF020E03CEF0AC067500E94FC0C9C0146
:101B600005C020E030E002C020E034E0C901089563
:101B70006F927F928F929F92AF92BF92CF92DF929D
:101B8000EF92FF920F931F933B017C0100E010E066
:101B90008824992464E670E080E090E06619770973
:101BA00088099909A80197010E940D735B016C01D6
:101BB00082E390E0A0E0B0E0A80EB91ECA1EDB1ED2
:101BC000C801B7010E940D730E940D73BC018827E4
:101BD0009927A40193010E940D73E4E096958795DF
:101BE00077956795EA95D1F7A60EB71EC81ED91E40
:101BF000C601B50124E630E040E050E00E945F738A
:101C0000C9011F910F91FF90EF90DF90CF90BF908F
:101C1000AF909F908F907F906F900895FF920F9359
:101C20001F939C01AB016115710531F1FF2497FFF2
:101C300005C0FF24F394309521953F4F57FF10C006
:101C400000E014E066277727641B750BC801821B30
:101C5000930B0E94B80D9801281B390BC90104C0D1
:101C6000C901BA010E94B80DFF2011F49C0104C003
:101C700022273327281B390BC9011F910F91FF9091
:101C800008951F93162F0E94DA0CFC01A12FB0E0DB
:101C90002481332727FD3095CD01880F991F02C07D
:101CA000359527958A95E2F723703070AE0FBF1FE8
:101CB0008C91992787FD9095880F991F880F991F00
:101CC000280F391FC9011F910895FF920F931F9389
:101CD000F82E162F00E0112391F0812F6F2D0E9416
:101CE000410E21E0853F920754F0282F255F2117F0
:101CF00008F02F5F0F5F122F053069F710E0812F7A
:101D00001F910F91FF900895EFE1F5E0E80FF11DAD
:101D1000E491F0E0EE0FFF1FEB53F94F208131818A
:101D2000C9010895A5ECB6E0E5EDF6E060E0862F88
:101D3000806487B9369A208931898D919C91119759
:101D400096958795820F931F8E7F11969C938E9305
:101D500040815181240F351F36952795318B208B7B
:101D6000349BFECF349A84B195B1840F951F96951C
:101D70008795819391936F5F12966830C1F60895AD
:101D8000E5ECF6E050E0852F806487B920E030E094
:101D900040E0369A349BFECF349A84B195B1280F37
:101DA000391F4F5F4430A9F736952795219331931A
:101DB0005F5F583041F70895E5ECF6E020E0822FB0
:101DC000806487B9369A349BFECF349A84B195B13A
:101DD000880F991F819391932F5F283081F7089581
:101DE0008EE587B985E28A95F1F7369A349BFECF66
:101DF000349A84B195B190936804809367040895F0
:101E0000A82FB0E0FD01E858FB4F1082882329F489
:101E1000809182019091830104C080918901909109
:101E20008A01FD01EE0FFF1FE658FB4F918380836F
:101E3000A258BB4F1C9208951F920F920FB60F929B
:101E400011248F93809193068F5F809393068F91D7
:101E50000F900FBE0F901F9018954091930622B7D8
:101E6000809193064817C9F7942F80E030E0282B23
:101E7000392BC90108951F920F920FB60F921124AA
:101E80002F933F934F935F936F937F938F939F9382
:101E9000AF93BF93CF93DF93EF93FF93C0918000F5
:101EA000D091810080917D008F7D80937D0078941A
:101EB00080919406909195069E01281B390B3695CA
:101EC0002795C901815A9F408F5D9E4220F481E091
:101ED000809392062EC040919206842F81508830C4
:101EE00040F5C901815293408757954000F5E42F92
:101EF000F0E0EE0FFF1FE058F94F2C5D3540809168
:101F00007401992787FD90950A96BC01269FC00110
:101F1000279F900D369F900D11246AE070E00E947B
:101F20004C73718360834F5F4093920602C010929E
:101F30009206D0939506C0939406F89480917D0004
:101F4000806280937D00FF91EF91DF91CF91BF91EF
:101F5000AF919F918F917F916F915F914F913F9141
:101F60002F910F900FBE0F901F9018951F920F92F8
:101F70000FB60F9211248F93EF93FF93E091780D9A
:101F8000EE2349F0E150E093780DF0E0E459F24F90
:101F900080818CB901C05598FF91EF918F910F907E
:101FA0000FBE0F901F901895EFECFDE001C0319629
:101FB00080818535E1F39F012E5C3D40C901089584
:101FC000EF92FF920F931F93062F7A010E94DA0C73
:101FD000DC0110E0FC01E00FF11FC701959587952A
:101FE000959587958083000F111F83E090E0002E68
:101FF00002C0880F991F0A94E2F7809514962C91DD
:102000001497822393E0E922FF2402C0EE0CFF1C08
:102010000A95E2F78E0D14968C9382E00E94FD5C87
:102020001F910F91FF90EF90089578941F920F9257
:102030000FB60F9211242F933F934F935F936F939B
:102040007F938F939F93AF93BF93EF93FF93F894F6
:1020500087B78D7F87BF81B78E5F81BF789480916E
:102060005904882359F08091000190919706890FB7
:102070008093970687FF02C01B9A01C01B9880912E
:1020800007018150809307018F5F09F054C08DE4F0
:102090008093070190916104992369F08091700405
:1020A000882329F49093700481E080937104915007
:1020B0009093610421C030916F043323B9F02091D3
:1020C0007004222399F090E080917104882309F430
:1020D00091E090937104992309F428E0209361041E
:1020E000992351F0315030936F0406C01092700460
:1020F0001092710410925A0480917104882391F017
:1021000080915A04882311F490E004C090919606BF
:1021100081E0982790939606992321F481E080939B
:10212000590402C0109259040E94426C80915B04D1
:10213000826080935B04F89487B7826087BF78944D
:10214000FF91EF91BF91AF919F918F917F916F918F
:102150005F914F913F912F910F900FBE0F901F9065
:1021600018950F931F938C010E94B36A82E260E07E
:1021700042EB57E124E00E94076580E068E1A80196
:102180000E9442650E942069809158010E94166950
:102190001F910F91089586B380958E77E1F70E9485
:1021A0000B6B0895EF92FF920F931F938C017B01AD
:1021B0000E94B36A82E260E04EE357E124E00E94AD
:1021C000076580E060E2A8010E94426580E068E265
:1021D000A7010E94426580E060E345E457E10E9468
:1021E00042650E942069809158010E9416690E94F0
:1021F000CB101F910F91FF90EF900895EF92FF92F7
:102200000F931F93CF93DF93E82E882349F4809197
:102210005D0490915E04492F441F4427441F06C269
:10222000992787FD909597FF03C0909581959F4FC3
:10223000863109F4F6C18A3030F490E00D960E94A0
:10224000AA6B482FEFC18A50282F30E08901000F78
:10225000111F020F131F0D551C4FD80112968C91A0
:10226000882311F440E0E2C1F8018281853010F446
:1022700020E007C0D80112968C91883008F4DEC1A6
:1022800022E0D801EC91E150E73008F449C053C096
:1022900080915F049091600440E08C239D23892B02
:1022A00089F127C080915D0490915E048C2B9D2B59
:1022B00090935E0480935D04F80180810E94FE107B
:1022C000F82ED80111968C910E94FE10982FF801DB
:1022D0008281853019F0863049F403C0FF2089F0EF
:1022E00002C0FF2031F4992321F40BC040E0F9161D
:1022F00049F041E080915F04909160048C2B9D2B0C
:102300000AC040E020915F0430916004CE018095C6
:102310009095822393239093600480935F0482C1FD
:1023200080915C04882309F060C0F0E0EE0FFF1F8D
:10233000E257F84F31C0E93018F460E074E057C05C
:10234000E03178F4F0E0EE0FFF1FDF01AC5BBE4F31
:10235000E659F94F608171818D919C91681B790BD1
:1023600009C0E43150F4F0E0EE0FFF1FE659F94FD9
:1023700060817181660F771F3AC0E43230F4F0E07B
:10238000EE0FFF1FEC58F84F07C0E63240F4F0E0C4
:10239000EE0FFF1FEE5CFB4F6081718128C0E832B9
:1023A00070F48E2F90E08697FC01EE0FFF1FE80F70
:1023B000F91FE458F24F8081682F70E018C0E832AE
:1023C00059F46091C60D7091C70D8091A20D909146
:1023D000A30D680F791F0BC0E93239F46091980D95
:1023E0007091990D7695679502C060E070E02223A8
:1023F00009F079C0D8018C918A324CF011969C91E9
:1024000089E19802C00111248058934F3FC0F80120
:10241000808189325CF08181992787FD9095805871
:102420009F4F880F991F880F991F30C0D8018C913A
:10243000873244F011968C91992787FD90958058AA
:102440009F4F24C0F801808185323CF0818199271B
:1024500087FD90958E599F4F19C0D80111969C9178
:1024600089E2980290011124359527953595279595
:1024700097FD915C96FB990F990B90F9892F9927FD
:1024800087FD9095F901E81BF90BCF01D801129651
:102490002C91223051F0233071F02130C1F440E012
:1024A000861797070CF0BEC0BCC040E068177907DC
:1024B0000CF0B8C0B6C040E0FB0177FF03C0F09558
:1024C000E195FF4F8E179F070CF0ACC0AAC040E00B
:1024D000FB0177FF03C0F095E195FF4FE817F9077F
:1024E0000CF0A0C09EC0D8011196EC91E150E730ED
:1024F00058F480915C04882309F063C0F0E0EE0F8B
:10250000FF1FE257F84F33C0E93018F4E0E0F4E081
:102510005AC0E03180F4F0E0EE0FFF1FDF01AC5B4A
:10252000BE4FE659F94F0190F081E02D8D919C91BD
:10253000E81BF90B0AC0E43158F4F0E0EE0FFF1F7E
:10254000E659F94F0190F081E02DEE0FFF1F3BC0DF
:10255000E43230F4F0E0EE0FFF1FEC58F84F07C004
:10256000E63248F4F0E0EE0FFF1FEE5CFB4F019007
:10257000F081E02D28C0E83270F48E2F90E086972D
:10258000FC01EE0FFF1FE80FF91FE458F24F8081A6
:10259000E82FF0E018C0E83259F4E091C60DF09150
:1025A000C70D8091A20D9091A30DE80FF91F0BC0EC
:1025B000E93239F4E091980DF091990DF695E7958F
:1025C00002C0E0E0F0E0D80112968C91893089F0E9
:1025D0008A3018F4883009F507C08A3079F08B30DA
:1025E00091F08C30D1F414C040E06E177F07D1F425
:1025F00018C040E06E177F07A1F414C040E0E61752
:10260000F70784F40EC040E06E177F075CF409C042
:1026100040E06E177F0734F004C040E0E617F7078C
:102620000CF041E01E1414F081E04827842FDF9164
:10263000CF911F910F91FF90EF900895C1E0D0E0EE
:1026400002C0CC0FDD1F2A95E2F780915D049091C6
:102650005E048C239D23892B09F01ACE23CE362FBE
:1026600037953327379520E030935E0420935D043F
:102670000E94FE100895EF92FF920F931F93CF9345
:10268000DF93C7EED3E0E1E0EE2EF12C2881222388
:1026900009F189818823F1F090E00197870102C058
:1026A000000F111F8A95E2F7822F60E00E942F131E
:1026B0002091800630918106882319F0202B312B40
:1026C00005C0C80180959095282339233093810651
:1026D00020938006229683E0CF3FD807B9F6DF919A
:1026E000CF911F910F91FF90EF900895FF920F935C
:1026F0001F938C01F62E0E94B36A82E260E04EE3E3
:1027000057E124E00E94076580E060E2A8010E9492
:10271000426581E068E34AEB57E10E9442650E940E
:102720002069FF2011F089E102C0809158010E94C8
:102730001669809166048093610482E380930001AE
:102740000E94CB1086B380958E7791F480915B01C7
:1027500060E00E942F13882331F480917201882356
:1027600011F4FF2019F0C79AA895ECCFC798FCCFB9
:102770001F910F91FF90089580916D0187FD07C013
:10278000887329F488E797E160E00E947613089542
:1027900080916D0186FD0AC00E94135F883C9105FF
:1027A00028F48FE297E160E00E94761308950F937A
:1027B0001F9380916D01867099F18CE897E160EA32
:1027C00077E10E94D21000E080916D018670823026
:1027D00009F401E01EE00AC0113139F0812F8D505B
:1027E00060E00E942F13801729F41F5F1631A0F3B9
:1027F0001631B1F086B380958E7791F406C0809142
:102800007201882351F0C79A09C080915B0160E092
:102810000E942F138823B9F7F2CFC7981EE0DECFAE
:102820001F910F9108950F931F93CF93DF93809182
:102830006D0180FD43C080916E0190E081709070C9
:1028400002E010E0081B190BF801EE0FFF1FE65D18
:10285000FE4FC181D281609687859089C81BD90BB4
:102860000E94DC0E102F802F0E94840EC817D907FB
:102870002CF588E597E167E677E10E94D2100E9487
:10288000DC0E812F0E94840EC817D90724F486B36A
:1028900080958E7749F00E94CB1010C08091720114
:1028A000882351F0C79AEBCF80915B0160E00E94D2
:1028B0002F138823B9F7F2CFC798E1CFDF91CF91DB
:1028C0001F910F910895AF92BF92CF92DF92EF9236
:1028D000FF920F93CF93DF938091700184FD6EC0C0
:1028E00080915B0160E00E942F13882329F480917E
:1028F0007201882309F456C0C79A0E94B36A80E027
:1029000060E040E950E020E000E00E94DF630E94C8
:102910002069809158010E9416690E94CB100E9484
:10292000920E0F5F0032D9F7AA24BB2400E0802F5B
:102930000E94840EC92FD0E0AC0EBD1E0F5F043084
:10294000B1F7F894C090550DD090560D789480E969
:1029500091E0C80ED91E1CC00E94920EC0E0D0E0CB
:1029600000E0802F0E94840EE92EFF24CE0DDF1D93
:102970000F5F0430B1F786B380958E77F9F4CA15EE
:10298000DB05E1F411C0809172018823A9F0C79A98
:10299000F8948091550D9091560D7894C816D906EB
:1029A000D9F60CC0C798A9CF80915B0160E00E9466
:1029B0002F13882361F7E7CFC798EACFDF91CF9134
:1029C0000F91FF90EF90DF90CF90BF90AF90089560
:1029D0001F93CF93DF93C4E1D4E011E08881882373
:1029E00051F060E00E942F13882329F0812FDF919E
:1029F000CF911F9108951F5F2D96153079F710E044
:102A0000F5CFDF92EF92FF920F931F93CF93DF9357
:102A1000E82E082F0F7006501091850117700830AE
:102A200008F0C7C0E02FE595FF27E7FDF0958091FE
:102A30006E0190E0880F991F880F991FE80FF91F0A
:102A4000EA50FB4FF490FA940E94E814682F8F2DFF
:102A50000E94650ED82E6F2D0E94410EBC011123DD
:102A600089F477FF04C088279927861B970B9595D3
:102A700087959595879501968132910584F080E23E
:102A800090E00DC0212F332727FD30952150304095
:102A900081E090E002C0880F991F2A95E2F7982FF5
:102AA00032E0F31639F48091840183FF03C094E08F
:102AB00021E001C020E0492F552747FD509500FF38
:102AC00007C0EA01C60FD71F10E083E89FEF04C0DC
:102AD000EB01C41BD50BF8CF009719F4222329F082
:102AE00015C03FEF8338930749F0C817D9071CF08A
:102AF000681779074CF08D37910541F08C179D07C9
:102B00002CF08617970714F4EC0111E083589F4FBF
:102B10008A3F910509F76C177D0724F4CE37D1055C
:102B200044F40CC0C617D7074CF48FEFC338D8074E
:102B30002CF48091850186FFEB0111E03EEFCC3053
:102B4000D3071CF4CCE0DEEF06C081E0C53FD80718
:102B500014F0C4EFD1E08D2D6F2DAE010E94E00F77
:102B6000CE37D1051CF0CDE7D0E006C03FEFC3382B
:102B7000D30714F4C3E8DFEFCE0164E070E00E94F5
:102B80004C73EB01EC96112341F08E2D0E94316CB9
:102B900010925A048091640407C0E6FE03C081E0ED
:102BA00080935A048091620480936104C093000171
:102BB000EE248E2DDF91CF911F910F91FF90EF901A
:102BC000DF900895AF92BF92CF92DF92EF92FF9283
:102BD0000F931F93CF93DF935C01A5EFB6E0FC0149
:102BE00098E001900D929150E1F76F3F19F40E9427
:102BF000E814682F9EEFC92E92E0D92E0FEFC0E0A7
:102C0000D0E0E62EFF240894E11CF11CFE01EE0F3B
:102C1000FF1FEE0FFF1FE550FD4F2081822F8370B5
:102C200009F4A2C026952695237030E0802F9927BD
:102C300087FD90952817390709F48DC08181807E22
:102C400099F0828180FD10C0FE01EE0FFF1FEE0F94
:102C5000FF1FE450FD4F808182958695877090E03C
:102C6000E816F90609F077C0FE01EE0FFF1FEE0F20
:102C7000FF1FE450FD4F8081880F880F880F8595D6
:102C80008595859561E00E942F13882309F463C020
:102C9000FE01EE0FFF1FEE0FFF1FE550FD4F80817D
:102CA000182F169516951370E12FF0E0EE0FFF1F09
:102CB000EB50F94F0190F081E02D8370F7FF03C0D6
:102CC00080FD03C048C081FF46C0012FD6016C9132
:102CD000772767FD7095CF010E940E0E9C01FE01C3
:102CE000EE0FFF1FEE0FFF1FE550FD4FE0818E2F0F
:102CF000807F69F06E2F62956F70862F90E00B9742
:102D00000CF06C5FC90140E00E94700D9C01B9019C
:102D1000882777FD8095982FFE01EE0FFF1FEE0F9D
:102D2000FF1FE350FD4F2081269530E040E050E04A
:102D30000E940D7324E630E040E050E00E94817371
:102D4000E12FFF27E7FDF095EE0FFF1FEA0DFB1DBA
:102D5000C90120839183219684E090E0C80ED91E9A
:102D6000CE30D10509F052CFDF91CF911F910F9155
:102D7000FF90EF90DF90CF90BF90AF9008957F923B
:102D80008F929F92AF92BF92CF92DF92EF92FF927B
:102D90000F931F93CF93DF93782E7BE2A72E71E0E2
:102DA000B72EEE24CC24DD2461E0862E912C8C2DD0
:102DB000843010F0FC2C0DC0E0916E01F0E0EE0FBD
:102DC000FF1FEE0FFF1FEC0DFD1DEA50FB4FF490AF
:102DD000FA940E94840E9C01D5018D919C911197CB
:102DE000281B390B121613062CF45C96ED91FC91FE
:102DF0005D9705C0D5011E96ED91FC911F97E436B5
:102E0000F10514F4E4E6F0E0B901882777FD809538
:102E1000982F4AE0660F771F881F991F4A95D1F7B0
:102E20009F01442737FD4095542F0E948173E9018B
:102E3000BCEF21303B071CF4C0E0DCEF06C0E4E04F
:102E400020303E0714F0C0E0D4E08091700180FF94
:102E500006C0F2E0FF1619F4D095C195DF4F0F2D93
:102E600010E0F801EE0FFF1FE257F84FD183C08347
:102E7000CE010F964F9740F4C4010F2C02C0880F6B
:102E8000991F0A94E2F7E82A23E02F1508F45DC0A1
:102E900080915C04882309F058C032E0F30E8F2D36
:102EA00090E00197D40102C0AA0FBB1F8A95E2F7F8
:102EB000CD01816020918006309181068223932389
:102EC000892B09F442C0F801EE0FFF1FEC59FE4FA9
:102ED000F0808F2D807CC9F1EF2DEF73F0E0EE0FC5
:102EE000FF1FDF01A45ABE4FEE57F94F6081718179
:102EF0002D913C91621B730B882777FD8095982F4D
:102F0000F801EE0FFF1FE65DFE4F23AD332727FDCF
:102F10003095432F532F0E940D7322E330E040E0A1
:102F200050E00E948173F694F694F694F694F69429
:102F3000F694EF2DF0E0E130F10519F0329729F425
:102F400003C0C20FD31F01C0E901000F111F0450BD
:102F50001B4FF801D183C0830894C11CD11C22E00F
:102F600030E0A20EB31E37E0C316D10409F01FCF24
:102F70008CEF94E0672D0E94E215FF2400E010E042
:102F8000A12C54E0B52EF801E450FB4FC080D18055
:102F90008F2D672D0E94650E6F2D0E94410EEC0152
:102FA00082E0F81671F58091840183FF2AC0809138
:102FB000700180FF03C0D095C195DF4FBE01882707
:102FC00077FD8095982F63587F4F8F4F9F4F9501C6
:102FD0002C193D09442737FD4095542F0E940D734D
:102FE00020E038E040E050E00E948173B901CA015E
:102FF0006030A8E07A07A0E08A07A0E09A0741F4D1
:1030000006C080918004882311F0C0E0D0E09E01CA
:10301000220F331FF801E05BFA4F31832083F394D2
:103020000E5F1F4FB4E0FB1609F0ADCF8E2DDF9180
:10303000CF911F910F91FF90EF90DF90CF90BF90B5
:10304000AF909F908F907F9008958F929F92AF92B4
:10305000BF92CF92DF92EF92FF920F931F93CF9385
:10306000DF930E94E814C82EFCEFEF2EF4E0FF2E51
:1030700000E515E0C0E0D0E0E2E08E2E912CAA241D
:10308000A394BC2E80916E0190E0817090709401A9
:10309000281B390B2C173D0751F18C2F6C2D0E94EA
:1030A000650ED82EA0925C048C2D0E94BF16109243
:1030B0005C04F80180819181F70120813181820FC8
:1030C000931F62E070E00E944C73AB01FEEF6C3026
:1030D0007F071CF44CE05EEF06C021E0653F7207FD
:1030E00014F044EF51E08D2D6B2D0E94E00F2196DE
:1030F00082E090E0E80EF91E0E5F1F4FC430D1054C
:1031000009F0BFCF82E00E94FD5C80916304809350
:10311000610482E380930001DF91CF911F910F91B1
:10312000FF90EF90DF90CF90BF90AF909F908F90E7
:1031300008952F923F924F925F926F927F928F925B
:103140009F92AF92BF92CF92DF92EF92FF920F9336
:103150001F93DF93CF93CDB7DEB729970FB6F894BF
:10316000DEBF0FBECDBF9F838E83162F862F0E949A
:10317000BF16409187014823242F30E080919E059F
:1031800090E08227932782239323892B39F0809123
:1031900063048093610482E38093000140939E0561
:1031A00080E094E090930B0580930A0590930D05C1
:1031B00080930C0580915C04882379F180916E01E5
:1031C00090E08170907022E030E0281B390B109263
:1031D000FD041092FC042130310521F01092FF040F
:1031E0001092FE042230310521F010920105109258
:1031F00000051092030510920205E4E1F5E011923A
:10320000119225E0E432F207D1F748E555E05A8300
:10321000498324E235E0FA0146C064E175E040E00C
:1032200050E0FA01EE57F94FDA01A65DBE4F8081FA
:103230009181D2962D913C91D397821B930B880F4D
:10324000991FDB018D939D93BD014E5F5F4F483009
:10325000510539F780918A0690918B06880F991F46
:1032600090931D0580931C0580918C0690918D068E
:10327000880F991F90931F0580931E0580918E06DD
:1032800090918F06880F991F9093210580932005B8
:103290008091900690919106880F991F9093230535
:1032A00080932205B2CF80819181D9018D939D9326
:1032B0009D013496B5E0E03BFB07A9F780E4E8E523
:1032C000F5E0DF011D928A95E9F710927F06BFE5D0
:1032D0004B2EB6E05B2EAFED8A2EA5E09A2EFFE9CD
:1032E0006F2EF5E07F2E1D82212E33240894211CA1
:1032F000311C8D810E94EC0C6C01FC0180818F716E
:1033000059F4EBEA4E2EE2E05E2E27EC33E03C83EC
:103310002B8322243324A4C290E0419794F7D60152
:1033200017969C91892F807FC1F0892F859585956F
:1033300085958595282F332727FD309518162CF471
:103340002216330609F07AC208C088279927821B03
:10335000930B2816390609F471C2F601838161E0E6
:103360000E942F13D2019C918823C1F4492F1C92F3
:10337000F6019181892F8850823008F05FC28781E1
:103380008E70843009F45AC2993019F01986188663
:1033900040C020E03CEF398728873BC040E09923BC
:1033A00009F441E081E0D2018C93F60181818150E2
:1033B000A82FB0E0FD01EE0FFF1FE450FB4F20816E
:1033C000318139872887843168F03D81831750F433
:1033D000AA0FBB1FAA0FBB1FA85ABA4F8D919C9171
:1033E00099878887D6019C91892F807E91F092954C
:1033F00096959770892F90E00197E1E0F0E002C088
:10340000EE0FFF1F8A95E2F720917F062E2B209367
:103410007F06D60118968C918823C9F0B9E28B02F9
:1034200090011124359527953595279587FD815C69
:1034300086FB880F880B80F9992787FD9095281BBC
:10344000390BE885F985E20FF31FF987E887D60184
:1034500016968C911697882329F415968C918823BB
:1034600009F46CC1F40160817181828193814423EC
:1034700091F420E031E040E050E00E9481735095EB
:103480004095309521953F4F4F4F5F4FA884B984A9
:10349000A20EB31E5FC0D60117968C9117978E703F
:1034A000843049F5EC91EF71F0E0EE0FFF1FEE5D17
:1034B000FA4F60817181882777FD8095982F20E0F1
:1034C00034E640E050E00E940D73F40160837183A4
:1034D00082839383D60112962C91222361F03327A5
:1034E00027FD3095432F532F0E948173F4012083D1
:1034F000318342835383D4016D917D918D919C9151
:1035000020E031E040E050E00E948173509540950A
:10351000309521953F4F4F4F5F4FA884B984A20E3D
:10352000B31EA114B104B1F0F6018581B7FE02C04B
:103530008F7002C082958F7090E09C0144E650E04D
:10354000249FC001259F900D349F900D1124D3011D
:103550008D939C93F301208131812115310599F0E0
:1035600080916C04882321F02150304031832083E6
:10357000D3018D919C91892B31F0F401608171818F
:1035800082819381C2C0A114B10409F4D7C0D601CD
:1035900016968C911697882309F4C0C080916C040C
:1035A000882309F477C012962C91222329F460E035
:1035B00070E080E293E017C0332727FD309537FF96
:1035C00003C0309521953F4F332727FD3095432F7A
:1035D000532F60E070E080E293E00E948173C901A4
:1035E000DA01BC01CD01F60126811A141B040CF589
:1035F0002F70422F50E041155105D9F1A4E6B0E0FB
:103600004A9F90014B9F300D5A9F300D1124442743
:1036100037FD4095542F0E94817379018A01F4018E
:1036200080819181A281B381E80EF91E0A1F1B1FC0
:103630002BC022952F70422F50E041155105C9F043
:10364000A4E6B0E04A9F90014B9F300D5A9F300D89
:103650001124442737FD4095542F0E948173F401B3
:10366000E080F18002811381E21AF30A040B150B4A
:103670000BC028853985C901AA2797FDA095BA2FC7
:10368000EE24F82E092F1A2FD401ED92FD920D93FE
:103690001C931397F4016081718182819381288545
:1036A000398579010027F7FC0095102F1A141B04A7
:1036B00064F420E031E040E050E00E948173E216C3
:1036C000F3060407150764F01BC020E031E040E07A
:1036D00050E00E9481732E153F054007510784F486
:1036E00048855985CA01AA2797FDA095BA2FBA2FF8
:1036F000A92F982F8827F40180839183A283B38315
:10370000D4016D917D918D919C9120E031E040E05C
:1037100050E00E9481733987288710C0E885F985B9
:10372000CF01AA2797FDA095BA2FBA2FA92F982FBE
:103730008827F40180839183A283B383D6011496F2
:103740006C911497662341F08885998511964C9168
:103750000E94700D99878887F601878180FD12C0CD
:10376000E181EE2379F0E53068F4F0E0EE0FFF1F21
:10377000E25BFA4F8081918128853985280F391FB6
:103780003987288748855985BA01882777FD80952C
:10379000982FD60112962C91332727FD3095432F71
:1037A000532F0E940D739B01AC01F60180818F7134
:1037B000082F10E00150104087818695877090E0B7
:1037C0008130910551F0F801EE0FFF1FEE0FFF1F42
:1037D000029731F5E85AFA4F1EC0CA01B90124E632
:1037E00030E040E050E00E948173B901CA01000F4F
:1037F000111F000F111F085A1A4FD8012D913D912A
:103800004D915C910E940D7320E034E040E050E067
:103810000E948173F80120833183428353830EC059
:10382000E85AFA4F80819181A281B381820F931F60
:10383000A41FB51F80839183A283B383FD81FF5FA3
:10384000FD830894411C511C24E030E0820E931E3D
:1038500042E050E0640E751EF03209F04ACD51CDC1
:10386000A981BA818D909D90AD90BC90C501B401A5
:1038700024E630E040E050E00E948173E981FA8163
:103880002083318342835383F101E456F84FC90109
:1038900020839183D20113962D913C911497119618
:1038A0008C911197FAE08F02F0011124E851FC4F3E
:1038B000F987E8878C914AE084023001112488E17D
:1038C0009CEF680E791ECF015E2F492F2E173F0700
:1038D0001CF4C901522F492F852F942F8C010615F6
:1038E00017050CF4830181149104A104B10479F14A
:1038F0009801442737FD4095542F181419041A04D1
:103900001B0464F4A885B985BD01882777FD8095DF
:10391000982F621B730B840B950B0BC0C301AA2756
:1039200097FDA095BA2F281B390B4A0B5B0BCA01D8
:10393000B901A50194010E940D7320EA36E841E027
:1039400050E00E948173C901DA014C015D01C80198
:1039500075E0959587957A95E1F7800F911F98010D
:10396000232F330F330B2595820F931F000F012F49
:10397000001F110B801B910B6C01EE24D7FCE0940F
:10398000FE2C8885998545E0959587954A95E1F7C0
:10399000E885F9858E0F9F1FA30135E05595479562
:1039A0003A95E1F7B301660F672F661F770B460D57
:1039B000571D9F01232F330F330B2595820F931F24
:1039C000EE0FEF2FEE1FFF0B8E1B9F0B8C0122279C
:1039D00017FD2095322FC80CD91CEA1CFB1C0C15B6
:1039E0001D052E053F0514F468017901461B570B90
:1039F0007595679575956795460F571FCA01AA2754
:103A000097FDA095BA2F87017601E816F9060A07F7
:103A10001B0714F47C018D01D20112968C9188232E
:103A200041F010950095F094E094E11CF11C011D0B
:103A3000111DEB81FC818081882309F160E00E94E7
:103A40002F138823E1F0AB81BC8111968C91B9E2F0
:103A50008B0290011124359527953595279587FD83
:103A6000815C86FB880F880B80F9992787FD9095EC
:103A7000281B390B79010027F7FC0095102FEE81E8
:103A8000FF81E20DF31DF182E082E981FA81349633
:103A9000FA83E98322E030E0220E331E45E050E055
:103AA000440E551E8B819C8102969C838B83E85922
:103AB000F54009F0D5CE29960FB6F894DEBF0FBEBB
:103AC000CDBFCF91DF911F910F91FF90EF90DF90CD
:103AD000CF90BF90AF909F908F907F906F905F90AE
:103AE0004F903F902F900895CF92DF92EF92FF92E8
:103AF0000F931F93DF93CF93CDB7DEB7A0970FB689
:103B0000F894DEBF0FBECDBF81E080935C040E94BD
:103B1000E814682F8E010F5F1F4FC8010E9499188B
:103B200010925C04F801AEEAB2E09E012F5D3F4FB7
:103B3000808191814CEF883194071CF488E19CEFDF
:103B400006C043E0883E940714F088EE93E0119697
:103B50009C938E9332961596E217F30749F700E08F
:103B600010E0F2E0CF2ED12CE02E80916E0190E09B
:103B7000817090709601281B390B2017310791F046
:103B8000FF248F2D6E2D0E94410E855F914034F4ED
:103B90008F2D6E2D40E050E00E94E00FF39445E041
:103BA000F41679F70F5F1F4F04301105E9F682E034
:103BB0000E94FD5C809163048093610482E38093A2
:103BC0000001A0960FB6F894DEBF0FBECDBFCF9117
:103BD000DF911F910F91FF90EF90DF90CF900895AC
:103BE0002F923F924F925F926F927F928F929F920D
:103BF000AF92BF92CF92DF92EF92FF920F931F93FB
:103C0000DF93CF93CDB7DEB7C756D0400FB6F89449
:103C1000DEBF0FBECDBFF8942091550D3091560DEB
:103C2000A4963FAF2EAFA497789420E08091C3066E
:103C30009091C406A4964EAD5FADA497481759075E
:103C400009F021E020936C04A4966EAD7FADA4979B
:103C50007093C4066093C3060E94E814A2968FAFC7
:103C6000A29740910801481709F475C0282F30E049
:103C70004F3F51F4220F331F2754394F8FEF9FEFDF
:103C8000D9018D939C9362C0A42FB0E08DE090E0A9
:103C9000A89FF001A99FF00DB89FF00D1124E25FDD
:103CA000FB4F608162956F70289FF001299FF00D96
:103CB000389FF00D1124E25FFB4FE081EF70E617B3
:103CC00018F0EE23F9F06E2F81E090E0FC0102C0C5
:103CD000EE0FFF1F2A95E2F79F0102C0880F991F80
:103CE000AA95E2F7280F8091B606822B8093B6063C
:103CF0008FE892E070E00E9438737093B80660938A
:103D0000B70624C0AA0FBB1FA754B94F1D921C921F
:103D1000F901EE0FFF1FE754F94F8FEF9FEF9183EB
:103D2000808381E090E0BC0102C0660F771F2A9576
:103D3000E2F79B0102C0880F991F4A95E2F7280F0E
:103D400020958091B60682238093B606A2967FAD19
:103D5000A297709308018091B606882309F493C056
:103D6000FE01B19680E4DF011D928A95E9F7A9EB87
:103D70002A2EA6E03A2E662477244301EE24FF245F
:103D8000A596EFAFA597A696FFAFA697FE01EF59B0
:103D9000FF4FA896FFAFEEAFA8978091B60690E0D0
:103DA0000E2C02C0959587950A94E2F780FF41C0DA
:103DB000CE0101966E2D0E949918CE0101966E2DAE
:103DC0000E949918D1018D919C915C01CC24DD2435
:103DD000A5968FADA597A6969FADA6978C012E01AF
:103DE0000894411C511CF201219131912F0144276B
:103DF00037FD4095542FC601B5010E940D73D801BF
:103E00002D913D914D915C91260F371F481F591FF1
:103E1000F80121933193419351938F01A8962EADD0
:103E20003FADA897E217F307F1F66A0C7B1C8C1CD8
:103E30009D1C0894E11CF11C42E050E0240E351E4C
:103E400055E0E516F10409F0A8CF8E010F5D1F4F74
:103E50007E010894E11CF11CE1E6CE2ED12CCC0EA3
:103E6000DD1ED8016D917D918D919D918D01A401F3
:103E700093010E948173F701219331937F010C1507
:103E80001D0579F707C0CE010196A2966FADA297E6
:103E90000E94991820E030E0AE014F5F5F4FF89428
:103EA000F901E054F84FDA01A20FB31F8D919C91F4
:103EB0009183808378942E5F3F4F2032310579F7CC
:103EC00080912A0D882381F480915608882329F057
:103ED0008EE498E00E94206007C0809161088823EA
:103EE00019F080E00E94035D80916C04882309F43E
:103EF000AAC480915304882379F440919207509189
:103F000093078091700180FF05C020E034E0241BFE
:103F1000350B15C09A010AC0E82FF0E0843048F054
:103F2000EE0FFF1FE854F84F2081318120503C4FA5
:103F300006C0EE0FFF1FEC56F84F2081318149017A
:103F400056E0969487945A95E1F76091B1066F5FB9
:103F50006093B1064091AF065091B006480D591DCF
:103F60005093B0064093AF062091B4063091B50649
:103F7000A4968EAD9FADA497821B930B84369105BA
:103F800008F487C02C593F4F3093B5062093B406F0
:103F900080917204909173040196909373048093BE
:103FA0007204CA0170E00E9438734B019B01369580
:103FB00027958091760490917704820F931F9093B8
:103FC0007704809376046115710549F0809174043B
:103FD0009091750401969093750480937404809178
:103FE000B1066091AD067091AE06680F711D7093B9
:103FF000AE066093AD064091AB065091AC06809141
:10400000AF069091B006480F591F5093AC064093ED
:10401000AB061092B1061092B0061092AF06209136
:10402000B2063091B306A4968EAD9FADA497821BC5
:10403000930B885E934068F128513C4F3093B30650
:104040002093B206CA010E9438734B011092AC064D
:104050001092AB061092AE061092AD068091F90454
:104060009091FA04FC01EF57FB4F60830196909307
:10407000FA048093F9048837910520F01092FA042D
:104080001092F9048091FB0487FD03C08F5F809339
:10409000FB04552422E0222E4424439494E0392E3C
:1040A000552039F4F0908101A0908201B0908301F5
:1040B0000AC021E0521609F063C1F0908801A09077
:1040C0008901B0908A01FF2009F458C1052D10E044
:1040D000F801E858FB4F8081882391F44082F80171
:1040E000EE0FFF1FDF01A856B94F1D921C92DF0192
:1040F000A456B94F1D921C92E056F94F11821082BE
:10410000F7FC02C0EF2C02C0E32CEF1833E0E316FB
:10411000A9F4F801EE0FFF1FDF01A856B94F8D91EA
:104120009C91119701968D939C93E456F94F808151
:104130009181880D991D9183808348C049E14E1576
:1041400008F044C0F801EE0FFF1FDF01A456B94F7D
:10415000E856F94F208131818D919C91282B392B84
:10416000F801EC55F94F808190E0282B392BF801AC
:10417000EA55F94F808190E0282B392B232B31F41D
:10418000FF208F2D880F880B842180831F141CF43F
:104190008F2D895102C08F2D875E60E00E942F1302
:1041A000282F882379F0F801EA55F94F8081882378
:1041B00049F4F801EC55F94F90E08081882309F427
:1041C00091E09083F801EA55F94F2083F801E25815
:1041D000FB4F9081892F8F5F8083843608F4CEC097
:1041E00093569083A114B10461F0F801EE0FFF1F04
:1041F000E658FB4F80819181B501681B790B718373
:10420000608371E0E71609F47BC082E0E81629F4C8
:104210008114910409F47EC073C093E0E91609F09B
:1042200047C06801CC0CDD1C58E9652E56E0752EA0
:104230006C0C7D1CD301ED90FC90E114F10409F4A9
:1042400069C0F601E456F94F20813181C901B701F7
:104250000E9438734B016E9DC0016F9D900D7E9D35
:10426000900D1124281B390B31832083F301118217
:1042700010829B0136952795D601A056B94F8D9196
:104280009C911197280F391F11963C932E93203142
:10429000310508F43FC0F601E658FB4F808191815B
:1042A000019691838083205130402D933C9332C0FE
:1042B000F4E0EF1671F48114910411F5F801EE0F9A
:1042C000FF1FE658FB4F8081918118161906C4F034
:1042D00021C029E12E1570F01F141CF48F2D84507D
:1042E00002C08F2D8C5F60E00E942F13F801EC5507
:1042F000F94F8083F801EC55F94F8081882351F004
:10430000F801EE0FFF1FE658FB4F80819181019667
:1043100091838083D801A858BB4F8C91813019F0CC
:104320008230F1F40FC0A114B10441F1F801EE0F95
:10433000FF1FE658FB4F808191818A159B059CF0F9
:104340002C9211C0C501CB96F801EE0FFF1FE65865
:10435000FB4F208131818217930714F433E03C93A3
:10436000A114B10459F0F801EE0FFF1FE658FB4FFE
:1043700080819181A81AB90AB182A082539490CE0B
:1043800020917A0430917B048091A9069091AA062D
:104390008217930709F49CC080917804813009F05A
:1043A0007CC08091700182FF57C080918201909102
:1043B0008301892B09F450C02E31310551F482E07C
:1043C00080936F04809164048093610482E38093FE
:1043D000000180917A0490917B04449751F481E02C
:1043E00080936F04809164048093610482E38093DE
:1043F000000180917A0490917B040A9739F48091AE
:1044000064048093610482E38093000180917A04C4
:1044100090917B0404973CF4809164048093610440
:1044200082E3809300018091700183FF15C0809129
:104430007A0490917B048E31910541F0843191058D
:1044400029F08A30910511F0049734F482E390E06A
:1044500090936E0480936D048091700181FF30C051
:1044600020918201309183012115310549F080911D
:104470007A0490917B04A901481B590BCA0104C01E
:1044800080917A0490917B046CE370E00E94387311
:10449000892BB1F48091640404C0823089F4809146
:1044A00065048093610482E3809300018091700130
:1044B00083FF06C082E390E090936E0480936D04C6
:1044C00080917A0490917B049093AA068093A90628
:1044D0008091B606882309F452C0E9EBF6E0A0E02B
:1044E000B0E051E0E52EF12CCC24CA94DC2C8701FD
:1044F000A2960FACA29702C0000F111F0A94E2F718
:104500006091B606862F90E00A2E02C09595879599
:104510000A94E2F780FF2EC0408151812091B706B6
:104520003091B806A2968FADA2978A1779F4CA0186
:10453000809590952817390728F4240F351F31836B
:10454000208318C0D182C082601B12C02417350797
:1045500028F4421B530B518340830CC011821082FC
:10456000C7010A2E02C0880F991F0A94E2F7681B40
:104570006093B60611963296A530B10509F60E94F1
:104580003B138091BE07882319F081508093BE07AA
:1045900080916F01882309F469C080916B04833393
:1045A00008F464C08091980590919905A0919A05AE
:1045B000B0919B050196A11DB11D80939805909324
:1045C0009905A0939A05B0939B0500E010E0FF24A5
:1045D0008F2D0E94840E46E0969587954A95E1F7C7
:1045E000080F191FF39494E0F91691F780919C0538
:1045F00090919D050817190761F010939D05009390
:104600009C05109298051092990510929A051092A7
:104610009B05E0909805F090990500919A051091FE
:104620009B0560916F0170E080E090E020E737E14A
:1046300040E050E00E940D736E157F0580079107E2
:10464000A8F42FE330E040E050E0E222F32204231C
:1046500015233AE0E316F1040105110539F48091C0
:1046600065048093610482E380930001809180045B
:10467000882319F08150809380040E94B36A0E94BD
:104680000E6B0E940115182F80916D0490916E049D
:10469000009729F0019790936E0480936D04112385
:1046A00089F08091720190E024EF31E0AC01429FEB
:1046B000C001439F900D529F900D112490936E0462
:1046C00080936D0480915B0160E00E942F1388232A
:1046D00039F480916D0490916E04892B09F4B1C076
:1046E000C79AE091F107F0E0EE0FFF1FED51F84F90
:1046F0000190F081E02D812F09950E942069809121
:10470000630081FF04C0809165008F7E03C08091AB
:104710006500806180936500A4968EAD9FADA497DF
:104720008F7190708230910521F0039709F08BC052
:1047300071C08091690490916A04892B39F487E0F3
:104740000E94840E90936A048093690480916904A6
:1047500090916A048C0123E0000F111F2A95E1F764
:10476000081B190B87E00E94840E800F911F13E035
:10477000969587951A95E1F77C0100E010E09093FB
:104780006A048093690420915A01332727FD3095EC
:10479000432F532FC801B7010E940D7328E030E06A
:1047A00040E050E00E948173B4E0EE0CFF1C001F5B
:1047B000111FBA95D1F7E20EF31E041F151F2091A9
:1047C00067043091680440E050E0C801B7010E94DE
:1047D000817320936B048091A806805E8093A80665
:1047E000882389F580915901281768F5233358F1FA
:1047F000809166048093610482E38093000180913C
:10480000700183FF20C082E390E090936E04809358
:104810006D0419C080916D01869586958695877087
:1048200090E0BC01660F771F660F771F680F791F36
:104830006A5F7A4F82E694E045E050E00E949C7304
:1048400002C0C7984ECFC959DF4F0FB6F894DEBFEC
:104850000FBECDBFCF91DF911F910F91FF90EF90D1
:10486000DF90CF90BF90AF909F908F907F906F9090
:104870005F904F903F902F9008951F93CF93DF93B9
:104880009FEF9ABB1BBA81E887BB8EE788BB8EE39C
:1048900084BB81EC85BB11BA92BB88E082B987EFFB
:1048A00083B9109261001092620080E180936400ED
:1048B000909365000E94E26880E487B985E886B934
:1048C00087E083BF82E081BF87B7836087BF8AE0CC
:1048D0008EBD82E880938A0080917D008062809303
:1048E0007D00EDB7FEB7329785E502C08083319732
:1048F0004DE0EE3CF40709F0C8F78FE794E590939C
:10490000E4078093E30786E598E49093E6078093B5
:10491000E50789E10E94166978940E94D76F0E948A
:104920002D5E1091570184B7813061F00E946314AD
:104930000E94C8130E94DC0E0E9413140E94D71319
:104940000E94BC130E94CB100E94E814682F80ECD8
:1049500097E00E949918809158010E9416698091F1
:10496000720190E024EF31E0AC01429FC001439F0F
:10497000900D529F900D112490936E0480936D04BE
:1049800080915701181719F081E00E94FD5C0E9488
:104990002E262DE088E190E00FB6F894A89581BD11
:1049A0000FBE21BD0E942D0FEC01E0917101F0E0DE
:1049B000EE0FFF1FEF5FFE4F0190F081E02D099594
:1049C0000E94F00E0E94F01D80915B04833019F468
:1049D000A89510925B040E942D0F209157043091EE
:1049E00058048C1B9D0B8217930708F4C901909300
:1049F000580480935704D6CFEDE7F0E08081857EA0
:104A0000808317981F9AAAE8B0E01C9210928B003E
:104A100082E88C9380818062808308956F927F9278
:104A20008F929F92AF92BF92CF92DF92EF92FF92BE
:104A30000F931F93CF93DF93909184019770809190
:104A400009018917C9F0909309010E94FC241EBC3A
:104A500080E49CE99BBD8ABD1DBC1CBC87B7837CE0
:104A600087BF8CE386BF8FE380937C0087B780612C
:104A700087BF1FBC8AE08EBD8091850185FD04C083
:104A8000E12C34E0F32E03C0E12C25E0F22E40911E
:104A900084014595459545954595440F485F90910E
:104AA000860184E69802D0011124A85ABD4F8824BB
:104AB00099248A1A9B0A80915204992787FD909520
:104AC00028EE33E0829FB001839F700D929F700D9E
:104AD0001124685370456A1B7B0B00EC17E0EDEF67
:104AE000F6E050E0440F551F440F551F5F01A40E20
:104AF000B51ECC24DD24CE18DF0888E5682E82E0C0
:104B0000782E6A1A7B0A1DC0C601E8012881398106
:104B10002C153D0534F02E153F0514F0C70101C0DA
:104B2000C901805A964F9401281B390B620F731FDD
:104B3000860D971D91838083B383A28334960E5F85
:104B40001F4FEA15FB0501F7FA01E350F94F718396
:104B50006083B383A283158214828DEF96E09093D5
:104B60000B0180930A01DF91CF911F910F91FF906C
:104B7000EF90DF90CF90BF90AF909F908F907F90FD
:104B80006F9008951F920F920FB60F9211241F93EA
:104B90002F933F934F935F936F937F938F939F9345
:104BA000AF93BF93EF93FF931CB580918D0788233C
:104BB00021F0C09A10928D0704C0C09881E08093C4
:104BC0008D07A0910A01B0910B01FD018191919196
:104BD0009BBD8ABDF0930B01E0930A0112968D9163
:104BE0009C911397892BB9F48091850182958F70E0
:104BF0008095817080938D0787B78F7E87BF0E94D5
:104C00000E2580918401877011F0833021F487B7DD
:104C1000806187BF789480915504811710F41093B8
:104C2000550480915604181710F41093560480917F
:104C30005B04816080935B04FF91EF91BF91AF9122
:104C40009F918F917F916F915F914F913F912F91A4
:104C50001F910F900FBE0F901F9018950E940E2568
:104C600087B7806187BF08959C01E091F107F0E06C
:104C7000EE0FFF1FED51F84F318320838FEBF901C9
:104C80000995809162048093610482E3809300011E
:104C900008959C019091F107E92FF0E0E351F84F5E
:104CA0008091F2078083E92FEF5FE093F107E53011
:104CB00040F09093F10785E098E160E00E94761360
:104CC0000895809162048093610482E380930001DF
:104CD000F0E0EE0FFF1FED51F84F318320838FEB93
:104CE000F90109950895E091F107EE23E9F0E1500B
:104CF000E093F107809162048093610482E38093E2
:104D000000011092F307F0E0DF01A351B84F8C913E
:104D10008093F207EE0FFF1FED51F84F0190F081E5
:104D2000E02D8EEB0995089585E098E160E00E9402
:104D3000761308958F929F92AF92BF92CF92DF9297
:104D4000EF92FF920F931F93CF93DF93182F7B0166
:104D50004A015901C02E84FD04C044E0D42E05E070
:104D600005C01F70106635E0D32E04E08D2D8066DF
:104D7000181761F08D2D8064181741F09091BD07D0
:104D800019167CF4133611F0133459F4E701219607
:104D9000809162048093610487E380930001802FF7
:104DA0001AC0802F8066181761F0802F8064181752
:104DB00041F019160CF089C0123619F0123409F0BE
:104DC00084C0E701219780916204809361048DE2A1
:104DD000809300018D2D90E00E94AA6B882351F0F2
:104DE000CC27DD27CE19DF09802F0E94316C8D2D55
:104DF0000E94316C8114910491F481E0A816B104F1
:104E000071F4103661F41092BD07C0E0D0E0E114F7
:104E1000F10411F4C1E0D0E080E60E94316C809191
:104E2000E0079091E107C81BD90BAC16BD065CF4F6
:104E3000812F0E94316C809164048093610487E328
:104E400080930001E501C815D9055CF4812F0E940B
:104E5000316C80916404809361048DE28093000141
:104E6000E401CE15DF0509F1209791F4812F0E940E
:104E7000226CF7FE06C0809164048093610487E38E
:104E800005C080916404809361048DE280930001E9
:104E90008C2D83700E94FD5CEC16FD0614F08FEFE4
:104EA00001C081E08093E20702C01092E207CE01C8
:104EB000DF91CF911F910F91FF90EF90DF90CF90F6
:104EC000BF90AF909F908F900895E70193CF0F937D
:104ED000772767FD7095552747FD5095332727FDA8
:104EE000309501E00E949A260F9108950F9377273D
:104EF00067FD7095552747FD5095332727FD309561
:104F000002E00E949A260F910895FF920F931F933B
:104F1000F82E162F042F80E860E0412F50E0202F5C
:104F20000E9465671A3010F485E701C08FE660E0E3
:104F30004FE2202F0E943C641A3010F485E701C034
:104F40008FE64F2D50E04F5F5F4F60E0202F0E94B3
:104F500065671F910F91FF9008959F92AF92BF9246
:104F6000CF92DF92EF92FF920F931F93CF93DF9335
:104F7000F82ED62EEA01B22E9C2CE0919A07F091E1
:104F80009B078091F8079091F9078E1B9F0B60E2B9
:104F900070E00E944C739B017093E1076093E007FF
:104FA0006115710521F0F093F907E093F807E0919E
:104FB0009607F09197078091F6079091F7078E1B5F
:104FC0009F0B60E470E00E944C73A62E662321F0D4
:104FD000F093F707E093F607E0919807F0919907AF
:104FE0008091F4079091F5078E1B9F0B60E470E0B1
:104FF0000E944C73C62E662321F0F093F507E093D0
:10500000F407AA2021F4CC2011F4232B89F08091FD
:10501000720190E024EF31E0AC01429FC001439F58
:10502000900D529F900D112490936E0480936D0407
:10503000209711F429E75FC08091F207882309F0D7
:1050400041C08091BF07882309F03CC0AA2011F419
:105050008D2D09C09B2D91508D2D8A1987FD80E0E3
:1050600098170CF4892F54E6F51651F095E6F916C9
:1050700099F4DD2011F08D2D01C08B2D81500CC0D5
:105080002D2D30E08B2D90E001972817390714F073
:1050900080E002C08D2D8F5F282F332727FD3095AC
:1050A0008D2D90E02817390711F442E00CC0F9016A
:1050B000EE0FFF1FEC0FFD1F859194910E94342687
:1050C00080E072C140E01092BF078D2D6B2D0E94D1
:1050D00085272091250D2E508D2D90E0019666EFAD
:1050E0007FEF0E944C73CB01880F991F880F991F87
:1050F000860F971F280F8EE498E0622F0E94C25EF1
:105100000115110511F430E00AC08091F2079E2DBF
:105110008E1508F4982FF801E90FF11D3491409194
:10512000BD071416C4F1CC2011F18091F2078C193F
:1051300087FD80E0992D89150CF4982F9093F20744
:105140002091F3070115110511F480E00BC0892FA0
:10515000E91608F48E2DF801E80FF11D8491281747
:1051600008F4822F8093F30780E68093570DAA20DE
:1051700091F08091F207882371F08091F3078A19EA
:1051800087FD80E0932F83170CF4982F9093F307FB
:1051900080E68093570DE0E6FE16C9F1EF15B8F0F2
:1051A000F3E4FF1609F4B2C0FF1540F051E2F51622
:1051B000E9F182E4F81609F0D7C07FC094E4F9164B
:1051C00009F451C0E5E4FE1609F0CEC060C0F4E673
:1051D000FF1609F44DC0FF1548F052E6F51609F424
:1051E00071C083E6F81609F0BFC094C091E8F916C3
:1051F000D1F0EFEBFE1629F0F5E6FF1609F0B4C08A
:105200004BC01092F3071092F2078FEF09C03323BF
:1052100009F4AAC01092BD0714160CF4A5C081E0D1
:105220008093BD07A1C01092BD070BC014161CF4DB
:105230001092BD0799C08091F207882311F0209742
:1052400019F40E94732690C08091620480936104D7
:1052500082E3809300011092F3071092F20780E638
:105260008093570D85C08091F307831709F47CC0A4
:10527000012B09F479C014160CF476C08091F30761
:10528000831710F48F5F13C01092F3076AC08091E8
:10529000F307882309F468C0012B09F465C01416CC
:1052A0000CF462C08091F307882321F08150809331
:1052B000F30757C03093F30754C08091F207891564
:1052C00009F452C014160CF44FC08091F2078915EE
:1052D00010F080E001C08F5F0115110509F470C066
:1052E000982FE81608F49E2DF801E90FF11DE491BE
:1052F000EF3F09F065C0EBCF8091F2078E1508F4FF
:10530000E82E0E0D111DF801049126C08091F207C0
:10531000882351F1141644F18091F207882311F487
:10532000892D01C081500115110509F452C0982F33
:10533000E81608F49E2DF801E90FF11DE491EF3F06
:1053400009F047C0EBCF8091F2078E1508F4E82EE4
:105350000E0D111DF8010491901708F4092F009308
:10536000F30780E68093570DCD2B11F456E001C072
:1053700057E04091F207442319F41092BC0713C080
:10538000242F30E08091BC07281B3109852F90E045
:105390008217930714F4451B04C0121613061CF061
:1053A00041504093BC0781E0DF91CF911F910F9155
:1053B000FF90EF90DF90CF90BF90AF909F900895B7
:1053C0008093F2079091F3070115110509F094CF2E
:1053D00008C08093F2079091F3070115110509F0B9
:1053E000B2CF00E0BCCFCF92EF920F931F93C02EAD
:1053F00000E010E0EE240E94AD271F910F91EF9086
:10540000CF9008950F93062F60E040E050E020E039
:105410000E94F3290F9108950F93942F222311F4E2
:1054200000E001C002E043E0949FA00111244C542D
:10543000504F23E00E9446690F910895DC01FB0163
:1054400005C09C9180818D93919341504423C9F76D
:105450000895CF92DF92EF92FF920F931F93CF9315
:10546000DF93182F80E060E046EC58E122E00E94D4
:105470000765812F6BE04BE755E02CE008E00E94C8
:10548000F329882309F46AC0F090F207FA941038DF
:10549000C1F480E80E94316C89E18093BE0786E008
:1054A0008F1518F08F2D0E94B47087E0F81611F454
:1054B0000E944370809163048093610482E380932F
:1054C000000118E0EE24CF2CDD24C7FCD0944091DD
:1054D000BC074E0D473019F4193380F13FC0C42F7B
:1054E000D0E0CC16DD0611F020E101C022E1AE01D2
:1054F0004F5F5F4F82E1612F02E00E945D66809105
:10550000BE07882319F4CC16DD0609F000E0CE01B1
:10551000880F991FAC0123E0440F551F2A95E1F72E
:10552000481B590B49535E4E88E1612F2EE00E94C3
:105530004669185FE394103451F610C08091BE079D
:10554000882329F487E0F81611F422E001C020E056
:1055500086E0612F4EEA54E10E940765DF91CF910A
:105560001F910F91FF90EF90DF90CF9008952F92B1
:105570003F924F925F926F927F928F929F92AF92E3
:10558000BF92CF92DF92EF92FF920F931F93DF9320
:10559000CF93CDB7DEB762970FB6F894DEBF0FBEDC
:1055A000CDBF8E8780E060E04BEB58E122E00E94A7
:1055B00007658E856AE04BE755E02CE003E915E0CE
:1055C0007DE0E72E3DE0C32E0E94AD27882309F43D
:1055D00046C32091F2072D878E858252843038F49D
:1055E0008091BD0718161CF484E08093C80D80914B
:1055F000BD0718161CF032E03C8702C081E08C87A2
:10560000ACE7BDE0BF83AE8393E4492E94E0592E0E
:105610001A8A198AE4E0F0E0FB87EA8723E030E0A9
:105620003987288782E090E09D838C83A1E0B0E0F9
:10563000BB83AA83BD856B2E772467FC7094EC85B1
:10564000E868EF87FC85F068F88B8091BC072A81B9
:105650008217C0F40A811B81081B110983E0000F27
:10566000111F8A95E1F780E0602F48E854E10E941D
:10567000426549895A894F5F5F4F8CE0602F20E077
:105680000E9465678091BC073C81831708F092C037
:105690006C817D81681B7109B3E0660F771FBA9535
:1056A000E1F7162F84E040E954E10E944265D201FF
:1056B0004C91E989FA89A3E0EE0FFF1FAA95E1F763
:1056C00029893A89E21BF30BEC5BFB4F20812F7099
:1056D0008C819D816816790631F48091F3078823C7
:1056E00011F40F8501C008E880E3612F50E00E94AB
:1056F00071689091250DE989FA8973E0EE0FFF1F1B
:105700007A95E1F7A989BA89EA1BFB0BEC5BFB4FA1
:1057100040814F70EC81FD816E167F0631F48091DF
:10572000F307813011F40C8501C000E050E04156D0
:105730005E4E892F612F21E00E9446692C813D81B8
:1057400062167306B9F58091BD07181634F0809182
:10575000E0079091E107892B69F18091F307882395
:1057600071F4D2016C918E8570E040E050E02FEF33
:1057700030E002E00E949A26F20180831BC0098972
:105780001A8963E0000F111F6A95E1F729893A89A8
:10579000021B130B0C5B1B4FD8016C916F708E8535
:1057A00040E021E00E9476278F70F8019081907F81
:1057B000982B90838091BC07F8858F1708F043C021
:1057C00068857985681B710953E0660F771F5A95C4
:1057D000E1F7162F84E044E954E10E944265AE816E
:1057E000BF812C91E885F9856E167F0611F000E8DF
:1057F00001C0088980E3612F49890E947D6828855E
:10580000398562167306F9F409891A8943E0000F95
:10581000111F4A95E1F789899A89081B190B0C5BBE
:105820001B4FD8016C9165956595659565958E853D
:1058300041E82FE70E9476278295807FF8019081CA
:105840009F70982B9083EA848091BC078E1508F096
:1058500074C06A857B85681B710933E0660F771F0A
:105860003A95E1F7F62E84E04AE954E10E94426558
:105870001989D20115962C91EA85FB856E167F0653
:1058800031F48091F307882311F4088901C000E8FE
:1058900080E36F2D412F0E947D68D20116962C91D6
:1058A000EA85FB856E167F0631F48091F30781301F
:1058B00011F4088901C000E88EE46F2D412F0E9489
:1058C0007D682A853B8562167306B9F58091F307DA
:1058D000882309F0BEC18091BD0718163CF0809165
:1058E000E0079091E107892B09F4B3C1D201159625
:1058F0006C918E8570E040E050E02FEF30E002E0E8
:105900000E949A26F2018583A4C18091BD071816D2
:1059100034F08091E0079091E107892B71F0D2017A
:1059200016966C918E8570E040E050E02FEF30E0ED
:1059300002E00E949A26F2018683E394E982898933
:105940009A8923E0880F991F2A95E1F729893A89D6
:10595000821B930B05E4202E04E0302E280E391E06
:10596000AA24BB2417E4C12E14E0D12EC80ED91EE0
:105970008091BC073981831708F0F1C0E32EFF2422
:10598000B701681B7109B3E0660F771FBA95E1F79D
:10599000162F84E04EE954E10E944265D6019C91A5
:1059A0009F704501880C991C6E147F0431F480911E
:1059B000F307882311F40C8501C000E0892F90E0E3
:1059C000082C02C0959587950A94E2F78370907031
:1059D000AC01440F551F480F591F4F555E4E80E3D1
:1059E000612F23E00E944669F601408142954F7085
:1059F00043706E147F0431F48091F307813011F409
:105A00000C8501C000E050E00A2C02C05595479576
:105A10000A94E2F74170507047505E4F4C54504F1B
:105A200088E4612F21E00E944669D1012C916E1417
:105A30007F0431F48091F307823011F4088901C0AA
:105A400000E884E5612F49890E947D686E147F0417
:105A500009F085C08091BD0718163CF08091E007E1
:105A60009091E107892B09F47AC08091F307813086
:105A700089F1813020F0823009F071C063C0F601F5
:105A800010811F70612F70E0082C02C0759567951A
:105A90000A94E2F763708E8570E040E050E023E006
:105AA00030E002E00E949A26082C02C0880F991F5D
:105AB0000A94E2F723E030E002C0220F331F8A94F9
:105AC000E2F720952123280F2F70D6018C91807F3B
:105AD000822B44C0F601108112951F701370612F44
