:100000000C944D0C0C946A0C0C946A0C0C946A0CB5
:100010000C946A0C0C946A0C0C946A0C0C946A0C88
:100020000C946A0C0C946A0C0C946A0C0C946A0C78
:100030000C94DE240C946A0C0C946A0C0C94A90F9A
:100040000C94CE0E0C946A0C0C946A0C0C946A0CF2
:100050000C946A0C0C946A0C0C9479610C946A0CE4
:100060000C946A0C0C94ED0E0C946A0C0C946A0CB3
:100070000C946A0C0C946A0C0C946A0C0C946A0C28
:100080000C946A0C0C946A0C0C946A0C5350530038
:100090008040000000F8FE060303030306FEF8009C
:1000A0000000000000000000000080C0C0E0F0F888
:1000B000FCFEFEFFFF7F7E3E3C1C0000C0E0E0F047
:1000C000E0000000000000000000000000000080D0
:1000D000E0F0F8F8FCFCFC7C3C381000000000006C
:1000E000000000000000000000000000000000C050
:1000F0004020202020202040408000000000000000
:1001000000000000000000000000000000000000EF
:100110000000000000E1E7666C6C6C6CE6C78100D3
:100120000000000080E0F0F8FCFE7FBF3F1F0F07DB
:100130000783C1E1F0F8FCFCFEFE00000103070F9D
:100140000F1E3C3870F0E0C080000080E0F8FEFF39
:10015000FF3F0F1F0F030000000000000000000021
:1001600000000080402020301010307E7FFFFBBC5C
:10017000C8F0000000F01030608001063CE0000094
:10018000000000000000000000000000000000006F
:100190000000000000FFFF0C0C0C0C0C0E0703000D
:1001A0000000F8FEFFFFFFFFCFC7E1F0F0F8FC7E94
:1001B0007F1FFFFFFFFFFFFF7F0700000000000021
:1001C00000000000000080C1F3FFFEFF7F7FEFC151
:1001D000C0800000000000000000000000000000DF
:1001E0001C7C7FFD800000008080C0C0E0F040F0FB
:1001F000F0C0038E7800818242432010080780807F
:10020000804040202020301030202020E050484402
:100210000020000000FDFD8C8C8C8C8C8C8C8C0064
:1002200000000107070707070F1F1F0F0703010043
:1002300000F8FFFFFFFF3F07000000000000000084
:100240000080C070BC7E171B0F0701000000000378
:10025000071F3FFEF8F0E0C0800000000000000033
:10026000000000000001010100F049AB1E1D353502
:1002700032323E3D3C1E1F3C4CCE8E0E0F0B021602
:100280001510080808040402020303050703090601
:100290000202000000BFBF313131313131B1B10054
:1002A000000000000000000000000000000000F05E
:1002B000FFFFFFFF0F0100000000000000C06018FA
:1002C000060305020000000000000000000000001E
:1002D000000000000101040707000000000000000A
:1002E000000000000000000000000103020201F90C
:1002F0002D2E0EFB0101808080808183061870C046
:1003000000000000000000000000000000000000ED
:100310000000000000FFFF070E3870C080FFFF00E4
:10032000000000000000000000000000C0F8FF7F97
:100330001F370700000000000000707C7F3F38007E
:1003400000000000000000000000000000000000AD
:10035000000000000000000000000000000080F02D
:10036000381808080808080808080808080C0C1FAE
:100370001010191909090908080808181018080F99
:100380000C0E0A0A0A0A0A0C0C08080C0C0C38E0BD
:10039000000000000007070000000001030707003D
:1003A000000000000000000000000403060301003C
:1003B000000000000000000000000000000000003D
:1003C000000000000000000000000000000000002D
:1003D00000000000000000000000000000E0FF4FEF
:1003E000404040404040404040404040404040400D
:1003F00040404040404040404040404040404040FD
:100400004040404040404040404040404040403FED
:10041000F8000000000000000000000000000000E4
:1004200000000000000000000000000000000000CC
:1004300000000000000000000000000000000000BC
:1004400000000000000000000000000000000000AC
:10045000000000000000000000000000E0FF0300BA
:10046000000000000000000000000000000000008C
:10047000000000000000000000000000000000007C
:10048000000000000000000000000000000000006C
:1004900007FC535045000102030401020403010359
:1004A0000204010304020104020301040302020125
:1004B0000304020104030203010402030401020411
:1004C0000103020403010301020403010402030205
:1004D00001040302040103040102030402010401F4
:1004E00002030401030204020103040203010403E2
:1004F00001020403020101020304010302040402D5
:1005000003010403020100000000000001081E6452
:100510000101081E6401010F32960A0A1E32960379
:10052000010200040506075F2D2E2C00564552538C
:100530003A2056322E30302D62736F6E6769730029
:100540002053564E3A206F70656E39782D723133D4
:100550003700444154453A20323031322D30312D6C
:1005600032350054494D453A2032313A30393A3328
:100570003800204D4F443A20006943893FA73C5939
:100580003854388A2DDB2C262BD129872A4529007F
:100590000100010002000303030303030303030339
:1005A0000303030303032F3332002F31340006000B
:1005B000037500000902020000000000060201129B
:1005C0000800081C0808081C080000082200490050
:1005D00022080000000000227F2200000008220004
:1005E00049002208000008220049002208000000FB
:1005F000227F22000000000008220049002208009B
:1006000000081C0808081C08005F4AED487947519B
:1006100048B6476B46410000020202020050080043
:10062000000000000000006F000007000700147FBA
:10063000147F14242A7F2A12231308646236495532
:1006400022500005030000001C2241000041221C32
:100650000014083E081408083E0808005030000046
:100660000808080808006060000020100804020064
:100670003E41413E0000427F4000625149460041F8
:10068000494936001814127F0027454539003E4974
:1006900049320001790503003649493600064929E7
:1006A0001E000036360000005636000008142241B5
:1006B00014141414144122140800020151090606EE
:1006C000090906007E0909097E7F494949363E41EC
:1006D0004141227F4141221C7F494949417F09090B
:1006E00009013E4149497A7F0808087F00417F415E
:1006F000002040413F017F081422417F404040409C
:100700007F020C027F7F0408107F3E4141413E7F03
:10071000090909063E4151215E7F091929462649EA
:1007200049493201017F01013F4040403F1F2040C5
:10073000201F3F4030403F631408146307087008CF
:10074000076151494543007F4141000204081020E0
:100750000041417F0004020102044040404040004B
:100760000102040020545454787F484444383844EB
:10077000444420384444487F3854545418087E096F
:1007800001020C5252523E7F0804047800447D401E
:10079000002040443D007F1028440000417F40007D
:1007A0007C041804787C0804047838444444387C79
:1007B00014141408081414187C7C08040408485401
:1007C000545420043F4440203C4040207C1C2040A6
:1007D000201C3C4020403C44281028440C505050E1
:1007E0003C4464544C44000836410000007F000043
:1007F00000413608000808221C08081C220808A02E
:10080000600000000000000000000000000000FE8A
:10081000FE0000000000003E7E00007E3E00006002
:1008200060FEFE6060FEFE606060F09898FEFE98DC
:100830009818180C1E1E0C80C0E070381878FC8EBA
:10084000C6E6763C180000000066763E1E000000FA
:10085000000000E0F0381C0E0600000000060E1C30
:1008600038F0E000006060C080F8F880C060608010
:10087000808080F8F8808080800000000000000008
:100880000000008080808080808080808000000068
:10089000000000000000000000000080C0E0703890
:1008A00018000000000000000000000000000071BF
:1008B00071000000000000000000000000000006C1
:1008C000067F7F06067F7F0606181819197F7F1995
:1008D000190F06181C0E070301307878301E3F717F
:1008E0006367663C3C666600000000000000000094
:1008F000000000070F1C38706000000000607038B6
:100900001C0F070000060603011F1F010306060156
:100910000101011F1F01010101000066763E1E005A
:10092000000000010101010101010101010000308D
:1009300078783000000000181C0E0703010000004A
:10094000000000F8FC0E06060EFCF80000181CFE65
:10095000FE000000000000181C0E0686CEFC780089
:10096000000606868686CEFC78000080C0E07038DF
:100970001CFEFE00007E7E666666E6C6860000F807
:10098000FC8E86868E1C180000060686C6E6763E1D
:100990001E000078FCCE8686CEFC78000078FCCE67
:1009A0008686CEFCF8000030787830000000000029
:1009B000003078783000000000000080C0E070381F
:1009C0001C0E0660606060606060606060060E1C07
:1009D0003870E0C0800000181C0E06060686CEFCAB
:1009E0007800001F3F706060703F1F000060607FF4
:1009F0007F606000000000787C6E6763616060006B
:100A0000006060616161733F1E0000070706060613
:100A1000067F7F00001838706060703F1F00001F65
:100A20003F716161733F1E000000007F7F00000086
:100A30000000001E3F736161733F1E0000000061F3
:100A400071391D0F0700000C1E1E0C000000000075
:100A50000066763E1E0000000000000103070E1C29
:100A6000387060060606060606060606066070383A
:100A70001C0E070301000000000000666703010070
:100A80000078FCCE8686CEFC780000E0F0B89C8E24
:100A90008E9CB8F0E0FEFE8686868686CEFC78F8D0
:100AA000FC0E060606060E1C18FEFE0606060E1CAA
:100AB00038F0E0FEFE8686868686860606FEFE8680
:100AC00086868686860606F8FC0E068686868E9CB8
:100AD00098FEFE808080808080FEFE00000606FE7C
:100AE000FE06060000000000000606FEFE0606FEEA
:100AF000FE80C0E070381C0E06FEFE000000000004
:100B0000000000FEFE1C38F0F0381CFEFEFEFE70F9
:100B1000E0C0800000FEFEF8FC0E060606060EFC95
:100B2000F8000001010101000000007F7F010101C8
:100B30000101017F7F7F7F6161616161733F1E1FE2
:100B40003F70606060607038187F7F6060607038F0
:100B50001C0F077F7F61616161616160607F7F0160
:100B6000010101010100001F3F7060616161717F3F
:100B70003F7F7F0101010101017F7F000060607FF5
:100B80007F606000001838706060703F1F00007F59
:100B90007F0103070E1C3870607F7F6060606060BB
:100BA0006060607F7F0000010100007F7F7F7F0029
:100BB000000103070E7F7F1F3F7060606060703F21
:100BC0001FFEFE8686868686CEFC78F8FC0E06061C
:100BD00006060EFCF8FEFE8686868686CEFC7878B3
:100BE000FCCE868686868E1C1806060606FEFE0647
:100BF000060606FEFE000000000000FEFEFEFE00EF
:100C00000000000000FEFEFEFE000000000000FEEE
:100C1000FE1E3E70E0C0C0E0703E1E7EFEC0800042
:100C20000080C0FE7E0606060686C6E6763E1E00EC
:100C300000FEFE060606060000183870E0C08000C0
:100C4000000000000006060606FEFE000060703888
:100C50001C0E0E1C38706000000000000000000038
:100C6000007F7F01010101010100001F3F706066EC
:100C70006E3C387F677F7F0101070F1D3970601858
:100C8000387161616161733F1E000000007F7F0069
:100C90000000001F3F7060606060703F1F070F1C06
:100CA000387070381C0F071F3F70703E3E70703FE9
:100CB0001F787C0E070303070E7C78000001037F7A
:100CC0007F03010000787C6E676361606060600094
:100CD000007F7F606060600000000000000103078B
:100CE0000E1C180000606060607F7F000000000044
:100CF0000000000000000060606060606060606094
:100D0000600000060E1C387060000000006060602B
:100D10006060E0C080FEFE80C0E06060E0C0808077
:100D2000C0E06060606060000080C0E06060E0C0C3
:100D300080FEFE80C0E060606060E0C0808080F87F
:100D4000FC8E86060E1C18E0F0381818181818F8D3
:100D5000F8FEFE80C0E06060E0C08000006060E6F9
:100D6000E600000000000000006060E6E60000FE13
:100D7000FE000080C0E060000000000606FEFE00ED
:100D8000000000E0E060E0C0C0E0E0C080E0E080A3
:100D9000C0E06060E0C08080C0E060606060E0C093
:100DA0008000000000000000000000183C7E666625
:100DB0006666667F7F7F7F6161606060703F1F1F36
:100DC0003F70606060607038181F3F7060606061E5
:100DD000617F7F1F3F766666666666070701017F53
:100DE0007F01010000000001036766666666763FCA
:100DF0001F7F7F0101000000007F7F000060607F97
:100E00007F606000001838706060703F1F00007FD6
:100E10007F060F1F3970600000000060607F7F60F8
:100E20006000007F7F0000070700007F7F7F7F0159
:100E300001000000007F7F1F3F7060606060703FB6
:100E40001FE0E06060606060E0C08080C0E06060E3
:100E500060C080E0E0E0E080C0E06060E0C08080F2
:100E6000C0E0606060606000006060FEFE60600086
:100E7000000000E0E0000000000000E0E0E0E00032
:100E80000000000000E0E0E0E0000000000000E002
:100E9000E060E0C080000080C0E060E0E0000000B2
:100EA000000000E0E0606060606060E0E0E0600042
:100EB0000080C0787C0E06000000000000FEFE00EE
:100EC0000000000000060E7C78C08000008080805A
:100ED000801838F0E0C08080C0E0F0381880808052
:100EE000807F7F0606060606070301010307060644
:100EF0000607077F7F7F7F0101000000000101617D
:100F00006367666666667E3C1800001F3F7060601F
:100F10007038181F3F7060607038187F7F070F1C93
:100F2000387070381C0F071F3F7070383870703F72
:100F30001F6070391F0F0F1F3970600103676666ED
:100F40006666763F1F6070787C6E676361606000E4
:100F50000001031E3E70600000000000007F7F0063
:100F6000000000000060703E1E030100000101014E
:100F700001181C0F0703010103070F1C18010101D1
:100F800001630040800804201002014F46464F4E86
:100F9000202D2D2D494E56344348203643482038C5
:100FA000434820313043483132434831344348319B
:100FB00036434851756965744E6F4B65794E6F7253
:100FC0006D204C6F6E6720784C6F6E6753494E47AB
:100FD0004F534D5046494C54446F776E4F46462010
:100FE000557020206F6666202B3D203A3D636831A6
:100FF0006368326368336368344578702020204525
:101000007846696E6546696E6520204D6564697530
:101010006D436F61727365524554413132335050A4
:101020004D2020505858202044534D322050504DD0
:101030003136504F534E45472D2D2D783E30783C5C
:10104000307C787C663E30663C307C667C4544492A
:1010500054205052534554412E54485257656967A5
:1010600068744578706F20205068617365205377ED
:10107000746368205768656E20204375727665201A
:1010800020202020202041646420202020204D7535
:101090006C7469706C795265706C616365202B3D6E
:1010A0002A3D3A3D2D2D2D2D202020763E6F667352
:1010B0002020763C6F667320207C767C3E6F6673C2
:1010C0007C767C3C6F6673414E44202020204F523A
:1010D0002020202020584F522020202076313D3DD6
:1010E0007632207631213D76322076313E763220BE
:1010F0002076313C7632202076313E3D76322076A5
:10110000313C3D7632202D2D2D2D202020202020F9
:1011100020202020547261696E65722020202020DA
:101120002020547261696E6572205255442020203F
:10113000547261696E657220454C452020205472BE
:1011400061696E6572205448522020205472616992
:101150006E65722041494C202020496E7374616E87
:1011600074205472696D20205472696D73324F6619
:1011700066736574732053696D706C6520342D43FC
:101180004820542D43757420202020202020562DE7
:101190005461696C202020202020456C65766F6E9C
:1011A0005C44656C7461654343504D2020202020D1
:1011B000202048656C692053657475702020536544
:1011C00072766F20546573742020204D656E7520F3
:1011D0004578697420446F776E20202055705269DD
:1011E000676874204C656674544852525544454CA7
:1011F0004549443049443149443241494C474541CD
:1012000054524E5357315357325357335357345325
:101210005735535736535737535738535739535712
:101220004153574253574352554420454C4520544F
:1012300048522041494C205031202050322020502B
:101240003320204D41582046554C4C43594331439F
:10125000594332435943334F4646414253544873EE
:10126000544825544874005B4D454E555D20202060
:10127000205B455849545D00205B4D454E555D202F
:101280005748454E20444F4E450066726565004400
:10129000454C455445204D4F44454C00436F7079B3
:1012A000696E67206D6F64656C2E2E2E004D6F7613
:1012B000696E67206D6F64656C2E2E2E004C6F6119
:1012C00064696E67206D6F64656C2E2E2E004E6112
:1012D0006D650054696D657200452E4C696D6974C9
:1012E0007300452E5472696D73005472696D204904
:1012F0006E6300542D547261636500542D547269FD
:101300006D0042656570204374720050726F746F97
:101310000050504D206672616D65006D730053770B
:1013200069746368005472696D7300466164652076
:10133000496E0046616465204F75740028646566D7
:1013400061756C742900436865636B202020202040
:101350005472696D73004D4F4445004E6F206672A4
:101360006565206578706F21004E6F206672656537
:10137000206D697865722100494E53455254204DC5
:101380004958200045444954204D49582000536F86
:101390007572636500576569676874004F666673A8
:1013A0006574005472696D0043757276657300460A
:1013B0002E5068617365005761726E696E67004FE9
:1013C0004646004D756C7470780044656C617920F8
:1013D000446F776E0044656C617920557000536CE2
:1013E0006F772020446F776E00536C6F7720205505
:1013F000700044522F4558504F004D4958455200F7
:10140000434F5059205452494D205B4D454E555D38
:10141000004356005357004120206368616E6E659B
:101420006C004D61780043616C696200426172003A
:10143000416C61726D0055737250726F746F00432E
:101440004C454152204D49584553205B4D454E5522
:101450005D0042656570657200436F6E7472617302
:10146000740042617474657279207761726E696E7E
:101470006700496E616374697669747920616C6193
:10148000726D0046696C7465722041444300546873
:10149000726F74746C652072657665727365004D49
:1014A000696E7574652062656570004265657020BF
:1014B000636F756E74646F776E00466C617368203D
:1014C0006F6E2062656570004C6967687420737781
:1014D00069746368004C69676874206F6666206190
:1014E000667465720053706C617368207363726513
:1014F000656E005468726F74746C65205761726E0B
:10150000696E6700537769746368205761726E690A
:101510006E67004D656D6F7279205761726E696EEE
:101520006700416C61726D205761726E696E670071
:101530004E4F204441544120416C61726D005278FD
:10154000204368616E6E656C204F7264004D6F645D
:101550006500536C617665006D6F64652020202501
:1015600020737263004D756C7469706C69657200EC
:1015700043616C00454550524F4D207600547269CE
:101580006D2D202B00424700205B4D454E555D20C0
:10159000544F2053544152542020002020205345C2
:1015A00054204D4944504F494E5420202000204D96
:1015B0004F564520535449434B532F504F545320BB
:1015C00000416C743A00527820426174743A0052BF
:1015D000783A0054783A004864673A005370643AA5
:1015E0000054656D70313A0054656D70323A0052A6
:1015F000504D3A004675656C3A00566F6C74733AFC
:1016000000416363656C0054656C653A0052535346
:10161000493A004E4F204441544100544D3100544A
:101620004D32005448520054482500544F54007421
:101630006D72314C6174206D6178202020207573AB
:1016400000746D72314C6174206D696E2020202011
:10165000757300746D7231204A697474657220204C
:101660002020757300746D61696E206D6178202093
:10167000202020206D7300467265652053746163DD
:101680006B206D696E2020202062005B4D454E5519
:101690005D20746F2072657365740050504D004377
:1016A0004800544D52004D4F44454C0046500045B3
:1016B0004550524F4D206C6F77206D656D00414C49
:1016C00045525400507265737320616E79206B65CA
:1016D0007920746F20736B6970005468726F747432
:1016E0006C65206E6F742069646C6500526573656B
:1016F00074207468726F74746C6500416C61726DF3
:10170000732044697361626C656400537769746324
:10171000686573206E6F74206F666600506C65613B
:101720007365207265736574207468656D004D453E
:10173000535341474500707265737320616E792081
:101740004B65790042616420454570726F6D20449D
:1017500061746100454550524F4D20466F726D6176
:101760007474696E6700454550524F4D206F766521
:1017700072666C6F77004D454E5553204F5645525B
:10178000464C4F5700524144494F20534554555001
:1017900000545241494E45520056455253494F4E0E
:1017A000004449414700414E410043414C494252A7
:1017B0004154494F4E004D4F44454C53454C005306
:1017C0004554555000464C494748542050484153D1
:1017D0004500464C49474854205048415345530022
:1017E00044522F4558504F004C494D4954530043E3
:1017F0005552564553004355525645004355535490
:101800004F4D2053574954434845530046554E4386
:101810002053574954434845530053414645545972
:101820002053574954434845530054454D504C416B
:101830005445530053544154004445425547009C7D
:101840001432465A5A4632465AECEC003C649CC468
:10185000003C649C0000006453696D706C6520342A
:101860002D434800542D43757400562D5461696C06
:1018700000456C65766F6E5C44656C746100654311
:1018800043504D0048656C69205365747570005372
:101890006572766F20546573740011241FBECFEFFC
:1018A000D0E1DEBFCDBF11E0A0E0B1E0E8EFFEEC9B
:1018B00002C005900D92A832B107D9F71DE0A8E249
:1018C000B1E001C01D92A834B107E1F70E945B238B
:1018D0000C947A670C940000E82F8823D9F087FFD6
:1018E00007C0863E1CF080E68E1B0895E19504C07B
:1018F0008B3114F4805C0895E5321CF48E2F8B5EDE
:101900000895E9323CF4FF27E7FDF095EE5FFA4FCA
:101910008491089580E208959DE0899F90011124AB
:1019200020503C4FC9010895282F30E0220F331F6B
:10193000220F331F27503D4FC901089599E0899F19
:101940009001112427573E4FC901089595E0899FC2
:101950009001112427553D4FC90108959C0140E095
:10196000683008F041E070E0442371F0CB01089743
:10197000FC0163E0EE0FFF1F6A95E1F7E80FF91F26
:10198000DF01A75ABC4F0AC0FB01EE0FFF1FEE0F8D
:10199000FF1FE60FF71FDF01AF5CBC4FFD01808129
:1019A00020503C4F37FD0EC068E02030360784F0F1
:1019B000442319F484E090E002C088E090E0A80F8E
:1019C000B91F8C91992787FD9095582F442733C0D4
:1019D000442331F0432FB9017070660F771F04C0A4
:1019E000432F4695B9017170842F90E0FD01E80FF7
:1019F000F91F8181992787FD90959B013595279542
:101A0000829FA001839F500D929F500D1124208131
:101A1000332727FD309580E092E0861B970B959544
:101A20008795BC01269FC001279F900D369F900D82
:101A30001124480F591FCA0169E170E00E94EF6646
:101A4000CB0108959C01633031F1643028F461309A
:101A500051F0623090F43CC0653039F1653008F1E6
:101A6000663061F525C0493029F497FD24C0205027
:101A700032400AC097FF2CC026C0493041F41816E6
:101A8000190624F120503E4F220F331F21C0181693
:101A90001906CCF01DC097FF1BC0309521953F4F14
:101AA00017C01816190694F00EC097FF0CC003C09B
:101AB000181619065CF020E03CEF0AC067500E943F
:101AC000AE0C9C0105C020E030E002C020E034E014
:101AD000C90108956F927F928F929F92AF92BF92A9
:101AE000CF92DF92EF92FF920F931F933B017C0105
:101AF00000E010E08824992464E670E080E090E043
:101B00006619770988099909A80197010E94B066AA
:101B10005B016C0182E390E0A0E0B0E0A80EB91E8A
:101B2000CA1EDB1EC801B7010E94B0660E94B066E3
:101B3000BC0188279927A40193010E94B066E4E0C4
:101B40009695879577956795EA95D1F7A60EB71E76
:101B5000C81ED91EC601B50124E630E040E050E0C1
:101B60000E940267C9011F910F91FF90EF90DF90D3
:101B7000CF90BF90AF909F908F907F906F9008957F
:101B8000FF920F931F939C01AB016115710531F119
:101B9000FF2497FF05C0FF24F394309521953F4F14
:101BA00057FF10C000E014E066277727641B750B11
:101BB000C801821B930B0E946A0D9801281B390BE8
:101BC000C90104C0C901BA010E946A0DFF2011F4C5
:101BD0009C0104C022273327281B390BC9011F9100
:101BE0000F91FF9008951F93162F0E948C0CFC01FB
:101BF000A12FB0E02481332727FD3095CD01880F38
:101C0000991F02C0359527958A95E2F723703070A9
:101C1000AE0FBF1F8C91992787FD9095880F991F54
:101C2000880F991F280F391FC9011F910895FF922E
:101C30000F931F93F82E162F00E0112391F0812FA0
:101C40006F2D0E94F30D21E0853F920754F0282F5D
:101C5000255F211708F02F5F0F5F122F053069F7FE
:101C600010E0812F1F910F91FF900895EFE1F5E0B3
:101C7000E80FF11DE491F0E0EE0FFF1FE554F94F7E
:101C800020813181C9010895ABEBB6E0EBECF6E0C1
:101C900060E0862F806487B9369A208931898D91DA
:101CA0009C91119796958795820F931F8E7F119621
:101CB0009C938E9340815181240F351F3695279533
:101CC000318B208B349BFECF349A84B195B1840F35
:101CD000951F96958795819391936F5F12966830C3
:101CE000C1F60895EBEBF6E050E0852F806487B9EC
:101CF00020E030E040E0369A349BFECF349A84B145
:101D000095B1280F391F4F5F4430A9F736952795B5
:101D1000219331935F5F583041F70895EBEBF6E084
:101D200020E0822F806487B9369A349BFECF349AA4
:101D300084B195B1880F991F819391932F5F2830BB
:101D400081F708958EE587B985E28A95F1F7369A8D
:101D5000349BFECF349A84B195B1909366048093FE
:101D600065040895A82FB0E0FD01EA58FB4F1082EA
:101D7000882329F4809180019091810104C0809191
:101D8000870190918801FD01EE0FFF1FE858FB4F7E
:101D900091838083A458BB4F1C9208951F920F9289
:101DA0000FB60F9211248F93809189068F5F8093D5
:101DB00089068F910F900FBE0F901F90189540913C
:101DC000890622B7809189064817C9F7942F80E0C9
:101DD00030E0282B392BC90108951F920F920FB6BE
:101DE0000F9211242F933F934F935F936F937F93A1
:101DF0008F939F93AF93BF93CF93DF93EF93FF9313
:101E0000C0918000D091810080917D008F7D809372
:101E10007D00789480918A0690918B069E01281B04
:101E2000390B36952795C901815A9F408F5D9E4297
:101E300020F481E0809388062EC040918806842F8C
:101E40008150883040F5C9018152934087579540B1
:101E500000F5E42FF0E0EE0FFF1FEA58F94F2C5D7C
:101E6000354080917201992787FD90950A96BC01B3
:101E7000269FC001279F900D369F900D11246AE088
:101E800070E00E94EF66718360834F5F4093880625
:101E900002C010928806D0938B06C0938A06F894ED
:101EA00080917D00806280937D00FF91EF91DF91B2
:101EB000CF91BF91AF919F918F917F916F915F91E2
:101EC0004F913F912F910F900FBE0F901F9018953B
:101ED000E9E4FDE001C0319680818535E1F39F01A1
:101EE00028543D40C9010895EF92FF920F931F932C
:101EF000062F7A010E948C0CDC0110E0FC01E00F3F
:101F0000F11FC70195958795959587958083000F5B
:101F1000111F83E090E0002E02C0880F991F0A94E1
:101F2000E2F7809514962C911497822393E0E9228E
:101F3000FF2402C0EE0CFF1C0A95E2F78E0D1496EA
:101F40008C9382E00E9422541F910F91FF90EF909A
:101F5000089578941F920F920FB60F9211242F9329
:101F60003F934F935F936F937F938F939F93AF9321
:101F7000BF93EF93FF93F89487B78D7F87BF81B7A7
:101F80008E5F81BF789480915704882359F08091A7
:101F9000000190918D06890F80938D0687FF02C006
:101FA0001B9A01C01B988091070181508093070103
:101FB0008F5F09F054C08DE48093070190915F0416
:101FC000992369F080916E04882329F490936E041C
:101FD00081E080936F04915090935F0421C0309111
:101FE0006D043323B9F020916E04222399F090E020
:101FF00080916F04882309F491E090936F049923F2
:1020000009F428E020935F04992351F03150309374
:102010006D0406C010926E0410926F041092580462
:1020200080916F04882391F080915804882311F4E3
:1020300090E004C090918C0681E0982790938C06E4
:10204000992321F481E08093570402C01092570431
:102050000E94FD6280915904826080935904F89433
:1020600087B7826087BF7894FF91EF91BF91AF915E
:102070009F918F917F916F915F914F913F912F91A0
:102080000F900FBE0F901F9018950F931F938C0108
:102090000E946E6182E260E04EE257E124E00E941D
:1020A000245C80E068E1A8010E945F5C0E94E25F1E
:1020B000809156010E94D85F1F910F91089586B3B9
:1020C00080958E77E1F70E94C6610895EF92FF92A6
:1020D0000F931F938C017B010E946E6182E260E08E
:1020E0004EEB56E124E00E94245C80E060E2A8010F
:1020F0000E945F5C80E068E2A7010E945F5C80E074
:1021000060E344EC56E10E945F5C0E94E25F8091D4
:1021100056010E94D85F0E945F101F910F91FF909F
:10212000EF900895EF92FF920F931F93CF93DF9359
:10213000E82E882349F480915B0490915C04492F38
:10214000441F4427441F90C1992787FD909597FF0E
:1021500003C0909581959F4F863109F480C18A30E4
:1021600030F490E00D960E946562482F79C18A5044
:10217000282F30E08901000F111F020F131F0F5588
:102180001C4FD80112968C91882311F440E06CC149
:10219000F8018281853010F420E007C0D801129642
:1021A0008C91883008F468C122E0D801EC91E150AC
:1021B000E73008F449C052C080915D0490915E04FC
:1021C00040E08C239D23892B89F127C080915B04FB
:1021D00090915C048C2B9D2B90935C0480935B040A
:1021E000F80180810E949210F82ED80111968C91EE
:1021F0000E949210982FF8018281853019F0863064
:1022000049F403C0FF2089F002C0FF2031F4992374
:1022100021F40BC040E0F91649F041E080915D04E3
:1022200090915E048C2B9D2B0AC040E020915D04B0
:1022300030915E04CE0180959095822393239093F4
:102240005E0480935D040CC180915A048823D1F50B
:10225000F0E0EE0FFF1FEC57F84F31C0E93018F4F3
:1022600060E074E031C0E03178F4F0E0EE0FFF1F81
:10227000DF01AE5BBE4FE05AF94F608171818D91F5
:102280009C91681B790B09C0E43150F4F0E0EE0F2B
:10229000FF1FE05AF94F60817181660F771F14C0EC
:1022A000E43230F4F0E0EE0FFF1FE659F84F07C0BC
:1022B000E63240F4F0E0EE0FFF1FE05DFB4F60817F
:1022C000718102C060E070E0222309F051C0D801A2
:1022D0008C91853244F011968C91992787FD9095C9
:1022E0008E599F4F18C0F801918189E298029001A0
:1022F0001124359527953595279597FD915C96FB8B
:10230000990F990B90F9892F992787FD9095A9012D
:10231000481B590BCA01D80112962C91223051F05A
:10232000233071F02130C1F440E0861797070CF09C
:1023300097C095C040E0681779070CF091C08FC036
:1023400040E0FB0177FF03C0F095E195FF4F8E174A
:102350009F070CF085C083C040E0FB0177FF03C0FE
:10236000F095E195FF4FE817F9070CF079C077C0B9
:10237000D8011196EC91E150E73050F480915A0465
:102380008823E9F5F0E0EE0FFF1FEC57F84F33C05C
:10239000E93018F4E0E0F4E034C0E03180F4F0E03B
:1023A000EE0FFF1FDF01AE5BBE4FE05AF94F019009
:1023B000F081E02D8D919C91E81BF90B0AC0E4316E
:1023C00058F4F0E0EE0FFF1FE05AF94F0190F08152
:1023D000E02DEE0FFF1F15C0E43230F4F0E0EE0FF9
:1023E000FF1FE659F84F07C0E63248F4F0E0EE0F61
:1023F000FF1FE05DFB4F0190F081E02D02C0E0E0A7
:10240000F0E0D80112968C91893089F08A3018F466
:10241000883009F507C08A3079F08B3091F08C3024
:10242000D1F414C040E06E177F07D1F418C040E02B
:102430006E177F07A1F414C040E0E617F70784F495
:102440000EC040E06E177F075CF409C040E06E17D5
:102450007F0734F004C040E0E617F7070CF041E0D6
:102460001E1414F081E04827842FDF91CF911F9133
:102470000F91FF90EF900895C1E0D0E002C0CC0F23
:10248000DD1F2A95E2F780915B0490915C048C2318
:102490009D23892B09F090CE99CE362F379533277F
:1024A000379520E030935C0420935B040E949210E7
:1024B0000895EF92FF920F931F93CF93DF93C5EE92
:1024C000D3E051E0E52EF12C2881222309F1898106
:1024D0008823F1F090E00197870102C0000F111FDF
:1024E0008A95E2F7822F60E00E944D1220917606D5
:1024F00030917706882319F0202B312B05C0C801B5
:10250000809590952823392330937706209376067B
:10251000229683E0CD3FD807B9F6DF91CF911F9186
:102520000F91FF90EF900895FF920F931F938C01EE
:10253000F62E0E946E6182E260E04EEB56E124E0EE
:102540000E94245C80E060E2A8010E945F5C89E157
:1025500068E346E357E10E945F5C0E94E25FFF2070
:1025600011F089E102C0809156010E94D85F8091EC
:10257000640480935F0482E3809300010E945F10F3
:1025800086B380958E7791F48091590160E00E9426
:102590004D12882331F480917001882311F4FF20BB
:1025A00019F0C79AA895ECCFC798FCCF1F910F914F
:1025B000FF90089580916B0187FD07C0887329F40F
:1025C0008BEF96E160E00E949412089580916B0178
:1025D00086FD0AC00E943056883C910528F48FEA97
:1025E00096E160E00E94941208950F931F938091EA
:1025F0006B01867099F18BE097E16CE177E10E94C5
:10260000661000E080916B018670823009F401E071
:102610001EE00AC0113139F0812F8D5060E00E9418
:102620004D12801729F41F5F1631A0F31631B1F057
:1026300086B380958E7791F406C0809170018823CF
:1026400051F0C79A09C08091590160E00E944D1273
:102650008823B9F7F2CFC7981EE0DECF1F910F9104
:1026600008950F931F93CF93DF9380916B0180FDAB
:1026700043C080916C0190E08170907002E010E0A6
:10268000081B190BF801EE0FFF1FE85DFE4FC1811B
:10269000D281609687859089C81BD90B0E948E0EC7
:1026A000102F802F0E94360EC817D9072CF58AEDFF
:1026B00096E16CEE76E10E9466100E948E0E812FEC
:1026C0000E94360EC817D90724F486B380958E77FA
:1026D00049F00E945F1010C080917001882351F072
:1026E000C79AEBCF8091590160E00E944D12882378
:1026F000B9F7F2CFC798E1CFDF91CF911F910F913A
:102700000895AF92BF92CF92DF92EF92FF920F9314
:10271000CF93DF9380916E0184FD6EC0809159014B
:1027200060E00E944D12882329F480917001882373
:1027300009F456C0C79A0E946E6180E060E040E9EB
:1027400050E020E000E00E94FC5A0E94E25F80918D
:1027500056010E94D85F0E945F100E94440E0F5FD6
:102760000032D9F7AA24BB2400E0802F0E94360E45
:10277000C92FD0E0AC0EBD1E0F5F0430B1F7F89446
:10278000C090440DD090450D789480E991E0C80E3A
:10279000D91E1CC00E94440EC0E0D0E000E0802F93
:1027A0000E94360EE92EFF24CE0DDF1D0F5F043090
:1027B000B1F786B380958E77F9F4CA15DB05E1F49D
:1027C00011C0809170018823A9F0C79AF894809174
:1027D000440D9091450D7894C816D906D9F60CC0D1
:1027E000C798A9CF8091590160E00E944D128823BB
:1027F00061F7E7CFC798EACFDF91CF910F91FF90B4
:10280000EF90DF90CF90BF90AF9008951F93CF933C
:10281000DF93C2E1D4E011E08881882351F060E0C9
:102820000E944D12882329F0812FDF91CF911F91B3
:1028300008951F5F2D96153079F710E0F5CFDF92E0
:10284000EF92FF920F931F93CF93DF93E82E082F01
:102850000F700650109183011770083008F0C7C040
:10286000E02FE595FF27E7FDF09580916C0190E062
:10287000880F991F880F991FE80FF91FEA50FB4F27
:10288000F490FA940E940614682F8F2D0E94170E60
:10289000D82E6F2D0E94F30DBC01112389F477FF10
:1028A00004C088279927861B970B95958795959542
:1028B000879501968132910584F080E290E00DC009
:1028C000212F332727FD30952150304081E090E0C3
:1028D00002C0880F991F2A95E2F7982F32E0F3166D
:1028E00039F48091820183FF03C094E021E001C0AC
:1028F00020E0492F552747FD509500FF07C0EA010A
:10290000C60FD71F10E083E89FEF04C0EB01C41B84
:10291000D50BF8CF009719F4222329F015C03FEF0B
:102920008338930749F0C817D9071CF0681779074F
:102930004CF08D37910541F08C179D072CF08617D0
:10294000970714F4EC0111E083589F4F8A3F9105DB
:1029500009F76C177D0724F4CE37D10544F40CC079
:10296000C617D7074CF48FEFC338D8072CF48091E3
:10297000830186FFEB0111E03EEFCC30D3071CF45E
:10298000CCE0DEEF06C081E0C53FD80714F0C4EF0D
:10299000D1E08D2D6F2DAE010E94740FCE37D10581
:1029A0001CF0CDE7D0E006C03FEFC338D30714F4E6
:1029B000C3E8DFEFCE0164E070E00E94EF66EB0158
:1029C000EC96112341F08E2D0E94EC621092580477
:1029D0008091620407C0E6FE03C081E08093580442
:1029E0008091600480935F04C0930001EE248E2DDB
:1029F000DF91CF911F910F91FF90EF90DF9008959D
:102A0000AF92BF92CF92DF92EF92FF920F931F93FC
:102A1000CF93DF935C01ABEEB6E0FC0198E0019050
:102A20000D929150E1F76F3F19F40E940614682F40
:102A30001CEFC12E12E0D12E0FEFC0E0D0E0E62E49
:102A4000FF240894E11CF11CFE01EE0FFF1FEE0FA6
:102A5000FF1FE750FD4F2081822F837009F4A2C031
:102A600026952695237030E0802F992787FD909535
:102A70002817390709F48DC08181807E99F0828101
:102A800080FD10C0FE01EE0FFF1FEE0FFF1FE6508E
:102A9000FD4F808182958695877090E0E816F90653
:102AA00009F077C0FE01EE0FFF1FEE0FFF1FE6508B
:102AB000FD4F8081880F880F880F859585958595B6
:102AC00061E00E944D12882309F463C0FE01EE0FFD
:102AD000FF1FEE0FFF1FE750FD4F8081182F169547
:102AE00016951370E12FF0E0EE0FFF1FE551F94F3F
:102AF0000190F081E02D8370F7FF03C080FD03C0DB
:102B000048C081FF46C0012FD6016C91772767FD31
:102B10007095CF010E94C00D9C01FE01EE0FFF1FBA
:102B2000EE0FFF1FE750FD4FE0818E2F807F69F091
:102B30006E2F62956F70862F90E00B970CF06C5F94
:102B4000C90140E00E94220D9C01B901882777FD50
:102B50008095982FFE01EE0FFF1FEE0FFF1FE5502F
:102B6000FD4F2081269530E040E050E00E94B066A5
:102B700024E630E040E050E00E942467E12FFF2788
:102B8000E7FDF095EE0FFF1FEA0DFB1DC901208345
:102B90009183219684E090E0C80ED91ECE30D105F5
:102BA00009F052CFDF91CF911F910F91FF90EF90DD
:102BB000DF90CF90BF90AF9008957F928F929F92B9
:102BC000AF92BF92CF92DF92EF92FF920F931F933B
:102BD000CF93DF93782E09E2A02E01E0B02EEE24F1
:102BE000CC24DD2411E0812E912C8C2D843010F02A
:102BF000FC2C0DC0E0916C01F0E0EE0FFF1FEE0F1A
:102C0000FF1FEC0DFD1DEA50FB4FF490FA940E945B
:102C1000360E9C01D5018D919C911197281B390B83
:102C2000121613062CF45C96ED91FC915D9705C08D
:102C3000D5011E96ED91FC911F97E436F10514F431
:102C4000E4E6F0E0B901882777FD8095982FAAE0A7
:102C5000660F771F881F991FAA95D1F79F014427F8
:102C600037FD4095542F0E942467E901BCEF2130C5
:102C70003B071CF4C0E0DCEF06C0E4E020303E0778
:102C800014F0C0E0D4E080916E0180FF06C0F2E055
:102C9000FF1619F4D095C195DF4F0F2D10E0F80104
:102CA000EE0FFF1FEC57F84FD183C083CE010F9674
:102CB0004F9740F4C4010F2C02C0880F991F0A944B
:102CC000E2F7E82A23E02F1508F45DC080915A044A
:102CD000882309F058C032E0F30E8F2D90E0019761
:102CE000D40102C0AA0FBB1F8A95E2F7CD01816013
:102CF000209176063091770682239323892B09F45D
:102D000042C0F801EE0FFF1FEE59FE4FF0808F2DED
:102D1000807CC9F1EF2DEF73F0E0EE0FFF1FDF01B4
:102D2000A65ABE4FE858F94F608171812D913C91B0
:102D3000621B730B882777FD8095982FF801EE0FA3
:102D4000FF1FE85DFE4F23AD332727FD3095432F4E
:102D5000532F0E94B06622E330E040E050E00E9432
:102D60002467F694F694F694F694F694F694EF2D80
:102D7000F0E0E130F10519F0329729F403C0C20FF9
:102D8000D31F01C0E901000F111F06501B4FF801AE
:102D9000D183C0830894C11CD11C22E030E0A20E74
:102DA000B31E37E0C316D10409F01FCF8AEF94E0B9
:102DB000672D0E940015FF2400E010E0A12C94E094
:102DC000B92EF801E650FB4FC080D1808F2D672DC2
:102DD0000E94170E6F2D0E94F30DEC0182E0F81691
:102DE00071F58091820183FF2AC080916E0180FF7E
:102DF00003C0D095C195DF4FBE01882777FD809530
:102E0000982F63587F4F8F4F9F4F95012C193D0985
:102E1000442737FD4095542F0E94B06620E038E0EB
:102E200040E050E00E942467B901CA016030A8E088
:102E30007A07A0E08A07A0E09A0741F406C08091D3
:102E40007E04882311F0C0E0D0E09E01220F331FE2
:102E5000F801EA5BFA4F31832083F3940E5F1F4F32
:102E6000B4E0FB1609F0ADCF8E2DDF91CF911F910D
:102E70000F91FF90EF90DF90CF90BF90AF909F9019
:102E80008F907F9008958F929F92AF92BF92CF9232
:102E9000DF92EF92FF920F931F93CF93DF930E94E5
:102EA0000614C82E9AEFE92E94E0F92E06E415E0F8
:102EB000C0E0D0E082E0882E912CAA24A394BC2EFE
:102EC00080916C0190E0817090709401281B390B07
:102ED0002C173D0751F18C2F6C2D0E94170ED82E08
:102EE000A0925A048C2D0E94DD1510925A04F8010C
:102EF00080819181F70120813181820F931F62E0EF
:102F000070E00E94EF66AB01FEEF6C307F071CF4AF
:102F10004CE05EEF06C021E0653F720714F044EF1D
:102F200051E08D2D6B2D0E94740F219682E090E070
:102F3000E80EF91E0E5F1F4FC430D10509F0BFCF58
:102F400082E00E9422548091610480935F0482E3B6
:102F500080930001DF91CF911F910F91FF90EF902F
:102F6000DF90CF90BF90AF909F908F9008952F9259
:102F70003F924F925F926F927F928F929F92AF9209
:102F8000BF92CF92DF92EF92FF920F931F93DF9346
:102F9000CF93CDB7DEB729970FB6F894DEBF0FBE3B
:102FA000CDBF9F838E83162F862F0E94DD15409103
:102FB00085014823242F30E08091940590E08227FA
:102FC000932782239323892B39F080916104809386
:102FD0005F0482E3809300014093940580E094E0D5
:102FE000909309058093080590930B0580930A053B
:102FF00080915A04882379F180916C0190E081706E
:10300000907022E030E0281B390B1092FB041092E4
:10301000FA042130310521F01092FD041092FC04D5
:103020002230310521F01092FF041092FE0410921C
:10303000010510920005E2E1F5E01192119225E000
:10304000E232F207D1F74EE455E05A83498322E297
:1030500035E0FA0146C062E175E040E050E0FA0177
:10306000E858F94FDA01A85DBE4F80819181D29670
:103070002D913C91D397821B930B880F991FDB01F5
:103080008D939D93BD014E5F5F4F4830510539F7D9
:103090008091800690918106880F991F90931B055F
:1030A00080931A058091820690918306880F991F5C
:1030B00090931D0580931C05809184069091850650
:1030C000880F991F90931F0580931E058091860697
:1030D00090918706880F991F909321058093200572
:1030E000B2CF80819181D9018D939D939D013496BA
:1030F000B5E0E639FB07A9F780E4EEE4F5E0DF018F
:103100001D928A95E9F710927506B5E54B2EB6E04B
:103110005B2EA5ED8A2EA5E09A2EF5E96F2EF5E03F
:103120007F2E1D82212E33240894211C311C8D8179
:103130000E949E0C6C01FC0180818F7159F4E9EAB8
:103140004E2EE2E05E2E25EC33E03C832B832224DE
:103150003324A4C290E0419794F7D60117969C912E
:10316000892F807FC1F0892F8595859585958595D7
:10317000282F332727FD309518162CF422163306F6
:1031800009F07AC208C088279927821B930B28165A
:10319000390609F471C2F601838161E00E944D1283
:1031A000D2019C918823C1F4492F1C92F601918190
:1031B000892F8850823008F05FC287818E708430FA
:1031C00009F45AC2993019F01986188640C020E0D7
:1031D0003CEF398728873BC040E0992309F441E060
:1031E00081E0D2018C93F60181818150A82FB0E05B
:1031F000FD01EE0FFF1FE650FB4F20813181398723
:103200002887843168F03D81831750F4AA0FBB1FD3
:10321000AA0FBB1FA25BBA4F8D919C91998788879B
:10322000D6019C91892F807E91F09295969597700A
:10323000892F90E00197E1E0F0E002C0EE0FFF1F60
:103240008A95E2F7209175062E2B20937506D601FC
:1032500018968C918823C9F0B9E28B029001112451
:10326000359527953595279587FD815C86FB880FD9
:10327000880B80F9992787FD9095281B390BE885E5
:10328000F985E20FF31FF987E887D60116968C912E
:103290001697882329F415968C91882309F46CC11C
:1032A000F4016081718182819381442391F420E053
:1032B00031E040E050E00E94246750954095309501
:1032C00021953F4F4F4F5F4FA884B984A20EB31E84
:1032D0005FC0D60117968C9117978E70843049F590
:1032E000EC91EF71F0E0EE0FFF1FE05EFA4F6081AE
:1032F0007181882777FD8095982F20E034E640E0A3
:1033000050E00E94B066F4016083718382839383EE
:10331000D60112962C91222361F0332727FD309598
:10332000432F532F0E942467F4012083318342836B
:103330005383D4016D917D918D919C9120E031E07A
:1033400040E050E00E9424675095409530952195CB
:103350003F4F4F4F5F4FA884B984A20EB31EA114F4
:10336000B104B1F0F6018581B7FE02C08F7002C0D2
:1033700082958F7090E09C0144E650E0249FC0014C
:10338000259F900D349F900D1124D3018D939C9314
:10339000F301208131812115310599F080916A0472
:1033A000882321F02150304031832083D3018D9137
:1033B0009C91892B31F0F40160817181828193812C
:1033C000C2C0A114B10409F4D7C0D60116968C91DD
:1033D0001697882309F4C0C080916A04882309F4F1
:1033E00077C012962C91222329F460E070E080E2ED
:1033F00093E017C0332727FD309537FF03C0309582
:1034000021953F4F332727FD3095432F532F60E001
:1034100070E080E293E00E942467C901DA01BC01F8
:10342000CD01F60126811A141B040CF52F70422FD2
:1034300050E041155105D9F1A4E6B0E04A9F900152
:103440004B9F300D5A9F300D1124442737FD409576
:10345000542F0E94246779018A01F40180819181AF
:10346000A281B381E80EF91E0A1F1B1F2BC02295F3
:103470002F70422F50E041155105C9F0A4E6B0E08D
:103480004A9F90014B9F300D5A9F300D11244427C5
:1034900037FD4095542F0E942467F401E080F180AD
:1034A00002811381E21AF30A040B150B0BC0288565
:1034B0003985C901AA2797FDA095BA2FEE24F82EC9
:1034C000092F1A2FD401ED92FD920D931C9313979F
:1034D000F401608171818281938128853985790128
:1034E0000027F7FC0095102F1A141B0464F420E049
:1034F00031E040E050E00E942467E216F306040742
:10350000150764F01BC020E031E040E050E00E946D
:1035100024672E153F054007510784F448855985D7
:10352000CA01AA2797FDA095BA2FBA2FA92F982FC5
:103530008827F40180839183A283B383D4016D91A2
:103540007D918D919C9120E031E040E050E00E941F
:1035500024673987288710C0E885F985CF01AA2715
:1035600097FDA095BA2FBA2FA92F982F8827F4017D
:1035700080839183A283B383D60114966C911497B0
:10358000662341F08885998511964C910E94220D01
:1035900099878887F601878180FD12C0E181EE233B
:1035A00079F0E53068F4F0E0EE0FFF1FEC5BFA4FC6
:1035B0008081918128853985280F391F398728878F
:1035C00048855985BA01882777FD8095982FD601BF
:1035D00012962C91332727FD3095432F532F0E94AD
:1035E000B0669B01AC01F60180818F71082F10E05D
:1035F0000150104087818695877090E08130910559
:1036000051F0F801EE0FFF1FEE0FFF1F029731F58B
:10361000E25BFA4F1EC0CA01B90124E630E040E087
:1036200050E00E942467B901CA01000F111F000F6A
:10363000111F025B1A4FD8012D913D914D915C9164
:103640000E94B06620E034E040E050E00E94246731
:10365000F80120833183428353830EC0E25BFA4F2B
:1036600080819181A281B381820F931FA41FB51F16
:1036700080839183A283B383FD81FF5FFD830894E0
:10368000411C511C24E030E0820E931E42E050E0C9
:10369000640E751EF03209F04ACD51CDA981BA8170
:1036A0008D909D90AD90BC90C501B40124E630E0B2
:1036B00040E050E00E942467E981FA812083318351
:1036C00042835383F101EE56F84FC9012083918361
:1036D000D20113962D913C91149711968C911197CC
:1036E000FAE08F02F0011124E851FC4FF987E887D6
:1036F0008C914AE084023001112488E19CEF680E2D
:10370000791ECF015E2F492F2E173F071CF4C901E8
:10371000522F492F852F942F8C01061517050CF475
:10372000830181149104A104B10479F19801442723
:1037300037FD4095542F181419041A041B0464F41F
:10374000A885B985BD01882777FD8095982F621BD4
:10375000730B840B950B0BC0C301AA2797FDA09593
:10376000BA2F281B390B4A0B5B0BCA01B901A50103
:1037700094010E94B06620EA36E841E050E00E94E1
:103780002467C901DA014C015D01C80155E0959536
:1037900087955A95E1F7800F911F9801232F330FDA
:1037A000330B2595820F931F000F012F001F110B64
:1037B000801B910B6C01EE24D7FCE094FE2C8885D5
:1037C000998525E0959587952A95E1F7E885F9850E
:1037D0008E0F9F1FA30105E0559547950A95E1F7C8
:1037E000B301660F672F661F770B460D571D9F01AC
:1037F000232F330F330B2595820F931FEE0FEF2FDF
:10380000EE1FFF0B8E1B9F0B8C01222717FD2095AF
:10381000322FC80CD91CEA1CFB1C0C151D052E05EB
:103820003F0514F468017901461B570B75956795A0
:1038300075956795460F571FCA01AA2797FDA09552
:10384000BA2F87017601E816F9060A071B0714F458
:103850007C018D01D20112968C91882341F0109544
:103860000095F094E094E11CF11C011D111DEB8109
:10387000FC818081882309F160E00E944D12882339
:10388000E1F0AB81BC8111968C91B9E28B02900181
:103890001124359527953595279587FD815C86FB05
:1038A000880F880B80F9992787FD9095281B390B85
:1038B00079010027F7FC0095102FEE81FF81E20DC2
:1038C000F31DF182E082E981FA813496FA83E9837B
:1038D00022E030E0220E331E45E050E0440E551E3B
:1038E0008B819C8102969C838B83EE58F54009F076
:1038F000D5CE29960FB6F894DEBF0FBECDBFCF91BF
:10390000DF911F910F91FF90EF90DF90CF90BF90CC
:10391000AF909F908F907F906F905F904F903F906F
:103920002F900895CF92DF92EF92FF920F931F9303
:10393000DF93CF93CDB7DEB7A0970FB6F894DEBF75
:103940000FBECDBF81E080935A040E940614682FF9
:103950008E010F5F1F4FC8010E94B71710925A04C3
:10396000F801ACEAB2E09E012F5D3F4F808191816A
:103970004CEF883194071CF488E19CEF06C043E0CB
:10398000883E940714F088EE93E011969C938E93F2
:1039900032961596E217F30749F700E010E0F2E0DF
:1039A000CF2ED12CE02E80916C0190E08170907030
:1039B0009601281B390B2017310791F0FF248F2D1A
:1039C0006E2D0E94F30D855F914034F48F2D6E2D86
:1039D00040E050E00E94740FF39445E0F41679F74C
:1039E0000F5F1F4F04301105E9F682E00E94225458
:1039F0008091610480935F0482E380930001A0962C
:103A00000FB6F894DEBF0FBECDBFCF91DF911F91EF
:103A10000F91FF90EF90DF90CF9008952F923F92FB
:103A20004F925F926F927F928F929F92AF92BF92CE
:103A3000CF92DF92EF92FF920F931F93DF93CF937A
:103A4000CDB7DEB7C756D0400FB6F894DEBF0FBE75
:103A5000CDBFF8942091440D3091450DA4963FAF11
:103A60002EAFA497789420E08091B9069091BA0681
:103A7000A4964EAD5FADA4974817590709F021E011
:103A800020936A04A4966EAD7FADA4977093BA0696
:103A90006093B9060E940614A2968FAFA297409138
:103AA0000801481709F475C0282F30E04F3F51F442
:103AB000220F331F2155394F8FEF9FEFD9018D937F
:103AC0009C9362C0A42FB0E08DE090E0A89FF0012D
:103AD000A99FF00DB89FF00D1124E45FFB4F6081AA
:103AE00062956F70289FF001299FF00D389FF00DAF
:103AF0001124E45FFB4FE081EF70E61718F0EE232E
:103B0000F9F06E2F81E090E0FC0102C0EE0FFF1F84
:103B10002A95E2F79F0102C0880F991FAA95E2F744
:103B2000280F8091AC06822B8093AC068FE892E040
:103B300070E00E94DB667093AE066093AD0624C011
:103B4000AA0FBB1FA155B94F1D921C92F901EE0F90
:103B5000FF1FE155F94F8FEF9FEF9183808381E045
:103B600090E0BC0102C0660F771F2A95E2F79B0127
:103B700002C0880F991F4A95E2F7280F209580917F
:103B8000AC0682238093AC06A2967FADA297709379
:103B900008018091AC06882309F493C0FE01B19618
:103BA00080E4DF011D928A95E9F7AFEA2A2EA6E0AC
:103BB0003A2E662477244301EE24FF24A596EFAF26
:103BC000A597A696FFAFA697FE01EF59FF4FA896BF
:103BD000FFAFEEAFA8978091AC0690E00E2C02C02C
:103BE000959587950A94E2F780FF41C0CE01019632
:103BF0006E2D0E94B717CE0101966E2D0E94B71749
:103C0000D1018D919C915C01CC24DD24A5968FADD2
:103C1000A597A6969FADA6978C012E010894411CEE
:103C2000511CF201219131912F01442737FD40951C
:103C3000542FC601B5010E94B066D8012D913D9167
:103C40004D915C91260F371F481F591FF801219392
:103C50003193419351938F01A8962EAD3FADA89714
:103C6000E217F307F1F66A0C7B1C8C1C9D1C089470
:103C7000E11CF11C42E050E0240E351E55E0E51633
:103C8000F10409F0A8CF8E010F5D1F4F7E0108944B
:103C9000E11CF11CE1E6CE2ED12CCC0EDD1ED801AC
:103CA0006D917D918D919D918D01A40193010E9453
:103CB0002467F701219331937F010C151D0579F7D6
:103CC00007C0CE010196A2966FADA2970E94B717CA
:103CD00020E030E0AE014F5F5F4FF894F901EA5405
:103CE000F84FDA01A20FB31F8D919C9191838083CD
:103CF00078942E5F3F4F2032310579F78091190D6E
:103D0000882381F480914508882329F08DE398E089
:103D10000E943D5707C080915008882319F080E029
:103D20000E94285480916A04882309F4AAC48091CF
:103D30005104882379F44091880750918907809134
:103D40006E0180FF05C020E034E0241B350B15C058
:103D50009A010AC0E82FF0E0843048F0EE0FFF1F10
:103D6000E255F84F2081318120503C4F06C0EE0FC4
:103D7000FF1FE657F84F20813181490156E09694A4
:103D800087945A95E1F76091A7066F5F6093A70645
:103D90004091A5065091A606480D591D5093A606C0
:103DA0004093A5062091AA063091AB06A4968EAD4D
:103DB0009FADA497821B930B8436910508F487C0AE
:103DC0002C593F4F3093AB062093AA068091700484
:103DD0009091710401969093710480937004CA01CC
:103DE00070E00E94DB664B019B0136952795809120
:103DF000740490917504820F931F909375048093BF
:103E000074046115710549F08091720490917304F6
:103E1000019690937304809372048091A706609139
:103E2000A3067091A406680F711D7093A406609399
:103E3000A3064091A1065091A2068091A5069091FB
:103E4000A606480F591F5093A2064093A106109250
:103E5000A7061092A6061092A5062091A8063091FA
:103E6000A906A4968EAD9FADA497821B930B885E86
:103E7000934068F128513C4F3093A9062093A8063F
:103E8000CA010E94DB664B011092A2061092A106A5
:103E90001092A4061092A3068091F7049091F80462
:103EA000FC01E158FB4F608301969093F8048093E6
:103EB000F7048837910520F01092F8041092F70467
:103EC0008091F90487FD03C08F5F8093F904552426
:103ED00022E0222E4424439494E0392E552039F4D4
:103EE000F0907F01A0908001B09081010AC021E094
:103EF000521609F063C1F0908601A0908701B0903E
:103F00008801FF2009F458C1052D10E0F801EA5896
:103F1000FB4F8081882391F44082F801EE0FFF1F50
:103F2000DF01A257B94F1D921C92DF01AE56B94F67
:103F30001D921C92EA56F94F11821082F7FC02C0C2
:103F4000EF2C02C0E32CEF1833E0E316A9F4F801DC
:103F5000EE0FFF1FDF01A257B94F8D919C91119772
:103F600001968D939C93EE56F94F80819181880D37
:103F7000991D9183808348C049E14E1508F044C0E3
:103F8000F801EE0FFF1FDF01AE56B94FE257F94FB0
:103F9000208131818D919C91282B392BF801E65697
:103FA000F94F808190E0282B392BF801E456F94F26
:103FB000808190E0282B392B232B31F4FF208F2D8B
:103FC000880F880B842180831F141CF48F2D895146
:103FD00002C08F2D875E60E00E944D12282F88233B
:103FE00079F0F801E456F94F8081882349F4F8010B
:103FF000E656F94F90E08081882309F491E09083A0
:10400000F801E456F94F2083F801E458FB4F908102
:10401000892F8F5F8083843608F4CEC093569083B7
:10402000A114B10461F0F801EE0FFF1FE858FB4F37
:1040300080819181B501681B790B7183608371E088
:10404000E71609F47BC082E0E81629F48114910494
:1040500009F47EC073C093E0E91609F047C0680117
:10406000CC0CDD1C5EE8652E56E0752E6C0C7D1CBC
:10407000D301ED90FC90E114F10409F469C0F6015C
:10408000EE56F94F20813181C901B7010E94DB66EC
:104090004B016E9DC0016F9D900D7E9D900D112472
:1040A000281B390B31832083F301118210829B017D
:1040B00036952795D601AA56B94F8D919C911197A7
:1040C000280F391F11963C932E932031310508F4A7
:1040D0003FC0F601E858FB4F8081918101969183A2
:1040E0008083205130402D933C9332C0F4E0EF1692
:1040F00071F48114910411F5F801EE0FFF1FE858D7
:10410000FB4F8081918118161906C4F021C029E166
:104110002E1570F01F141CF48F2D845002C08F2DAB
:104120008C5F60E00E944D12F801E656F94F8083E3
:10413000F801E656F94F8081882351F0F801EE0F1F
:10414000FF1FE858FB4F8081918101969183808306
:10415000D801AA58BB4F8C91813019F08230F1F40C
:104160000FC0A114B10441F1F801EE0FFF1FE85890
:10417000FB4F808191818A159B059CF02C9211C088
:10418000C501CB96F801EE0FFF1FE858FB4F2081C9
:1041900031818217930714F433E03C93A114B104E6
:1041A00059F0F801EE0FFF1FE858FB4F8081918115
:1041B000A81AB90AB182A082539490CE20917804B3
:1041C0003091790480919F069091A0068217930701
:1041D00009F49CC080917604813009F07CC0809104
:1041E0006E0182FF57C08091800190918101892BDF
:1041F00009F450C02E31310551F482E080936D04F2
:104200008091620480935F0482E380930001809137
:10421000780490917904449751F481E080936D047F
:104220008091620480935F0482E380930001809117
:104230007804909179040A9739F48091620480930C
:104240005F0482E380930001809178049091790467
:1042500004973CF48091620480935F0482E380932E
:10426000000180916E0183FF15C0809178049091C8
:1042700079048E31910541F08431910529F08A301D
:10428000910511F0049734F482E390E090936C046C
:1042900080936B0480916E0181FF30C0209180017A
:1042A000309181012115310549F080917804909178
:1042B0007904A901481B590BCA0104C080917804F4
:1042C000909179046CE370E00E94DB66892BB1F475
:1042D0008091620404C0823089F4809163048093E9
:1042E0005F0482E38093000180916E0183FF06C02A
:1042F00082E390E090936C0480936B048091780447
:10430000909179049093A00680939F068091AC06CB
:10431000882309F452C0EFEAF6E0A0E0B0E051E0F3
:10432000E52EF12CCC24CA94DC2C8701A2960FAC8C
:10433000A29702C0000F111F0A94E2F76091AC0629
:10434000862F90E00A2E02C0959587950A94E2F791
:1043500080FF2EC0408151812091AD063091AE0684
:10436000A2968FADA2978A1779F4CA01809590958D
:104370002817390728F4240F351F3183208318C0EC
:10438000D182C082601B12C02417350728F4421B5B
:10439000530B518340830CC011821082C7010A2E37
:1043A00002C0880F991F0A94E2F7681B6093AC065D
:1043B00011963296A530B10509F60E9459128091E6
:1043C000B407882319F081508093B40780916D0160
:1043D000882309F469C080916904833308F464C0B8
:1043E00080918E0590918F05A0919005B0919105D7
:1043F0000196A11DB11D80938E0590938F05A0930A
:104400009005B093910500E010E0FF248F2D0E94ED
:10441000360E46E0969587954A95E1F7080F191FE5
:10442000F39494E0F91691F7809192059091930599
:104430000817190761F010939305009392051092E5
:104440008E0510928F051092900510929105E090C4
:104450008E05F0908F050091900510919105609167
:104460006D0170E080E090E020E737E140E050E04F
:104470000E94B0666E157F0580079107A8F42FE3B0
:1044800030E040E050E0E222F322042315233AE03A
:10449000E316F1040105110539F48091630480935A
:1044A0005F0482E38093000180917E04882319F0E9
:1044B000815080937E040E946E610E94C9610E94B7
:1044C0001F14182F80916B0490916C04009729F0B1
:1044D000019790936C0480936B04112389F0809171
:1044E000700190E024EF31E0AC01429FC001439F96
:1044F000900D529F900D112490936C0480936B0447
:104500008091590160E00E944D12882339F4809116
:104510006B0490916C04892B09F4B1C0C79AE091A7
:10452000E707F0E0EE0FFF1FE752F84F0190F08130
:10453000E02D812F09950E94E25F8091630081FF49
:1045400004C0809165008F7E03C08091650080610A
:1045500080936500A4968EAD9FADA4978F719070E7
:104560008230910521F0039709F08BC071C08091D2
:10457000670490916804892B39F487E00E94360E15
:104580009093680480936704809167049091680415
:104590008C0123E0000F111F2A95E1F7081B190B6E
:1045A00087E00E94360E800F911F13E09695879545
:1045B0001A95E1F77C0100E010E090936804809385
:1045C000670420915801332727FD3095432F532F3F
:1045D000C801B7010E94B06628E030E040E050E03A
:1045E0000E942467B4E0EE0CFF1C001F111FBA9557
:1045F000D1F7E20EF31E041F151F209165043091C0
:10460000660440E050E0C801B7010E94246720938F
:10461000690480919E06805E80939E06882389F5BA
:1046200080915701281768F5233358F1809164046D
:1046300080935F0482E38093000180916E0183FF89
:1046400020C082E390E090936C0480936B0419C0C7
:1046500080916B01869586958695877090E0BC0168
:10466000660F771F660F771F680F791F6A5F7A4F93
:1046700080E694E045E050E00E943F6702C0C798A2
:104680004ECFC959DF4F0FB6F894DEBF0FBECDBF76
:10469000CF91DF911F910F91FF90EF90DF90CF901E
:1046A000BF90AF909F908F907F906F905F904F9052
:1046B0003F902F9008951F93CF93DF939FEF9ABB66
:1046C0001BBA81E887BB8EE788BB8EE384BB81EC95
:1046D00085BB11BA92BB88E082B987EF83B910928B
:1046E00061001092620080E1809364009093650005
:1046F0000E94A45F80E487B985E886B987E083BF1C
:1047000082E081BF87B7836087BF8AE08EBD82E881
:1047100080938A0080917D00806280937D00EDB758
:10472000FEB7329785E502C0808331974DE0E834CB
:10473000F40709F0C8F78BE69FE49093DA078093BB
:10474000D90789E693E49093DC078093DB0789E13E
:104750000E94D85F78940E944A551091550184B701
:10476000813061F00E9481130E94E6120E948E0E39
:104770000E9431130E94F5120E94DA120E945F100B
:104780000E940614682F86EB97E00E94B71780916D
:1047900056010E94D85F8091700190E024EF31E0D3
:1047A000AC01429FC001439F900D529F900D112478
:1047B00090936C0480936B0480915501181719F045
:1047C00081E00E9422540E944A252DE088E190E079
:1047D0000FB6F894A89581BD0FBE21BD0E94DF0ED3
:1047E000EC01E0916F01F0E0EE0FFF1FEF5FFE4F75
:1047F0000190F081E02D09950E94A20E0E940E1DED
:1048000080915904833019F4A895109259040E949C
:10481000DF0E20915504309156048C1B9D0B82179E
:10482000930708F4C9019093560480935504D6CF9A
:10483000EDE7F0E08081857E808317981F9AAAE8D3
:10484000B0E01C9210928B0082E88C938081806291
:10485000808308956F927F928F929F92AF92BF92C2
:10486000CF92DF92EF92FF920F931F93CF93DF933C
:10487000909182019770809109018917C9F09093F6
:1048800009010E9418241EBC80E49CE99BBD8ABDDE
:104890001DBC1CBC87B7837C87BF8CE386BF8FE3BE
:1048A00080937C0087B7806187BF1FBC8AE08EBD84
:1048B0008091830185FD04C0E12C34E0F32E03C018
:1048C000E12C25E0F22E40918201459545954595D4
:1048D0004595440F485F9091840184E69802D00189
:1048E0001124A85ABD4F882499248A1A9B0A8091C2
:1048F0005004992787FD909528EE33E0829FB00100
:10490000839F700D929F700D1124685370456A1B30
:104910007B0B06EB17E0E3EFF6E050E0440F551F8A
:10492000440F551F5F01A40EB51ECC24DD24CE1804
:10493000DF0888E5682E82E0782E6A1A7B0A1DC09F
:10494000C601E801288139812C153D0534F02E156A
:104950003F0514F0C70101C0C901805A964F940168
:10496000281B390B620F731F860D971D918380835F
:10497000B383A28334960E5F1F4FEA15FB0501F740
:10498000FA01ED50F94F71836083B383A2831582DE
:10499000148283EF96E090930B0180930A01DF91DC
:1049A000CF911F910F91FF90EF90DF90CF90BF902C
:1049B000AF909F908F907F906F9008951F920F926D
:1049C0000FB60F9211241F932F933F934F935F9332
:1049D0006F937F938F939F93AF93BF93EF93FF93C7
:1049E0001CB580918307882321F0C09A1092830719
:1049F00004C0C09881E080938307A0910A01B09120
:104A00000B01FD01819191919BBD8ABDF0930B013A
:104A1000E0930A0112968D919C911397892BB9F41A
:104A20008091830182958F70809581708093830738
:104A300087B78F7E87BF0E942A248091820187706A
:104A400011F0833021F487B7806187BF789480911B
:104A50005304811710F410935304809154041817D1
:104A600010F4109354048091590481608093590488
:104A7000FF91EF91BF91AF919F918F917F916F9136
:104A80005F914F913F912F911F910F900FBE0F900B
:104A90001F9018950E942A2487B7806187BF0895C8
:104AA0009C01E091E707F0E0EE0FFF1FE752F84F9F
:104AB000318320838FEBF901099580916004809305
:104AC0005F0482E38093000108959C019091E707C1
:104AD000E92FF0E0ED51F84F8091E8078083E92F4E
:104AE000EF5FE093E707E53040F09093E70786E754
:104AF00097E160E00E949412089580916004809391
:104B00005F0482E380930001F0E0EE0FFF1FE752A5
:104B1000F84F318320838FEBF90109950895E091D7
:104B2000E707EE23E9F0E150E093E70780916004A6
:104B300080935F0482E3809300011092E907F0E024
:104B4000DF01AD51B84F8C918093E807EE0FFF1F46
:104B5000E752F84F0190F081E02D8EEB0995089512
:104B600086E797E160E00E94941208958F929F92E9
:104B7000AF92BF92CF92DF92EF92FF920F931F936B
:104B8000CF93DF93182F7B014A015901C02E84FD7A
:104B900004C044E0D42E05E005C01F70106635E067
:104BA000D32E04E08D2D8066181761F08D2D806462
:104BB000181741F09091B30719167CF4133611F0D1
:104BC000133459F4E70121968091600480935F04C7
:104BD00087E380930001802F1AC0802F806618170A
:104BE00061F0802F8064181741F019160CF089C00D
:104BF000123619F0123409F084C0E7012197809130
:104C0000600480935F048DE2809300018D2D90E01D
:104C10000E946562882351F0CC27DD27CE19DF0979
:104C2000802F0E94EC628D2D0E94EC628114910411
:104C300091F481E0A816B10471F4103661F4109279
:104C4000B307C0E0D0E0E114F10411F4C1E0D0E01A
:104C500080E60E94EC628091D6079091D707C81B2E
:104C6000D90BAC16BD065CF4812F0E94EC628091DA
:104C7000620480935F0487E380930001E501C81517
:104C8000D9055CF4812F0E94EC62809162048093CC
:104C90005F048DE280930001E401CE15DF0509F188
:104CA000209791F4812F0E94DD62F7FE06C080916B
:104CB000620480935F0487E305C08091620480935F
:104CC0005F048DE2809300018C2D83700E9422543A
:104CD000EC16FD0614F08FEF01C081E08093D80739
:104CE00002C01092D807CE01DF91CF911F910F9192
:104CF000FF90EF90DF90CF90BF90AF909F908F90FC
:104D00000895E70193CF0F93772767FD7095552797
:104D100047FD5095332727FD309501E00E94B625C9
:104D20000F9108950F93772767FD7095552747FDDD
:104D30005095332727FD309502E00E94B6250F914C
:104D40000895FF920F931F93F82E162F042F80E8DB
:104D500060E0412F50E0202F0E94825E1A3010F454
:104D600085E701C08FE660E04FE2202F0E94595B8B
:104D70001A3010F485E701C08FE64F2D50E04F5FE9
:104D80005F4F60E0202F0E94825E1F910F91FF9085
:104D900008959F92AF92BF92CF92DF92EF92FF92CF
:104DA0000F931F93CF93DF93F82ED62EEA01B22EE6
:104DB0009C2CE0919007F09191078091EE079091E3
:104DC000EF078E1B9F0B60E270E00E94EF669B0175
:104DD0007093D7076093D6076115710521F0F093A2
:104DE000EF07E093EE07E0918C07F0918D0780913B
:104DF000EC079091ED078E1B9F0B60E470E00E9422
:104E0000EF66A62E662321F0F093ED07E093EC0702
:104E1000E0918E07F0918F078091EA079091EB0760
:104E20008E1B9F0B60E470E00E94EF66C62E662327
:104E300021F0F093EB07E093EA07AA2021F4CC20BD
:104E400011F4232B89F08091700190E024EF31E080
:104E5000AC01429FC001439F900D529F900D1124C1
:104E600090936C0480936B04209711F429E75FC042
:104E70008091E807882309F041C08091B507882315
:104E800009F03CC0AA2011F48D2D09C09B2D915032
:104E90008D2D8A1987FD80E098170CF4892F54E630
:104EA000F51651F095E6F91699F4DD2011F08D2DE7
:104EB00001C08B2D81500CC02D2D30E08B2D90E04A
:104EC00001972817390714F080E002C08D2D8F5FFD
:104ED000282F332727FD30958D2D90E0281739078F
:104EE00011F442E00CC0F901EE0FFF1FEC0FFD1FA3
:104EF000859194910E94502580E072C140E010920B
:104F0000B5078D2D6B2D0E94A1262091140D2E50DA
:104F10008D2D90E0019666EF7FEF0E94EF66CB014A
:104F2000880F991F880F991F860F971F280F8DE3F1
:104F300098E0622F0E94DF550115110511F430E051
:104F40000AC08091E8079E2D8E1508F4982FF8016D
:104F5000E90FF11D34914091B3071416C4F1CC2030
:104F600011F18091E8078C1987FD80E0992D891552
:104F70000CF4982F9093E8072091E907011511058B
:104F800011F480E00BC0892FE91608F48E2DF8018A
:104F9000E80FF11D8491281708F4822F8093E90708
:104FA00080E68093460DAA2091F08091E80788233F
:104FB00071F08091E9078A1987FD80E0932F8317AC
:104FC0000CF4982F9093E90780E68093460DE0E675
:104FD000FE16C9F1EF15B8F0F3E4FF1609F4B2C0FC
:104FE000FF1540F051E2F516E9F182E4F81609F0F8
:104FF000D7C07FC094E4F91609F451C0E5E4FE1669
:1050000009F0CEC060C0F4E6FF1609F44DC0FF15EC
:1050100048F052E6F51609F471C083E6F81609F077
:10502000BFC094C091E8F916D1F0EFEBFE1629F05D
:10503000F5E6FF1609F0B4C04BC01092E9071092D4
:10504000E8078FEF09C0332309F4AAC01092B30711
:1050500014160CF4A5C081E08093B307A1C0109290
:10506000B3070BC014161CF41092B30799C08091BB
:10507000E807882311F0209719F40E948F2590C02B
:105080008091600480935F0482E38093000110921A
:10509000E9071092E80780E68093460D85C080916D
:1050A000E907831709F47CC0012B09F479C01416B1
:1050B0000CF476C08091E907831710F48F5F13C05A
:1050C0001092E9076AC08091E907882309F468C053
:1050D000012B09F465C014160CF462C08091E90735
:1050E000882321F081508093E90757C03093E90766
:1050F00054C08091E807891509F452C014160CF4C5
:105100004FC08091E807891510F080E001C08F5FE3
:105110000115110509F470C0982FE81608F49E2DAA
:10512000F801E90FF11DE491EF3F09F065C0EBCF05
:105130008091E8078E1508F4E82E0E0D111DF80178
:10514000049126C08091E807882351F1141644F198
:105150008091E807882311F4892D01C08150011541
:10516000110509F452C0982FE81608F49E2DF80195
:10517000E90FF11DE491EF3F09F047C0EBCF8091BB
:10518000E8078E1508F4E82E0E0D111DF8010491A4
:10519000901708F4092F0093E90780E68093460DE5
:1051A000CD2B11F456E001C057E04091E8074423AD
:1051B00019F41092B20713C0242F30E08091B20787
:1051C000281B3109852F90E08217930714F4451BA3
:1051D00004C0121613061CF041504093B20781E040
:1051E000DF91CF911F910F91FF90EF90DF90CF90C3
:1051F000BF90AF909F9008958093E8079091E90742
:105200000115110509F094CF08C08093E80790912B
:10521000E9070115110509F0B2CF00E0BCCFCF922C
:10522000EF920F931F93C02E00E010E0EE240E9437
:10523000C9261F910F91EF90CF9008950F93062FDD
:1052400060E040E050E020E00E940F290F910895B7
:105250000F93942F222311F400E001C002E043E0F9
:10526000949FA00111244557504F23E00E940860ED
:105270000F910895DC01FB0105C09C9180818D9305
:10528000919341504423C9F70895CF92DF92EF9252
:10529000FF920F931F93CF93DF93182F80E060E06E
:1052A0004AE258E122E00E94245C812F6AE049E74B
:1052B00055E02BE008E00E940F29882309F468C01C
:1052C000F090E807FA941038C1F480E80E94EC628C
:1052D00089E18093B40786E08F1518F08F2D0E9426
:1052E000576487E0F81611F40E94E6638091610428
:1052F00080935F0482E38093000118E0EE24CF2CBA
:10530000DD24C7FCD0944091B2074E0D473019F40C
:10531000193370F13DC0C42FD0E0CC16DD0611F07A
:1053200020E101C022E1AE014F5F5F4F82E1612FBA
:1053300002E00E947A5D8091B407882319F4CC16AC
:10534000DD0609F000E0AE01440F551F4C0F5D1F54
:10535000440F551F440F551F4A585E4E88E1612F78
:105360002CE00E940860185FE394103461F610C0CE
:105370008091B407882329F487E0F81611F422E01D
:1053800001C020E086E0612F4FE354E10E94245CDD
:10539000DF91CF911F910F91FF90EF90DF90CF9011
:1053A00008955F926F927F928F929F92AF92BF9279
:1053B000CF92DF92EF92FF920F931F93CF93DF93E1
:1053C000882E80E060E04CE058E122E00E94245CFE
:1053D000882D68E049E755E02BE001E915E0EE246F
:1053E000E3947CE0C72E0E94C926882309F47FC07D
:1053F0008091E8078150992458E0A52E682E7724E3
:1054000067FC70944EE0542E8091B207890D803174
:1054100009F46DC0C82EDD24BB24E601CC0FDD1FCE
:10542000CB51DC4F7601EE0CFF1C86EE93E0E80ECC
:10543000F91E6C147D0461F48091E9078B1541F429
:105440008091B30718160CF047C011E001E002C0CC
:1054500000E010E0BB2021F091E0B91681F510C00A
:1054600086E06A2D4881202F0E948C60112339F13B
:10547000882D68814AEE26E10E94922688831FC00B
:1054800088818823C1F0F7014081459DA001112446
:105490004A5F5E4E8EE16A2D2EE00E940860112365
:1054A00071F0882DF701608140E027E00E9492268C
:1054B000F701808304C0002311F01092E907B39430
:1054C000F2E0BF1609F0B5CF939488E0A80E97E0FC
:1054D000991609F099CF0BC08091D6079091D70704
:1054E000892B19F011E002E0B5CF02E0B2CFDF91D5
:1054F000CF911F910F91FF90EF90DF90CF90BF90D1
:10550000AF909F908F907F906F905F9008959F9243
:10551000AF92BF92CF92DF92EF92FF920F931F93C1
:10552000CF93DF93982E80E060E04AE158E122E0DB
:105530000E94245C892D69E049E755E02BE00FE8E3
:1055400015E0EE24E394B0E1CB2E0E94C926882317
:1055500009F470C0AA24A8E0BA2E4091B2074A0DFF
:10556000403109F467C0C42EDD244F5F80E06B2D0D
:1055700020E00E945E6100E07601EE0CFF1C85ECED
:1055800093E0E80EF91EE601CC0FDD1FCA53DC4F95
:105590008091E80790E001978C159D0559F4809162
:1055A000E907801739F48091B3071816C4F511E0A4
:1055B00021E002C020E010E0002319F0013021F5C5
:1055C00012C084E26B2DF70140810E948C60112390
:1055D000D9F0892DF70160814AEE26E10E949226DA
:1055E000F701808311C04881552747FD509580E61B
:1055F0006B2D0E94825E112339F0892D688143E86A
:105600002DE70E94922688830F5F033009F6A3944A
:10561000F8E0BF0E87E0A81609F09FCF0BC080917D
:10562000D6079091D707892B19F011E022E0C4CF5B
:1056300022E0C1CFDF91CF911F910F91FF90EF90AA
:10564000DF90CF90BF90AF909F9008955F926F9240
:105650007F928F929F92AF92BF92CF92DF92EF9202
:10566000FF920F931F93CF93DF93982E80E060E01B
:105670004CEF57E122E00E94245C892D67E049E766
:1056800055E02BE003E915E0EE24E3947CE0C72E1F
:105690000E94C926882309F47EC18091E8078150C1
:1056A000AA2438E0B32E682E772467FC709427E094
:1056B000822E9EE9592E1091B2071A0D1C3009F462
:1056C0006AC1E12EFF246E147F0411F0DD2409C0AD
:1056D0008091B30718161CF082E0D82E02C0DD249A
:1056E000D39480E06B2D44E154E10E945F5C19305B
:1056F00010F441E301C048E3410F8CE06B2D0E94A0
:10570000205CF701EE0FFF1FEE0DFF1DED55FC4F66
:10571000E0818091E907882311F000E001C00D2DA0
:10572000E89DA00111244C555F4E87E16B2D27E0C9
:105730000E940860F701EE0FFF1FEE0DFF1DEB58F2
:10574000FE4FE25DFD4F8081EE52F240853008F45D
:1057500012C19091E907E45DFD4F883008F415C14E
:105760004081913009F05DC02D2D5CC020E088E4BF
:105770006B2D0E943261F701EE0FFF1FEE0DFF1D32
:10578000EB58FE4FE45DFD4F81919091E907853222
:10579000B4F04081923019F000E020E002C00D2DFD
:1057A0002D2D552747FD50954E595F4F86E66B2DA1
:1057B0000E94F85E50E036E240E82FE711C04081D9
:1057C000923011F020E001C02D2D552747FD509556
:1057D00088E76B2D0E94825E50E036E243E82DE7B9
:1057E000CC243DC020E08EE46B2D0E948C60F7013C
:1057F000EE0FFF1FEE0DFF1DEE55FC4F4081809117
:10580000E907823011F020E001C02D2D86E66B2DD6
:105810000E948C605AEE36E14AEE26E1CC24C39415
:105820001EC020E088E46B2D0E943261F701EE0F6C
:10583000FF1FEE0DFF1DEE55FC4F40818091E907E3
:10584000823011F020E001C02D2D86E66B2D0E94E4
:10585000326150E036E240E026E262E0C62E8091FE
:10586000B30718163CF08091D6079091D707892B83
:1058700009F479C0DD2009F476C08091E907813010
:1058800099F1813020F0823009F06DC05EC087014F
:10589000000F111F0E0D1F1D0D551C4F892DF801F6
:1058A000608140E02DE00E949226F80180838530DF
:1058B00018F420E030E007C0883018F022E030E033
:1058C00002C021E030E08C2D90E08217930709F4AC
:1058D0004AC0F701EE0FFF1FEE0DFF1DEB58FE4F04
:1058E000E45DFD4F11922FC0E701CC0FDD1FCE0DFF
:1058F000DF1DCB58DE4F8E01045D1D4FF801C080C7
:10590000892D6C2D452F232F0E949226F80180832C
:10591000853239F4F4E2FC1524F0FE01E35DFD4F1D
:105920005082F701EE0FFF1FEE0DFF1DEB58FE4FEB
:10593000E45DFD4F8081EC52F2408432A1F48C157D
:1059400094F4E35DFD4F10820EC08701000F111F1C
:105950000E0D1F1D0E551C4F892DF80160810E94F0
:105960009226F8018083A394F8E0BF0E87E0A81682
:1059700009F0A1CE10C0E45DFD4F40818091E907A0
:10598000813009F0F3CE2D2DF2CE4081913009F017
:1059900029CF2D2D28CFDF91CF911F910F91FF900F
:1059A000EF90DF90CF90BF90AF909F908F907F90BF
:1059B0006F905F9008958F929F92AF92BF92CF9217
:1059C000DF92EF92FF920F931F93CF93DF93182FE5
:1059D00080E060E04FEE57E122E00E94245C812FDE
:1059E00066E049E755E02BE000E10E940F2988239B
:1059F00009F483C00091E8070150103611F0143605
:105A000041F407FD06C00093F6078FEB9AE30E946E
:105A1000652518E0DD24D394AA24BB24802E992484
:105A200087FC90942091B2072B0DC22FD0E08C16EA
:105A30009D0611F000E001C002E0CC24283030F0D7
:105A4000CC24C39486E08D1528F450C0E7E0ED1512
:105A500008F44CC0AA2009F4A02E2F5F80E0612F2B
:105A600041E154E10E94775FCC2069F0CE010897B4
:105A70009C01F3E0220F331FFA95E1F7280F391F3D
:105A8000275A3C4F09C09E01220F331F220F331F9C
:105A90002C0F3D1F2F5C3C4FE90179010CE2F7010F
:105AA00041917F01552747FD5095802F612F20E0C0
:105AB0000E94825E0B5E053991F7185FD394CC206B
:105AC00081F00CE24D81552747FD5095802F612FC5
:105AD00020E00E94825E21960B5E003899F7185FE5
