:100000000C949B0C0C94B80C0C94B80C0C94B80C7D
:100010000C94B80C0C94B80C0C94B80C0C94B80C50
:100020000C94B80C0C94B80C0C94B80C0C94B80C40
:100030000C94B7250C94B80C0C94B80C0C94361096
:100040000C943D0F0C94B80C0C94F76E0C94D70FD5
:100050000C94B80C0C94B80C0C94826A0C94B80CE8
:100060000C94B80C0C945C0F0C94B80C0C94B80C59
:100070000C94B80C0C94B80C0C94B80C0C94B80CF0
:100080000C94B80C0C94B80C0C94B80C535053004E
:100090008040000000F8FE060303030306FEF8009C
:1000A0000000000000000000000080C0C0E0F0F888
:1000B000FCFEFEFFFF7F7E3E3C1C0000C0E0E0F047
:1000C000E0000000000000000000000000000080D0
:1000D000E0F0F8F8FCFCFC7C3C381000000000006C
:1000E000000000000000000000000000000000C050
:1000F0004020202020202040408000000000000000
:1001000000000000000000000000000000000000EF
:100110000000000000E1E7666C6C6C6CE6C78100D3
:100120000000000080E0F0F8FCFE7FBF3F1F0F07DB
:100130000783C1E1F0F8FCFCFEFE00000103070F9D
:100140000F1E3C3870F0E0C080000080E0F8FEFF39
:10015000FF3F0F1F0F030000000000000000000021
:1001600000000080402020301010307E7FFFFBBC5C
:10017000C8F0000000F01030608001063CE0000094
:10018000000000000000000000000000000000006F
:100190000000000000FFFF0C0C0C0C0C0E0703000D
:1001A0000000F8FEFFFFFFFFCFC7E1F0F0F8FC7E94
:1001B0007F1FFFFFFFFFFFFF7F0700000000000021
:1001C00000000000000080C1F3FFFEFF7F7FEFC151
:1001D000C0800000000000000000000000000000DF
:1001E0001C7C7FFD800000008080C0C0E0F040F0FB
:1001F000F0C0038E7800818242432010080780807F
:10020000804040202020301030202020E050484402
:100210000020000000FDFD8C8C8C8C8C8C8C8C0064
:1002200000000107070707070F1F1F0F0703010043
:1002300000F8FFFFFFFF3F07000000000000000084
:100240000080C070BC7E171B0F0701000000000378
:10025000071F3FFEF8F0E0C0800000000000000033
:10026000000000000001010100F049AB1E1D353502
:1002700032323E3D3C1E1F3C4CCE8E0E0F0B021602
:100280001510080808040402020303050703090601
:100290000202000000BFBF313131313131B1B10054
:1002A000000000000000000000000000000000F05E
:1002B000FFFFFFFF0F0100000000000000C06018FA
:1002C000060305020000000000000000000000001E
:1002D000000000000101040707000000000000000A
:1002E000000000000000000000000103020201F90C
:1002F0002D2E0EFB0101808080808183061870C046
:1003000000000000000000000000000000000000ED
:100310000000000000FFFF070E3870C080FFFF00E4
:10032000000000000000000000000000C0F8FF7F97
:100330001F370700000000000000707C7F3F38007E
:1003400000000000000000000000000000000000AD
:10035000000000000000000000000000000080F02D
:10036000381808080808080808080808080C0C1FAE
:100370001010191909090908080808181018080F99
:100380000C0E0A0A0A0A0A0C0C08080C0C0C38E0BD
:10039000000000000007070000000001030707003D
:1003A000000000000000000000000403060301003C
:1003B000000000000000000000000000000000003D
:1003C000000000000000000000000000000000002D
:1003D00000000000000000000000000000E0FF4FEF
:1003E000404040404040404040404040404040400D
:1003F00040404040404040404040404040404040FD
:100400004040404040404040404040404040403FED
:10041000F8000000000000000000000000000000E4
:1004200000000000000000000000000000000000CC
:1004300000000000000000000000000000000000BC
:1004400000000000000000000000000000000000AC
:10045000000000000000000000000000E0FF0300BA
:10046000000000000000000000000000000000008C
:10047000000000000000000000000000000000007C
:10048000000000000000000000000000000000006C
:1004900007FC535045000102030401020403010359
:1004A0000204010304020104020301040302020125
:1004B0000304020104030203010402030401020411
:1004C0000103020403010301020403010402030205
:1004D00001040302040103040102030402010401F4
:1004E00002030401030204020103040203010403E2
:1004F00001020403020101020304010302040402D5
:1005000003010403020100000000000001081E6452
:100510000101081E6401010F32960A0A1E32960379
:10052000010200040506075F2D2E2C00564552538C
:100530003A2056322E30302D62736F6E6769730029
:100540002053564E3A206F70656E39782D723133D4
:100550003700444154453A20323031322D30312D6C
:1005600032350054494D453A2032323A31303A3032
:100570003700204D4F443A204657002448444462F7
:1005800041143D0F3D453296316B2FB52E162E8509
:100590002AFA2900FF0100010202FF010001020204
:1005A000000001000100020003030303030303032F
:1005B00003030303030303032F3332002F313400FB
:1005C0000600037500000902020000000000060298
:1005D00001120800081C0808081C08000008220076
:1005E000490022080000000000227F2200000008CD
:1005F00022004900220800000822004900220800C9
:100600000000227F22000000000008220049002292
:10061000080000081C0808081C0800114FA24D2EF5
:100620004C064D6B4C204B4100000202020200417F
:10063000203A007A3A00793A00783A004043004084
:10064000430041203A005008000000000000000074
:100650006F000007000700147F147F14242A7F2AEC
:100660001223130864623649552250000503000026
:10067000001C2241000041221C0014083E081408FE
:10068000083E08080050300000080808080800600C
:100690006000002010080402003E41413E0000427C
:1006A0007F40006251494600414949360018141202
:1006B0007F0027454539003E49493200017905034D
:1006C0000036494936000649291E0000363600002A
:1006D0000056360000081422411414141414412248
:1006E000140800020151090606090906007E0909DD
:1006F000097E7F494949363E414141227F4141229D
:100700001C7F494949417F090909013E4149497A0C
:100710007F0808087F00417F41002040413F017F62
:10072000081422417F404040407F020C027F7F043A
:1007300008107F3E4141413E7F090909063E415173
:10074000215E7F09192946264949493201017F0165
:10075000013F4040403F1F2040201F3F4030403F6E
:100760006314081463070870080761514945430082
:100770007F41410002040810200041417F00040233
:100780000102044040404040000102040020545453
:1007900054787F48444438384444442038444448DA
:1007A0007F3854545418087E0901020C5252523EAC
:1007B0007F0804047800447D40002040443D007FD1
:1007C0001028440000417F40007C041804787C0815
:1007D00004047838444444387C141414080814146D
:1007E000187C7C080404084854545420043F4440B6
:1007F000203C4040207C1C2040201C3C4020403CB1
:1008000044281028440C5050503C4464544C44003C
:100810000836410000007F0000004136080008084B
:10082000221C08081C220808A0600000000000002C
:100830000000000000000000FEFE000000000000BC
:100840003E7E00007E3E00006060FEFE6060FEFEB8
:10085000606060F09898FEFE989818180C1E1E0CA8
:1008600080C0E070381878FC8EC6E6763C18000030
:10087000000066763E1E000000000000E0F0381C1C
:100880000E0600000000060E1C38F0E0000060605C
:10089000C080F8F880C0606080808080F8F8808038
:1008A0008080000000000000000000008080808048
:1008B0008080808080800000000000000000000038
:1008C0000000000080C0E070381800000000000048
:1008D0000000000000000000717100000000000036
:1008E000000000000000000006067F7F06067F7FF4
:1008F0000606181819197F7F19190F06181C0E07FC
:100900000301307878301E3F716367663C3C666651
:10091000000000000000000000000000070F1C386D
:100920007060000000006070381C0F0700000606B1
:1009300003011F1F01030606010101011F1F010121
:100940000101000066763E1E000000000101010169
:100950000101010101010000307878300000000041
:10096000181C0E070301000000000000F8FC0E0632
:10097000060EFCF80000181CFEFE0000000000003F
:10098000181C0E0686CEFC7800000606868686CEEB
:10099000FC78000080C0E070381CFEFE00007E7E07
:1009A000666666E6C6860000F8FC8E86868E1C1893
:1009B0000000060686C6E6763E1E000078FCCE865F
:1009C00086CEFC78000078FCCE8686CEFCF800004F
:1009D0003078783000000000000030787830000077
:1009E0000000000080C0E070381C0E06606060608F
:1009F000606060606060060E1C3870E0C0800000BF
:100A0000181C0E06060686CEFC7800001F3F70609C
:100A100060703F1F000060607F7F6060000000002A
:100A2000787C6E6763616060000060606161617323
:100A30003F1E00000707060606067F7F00001838E5
:100A4000706060703F1F00001F3F716161733F1E47
:100A5000000000007F7F0000000000001E3F736167
:100A600061733F1E000000006171391D0F07000017
:100A70000C1E1E0C00000000000066763E1E0000EA
:100A8000000000000103070E1C3870600606060611
:100A90000606060606066070381C0E0703010000F5
:100AA0000000000066670301000078FCCE8686CE59
:100AB000FC780000E0F0B89C8E8E9CB8F0E0FEFE62
:100AC0008686868686CEFC78F8FC0E060606060E1E
:100AD0001C18FEFE0606060E1C38F0E0FEFE86869A
:100AE000868686860606FEFE8686868686860606B6
:100AF000F8FC0E068686868E9C98FEFE808080809E
:100B00008080FEFE00000606FEFE060600000000D5
:100B100000000606FEFE0606FEFE80C0E070381CE1
:100B20000E06FEFE0000000000000000FEFE1C3865
:100B3000F0F0381CFEFEFEFE70E0C0800000FEFEFD
:100B4000F8FC0E060606060EFCF800000101010185
:100B5000000000007F7F0101010101017F7F7F7F95
:100B60006161616161733F1E1F3F70606060607012
:100B700038187F7F60606070381C0F077F7F61616D
:100B80006161616160607F7F01010101010100001D
:100B90001F3F7060616161717F3F7F7F01010101D3
:100BA00001017F7F000060607F7F60600000183877
:100BB000706060703F1F00007F7F0103070E1C38CC
:100BC00070607F7F60606060606060607F7F000059
:100BD000010100007F7F7F7F00000103070E7F7F00
:100BE0001F3F7060606060703F1FFEFE86868686D5
:100BF00086CEFC78F8FC0E060606060EFCF8FEFE15
:100C00008686868686CEFC7878FCCE868686868E1C
:100C10001C1806060606FEFE06060606FEFE000078
:100C200000000000FEFEFEFE000000000000FEFED0
:100C3000FEFE000000000000FEFE1E3E70E0C0C090
:100C4000E0703E1E7EFEC080000080C0FE7E060674
:100C5000060686C6E6763E1E0000FEFE0606060670
:100C60000000183870E0C080000000000000060698
:100C70000606FEFE00006070381C0E0E1C38706008
:100C8000000000000000000000007F7F0101010162
:100C9000010100001F3F7060666E3C387F677F7FF8
:100CA0000101070F1D39706018387161616161734E
:100CB0003F1E000000007F7F000000001F3F7060AB
:100CC000606060703F1F070F1C387070381C0F0782
:100CD0001F3F70703E3E70703F1F787C0E0703030D
:100CE000070E7C78000001037F7F03010000787C01
:100CF0006E6763616060606000007F7F606060605D
:100D00000000000000000103070E1C1800006060D6
:100D100060607F7F00000000000000000000000015
:100D2000606060606060606060600000060E1C389B
:100D30007060000000006060606060E0C080FEFEE7
:100D400080C0E06060E0C08080C0E06060606060A3
:100D5000000080C0E06060E0C080FEFE80C0E06017
:100D6000606060E0C0808080F8FC8E86060E1C18F3
:100D7000E0F0381818181818F8F8FEFE80C0E06087
:100D800060E0C08000006060E6E600000000000057
:100D900000006060E6E60000FEFE000080C0E0604B
:100DA000000000000606FEFE00000000E0E060E03B
:100DB000C0C0E0E0C080E0E080C0E06060E0C080F3
:100DC00080C0E060606060E0C08000000000000063
:100DD00000000000183C7E66666666667F7F7F7F47
:100DE0006161606060703F1F1F3F70606060607095
:100DF00038181F3F7060606061617F7F1F3F7666BB
:100E000066666666070701017F7F0101000000003A
:100E100001036766666666763F1F7F7F01010000FB
:100E200000007F7F000060607F7F606000001838F6
:100E3000706060703F1F00007F7F060F1F39706079
:100E40000000000060607F7F606000007F7F000026
:100E5000070700007F7F7F7F0101000000007F7F88
:100E60001F3F7060606060703F1FE0E06060606026
:100E700060E0C08080C0E0606060C080E0E0E0E0F2
:100E800080C0E06060E0C08080C0E0606060606062
:100E900000006060FEFE606000000000E0E0000016
:100EA00000000000E0E0E0E0000000000000E0E002
:100EB000E0E0000000000000E0E060E0C080000032
:100EC00080C0E060E0E0000000000000E0E0606062
:100ED00060606060E0E0E060000080C0787C0E064A
:100EE000000000000000FEFE000000000000060EF2
:100EF0007C78C0800000808080801838F0E0C0805E
:100F000080C0E0F03818808080807F7F060606066B
:100F10000607030101030706060607077F7F7F7F99
:100F20000101000000000101616367666666667E7C
:100F30003C1800001F3F7060607038181F3F7060E1
:100F4000607038187F7F070F1C387070381C0F07CF
:100F50001F3F7070383870703F1F6070391F0F0F5F
:100F60001F39706001036766666666763F1F6070B2
:100F7000787C6E6763616060000001031E3E7060F4
:100F80000000000000007F7F000000000000607093
:100F90003E1E0301000001010101181C0F0703019F
:100FA0000103070F1C1801010101630040800804C0
:100FB000201002014F46464F4E202D2D2D494E56F2
:100FC0003443482036434820384348203130434892
:100FD00031324348313443483136434851756965AD
:100FE000744E6F4B65794E6F726D204C6F6E67203B
:100FF000784C6F6E6753494E474F534D5046494C9E
:1010000054426173204F464620486175746F66668E
:10101000202B3D203A3D6368316368326368336357
:101020006834457870202020457846696E204669EE
:101030006E2020204D6F79656E2047726F732020DF
:101040005245544131323350504D20205058582091
:101050002044534D322050504D3136504F534E4561
:10106000472D2D2D783E30783C307C787C663E30A4
:10107000663C307C667C454449542050525345546C
:10108000412E47415A5461757820204578706F2071
:1010900020506861736520496E74657220517561D6
:1010A0006E6420436F7572626520202020202041ED
:1010B0006A6F75746572204D756C7469706C7952C5
:1010C000656D706C6163652B3D2A3D3A3D2D2D2D7C
:1010D0002D202020763E6F66732020763C6F66734D
:1010E00020207C767C3E6F66737C767C3C6F6673DA
:1010F000455420202020204F552020202020584FCC
:10110000552020202076313D3D7632207631213D1C
:1011100076322076313E7632202076313C7632208F
:101120002076313E3D76322076313C3D7632202DA0
:101130002D2D2D2020202020202020202045636FD1
:101140006C6167652020202020202045636F6C6142
:1011500067652044455220202045636F6C616765B8
:101160002050524620202045636F6C616765204700
:10117000415A20202045636F6C6167652041494CCE
:10118000202020496E7374616E74205472696D2042
:10119000205472696D73324F66667365747320767E
:1011A0002D2D2D2D59656C4F72675265643C3E4E56
:1011B0006F6E654875622057534848414431414439
:1011C00032414C5452504D3420566F696573207330
:1011D000696D706C65436F75707572652047617AD3
:1011E000202020456D70656E6E6167652056202059
:1011F00020456C65766F6E5C44656C74612020657B
:101200004343504D202020202020202020436F6E7B
:10121000662E48656C69636F202020536572766F77
:10122000205465737420202020204D656E75204564
:101230007869742020426173204861757444726F2C
:101240006974476175636847415A44495250524630
:1012500049443049443149443241494C474541545D
:10126000524E5357315357325357335357345357C2
:1012700035535736535737535738535739535741C8
:1012800053574253574344495220505246204741F6
:101290005A2041494C2050312020503220205033D8
:1012A00020204D41582046554C4C43594331435919
:1012B0004332435943334F4646414253475A73479B
:1012C0005A25475A74005B4D454E555D202020201D
:1012D0005B455849545D00205B4D454E555D517549
:1012E000616E642050524554006C6962726500530F
:1012F00055505052494D4552204D4F44454C4500A4
:10130000436F7069652E2E2E004465706C616365B5
:101310006D656E742E2E2E004368617267656D6573
:101320006E742E2E2E004E6F6D004368726F6E6FBE
:1013300000452E4C696D6974657300452E547269C1
:101340006D73005472696D20496E6300542D5472A0
:1013500061636500542D5472696D004269702043C9
:1013600074720050726F746F0050504D206672613D
:101370006D65006D7300496E746572005472696D1D
:1013800073004661646520496E0046616465204FC4
:101390007574002864656661757429005665726904
:1013A0006620202020205472696D73004D4F444503
:1013B000004D6178206578706F2061747465696E86
:1013C0007421004D6178206D6978616765732061D3
:1013D000747465696E742100494E5345524552201C
:1013E0004D49584147452000454449544552204DF8
:1013F00049584147452000536F7572636500546139
:101400007578004F6666736574005472696D0043A9
:101410006F7572626500502E566F6C00416C65727C
:101420007465004F4646004D756C747078005265C7
:101430007461726420426173005265746172642049
:10144000486175740052616C656E74697220486100
:1014500075740052616C656E74697220426173002C
:1014600044522F4558504F004D495845555200435E
:101470004F50494552205452494D205B4D454E55E1
:101480005D00435600535700412020766F69650088
:101490004D61780043616C69620042617200416C89
:1014A00061726D650055737250726F746F004546BE
:1014B0004641434552204D4958414745535B4D45B0
:1014C0004E555D0042697065757200436F6E7472AF
:1014D0006173746500416C61726D65204261747462
:1014E0006572696500416C61726D6520696E61634A
:1014F0007469766974650046696C7472652041444C
:101500004300496E76657273696F6E2047617A0099
:1015100042697020742E6D696E757465730042693E
:1015200070202061207265626F75727300466C6175
:101530007368207175616E642062697000496E7411
:1015400065722065636C6169726167650045636CF3
:101550006169722E206F6666206170726573004546
:101560006372616E2064276163637565696C004115
:101570006C657274652047617A00416C65727465B0
:1015800020496E74657200416C65727465204D650A
:101590006D6F69726500416C6572746520416C61A4
:1015A000726D650050415320444520444F4E4E45D6
:1015B000455320416C61726D65004F726472652005
:1015C000566F696573205278004D6F6465004573EE
:1015D000636C617665006D6F646520202025207343
:1015E0007263004D756C7469706C69657572004347
:1015F000616C00454550524F4D2076005472696D24
:101600002D202B004247005B4D454E555D504F55F8
:101610005220444542555400202020534554204E2A
:1016200045555452452020200020424F55474552F1
:10163000204D414E434845532F504F5453200041B5
:101640006C743A00527820426174743A0052783ACD
:101650000054783A004864673A005370643A005482
:10166000656D70313A0054656D70323A0052504DDC
:101670003A004675656C3A00566F6C74733A0041D7
:101680006363656C0054656C653A00525353493A84
:10169000004E4F204441544100544D3100544D32CE
:1016A0000047415A0054482500544F5400746D724D
:1016B000314C6174206D6178202020207573007496
:1016C0006D72314C6174206D696E2020202075731D
:1016D00000746D7231204A69747465722020202074
:1016E000757300746D61696E206D61782020202013
:1016F00020206D73004672656520537461636B2012
:101700006D696E2020202062005B4D454E555D7056
:101710006F75722072657365740050504D004348B8
:1017200000544D52004D4F44454C45005056004525
:101730004550524F4D206C6F77206D656D00414CC8
:1017400045525445004170707579657A2073757201
:1017500020746F756368650047617A20706173203B
:10176000E0207A65726F005265696E697469616C18
:101770006973657A206C6500416C61726D657320D8
:101780004465736163746976656573005377697442
:101790006368657320656E636C656E63686573006E
:1017A0005265696E697469616C6973657A206C65EC
:1017B00073004D45535341474500546F7563686549
:1017C00020706F757220636F6E74696E756572003C
:1017D00042616420454570726F6D20446174610000
:1017E000466F726D61747461676520454550524F54
:1017F0004D00446570617373656D656E7420454579
:1018000050524F4D004D454E5553204F5645524670
:101810004C4F5700434F4E46494720524144494F91
:101820000045434F4C4147450056455253494F4EA2
:10183000004449414700414E410043414C49425216
:101840004154494F4E0053454C4D4F44450053457C
:1018500054555000504841534520444520564F4C64
:101860000050484153455320444520564F4C0044B6
:10187000522F4558504F004C494D49544553004351
:101880004F555242455300434F5552424500494E31
:1018900054455253205045525300494E54455253DB
:1018A00020464F4E4354494F4E5300494E544552E3
:1018B000532053454355524954450054454C454DDA
:1018C00045545249450047414241524954530053FF
:1018D000544154004445425547009C1432465A5ADC
:1018E0004632465AECEC003C649CC4003C649C00CC
:1018F00000006453696D706C6520342D43480054BA
:101900002D43757400562D5461696C00456C6576E5
:101910006F6E5C44656C746100654343504D0048D4
:10192000656C6920536574757000536572766F201D
:1019300054657374000011241FBECFEFD0E1DEBFE9
:10194000CDBF11E0A0E0B1E0E8E2F7EE02C0059003
:101950000D92A832B107D9F71DE0A8E2B1E001C0AD
:101960001D92AC3CB107E1F70E9432240C949273B3
:101970000C940000E82F8823D9F087FF07C0863E2B
:101980001CF080E68E1B0895E19504C08B3114F4A1
:10199000805C0895E5321CF48E2F8B5E0895E93249
:1019A0003CF4FF27E7FDF095EE5FFA4F8491089530
:1019B00080E208959DE0899F9001112420503C4FC2
:1019C000C9010895282F30E0220F331F220F331F43
:1019D00027503D4FC901089599E0899F9001112436
:1019E00027573E4FC901089595E0899F9001112422
:1019F00027553D4FC90108959C0140E0683008F02B
:101A000041E070E0442371F0CB010897FC0163E0F2
:101A1000EE0FFF1F6A95E1F7E80FF91FDF01A75AE4
:101A2000BC4F0AC0FB01EE0FFF1FEE0FFF1FE60FBA
:101A3000F71FDF01AF5CBC4FFD01808120503C4FA0
:101A400037FD0EC068E02030360784F0442319F4D7
:101A500084E090E002C088E090E0A80FB91F8C916C
:101A6000992787FD9095582F442733C0442331F0A0
:101A7000432FB9017070660F771F04C0432F46953E
:101A8000B9017170842F90E0FD01E80FF91F818189
:101A9000992787FD90959B0135952795829FA001F9
:101AA000839F500D929F500D11242081332727FDD5
:101AB000309580E092E0861B970B95958795BC0149
:101AC000269FC001279F900D369F900D1124480F2F
:101AD000591FCA0169E170E00E940773CB010895A4
:101AE0009C01633031F1643028F4613051F0623090
:101AF00090F43CC0653039F1653008F1663061F52D
:101B000025C0493029F497FD24C0205032400AC036
:101B100097FF2CC026C0493041F41816190624F14D
:101B200020503E4F220F331F21C018161906CCF04B
:101B30001DC097FF1BC0309521953F4F17C0181649
:101B4000190694F00EC097FF0CC003C018161906B2
:101B50005CF020E03CEF0AC067500E94FC0C9C0146
:101B600005C020E030E002C020E034E0C901089563
:101B70006F927F928F929F92AF92BF92CF92DF929D
:101B8000EF92FF920F931F933B017C0100E010E066
:101B90008824992464E670E080E090E06619770973
:101BA00088099909A80197010E94C8725B016C011C
:101BB00082E390E0A0E0B0E0A80EB91ECA1EDB1ED2
:101BC000C801B7010E94C8720E94C872BC01882770
:101BD0009927A40193010E94C872E4E09695879525
:101BE00077956795EA95D1F7A60EB71EC81ED91E40
:101BF000C601B50124E630E040E050E00E941A73CF
:101C0000C9011F910F91FF90EF90DF90CF90BF908F
:101C1000AF909F908F907F906F900895FF920F9359
:101C20001F939C01AB016115710531F1FF2497FFF2
:101C300005C0FF24F394309521953F4F57FF10C006
:101C400000E014E066277727641B750BC801821B30
:101C5000930B0E94B80D9801281B390BC90104C0D1
:101C6000C901BA010E94B80DFF2011F49C0104C003
:101C700022273327281B390BC9011F910F91FF9091
:101C800008951F93162F0E94DA0CFC01A12FB0E0DB
:101C90002481332727FD3095CD01880F991F02C07D
:101CA000359527958A95E2F723703070AE0FBF1FE8
:101CB0008C91992787FD9095880F991F880F991F00
:101CC000280F391FC9011F910895FF920F931F9389
:101CD000F82E162F00E0112391F0812F6F2D0E9416
:101CE000410E21E0853F920754F0282F255F2117F0
:101CF00008F02F5F0F5F122F053069F710E0812F7A
:101D00001F910F91FF900895EFE1F5E0E80FF11DAD
:101D1000E491F0E0EE0FFF1FED53F94F2081318188
:101D2000C9010895A3ECB6E0E3EDF6E060E0862F8C
:101D3000806487B9369A208931898D919C91119759
:101D400096958795820F931F8E7F11969C938E9305
:101D500040815181240F351F36952795318B208B7B
:101D6000349BFECF349A84B195B1840F951F96951C
:101D70008795819391936F5F12966830C1F60895AD
:101D8000E3ECF6E050E0852F806487B920E030E096
:101D900040E0369A349BFECF349A84B195B1280F37
:101DA000391F4F5F4430A9F736952795219331931A
:101DB0005F5F583041F70895E3ECF6E020E0822FB2
:101DC000806487B9369A349BFECF349A84B195B13A
:101DD000880F991F819391932F5F283081F7089581
:101DE0008EE587B985E28A95F1F7369A349BFECF66
:101DF000349A84B195B190936504809364040895F6
:101E000080915E04882341F480916C04882321F43E
:101E100080916E04882311F084E105C080919106C1
:101E2000882321F081508093910608C0809163003F
:101E300090E09695879581708093920680919206A6
:101E40000895A82FB0E0FD01EB58FB4F10828823C6
:101E500029F4809180019091810104C080918701D3
:101E600090918801FD01EE0FFF1FE958FB4F918310
:101E70008083A558BB4F1C9208951F920F920FB6F6
:101E80000F9211248F93809190068F5F809390061C
:101E90008F910F900FBE0F901F9018954091900654
:101EA00022B7809190064817C9F7942F80E030E060
:101EB000282B392BC90108951F920F920FB60F924C
:101EC00011242F933F934F935F936F937F938F933F
:101ED0009F93AF93BF93CF93DF93EF93FF93C09103
:101EE0008000D091810080917D008F7D80937D0066
:101EF000789480919306909194069E01281B390B4B
:101F000036952795C901815A9F408F5D9E4220F4E6
:101F100081E080938F062EC040918F06842F8150E0
:101F2000883040F5C901815293408757954000F5AC
:101F3000E42FF0E0EE0FFF1FE358F94F2C5D354022
:101F400080917201992787FD90950A96BC01269F82
:101F5000C001279F900D369F900D11246AE070E01C
:101F60000E940773718360834F5F40938F0602C0A6
:101F700010928F06D0939406C0939306F8948091A4
:101F80007D00806280937D00FF91EF91DF91CF9182
:101F9000BF91AF919F918F917F916F915F914F9181
:101FA0003F912F910F900FBE0F901F9018951F9289
:101FB0000F920FB60F9211248F93EF93FF93E0913E
:101FC000760DEE2349F0E150E093760DF0E0E6590E
:101FD000F24F80818CB901C05598FF91EF918F919C
:101FE0000F900FBE0F901F901895EDECFDE001C013
:101FF000319680818535E1F39F012C5C3D40C9011C
:102000000895EF92FF920F931F93062F7A010E947B
:10201000DA0CDC0110E0FC01E00FF11FC70195951F
:102020008795959587958083000F111F83E090E039
:10203000002E02C0880F991F0A94E2F7809514962B
:102040002C911497822393E0E922FF2402C0EE0C26
:10205000FF1C0A95E2F78E0D14968C9382E00E9485
:10206000BC5C1F910F91FF90EF90089578941F92A0
:102070000F920FB60F9211242F933F934F935F93BC
:102080006F937F938F939F93AF93BF93EF93FF9340
:10209000F89487B78D7F87BF809106018F5F80930B
:1020A0000601815090E083709070892B11F49DE9B6
:1020B00001C09CE981B7980F91BF789490915E041C
:1020C000992369F080916D04882329F490936D041D
:1020D00081E080936E04915090935E0421C0309112
:1020E0006C043323B9F020916D04222399F090E021
:1020F00080916E04882309F491E090936E049923F3
:1021000009F428E020935E04992351F03150309374
:102110006C0406C010926D0410926E041092570465
:1021200080916E04882381F080915704882311F4F4
:1021300090E004C09091950681E0982790939506D1
:10214000992311F41B9A01C01B980E94066C809180
:102150005804826080935804F89487B7826087BFE0
:102160007894FF91EF91BF91AF919F918F917F9163
:102170006F915F914F913F912F910F900FBE0F90F4
:102180001F9018950F931F938C010E94776A82E22B
:1021900060E042EB57E124E00E94CB6480E068E11C
:1021A000A8010E9406650E94E468809156010E9481
:1021B000DA681F910F91089586B380958E77E1F7C5
:1021C0000E94CF6A0895EF92FF920F931F938C01A4
:1021D0007B010E94776A82E260E04EE357E124E0EF
:1021E0000E94CB6480E060E2A8010E94066580E066
:1021F00068E2A7010E94066580E060E345E457E1DC
:102200000E9406650E94E468809156010E94DA6887
:102210000E94DC101F910F91FF90EF900895EF92B4
:10222000FF920F931F93CF93DF93E82E882349F4F7
:1022300080915A0490915B04492F441F4427441F06
:1022400006C2992787FD909597FF03C090958195C9
:102250009F4F863109F4F6C18A3030F490E00D9634
:102260000E946E6B482FEFC18A50282F30E0890101
:10227000000F111F020F131F0F551C4FD80112968C
:102280008C91882311F440E0E2C1F801828185300D
:1022900010F420E007C0D80112968C91883008F421
:1022A000DEC122E0D801EC91E150E73008F449C0EA
:1022B00053C080915C0490915D0440E08C239D2389
:1022C000892B89F127C080915A0490915B048C2B53
:1022D0009D2B90935B0480935A04F80180810E94A7
:1022E0000F11F82ED80111968C910E940F11982F82
:1022F000F8018281853019F0863049F403C0FF204F
:1023000089F002C0FF2031F4992321F40BC040E092
:10231000F91649F041E080915C0490915D048C2BAA
:102320009D2B0AC040E020915C0430915D04CE01F9
:10233000809590958223932390935D0480935C0411
:1023400082C180915904882309F060C0F0E0EE0F4B
:10235000FF1FE457F84F31C0E93018F460E074E033
:1023600057C0E03178F4F0E0EE0FFF1FDF01AE5B05
:10237000BE4FE959F94F608171818D919C91681B25
:10238000790B09C0E43150F4F0E0EE0FFF1FE9597A
:10239000F94F60817181660F771F3AC0E43230F4E3
:1023A000F0E0EE0FFF1FEE58F84F07C0E63240F4A2
:1023B000F0E0EE0FFF1FE15DFB4F6081718128C0EF
:1023C000E83270F48E2F90E08697FC01EE0FFF1F2D
:1023D000E80FF91FE658F24F8081682F70E018C0AF
:1023E000E83259F46091C40D7091C50D8091A00D33
:1023F0009091A10D680F791F0BC0E93239F46091FB
:10240000960D7091970D7695679502C060E070E02B
:10241000222309F079C0D8018C918A324CF01196B0
:102420009C9189E19802C00111248058934F3FC0CC
:10243000F801808189325CF08181992787FD909530
:1024400080589F4F880F991F880F991F30C0D8015F
:102450008C91873244F011968C91992787FD909545
:1024600080589F4F24C0F801808185323CF08181E3
:10247000992787FD90958E599F4F19C0D8011196C5
:102480009C9189E298029001112435952795359504
:10249000279597FD915C96FB990F990B90F9892FE1
:1024A000992787FD9095F901E81BF90BCF01D80119
:1024B00012962C91223051F0233071F02130C1F46A
:1024C00040E0861797070CF0BEC0BCC040E068171C
:1024D00079070CF0B8C0B6C040E0FB0177FF03C03D
:1024E000F095E195FF4F8E179F070CF0ACC0AAC086
:1024F00040E0FB0177FF03C0F095E195FF4FE8173F
:10250000F9070CF0A0C09EC0D8011196EC91E150E3
:10251000E73058F480915904882309F063C0F0E053
:10252000EE0FFF1FE457F84F33C0E93018F4E0E036
:10253000F4E05AC0E03180F4F0E0EE0FFF1FDF015D
:10254000AE5BBE4FE959F94F0190F081E02D8D91BE
:102550009C91E81BF90B0AC0E43158F4F0E0EE0F4F
:10256000FF1FE959F94F0190F081E02DEE0FFF1F99
:102570003BC0E43230F4F0E0EE0FFF1FEE58F84FAE
:1025800007C0E63248F4F0E0EE0FFF1FE15DFB4FBD
:102590000190F081E02D28C0E83270F48E2F90E099
:1025A0008697FC01EE0FFF1FE80FF91FE658F24F68
:1025B0008081E82FF0E018C0E83259F4E091C40DB2
:1025C000F091C50D8091A00D9091A10DE80FF91F1C
:1025D0000BC0E93239F4E091960DF091970DF69524
:1025E000E79502C0E0E0F0E0D80112968C918930C6
:1025F00089F08A3018F4883009F507C08A3079F0FC
:102600008B3091F08C30D1F414C040E06E177F070E
:10261000D1F418C040E06E177F07A1F414C040E069
:10262000E617F70784F40EC040E06E177F075CF4EE
:1026300009C040E06E177F0734F004C040E0E617A1
:10264000F7070CF041E01E1414F081E04827842FB6
:10265000DF91CF911F910F91FF90EF900895C1E00E
:10266000D0E002C0CC0FDD1F2A95E2F780915A041A
:1026700090915B048C239D23892B09F01ACE23CEE5
:10268000362F37953327379520E030935B0420931E
:102690005A040E940F110895EF92FF920F931F9317
:1026A000CF93DF93C5EED3E0E1E0EE2EF12C28814D
:1026B000222309F189818823F1F090E001978701B5
:1026C00002C0000F111F8A95E2F7822F60E00E947E
:1026D000401320917D0630917E06882319F0202B2F
:1026E000312B05C0C801809590952823392330935C
:1026F0007E0620937D06229683E0CD3FD807B9F66B
:10270000DF91CF911F910F91FF90EF900895FF926D
:102710000F931F938C01F62E0E94776A82E260E08D
:102720004EE357E124E00E94CB6480E060E2A80120
:102730000E94066581E068E34AEB57E10E94066566
:102740000E94E468FF2011F089E102C080915601E7
:102750000E94DA688091630480935E040E94DC101A
:1027600086B380958E7791F48091590160E00E9444
:102770004013882331F480917001882311F4FF20E5
:1027800019F0C79AA895ECCFC798FCCF1F910F916D
:10279000FF90089580916B0187FD07C0887329F42D
:1027A00088E797E160E00E948713089580916B01AC
:1027B00086FD0AC00E94D25E883C910528F48FE213
:1027C00097E160E00E94871308950F931F93809113
:1027D0006B01867099F18CE897E160EA77E10E94DD
:1027E000E31000E080916B018670823009F401E013
:1027F0001EE00AC0113139F0812F8D5060E00E9437
:102800004013801729F41F5F1631A0F31631B1F081
:1028100086B380958E7791F406C0809170018823ED
:1028200051F0C79A09C08091590160E00E9440139D
:102830008823B9F7F2CFC7981EE0DECF1F910F9122
:1028400008950F931F93CF93DF9380916B0180FDC9
:1028500043C080916C0190E08170907002E010E0C4
:10286000081B190BF801EE0FFF1FE85DFE4FC18139
:10287000D281609687859089C81BD90B0E94DC0E97
:10288000102F802F0E94840EC817D9072CF588E5D9
:1028900097E167E677E10E94E3100E94DC0E812F4A
:1028A0000E94840EC817D90724F486B380958E77CA
:1028B00049F00E94DC1010C080917001882351F013
:1028C000C79AEBCF8091590160E00E9440138823A2
:1028D000B9F7F2CFC798E1CFDF91CF911F910F9158
:1028E0000895AF92BF92CF92DF92EF92FF920F9333
:1028F000CF93DF9380916E0184FD6EC0809159016A
:1029000060E00E944013882329F48091700188239D
:1029100009F456C0C79A0E94776A80E060E040E9F7
:1029200050E020E000E00E949E630E94E4688091F5
:1029300056010E94DA680E94DC100E94920E0F5F1E
:102940000032D9F7AA24BB2400E0802F0E94840E15
:10295000C92FD0E0AC0EBD1E0F5F0430B1F7F89464
:10296000C090530DD090540D789480E991E0C80E3A
:10297000D91E1CC00E94920EC0E0D0E000E0802F63
:102980000E94840EE92EFF24CE0DDF1D0F5F043060
:10299000B1F786B380958E77F9F4CA15DB05E1F4BB
:1029A00011C0809170018823A9F0C79AF894809192
:1029B000530D9091540D7894C816D906D9F60CC0D1
:1029C000C798A9CF8091590160E00E9440138823E5
:1029D00061F7E7CFC798EACFDF91CF910F91FF90D2
:1029E000EF90DF90CF90BF90AF9008951F93CF935B
:1029F000DF93C2E1D4E011E08881882351F060E0E8
:102A00000E944013882329F0812FDF91CF911F91DD
:102A100008951F5F2D96153079F710E0F5CFDF92FE
:102A2000EF92FF920F931F93E82E082F0F7006501E
:102A3000109183011770083008F0B2C0E02FE595BF
:102A4000FF27E7FDF09580916C0190E0880F991FBA
:102A5000880F991FE80FF91FEA50FB4FF490FA9482
:102A60000E94F614682F8F2D0E94650ED82E6F2DB0
:102A70000E94410EBC01112389F477FF04C088270E
:102A80009927861B970B9595879595958795019620
:102A90008132910584F080E290E00DC0212F332730
:102AA00027FD30952150304081E090E002C0880F32
:102AB000991F2A95E2F7982F22E0F21639F48091B7
:102AC000820183FF03C094E081E001C080E0492FD0
:102AD000552747FD509500FF06C0460F571F10E0D1
:102AE00023E83FEF05C09B01241B350BA901F7CF5D
:102AF0002115310519F4882329F015C09FEF2338DB
:102B0000390749F0421753071CF0621773074CF05E
:102B10002D37310541F0241735072CF026173707DC
:102B200014F4A90111E023583F4F2A3F310501F762
:102B30006417750724F44E37510544F40CC046174A
:102B400057074CF42FEF433852072CF48091830140
:102B500086FFAB0111E03EEF4C3053071CF44CE014
:102B60005EEF06C081E0453F580714F044EF51E0A6
:102B70008D2D6F2D0E940110112341F08E2D0E948A
:102B8000F56B109257048091610407C0E6FE03C004
:102B900081E0809357048091600480935E04EE246A
:102BA0008E2D1F910F91FF90EF90DF900895AF92BF
:102BB000BF92CF92DF92EF92FF920F931F93CF932A
:102BC000DF935C01A3EFB6E0FC0198E001900D9269
:102BD0009150E1F76F3F19F40E94F614682F9CEFB3
:102BE000C92E92E0D92E0FEFC0E0D0E0E62EFF24F0
:102BF0000894E11CF11CFE01EE0FFF1FEE0FFF1FFA
:102C0000E750FD4F2081822F837009F4A2C02695E2
:102C10002695237030E0802F992787FD90952817FF
:102C2000390709F48DC08181807E99F0828180FD11
:102C300010C0FE01EE0FFF1FEE0FFF1FE650FD4F0D
:102C4000808182958695877090E0E816F90609F0F4
:102C500077C0FE01EE0FFF1FEE0FFF1FE650FD4F86
:102C60008081880F880F880F85958595859561E00F
:102C70000E944013882309F463C0FE01EE0FFF1F7A
:102C8000EE0FFF1FE750FD4F8081182F1695169508
:102C90001370E12FF0E0EE0FFF1FED50F94F0190A0
:102CA000F081E02D8370F7FF03C080FD03C048C0B2
:102CB00081FF46C0012FD6016C91772767FD709583
:102CC000CF010E940E0E9C01FE01EE0FFF1FEE0FC2
:102CD000FF1FE750FD4FE0818E2F807F69F06E2F40
:102CE00062956F70862F90E00B970CF06C5FC901B6
:102CF00040E00E94700D9C01B901882777FD809506
:102D0000982FFE01EE0FFF1FEE0FFF1FE550FD4F46
:102D10002081269530E040E050E00E94C87224E611
:102D200030E040E050E00E943C73E12FFF27E7FDD8
:102D3000F095EE0FFF1FEA0DFB1DC9012083918363
:102D4000219684E090E0C80ED91ECE30D10509F05E
:102D500052CFDF91CF911F910F91FF90EF90DF90B5
:102D6000CF90BF90AF9008957F928F929F92AF9235
:102D7000BF92CF92DF92EF92FF920F931F93CF9368
:102D8000DF93782E79E2A72E71E0B72EEE24CC24C3
:102D9000DD2461E0862E912C8C2D843010F0FC2CEB
:102DA0000DC0E0916C01F0E0EE0FFF1FEE0FFF1F72
:102DB000EC0DFD1DEA50FB4FF490FA940E94840E36
:102DC0009C01D5018D919C911197281B390B1216EE
:102DD00013062CF45C96ED91FC915D9705C0D5012E
:102DE0001E96ED91FC911F97E436F10514F4E4E68C
:102DF000F0E0B901882777FD8095982F4AE0660FAB
:102E0000771F881F991F4A95D1F79F01442737FDE7
:102E10004095542F0E943C73E901BCEF21303B07E1
:102E20001CF4C0E0DCEF06C0E4E020303E0714F004
:102E3000C0E0D4E080916E0180FF06C0F2E0FF1692
:102E400019F4D095C195DF4F0F2D10E0F801EE0F6A
:102E5000FF1FE457F84FD183C083CE010F964F97E1
:102E600040F4C4010F2C02C0880F991F0A94E2F7A6
:102E7000E82A23E02F1508F45DC0809159048823C7
:102E800009F058C032E0F30E8F2D90E00197D40185
:102E900002C0AA0FBB1F8A95E2F7CD018160209185
:102EA0007D0630917E0682239323892B09F442C04C
:102EB000F801EE0FFF1FEE59FE4FF0808F2D807C42
:102EC000C9F1EF2DEF73F0E0EE0FFF1FDF01A65AFF
:102ED000BE4FE158F94F608171812D913C91621B89
:102EE000730B882777FD8095982FF801EE0FFF1F51
:102EF000E85DFE4F23AD332727FD3095432F532F39
:102F00000E94C87222E330E040E050E00E943C732F
:102F1000F694F694F694F694F694F694EF2DF0E089
:102F2000E130F10519F0329729F403C0C20FD31F25
:102F300001C0E901000F111F07501B4FF801D18399
:102F4000C0830894C11CD11C22E030E0A20EB31E45
:102F500037E0C316D10409F01FCF89EF94E0672D45
:102F60000E94D715FF2400E010E0A12C54E0B52EFC
:102F7000F801E750FB4FC080D1808F2D672D0E9454
:102F8000650E6F2D0E94410EEC0182E0F81671F57E
:102F90008091820183FF2AC080916E0180FF03C06F
:102FA000D095C195DF4FBE01882777FD8095982F7A
:102FB00063587F4F8F4F9F4F95012C193D09442730
:102FC00037FD4095542F0E94C87220E038E040E061
:102FD00050E00E943C73B901CA016030A8E07A0752
:102FE000A0E08A07A0E09A0741F406C080917D0422
:102FF000882311F0C0E0D0E09E01220F331FF801BA
:10300000E35BFA4F31832083F3940E5F1F4FB4E0EC
:10301000FB1609F0ADCF8E2DDF91CF911F910F914F
:10302000FF90EF90DF90CF90BF90AF909F908F90E8
:103030007F9008958F929F92AF92BF92CF92DF922E
:10304000EF92FF920F931F93CF93DF930E94F6149A
:10305000C82EF9EFEF2EF4E0FF2E0DE415E0C0E0EE
:10306000D0E0E2E08E2E912CAA24A394BC2E809175
:103070006C0190E0817090709401281B390B2C1723
:103080003D0751F18C2F6C2D0E94650ED82EA09219
:1030900059048C2D0E94B41610925904F8018081B5
:1030A0009181F70120813181820F931F62E070E0EE
:1030B0000E940773AB01FEEF6C307F071CF44CE0FD
:1030C0005EEF06C021E0653F720714F044EF51E067
:1030D0008D2D6B2D0E940110219682E090E0E80E6C
:1030E000F91E0E5F1F4FC430D10509F0BFCF82E03B
:1030F0000E94BC5C8091600480935E04DF91CF915C
:103100001F910F91FF90EF90DF90CF90BF90AF9005
:103110009F908F9008952F923F924F925F926F925F
:103120007F928F929F92AF92BF92CF92DF92EF9257
:10313000FF920F931F93DF93CF93CDB7DEB72997FD
:103140000FB6F894DEBF0FBECDBF9F838E83162FC0
:10315000862F0E94B416409185014823242F30E029
:1031600080919B0590E08227932782239323892BCC
:1031700021F08091600480935E0440939B0580E081
:1031800094E0909308058093070590930A05809337
:10319000090580915904882379F180916C0190E0B0
:1031A0008170907022E030E0281B390B1092FA04F5
:1031B0001092F9042130310521F01092FC04109294
:1031C000FB042230310521F01092FE041092FD0420
:1031D000109200051092FF04E1E1F5E011921192C6
:1031E00025E0E132F207D1F745E555E05A834983FE
:1031F00021E235E0FA0146C061E175E040E050E0CF
:10320000FA01E158F94FDA01A85DBE4F8081918142
:10321000D2962D913C91D397821B930B880F991FC7
:10322000DB018D939D93BD014E5F5F4F483051058B
:1032300039F78091870690918806880F991F90939F
:103240001A05809319058091890690918A06880F46
:10325000991F90931C0580931B0580918B0690917C
:103260008C06880F991F90931E0580931D058091F1
:103270008D0690918E06880F991F9093200580935C
:103280001F05B2CF80819181D9018D939D939D01BE
:103290003496B5E0ED3AFB07A9F780E4E5E5F5E003
:1032A000DF011D928A95E9F710927C06BCE54B2E52
:1032B000B6E05B2EACED8A2EA5E09A2EFCE96F2ECF
:1032C000F5E07F2E1D82212E33240894211C311C11
:1032D0008D810E94EC0C6C01FC0180818F7159F48E
:1032E000E9EA4E2EE2E05E2E25EC33E03C832B83B0
:1032F00022243324A4C290E0419794F7D601179674
:103300009C91892F807FC1F0892F85958595859522
:103310008595282F332727FD309518162CF4221673
:10332000330609F07AC208C088279927821B930BBD
:103330002816390609F471C2F601838161E00E9402
:103340004013D2019C918823C1F4492F1C92F601AD
:103350009181892F8850823008F05FC287818E70FA
:10336000843009F45AC2993019F01986188640C081
:1033700020E03CEF398728873BC040E0992309F4DF
:1033800041E081E0D2018C93F60181818150A82F28
:10339000B0E0FD01EE0FFF1FE750FB4F20813181B0
:1033A00039872887843168F03D81831750F4AA0F4C
:1033B000BB1FAA0FBB1FAB5ABA4F8D919C91998727
:1033C0008887D6019C91892F807E91F09295969561
:1033D0009770892F90E00197E1E0F0E002C0EE0FD6
:1033E000FF1F8A95E2F720917C062E2B20937C0606
:1033F000D60118968C918823C9F0B9E28B0290010E
:103400001124359527953595279587FD815C86FB99
:10341000880F880B80F9992787FD9095281B390B19
:10342000E885F985E20FF31FF987E887D60116963C
:103430008C911697882329F415968C91882309F48A
:103440006CC1F4016081718182819381442391F484
:1034500020E031E040E050E00E943C735095409500
:10346000309521953F4F4F4F5F4FA884B984A20EEE
:10347000B31E5FC0D60117968C9117978E7084305B
:1034800049F5EC91EF71F0E0EE0FFF1FE15EFA4FAE
:1034900060817181882777FD8095982F20E034E640
:1034A00040E050E00E94C872F4016083718382831F
:1034B0009383D60112962C91222361F0332727FDA6
:1034C0003095432F532F0E943C73F40120833183A6
:1034D00042835383D4016D917D918D919C9120E025
:1034E00031E040E050E00E943C73509540953095AB
:1034F00021953F4F4F4F5F4FA884B984A20EB31E52
:10350000A114B104B1F0F6018581B7FE02C08F703D
:1035100002C082958F7090E09C0144E650E0249FA9
:10352000C001259F900D349F900D1124D3018D93E0
:103530009C93F301208131812115310599F080910F
:103540006904882321F02150304031832083D30146
:103550008D919C91892B31F0F40160817181828180
:103560009381C2C0A114B10409F4D7C0D601169644
:103570008C911697882309F4C0C080916904882330
:1035800009F477C012962C91222329F460E070E0B0
:1035900080E293E017C0332727FD309537FF03C043
:1035A000309521953F4F332727FD3095432F532FDB
:1035B00060E070E080E293E00E943C73C901DA01B0
:1035C000BC01CD01F60126811A141B040CF52F70E5
:1035D000422F50E041155105D9F1A4E6B0E04A9FD1
:1035E00090014B9F300D5A9F300D1124442737FD19
:1035F0004095542F0E943C7379018A01F401808127
:103600009181A281B381E80EF91E0A1F1B1F2BC0F6
:1036100022952F70422F50E041155105C9F0A4E6C4
:10362000B0E04A9F90014B9F300D5A9F300D1124FE
:10363000442737FD4095542F0E943C73F401E080ED
:10364000F18002811381E21AF30A040B150B0BC0FF
:1036500028853985C901AA2797FDA095BA2FEE24A0
:10366000F82E092F1A2FD401ED92FD920D931C9381
:103670001397F40160817181828193812885398556
:1036800079010027F7FC0095102F1A141B0464F42D
:1036900020E031E040E050E00E943C73E216F30687
:1036A0000407150764F01BC020E031E040E050E063
:1036B0000E943C732E153F054007510784F448854E
:1036C0005985CA01AA2797FDA095BA2FBA2FA92F0D
:1036D000982F8827F40180839183A283B383D40138
:1036E0006D917D918D919C9120E031E040E050E022
:1036F0000E943C733987288710C0E885F985CF017F
:10370000AA2797FDA095BA2FBA2FA92F982F8827FF
:10371000F40180839183A283B383D60114966C91C4
:103720001497662341F08885998511964C910E94E3
:10373000700D99878887F601878180FD12C0E1812D
:10374000EE2379F0E53068F4F0E0EE0FFF1FE55B63
:10375000FA4F8081918128853985280F391F398753
:10376000288748855985BA01882777FD8095982F45
:10377000D60112962C91332727FD3095432F532FD6
:103780000E94C8729B01AC01F60180818F71082FE5
:1037900010E00150104087818695877090E081305D
:1037A000910551F0F801EE0FFF1FEE0FFF1F02977A
:1037B00031F5EB5AFA4F1EC0CA01B90124E630E0D8
:1037C00040E050E00E943C73B901CA01000F111F94
:1037D000000F111F0B5A1A4FD8012D913D914D9199
:1037E0005C910E94C87220E034E040E050E00E940A
:1037F0003C73F80120833183428353830EC0EB5A1C
:10380000FA4F80819181A281B381820F931FA41FFF
:10381000B51F80839183A283B383FD81FF5FFD8306
:103820000894411C511C24E030E0820E931E42E0BB
:1038300050E0640E751EF03209F04ACD51CDA981D9
:10384000BA818D909D90AD90BC90C501B40124E6E5
:1038500030E040E050E00E943C73E981FA8120832F
:10386000318342835383F101E656F84FC901208327
:103870009183D20113962D913C91149711968C91BE
:103880001197FAE08F02F0011124E851FC4FF987FB
:10389000E8878C914AE084023001112488E19CEF92
:1038A000680E791ECF015E2F492F2E173F071CF49B
:1038B000C901522F492F852F942F8C01061517050A
:1038C0000CF4830181149104A104B10479F19801ED
:1038D000442737FD4095542F181419041A041B046B
:1038E00064F4A885B985BD01882777FD8095982F58
:1038F000621B730B840B950B0BC0C301AA2797FDAA
:10390000A095BA2F281B390B4A0B5B0BCA01B901D2
:10391000A50194010E94C87220EA36E841E050E017
:103920000E943C73C901DA014C015D01C80175E0D8
:10393000959587957A95E1F7800F911F9801232F30
:10394000330F330B2595820F931F000F012F001F9C
:10395000110B801B910B6C01EE24D7FCE094FE2C24
:103960008885998545E0959587954A95E1F7E8859D
:10397000F9858E0F9F1FA30135E0559547953A9520
:10398000E1F7B301660F672F661F770B460D571DD2
:103990009F01232F330F330B2595820F931FEE0FBB
:1039A000EF2FEE1FFF0B8E1B9F0B8C01222717FDA5
:1039B0002095322FC80CD91CEA1CFB1C0C151D05C8
:1039C0002E053F0514F468017901461B570B7595C8
:1039D000679575956795460F571FCA01AA2797FDEA
:1039E000A095BA2F87017601E816F9060A071B078A
:1039F00014F47C018D01D20112968C91882341F040
:103A000010950095F094E094E11CF11C011D111D2E
:103A1000EB81FC818081882309F160E00E944013E2
:103A20008823E1F0AB81BC8111968C91B9E28B02C5
:103A300090011124359527953595279587FD815C53
:103A400086FB880F880B80F9992787FD9095281BA6
:103A5000390B79010027F7FC0095102FEE81FF81CB
:103A6000E20DF31DF182E082E981FA813496FA8356
:103A7000E98322E030E0220E331E45E050E0440EA0
:103A8000551E8B819C8102969C838B83E559F54062
:103A900009F0D5CE29960FB6F894DEBF0FBECDBF84
:103AA000CF91DF911F910F91FF90EF90DF90CF901A
:103AB000BF90AF909F908F907F906F905F904F904E
:103AC0003F902F900895CF92DF92EF92FF920F9345
:103AD0001F93DF93CF93CDB7DEB7A0970FB6F894BF
:103AE000DEBF0FBECDBF81E0809359040E94F61463
:103AF000682F8E010F5F1F4FC8010E948B18109214
:103B00005904F801ACEAB2E09E012F5D3F4F80817D
:103B100091814CEF883194071CF488E19CEF06C03A
:103B200043E0883E940714F088EE93E011969C934E
:103B30008E9332961596E217F30749F700E010E0EE
:103B4000F2E0CF2ED12CE02E80916C0190E08170BC
:103B500090709601281B390B2017310791F0FF2434
:103B60008F2D6E2D0E94410E855F914034F48F2D74
:103B70006E2D40E050E00E940110F39445E0F416F1
:103B800079F70F5F1F4F04301105E9F682E00E94BC
:103B9000BC5C8091600480935E04A0960FB6F8949C
:103BA000DEBF0FBECDBFCF91DF911F910F91FF9070
:103BB000EF90DF90CF9008952F923F924F925F92B7
:103BC0006F927F928F929F92AF92BF92CF92DF922D
:103BD000EF92FF920F931F93DF93CF93CDB7DEB792
:103BE000C756D0400FB6F894DEBF0FBECDBFF894D5
:103BF0002091530D3091540DA4963FAF2EAFA49752
:103C0000789420E08091C1069091C206A4964EADB2
:103C10005FADA4974817590709F021E02093690484
:103C2000A4966EAD7FADA4977093C2066093C10653
:103C30000E94F614A2968FAFA297409107014817F1
:103C400009F475C0282F30E04F3F51F4220F331F85
:103C50002954394F8FEF9FEFD9018D939C9362C008
:103C6000A42FB0E08DE090E0A89FF001A99FF00D97
:103C7000B89FF00D1124E45FFB4F608162956F7077
:103C8000289FF001299FF00D389FF00D1124E45F6B
:103C9000FB4FE081EF70E61718F0EE23F9F06E2F7E
:103CA00081E090E0FC0102C0EE0FFF1F2A95E2F7D1
:103CB0009F0102C0880F991FAA95E2F7280F8091F3
:103CC000B406822B8093B4068FE892E070E00E94E5
:103CD000F3727093B6066093B50624C0AA0FBB1F9B
:103CE000A954B94F1D921C92F901EE0FFF1FE95420
:103CF000F94F8FEF9FEF9183808381E090E0BC01CB
:103D000002C0660F771F2A95E2F79B0102C0880F59
:103D1000991F4A95E2F7280F20958091B4068223D7
:103D20008093B406A2967FADA2977093070180910D
:103D3000B406882309F493C0FE01B19680E4DF0144
:103D40001D928A95E9F7A7EB2A2EA6E03A2E662463
:103D500077244301EE24FF24A596EFAFA597A696FE
:103D6000FFAFA697FE01EF59FF4FA896FFAFEEAF4A
:103D7000A8978091B40690E00E2C02C09595879587
:103D80000A94E2F780FF41C0CE0101966E2D0E9499
:103D90008B18CE0101966E2D0E948B18D1018D914A
:103DA0009C915C01CC24DD24A5968FADA597A696A9
:103DB0009FADA6978C012E010894411C511CF20165
:103DC000219131912F01442737FD4095542FC60191
:103DD000B5010E94C872D8012D913D914D915C9121
:103DE000260F371F481F591FF80121933193419324
:103DF00051938F01A8962EAD3FADA897E217F30718
:103E0000F1F66A0C7B1C8C1C9D1C0894E11CF11CB7
:103E100042E050E0240E351E55E0E516F10409F0AD
:103E2000A8CF8E010F5D1F4F7E010894E11CF11C8D
:103E3000E1E6CE2ED12CCC0EDD1ED8016D917D9108
:103E40008D919D918D01A40193010E943C73F70116
:103E5000219331937F010C151D0579F707C0CE0121
:103E60000196A2966FADA2970E948B1820E030E0D9
:103E7000AE014F5F5F4FF894F901E254F84FDA0159
:103E8000A20FB31F8D919C919183808378942E5FB4
:103E90003F4F2032310579F78091280D882381F436
:103EA00080915408882329F08CE498E00E94DF5F19
:103EB00007C080915F08882319F080E00E94C25CEF
:103EC00080916904882309F4B3C480915104882344
:103ED00079F4409190075091910780916E0180FF95
:103EE00005C020E034E0241B350B15C09A010AC040
:103EF000E82FF0E0843048F0EE0FFF1FEA54F84F4F
:103F00002081318120503C4F06C0EE0FFF1FEE563E
:103F1000F84F20813181490156E0969487945A9553
:103F2000E1F76091AF066F5F6093AF064091AD0619
:103F30005091AE06480D591D5093AE064093AD0604
:103F40002091B2063091B306A4968EAD9FADA49792
:103F5000821B930B8436910508F487C02C593F4F80
:103F60003093B3062093B20680916F049091700451
:103F700001969093700480936F04CA0170E00E94D0
:103F8000F3724B019B0136952795809173049091B4
:103F90007404820F931F90937404809373046115CB
:103FA000710549F08091710490917204019690938B
:103FB0007204809371048091AF066091AB0670919A
:103FC000AC06680F711D7093AC066093AB06409110
:103FD000A9065091AA068091AD069091AE06480FB1
:103FE000591F5093AA064093A9061092AF0610924B
:103FF000AE061092AD062091B0063091B106A4969F
:104000008EAD9FADA497821B930B885E934068F1A1
:1040100028513C4F3093B1062093B006CA010E944C
:10402000F3724B011092AA061092A9061092AC06E8
:104030001092AB068091F6049091F704FC01E258CF
:10404000FB4F608301969093F7048093F6048837C2
:10405000910520F01092F7041092F6048091F80474
:1040600087FD03C08F5F8093F804552432E0232E30
:104070004424439424E0322E552039F4F0907F01FB
:10408000A0908001B09081010AC021E0521609F091
:1040900063C1F0908601A0908701B0908801FF2055
:1040A00009F458C1052D10E0F801EB58FB4F808151
:1040B000882391F44082F801EE0FFF1FDF01AA561A
:1040C000B94F1D921C92DF01A656B94F1D921C924A
:1040D000E256F94F11821082F7FC02C0EF2C02C0A9
:1040E000E32CEF1833E0E316A9F4F801EE0FFF1FFD
:1040F000DF01AA56B94F8D919C91119701968D932E
:104100009C93E656F94F80819181880D991D91838A
:10411000808348C049E14E1508F044C0F801EE0F15
:10412000FF1FDF01A656B94FEA56F94F20813181B2
:104130008D919C91282B392BF801EE55F94F8081F8
:1041400090E0282B392BF801EC55F94F808190E055
:10415000282B392B232B31F4FF208F2D880F880B30
:10416000842180831F141CF48F2D895102C08F2D50
:10417000875E60E00E944013282F882379F0F801C1
:10418000EC55F94F8081882349F4F801EE55F94F39
:1041900090E08081882309F491E09083F801EC5548
:1041A000F94F2083F801E558FB4F9081892F8F5FED
:1041B0008083843608F4CEC093569083A114B10452
:1041C00061F0F801EE0FFF1FE958FB4F80819181EC
:1041D000B501681B790B7183608371E0E71609F400
:1041E0007BC082E0E81629F48114910409F47EC0B2
:1041F00073C093E0E91609F047C06801CC0CDD1CE0
:1042000076E9672E76E0772E6C0C7D1CD301ED905D
:10421000FC90E114F10409F469C0F601E656F94F87
:1042200020813181C901B7010E94F3724B016E9D5B
:10423000C0016F9D900D7E9D900D1124281B390BA0
:1042400031832083F301118210829B0136952795DB
:10425000D601A256B94F8D919C911197280F391F05
:1042600011963C932E932031310508F43FC0F6019E
:10427000E958FB4F80819181019691838083205181
:1042800030402D933C9332C0F4E0EF1671F481146A
:10429000910411F5F801EE0FFF1FE958FB4F8081E3
:1042A000918118161906C4F021C029E12E1570F06D
:1042B0001F141CF48F2D845002C08F2D8C5F60E082
:1042C0000E944013F801EE55F94F8083F801EE5536
:1042D000F94F8081882351F0F801EE0FFF1FE95854
:1042E000FB4F80819181019691838083D801AB58E7
:1042F000BB4F8C91813019F08230F1F40FC0A114C2
:10430000B10441F1F801EE0FFF1FE958FB4F808126
:1043100091818A159B059CF02C9211C0C501CB960A
:10432000F801EE0FFF1FE958FB4F20813181821702
:10433000930714F433E03C93A114B10459F0F8014D
:10434000EE0FFF1FE958FB4F80819181A81AB90A2F
:10435000B182A082539490CE20917704309178045A
:104360008091A7069091A8068217930709F48DC043
:1043700080917504813009F070C080916E0182FFD8
:104380004BC08091800190918101892B09F444C038
:104390002E31310539F482E080936C048091610400
:1043A00080935E048091770490917804449739F467
:1043B00081E080936C048091610480935E0480911D
:1043C0007704909178040A9721F480916104809396
:1043D0005E048091770490917804049724F480918E
:1043E000610480935E0480916E0183FF15C080910B
:1043F0007704909178048E31910541F084319105D4
:1044000029F08A30910511F0049734F482E390E0AA
:1044100090936B0480936A0480916E0181FF2DC09C
:1044200020918001309181012115310549F0809161
:10443000770490917804A901481B590BCA0104C064
:1044400080917704909178046CE370E00E94F3729D
:10445000892B99F48091610404C0823071F48091B9
:10446000620480935E0480916E0183FF06C082E344
:1044700090E090936B0480936A048091770490910C
:1044800078049093A8068093A7068091B4068823A9
:1044900009F452C0E7EBF6E0A0E0B0E061E0E62E00
:1044A000F12CCC24CA94DC2C8701A2960FACA297E5
:1044B00002C0000F111F0A94E2F76091B406862F24
:1044C00090E00A2E02C0959587950A94E2F780FF46
:1044D0002EC0408151812091B5063091B606A2963A
:1044E0008FADA2978A1779F4CA0180959095281705
:1044F000390728F4240F351F3183208318C0D18257
:10450000C082601B12C02417350728F4421B530BCE
:10451000518340830CC011821082C7010A2E02C051
:10452000880F991F0A94E2F7681B6093B4061196EE
:104530003296A530B10509F60E944C138091BC0754
:10454000882319F081508093BC0780916D018823E6
:1045500009F466C080916804833308F461C08091D7
:10456000950590919605A0919705B09198050196B3
:10457000A11DB11D8093950590939605A093970575
:10458000B093980500E010E0FF248F2D0E94840E68
:1045900056E0969587955A95E1F7080F191FF39401
:1045A00094E0F91691F78091990590919A05081772
:1045B000190761F010939A050093990510929505DB
:1045C000109296051092970510929805E090950527
:1045D000F0909605009197051091980560916D01F6
:1045E00070E080E090E020E737E140E050E00E949A
:1045F000C8726E157F058007910790F42FE330E0B5
:1046000040E050E0E222F322042315233AE0E316CF
:10461000F1040105110521F48091620480935E0488
:1046200080917D04882319F0815080937D040E943D
:10463000776A0E94D26A0E940F15182F80916A042F
:1046400090916B04009729F0019790936B048093ED
:104650006A04112389F08091700190E024EF31E029
:10466000AC01429FC001439F900D529F900D1124B9
:1046700090936B0480936A048091590160E00E94DA
:104680004013882339F480916A0490916B04892B3C
:1046900009F4CCC0C79AE091EF07F0E0EE0FFF1FDE
:1046A000EF51F84F0190F081E02D812F09950E9484
:1046B000E46880915E04882341F480916C0488232F
:1046C00021F480916E04882311F084E105C080916B
:1046D0009106882321F081508093910608C0809133
:1046E000630090E096958795817080939206809103
:1046F0009206882321F0809165008F7E03C080910F
:104700006500806180936500A4968EAD9FADA497EF
:104710008F7190708230910521F0039709F088C065
:104720006EC08091660490916704892B39F487E00C
:104730000E94840E909367048093660480916604BF
:10474000909167048C0123E0000F111F2A95E1F777
:10475000081B190B87E00E94840E800F911F13E045
:10476000969587951A95E1F77C0100E010E090930B
:1047700067048093660420915801332727FD309504
:10478000432F532FC801B7010E94C87228E030E0C0
:1047900040E050E00E943C73B4E0EE0CFF1C001FB0
:1047A000111FBA95D1F7E20EF31E041F151F2091B9
:1047B00064043091650440E050E0C801B7010E94F4
:1047C0003C73209368048091A606805E8093A606C1
:1047D000882371F580915701281750F5233340F154
:1047E0008091630480935E0480916E0183FF20C0FA
:1047F00082E390E090936B0480936A0419C08091E7
:104800006B01869586958695877090E0BC01660F52
:10481000771F660F771F680F791F6A5F7A4F8FE5E2
:1048200094E045E050E00E94577302C0C79833CF30
:10483000C959DF4F0FB6F894DEBF0FBECDBFCF9181
:10484000DF911F910F91FF90EF90DF90CF90BF907D
:10485000AF909F908F907F906F905F904F903F9020
:104860002F9008951F93CF93DF939FEF9ABB1BBAAE
:1048700081E887BB8EE788BB8EE384BB81EC85BB78
:1048800011BA92BB88E082B987EF83B910926100B8
:104890001092620080E180936400909365000E9412
:1048A000A66880E487B985E886B987E083BF8CE98C
:1048B00081BF87B7836087BF8AE08EBD82E880931F
:1048C0008A0080917D00806280937D00EDB7FEB705
:1048D000329785E502C0808331974DE0EC3CF407C8
:1048E00009F0C8F784E494E59093E2078093E10728
:1048F00084E298E49093E4078093E30789E10E94BF
:10490000DA6878940E94926F0E94EC5D10915501D4
:1049100084B7813061F00E9471140E94D6130E9406
:10492000DC0E0E9421140E94E5130E94CA130E940B
:10493000DC100E94F614682F8EEB97E00E948B1813
:10494000809156010E94DA688091700190E024EF16
:1049500031E0AC01429FC001439F900D529F900DEA
:10496000112490936B0480936A0480915501181769
:1049700019F081E00E94BC5C0E9423262DE088E1B2
:1049800090E00FB6F894A89581BD0FBE21BD0E949E
:104990004E0FEC01E0916F01F0E0EE0FFF1FE050D1
:1049A000FF4F0190F081E02D09950E94F00E0E94CA
:1049B000DC1D80915804833019F4A8951092580496
:1049C0000E944E0F20915504309156048C1B9D0B74
:1049D0008217930708F4C9019093560480935504F5
:1049E000D6CFEDE7F0E08081857E808317981F9A0F
:1049F000AAE8B0E01C9210928B0082E88C93808130
:104A00008062808308956F927F928F929F92AF927F
:104A1000BF92CF92DF92EF92FF920F931F93CF93AB
:104A2000DF93909182019770809108018917C9F0F6
:104A3000909308010E94F1241EBC80E49CE99BBD78
:104A40008ABD1DBC1CBC87B7837C87BF8CE386BF37
:104A50008FE380937C0087B7806187BF1FBC8AE0AB
:104A60008EBD8091830185FD04C0E12C34E0F32EDE
:104A700003C0E12C25E0F22E409182014595459539
:104A800045954595440F485F9091840184E69802CE
:104A9000D0011124A85ABD4F882499248A1A9B0A50
:104AA00080915004992787FD909528EE33E0829FEE
:104AB000B001839F700D929F700D11246853704553
:104AC0006A1B7B0B0EEB17E0EBEFF6E050E0440FB8
:104AD000551F440F551F5F01A40EB51ECC24DD24C5
:104AE000CE18DF0888E5682E82E0782E6A1A7B0AE5
:104AF0001DC0C601E801288139812C153D0534F01F
:104B00002E153F0514F0C70101C0C901805A964F08
:104B10009401281B390B620F731F860D971D91831B
:104B20008083B383A28334960E5F1F4FEA15FB0583
:104B300001F7FA01E550F94F71836083B383A283D3
:104B4000158214828BEF96E090930A0180930901FD
:104B5000DF91CF911F910F91FF90EF90DF90CF9059
:104B6000BF90AF909F908F907F906F9008951F920D
:104B70000F920FB60F9211241F932F933F934F93D1
:104B80005F936F937F938F939F93AF93BF93EF93B5
:104B9000FF931CB580918B07882321F0C09A109257
:104BA0008B0704C0C09881E080938B07A091090116
:104BB000B0910A01FD01819191919BBD8ABDF09355
:104BC0000A01E093090112968D919C911397892B0C
:104BD000B9F48091830182958F7080958170809364
:104BE0008B0787B78F7E87BF0E9403258091820144
:104BF000877011F0833021F487B7806187BF789484
:104C000080915304811710F410935304809154043D
:104C1000181710F410935404809158048160809305
:104C20005804FF91EF91BF91AF919F918F917F9128
:104C30006F915F914F913F912F911F910F900FBEF8
:104C40000F901F9018950E94032587B7806187BF3A
:104C50000895FC01A091EF07B0E0AA0FBB1FAF5170
:104C6000B84FED93FC938FEB099580915F0480938F
:104C70005E0408959C019091EF07E92FF0E0E55163
:104C8000F84F8091F0078083E92FEF5FE093EF0703
:104C9000E53040F09093EF0785E098E160E00E94F6
:104CA0008713089580915F0480935E04F0E0EE0F17
:104CB000FF1FEF51F84F318320838FEBF9010995E6
:104CC0000895E091EF07EE23D1F0E150E093EF0774
:104CD00080915F0480935E041092F107F0E0DF01A1
:104CE000A551B84F8C918093F007EE0FFF1FEF5145
:104CF000F84F0190F081E02D8EEB0995089585E045
:104D000098E160E00E94871308958F929F92AF927E
:104D1000BF92CF92DF92EF92FF920F931F93CF93A8
:104D2000DF93182F7B014A015901C02E84FD04C076
:104D300044E0D42E05E005C01F70106635E0D32E88
:104D400004E08D2D8066181761F08D2D8064181792
:104D500041F09091BB07191664F4133611F0133427
:104D600041F4E701219680915F0480935E04802FD7
:104D700017C0802F8066181761F0802F8064181785
:104D800041F019160CF075C0123619F0123409F002
:104D900070C0E701219780915F0480935E048D2DA0
:104DA00090E00E946E6B882351F0CC27DD27CE194E
:104DB000DF09802F0E94F56B8D2D0E94F56B811409
:104DC000910491F481E0A816B10471F4103661F4F5
:104DD0001092BB07C0E0D0E0E114F10411F4C1E08F
:104DE000D0E080E60E94F56B8091DE079091DF07AE
:104DF000C81BD90BAC16BD0644F4812F0E94F56B7D
:104E00008091610480935E04E501C815D90544F4DE
:104E1000812F0E94F56B8091610480935E04E40110
:104E2000CE15DF05B1F0209739F4812F0E94E66B93
:104E300080915F0480935E048C2D83700E94BC5C23
:104E4000EC16FD0614F08FEF01C081E08093E007BF
:104E500002C01092E007CE01DF91CF911F910F9118
:104E6000FF90EF90DF90CF90BF90AF909F908F908A
:104E70000895E701A4CF0F93772767FD7095552715
:104E800047FD5095332727FD309501E00E94852688
:104E90000F9108950F93772767FD7095552747FD6C
:104EA0005095332727FD309502E00E9485260F910B
:104EB0000895FF920F931F93F82E162F042F80E86A
:104EC00060E0412F50E0202F0E9429671A3010F433
:104ED00085E701C08FE660E04FE2202F0E9400646A
:104EE0001A3010F485E701C08FE64F2D50E04F5F78
:104EF0005F4F60E0202F0E9429671F910F91FF9064
:104F000008959F92AF92BF92CF92DF92EF92FF925D
:104F10000F931F93CF93DF93F82ED62EEA01B22E74
:104F20009C2CE0919807F09199078091F607909159
:104F3000F7078E1B9F0B60E270E00E9407739B01D6
:104F40007093DF076093DE076115710521F0F09320
:104F5000F707E093F607E0919407F09195078091A9
:104F6000F4079091F5078E1B9F0B60E470E00E94A0
:104F70000773A62E662321F0F093F507E093F4075C
:104F8000E0919607F09197078091F2079091F307CF
:104F90008E1B9F0B60E470E00E940773C62E662391
:104FA00021F0F093F307E093F207AA2021F4CC203C
:104FB00011F4232B89F08091700190E024EF31E00F
:104FC000AC01429FC001439F900D529F900D112450
:104FD00090936B0480936A04209711F429E75FC0D3
:104FE0008091F007882309F041C08091BD07882394
:104FF00009F03CC0AA2011F48D2D09C09B2D9150C1
:105000008D2D8A1987FD80E098170CF4892F54E6BE
:10501000F51651F095E6F91699F4DD2011F08D2D75
:1050200001C08B2D81500CC02D2D30E08B2D90E0D8
:1050300001972817390714F080E002C08D2D8F5F8B
:10504000282F332727FD30958D2D90E0281739071D
:1050500011F442E00CC0F901EE0FFF1FEC0FFD1F31
:10506000859194910E94292680E06FC140E01092C2
:10507000BD078D2D6B2D0E9459272091230D2E5099
:105080008D2D90E0019666EF7FEF0E940773CB01B4
:10509000880F991F880F991F860F971F280F8CE480
:1050A00098E0622F0E94815E0115110511F430E035
:1050B0000AC08091F0079E2D8E1508F4982FF801F4
:1050C000E90FF11D34914091BB071416C4F1CC20B7
:1050D00011F18091F0078C1987FD80E0992D8915D9
:1050E0000CF4982F9093F0072091F107011511050A
:1050F00011F480E00BC0892FE91608F48E2DF80119
:10510000E80FF11D8491281708F4822F8093F1078E
:1051100080E68093550DAA2091F08091F0078823B6
:1051200071F08091F1078A1987FD80E0932F831732
:105130000CF4982F9093F10780E68093550DE0E6EC
:10514000FE16C9F1EF15B8F0F3E4FF1609F4AFC08D
:10515000FF1540F051E2F516E9F182E4F81609F086
:10516000D4C07CC094E4F91609F44EC0E5E4FE1600
:1051700009F0CBC05DC0F4E6FF1609F44AC0FF1584
:1051800048F052E6F51609F46EC083E6F81609F009
:10519000BCC091C091E8F916D1F0EFEBFE1629F0F2
:1051A000F5E6FF1609F0B1C048C01092F107109261
:1051B000F0078FEF09C0332309F4A7C01092BB0793
:1051C00014160CF4A2C081E08093BB079EC010921D
:1051D000BB070BC014161CF41092BB0796C080913D
:1051E000F007882311F0209719F40E9461268DC0E2
:1051F00080915F0480935E041092F1071092F00793
:1052000080E68093550D85C08091F107831709F4DE
:105210007CC0012B09F479C014160CF476C080917F
:10522000F107831710F48F5F13C01092F1076AC063
:105230008091F107882309F468C0012B09F465C047
:1052400014160CF462C08091F107882321F081507C
:105250008093F10757C03093F10754C08091F00755
:10526000891509F452C014160CF44FC08091F00750
:10527000891510F080E001C08F5F0115110509F458
:1052800070C0982FE81608F49E2DF801E90FF11D63
:10529000E491EF3F09F065C0EBCF8091F0078E15E8
:1052A00008F4E82E0E0D111DF801049126C080911E
:1052B000F007882351F1141644F18091F0078823F8
:1052C00011F4892D01C081500115110509F452C056
:1052D000982FE81608F49E2DF801E90FF11DE491CE
:1052E000EF3F09F047C0EBCF8091F0078E1508F42F
:1052F000E82E0E0D111DF8010491901708F4092FE6
:105300000093F10780E68093550DCD2B11F456E004
:1053100001C057E04091F007442319F41092BA07F6
:1053200013C0242F30E08091BA07281B3109852F44
:1053300090E08217930714F4451B04C0121613065D
:105340001CF041504093BA0781E0DF91CF911F914B
:105350000F91FF90EF90DF90CF90BF90AF909F9014
:1053600008958093F0079091F1070115110509F058
:1053700094CF08C08093F0079091F10701151105B3
:1053800009F0B2CF00E0BCCFCF92EF920F931F9302
:10539000C02E00E010E0EE240E9481271F910F91A3
:1053A000EF90CF9008950F93062F60E040E050E01B
:1053B00020E00E94C4290F9108950F93942F222377
:1053C00011F400E001C002E043E0949FA001112429
:1053D0004C54504F23E00E940A690F910895DC015C
:1053E000FB0105C09C9180818D9391934150442392
:1053F000C9F70895CF92DF92EF92FF920F931F9318
:10540000CF93DF93182F80E060E046EC58E122E074
:105410000E94CB64812F6BE04BE755E02CE008E065
:105420000E94C429882309F467C0F090F007FA9419
:105430001038A9F480E80E94F56B89E18093BC07DD
:1054400086E08F1518F08F2D0E946F7087E0F81698
:1054500011F40E94FE6F8091600480935E0418E056
:10546000EE24CF2CDD24C7FCD0944091BA074E0D1A
:10547000473019F4193380F13FC0C42FD0E0CC1667
:10548000DD0611F020E101C022E1AE014F5F5F4F68
:1054900082E1612F02E00E9421668091BC0788238F
:1054A00019F4CC16DD0609F000E0CE01880F991F33
:1054B000AC0123E0440F551F2A95E1F7481B590B17
:1054C00049535E4E88E1612F2EE00E940A69185F01
:1054D000E394103451F610C08091BC07882329F45E
:1054E00087E0F81611F422E001C020E086E0612F89
:1054F0004EEA54E10E94CB64DF91CF911F910F914E
:10550000FF90EF90DF90CF9008952F923F924F92AF
:105510005F926F927F928F929F92AF92BF92CF9243
:10552000DF92EF92FF920F931F93DF93CF93CDB74C
:10553000DEB762970FB6F894DEBF0FBECDBF8E8781
:1055400080E060E04BEB58E122E00E94CB648E8566
:105550006AE04BE755E02CE003E915E07DE0E72E3B
:105560003DE0C32E0E948127882309F446C3209181
:10557000F0072D878E858252843038F48091BB07E6
:1055800018161CF484E08093C60D8091BB07181692
:105590001CF032E03C8702C081E08C87AAE7BDE0C6
:1055A000BF83AE8391E4492E94E0592E1A8A198A5A
:1055B000E4E0F0E0FB87EA8723E030E039872887E2
:1055C00082E090E09D838C83A1E0B0E0BB83AA835E
:1055D000BD856B2E772467FC7094EC85E868EF87B7
:1055E000FC85F068F88B8091BA072A818217C0F495
:1055F0000A811B81081B110983E0000F111F8A9586
:10560000E1F780E0602F48E854E10E94066549898F
:105610005A894F5F5F4F8CE0602F20E00E9429671E
:105620008091BA073C81831708F092C06C817D811C
:10563000681B7109B3E0660F771FBA95E1F7162F63
:1056400084E040E954E10E940665D2014C91E98969
:10565000FA89A3E0EE0FFF1FAA95E1F729893A899D
:10566000E21BF30BEE5BFB4F20812F708C819D8141
:105670006816790631F48091F107882311F40F85BB
:1056800001C008E880E3612F50E00E9435689091E6
:10569000230DE989FA8973E0EE0FFF1F7A95E1F790
:1056A000A989BA89EA1BFB0BEE5BFB4F40814F7067
:1056B000EC81FD816E167F0631F48091F107813017
:1056C00011F40C8501C000E050E041565E4E892F78
:1056D000612F21E00E940A692C813D8162167306C8
:1056E000B9F58091BB07181634F08091DE079091D0
:1056F000DF07892B69F18091F107882371F4D201CA
:105700006C918E8570E040E050E02FEF30E002E0D9
:105710000E948526F20180831BC009891A8963E0F3
:10572000000F111F6A95E1F729893A89021B130BB3
:105730000E5B1B4FD8016C916F708E8540E021E0AD
:105740000E944A278F70F8019081907F982B908358
:105750008091BA07F8858F1708F043C0688579856E
:10576000681B710953E0660F771F5A95E1F7162FF2
:1057700084E044E954E10E940665AE81BF812C912A
:10578000E885F9856E167F0611F000E801C00889EA
:1057900080E3612F49890E94416828853985621616
:1057A0007306F9F409891A8943E0000F111F4A951D
:1057B000E1F789899A89081B190B0E5B1B4FD801E9
:1057C0006C9165956595659565958E8541E82FE7A2
:1057D0000E944A278295807FF80190819F70982BC4
:1057E0009083EA848091BA078E1508F074C06A85A8
:1057F0007B85681B710933E0660F771F3A95E1F7E7
:10580000F62E84E04AE954E10E9406651989D20126
:1058100015962C91EA85FB856E167F0631F48091F2
:10582000F107882311F4088901C000E880E36F2D97
:10583000412F0E944168D20116962C91EA85FB8582
:105840006E167F0631F48091F107813011F40889DA
:1058500001C000E88EE46F2D412F0E9441682A8527
:105860003B8562167306B9F58091F107882309F02C
:10587000BEC18091BB0718163CF08091DE07909165
:10588000DF07892B09F4B3C1D20115966C918E857F
:1058900070E040E050E02FEF30E002E00E9485260B
:1058A000F2018583A4C18091BB07181634F0809162
:1058B000DE079091DF07892B71F0D20116966C916B
:1058C0008E8570E040E050E02FEF30E002E00E9473
:1058D0008526F2018683E394E98289899A8923E007
:1058E000880F991F2A95E1F729893A89821B930B22
:1058F00003E4202E04E0302E280E391EAA24BB24F7
:1059000015E4C12E14E0D12EC80ED91E8091BA071D
:105910003981831708F0F1C0E32EFF24B701681B1B
:105920007109B3E0660F771FBA95E1F7162F84E08F
:105930004EE954E10E940665D6019C919F70450195
:10594000880C991C6E147F0431F48091F107882330
:1059500011F40C8501C000E0892F90E0082C02C0F2
:10596000959587950A94E2F783709070AC01440F87
:10597000551F480F591F4F555E4E80E3612F23E09E
:105980000E940A69F601408142954F7043706E147F
:105990007F0431F48091F107813011F40C8501C04E
:1059A00000E050E00A2C02C0559547950A94E2F7B2
:1059B0004170507047505E4F4C54504F88E4612FF7
:1059C00021E00E940A69D1012C916E147F0431F408
:1059D0008091F107823011F4088901C000E884E564
:1059E000612F49890E9441686E147F0409F085C0C7
:1059F0008091BB0718163CF08091DE079091DF077D
:105A0000892B09F47AC08091F107813089F18130C6
:105A100020F0823009F071C063C0F60110811F7060
:105A2000612F70E0082C02C0759567950A94E2F723
:105A300063708E8570E040E050E023E030E002E0EB
:105A40000E948526082C02C0880F991F0A94E2F74D
:105A500023E030E002C0220F331F8A94E2F7209542
:105A60002123280F2F70D6018C91807F822B44C078
:105A7000F601108112951F701370612F70E00A2CCF
:105A800002C0759567950A94E2F761708E8570E0A3
:105A900040E050E021E030E002E00E9485260A2C40
:105AA00002C0880F991F0A94E2F721E030E00A2C27
:105AB00002C0220F331F0A94E2F720952123280FFA
:105AC00023702295207FD6018C918F7C822B8C9322
:105AD0008091E007882389F084E08093C60D0DC093
